S00D00005461736B352E737265634F
S113000081C00000A0C000009EC000009CC0000091
S11300109AC000000C94EC0B0C94C70B94C0000025
S11300200C94FB0A90C000008EC000008CC000003D
S11300308AC0000088C0000086C0000084C00000A0
S113004082C0000080C000007EC000007CC00000B0
S11300507AC0000078C0000076C0000074C00000C0
S113006072C000000C944B096EC000006CC000000C
S11300706AC0000068C0000066C0000064C00000E0
S113008062C0000060C000005EC000005CC00000F0
S11300905AC0000058C0000056C0000054C0000000
S11300A052C0000050C000004EC000004CC0000010
S11300B04AC0000048C0000046C0000044C0000020
S11300C042C0000040C000003EC000000C94AC0AD6
S11300D03AC0000038C0000036C0000034C0000040
S11300E032C0000071099D0A9109A909AC09AF0940
S11300F0B909C309C909880A81099D0A9D09CF095B
S1130100CC095E0A11241FBECFEFD1E2DEBFCDBF02
S113011000E00CBF17E0A0E0B2E0E6E0F2E400E0AB
S11301200BBF02C007900D92A63CB107D9F72CE093
S1130130A6ECB7E001C01D92A730B207E1F70E9418
S11301401D160C9401215CCFCF93C82F8A3011F473
S11301508DE0FADFE0EDF0E0908195FFFDCFC093F4
S1130160D600CF91089587B1876F87B988B1807819
S113017088B9089586E69EE00197F1F7000040985B
S1130180419880E388B9429AEFEFF7E43197F1F7A9
S113019000C000004298E6E6FEE03197F1F7000067
S11301A04098419888B9429AEFEFF7E43197F1F714
S11301B000C000004298E6E6FEE03197F1F7000047
S11301C04098419888B9429A8FEF97E40197F1F7E4
S11301D000C000004298E6E6FEE03197F1F7000027
S11301E04098419880E288B9429A8FEF97E401974A
S11301F0F1F700C000004298089598B19F7098B933
S113020098B1282F207F922B98B940984198429A10
S1130210EFEFF7E43197F1F700C00000429898B18E
S11302209F7098B998B18295807F892B88B940983E
S11302304198429A8FEF97E40197F1F700C00000CC
S11302404298089598B19F7098B998B1282F207F4B
S1130250922B98B9409A4198429AEFEFF7E431977C
S1130260F1F700C00000429898B19F7098B998B116
S11302708295807F892B88B9409A4198429A8FEF62
S113028097E40197F1F700C000004298089580E8D0
S1130290B4CF0895CF93DF93EC018881882329F0AC
S11302A02196D0DF89918111FCCFDF91CF91089500
S11302B086E69EE00197F1F7000088E29EDF81E088
S11302C09CDF86E09ADF8EE098DF80E896CF089581
S11302D0823069F018F4813031F00895833059F098
S11302E0843069F008958FE7860F87CF08958FEBE8
S11302F0860F83CF089583E9860F7FCF089583ED1A
S1130300860F7BCF08950F931F93CF93DF938A01BA
S1130310E901882311F0611102C0B9DF01C0D8DFFF
S1130320C530D105C1F49801329522952F70232749
S11303303F702327A7E4B3E00E94151E9695879586
S11303409695879596958795C09690937D0880930A
S11303507C0878DF04C0C430D10509F0BEC0980120
S1130360369527953695279536952795A5ECB0E2D1
S11303700E94151EAC01529542954F7045275F703F
S1130380452750935F0A40935E0A9A01ADECBCEC9A
S11303900E94151E969587959695879596958795AF
S11303A09C01220F331F880F991F880F991F880FF4
S11303B0991F820F931F9A01281B390BC901C096FC
S11303C09093FE0B8093FD0B3DDF980136952795A6
S11303D036952795ABE7B4E10E94151EAC015695FE
S11303E0479550935F0A40935E0A9A01ADECBCECCA
S11303F00E94151E9695879596958795969587954F
S11304009C01220F331F880F991F880F991F880F93
S1130410991F820F931F9A01281B390BC901C0969B
S11304209093FA0B8093F90B0DDF04C0C230D10511
S113043009F058C09801ADECBCEC0E94151EAC014B
S113044056954795569547955695479550935F0A07
S113045040935E0A9A010E94151E9695879596957B
S11304608795969587959C01220F331F880F991FB6
S1130470880F991F880F991F820F931F9A01281BB9
S1130480390BC901C0969093770A8093760ADADE15
S11304909801ADECBCEC0E94151E96958795969537
S11304A08795969587959C01220F331F880F991F76
S11304B0880F991F880F991F820F931F9801281B7B
S11304C0390BC901C0969093FC0B8093FB0BBADEE9
S11304D0269764F085E4B6DE09C0C330D10509F07F
S11304E0A5CF73CFC130D10599F7D2CFDF91CF918A
S11304F01F910F91089580E880DE82EC96E0CADEB9
S113050080EC7BDE82EC96E0C5DEC1CE08952F92AE
S11305103F924F925F926F927F928F929F92AF928F
S1130520BF92CF92DF92EF92FF920F931F93CF93DC
S1130530DF93E8E7FAE00F2EFBE4AF2EB12CF02DA9
S1130540B182A0820F2EFDE14F2E55245394F02D3D
S1130550538242828FEF9FEF9583848397838683B0
S1130560CC24CA94D12CD186C086ACE3B0E0B38746
S1130570A287958784879787868720EF30E0318B21
S1130580208B0F2EFDE22F2E312CF02D338A228A60
S1130590158A148A6CE271E0778B668B0F2EF1EE6C
S11305A08F2E912CF02D918E808E0EE110E0138F02
S11305B0028F958F848F978F868F42ED50E051A3E1
S11305C040A3CFE0D0E0D3A3C2A395A384A397A371
S11305D086A303EC10E011A700A713A612A695A703
S11305E084A797A786A744EB50E051AB40AB09E53D
S11305F011E013AB02AB35AB24AB77AB66AB05EACA
S113060010E011AF00AF0AE411E013AF02AF95AFF1
S113061084AF9093B70A8093B60AE6E9F0E0F093CA
S1130620B90AE093B80A0BE311E01093BB0A0093F4
S1130630BA0A9093BD0A8093BC0A9093BF0A809330
S1130640BE0A0F2EF7E86F2E712CF02D7092C10A9E
S11306506092C00A7093C30A6093C20A9093C50A59
S11306608093C40A9093C70A8093C60AE8E7F0E02F
S1130670F093C90AE093C80A5092CB0A4092CA0A7E
S11306805093CD0A4093CC0A3093CF0A2093CE0ADC
S11306900F2EF9E6EF2EF12CF02DF092D10AE09214
S11306A0D00A0EE011E01093D30A0093D20A90937B
S11306B0D50A8093D40A9093D70A8093D60A0AE580
S11306C010E01093D90A0093D80AD092DB0AC092A2
S11306D0DA0A9093DD0A8093DC0A9093DF0A809310
S11306E0DE0AB092E10AA092E00A3093E30A209372
S11306F0E20A9093E50A8093E40A9093E70A8093D0
S1130700E60AB093E90AA093E80A9092EB0A809271
S1130710EA0AF093ED0AE093EC0A5093EF0A40934F
S1130720EE0A3092F10A2092F00A0F2EF2EDCF2E4B
S1130730D12CF02DD092F30AC092F20A9093F50ACC
S11307408093F40A9093F70A8093F60A0F2EFEE141
S1130750CF2ED12CF02DD092F90AC092F80A0F2E88
S1130760F3ECCF2ED12CF02DD092FB0AC092FA0AD2
S11307709093FD0A8093FC0A9093FF0A8093FE0AEB
S1130780D093010BC093000B5093030B4093020BC7
S11307909093050B8093040B9093070B8093060BA7
S11307A01092090B1092080B0F2EF5EACF2ED12CC4
S11307B0F02DD0920B0BC0920A0BB0930D0BA093AB
S11307C00C0BF0930F0BE0930E0B0F2EF9E5CF2ECD
S11307D0DD24D394F02DD092110BC092100B0F2E68
S11307E0F6E9CF2ED12CF02DD092130BC092120B20
S11307F09093150B8093140B9093170B8093160B07
S11308000F2EFAE4CF2EDD24D394F02DD092190BC1
S1130810C092180B70921B0B60921A0B90931D0BD5
S113082080931C0B90931F0B80931E0B0F2EFBE3E6
S1130830CF2EDD24D394F02DD092210BC092200B27
S1130840F093230BE093220B9093250B8093240BBE
S11308509093270B8093260B7093290B6093280B9E
S1130860F0922B0BE0922A0B10922D0B10922C0B72
S1130870B0932F0BA0932E0B1093310B0093300BDE
S11308805092330B4092320B9093350B8093340B80
S11308909093370B8093360B5093390B4093380B5E
S11308A010923B0B10923A0B30933D0B20933C0B70
S11308B090933F0B80933E0B5093410B4093400B1E
S11308C01092430B1092420BB093450BA093440B30
S11308D07093470B6093460B5093490B4093480B1E
S11308E010924B0B10924A0BF0934D0BE0934C0B70
S11308F030934F0B20934E0B1092510B1092500BD0
S11309005093530B4093520B7093550B6093540BBD
S11309109093570B8093560BB093590BA093580B9D
S1130920F0935B0BE0935A0B30935D0B20935C0BBD
S113093090935F0B80935E0BB093610BA093600B5D
S11309403093630B2093620B7093650B6093640B7D
S11309505093670B4093660BB093690BA093680B9D
S113096030936B0B20936A0B10926D0B10926C0BEF
S1130970F0936F0BE0936E0B3093710B2093700B1D
S1130980B093730BA093720B5093750B4093740B3D
S11309909093770B8093760B7093790B6093780B1D
S11309A010927B0B10927A0BF0937D0BE0937C0BEF
S11309B090937F0B80937E0B7093810B6093800BDD
S11309C0F093830BE093820B5093850B4093840B3D
S11309D0B093870BA093860B7093890B6093880B5D
S11309E0F0938B0BE0938A0B30938D0B20938C0B3D
S11309F010928F0B10928E0BF093910BE093900B4F
S1130A00B093930BA093920B7093950B6093940BFC
S1130A109093970B8093960BB093990BA093980B9C
S1130A2030939B0B20939A0B90939D0B80939C0B7C
S1130A3090939F0B80939E0BF093A10BE093A00BDC
S1130A407093A30B6093A20B9093A50B8093A40BBC
S1130A509093A70B8093A60B7093A90B6093A80B9C
S1130A60F093AB0BE093AA0B9093AD0B8093AC0B7C
S1130A709093AF0B8093AE0B1092B10B1092B00B0E
S1130A805093B30B4093B20B9093B50B8093B40B7C
S1130A909093B70B8093B60B5093B90B4093B80B5C
S1130AA01092BB0B1092BA0B9093BD0B8093BC0BAE
S1130AB09093BF0B8093BE0B3093C10B2093C00B5C
S1130AC0B093C30BA093C20B9093C50B8093C40B3C
S1130AD09093C70B8093C60B5093C90B4093C80BDC
S1130AE0B093CB0BA093CA0B9093CD0B8093CC0BFC
S1130AF09093CF0B8093CE0BF093D10BE093D00B5C
S1130B003093D30B2093D20B9093D50B8093D40BBB
S1130B109093D70B8093D60BB093D90BA093D80B9B
S1130B207093DB0B6093DA0B9093DD0B8093DC0BFB
S1130B309093DF0B8093DE0B1092E10B1092E00B8D
S1130B40F093E30BE093E20B9093E50B8093E40BBB
S1130B509093E70B8093E60B7093E90B6093E80B9B
S1130B605093EB0B4093EA0B9093ED0B8093EC0BBB
S1130B709093EF0B8093EE0B3093F10B2093F00BDB
S1130B801092F30B1092F20B9093F50B8093F40BED
S1130B909093F70B8093F60BEEEDF8E082E090E093
S1130BA09183808328E130E0338322831582148289
S1130BB01782168221E030E03187208723E030E07D
S1130BC0338722871586148617861686918B808B29
S1130BD084E090E0938B828B49E150E0558B448B09
S1130BE044E250E0578B468B318F208F25E030E074
S1130BF0338F228F158E148E178E168E91A380A399
S1130C0086E090E093A382A315A214A217A216A2D1
S1130C1031A720A727E030E033A722A715A614A602
S1130C2017A616A691AB80AB88E090E093AB82AB9D
S1130C3045E250E055AB44AB46E250E057AB46AB1F
S1130C4031AF20AF29E030E033AF22AF15AE14AEA0
S1130C5010921D0910921C0990931F0980931E097C
S1130C608AE090E09093210980932009109223094F
S1130C701092220910922509109224093093270911
S1130C80209326092BE030E030932909209328098A
S1130C9010922B0910922A0910922D0910922C09F6
S1130CA090932F0980932E098CE090E09093310962
S1130CB0809330094CE150E050933309409332095A
S1130CC04DE150E05093350940933409309337098E
S1130CD0209336092DE030E0309339092093380908
S1130CE010923B0910923A0910923D0910923C0966
S1130CF090933F0980933E098EE090E090934109E0
S1130D0080934009109243091092420910924509B8
S1130D10109244093093470920934609D093490916
S1130D20C093480910924B0910924A0910924D0938
S1130D3010924C0990934F0980934E0920E130E0C2
S1130D40309351092093500987E290E0909353091E
S1130D508093520988E290E0909355098093540956
S1130D60D0935709C093560981E190E090935909B3
S1130D708093580910925B0910925A0910925D09E8
S1130D8010925C0930935F0920935E0922E130E000
S1130D9030936109209360091092630910926209EB
S1130DA0109265091092640990936709809366090B
S1130DB083E190E0909369098093680910926B092C
S1130DC010926A0910926D0910926C0930936F09A0
S1130DD020936E0924E130E0309371092093700967
S1130DE040E250E0509373094093720941E250E0AD
S1130DF05093750940937409909377098093760909
S1130E0085E190E0909379098093780910927B09A9
S1130E1010927A0910927D0910927C0930937F090F
S1130E2020937E0926E130E03093810920938009E4
S1130E3010928309109282091092850910928409F4
S1130E40909387098093860987E190E090938909BC
S1130E508093880910928B0910928A0910928D0947
S1130E6010928C0986E190E090938F0980938E090B
S1130E7088E190E09093910980939009C9E2D0E0D1
S1130E80D0939309C09392090F2EFAE2AF2EB12C9E
S1130E90F02DB0929509A092940981E090E090938E
S1130EA0970980939609E7E1F0E0F0939909E093BC
S1130EB0980910929B0910929A0910929D09109218
S1130EC09C090F2EF3E08F2E912CF02D90929F0908
S1130ED080929E096AE170E07093A1096093A00971
S1130EE0A4E2B0E0B093A309A093A2091092A509CB
S1130EF01092A4090F2EF9E16F2E712CF02D70922F
S1130F00A7096092A6094BE150E05093A9094093C8
S1130F10A80985E290E09093AB098093AA090F2E6B
S1130F20FCE24F2E512CF02D5092AD094092AC09A9
S1130F307093AF096093AE092CE130E03093B109AE
S1130F402093B00986E290E09093B3098093B209AC
S1130F500DE210E01093B5090093B4090BE010E022
S1130F601093B7090093B6095093B9094093B8098F
S1130F708DE190E09093BB098093BA091092BD096A
S1130F801092BC091093BF090093BE093093C109A4
S1130F902093C0092EE130E03093C3092093C209A5
S1130FA01092C5091092C4099093C7098093C60989
S1130FB08FE190E09093C9098093C80907E210E09B
S1130FC01093CB090093CA090F2EFEE22F2E312C69
S1130FD0F02D3092CD092092CC093093CF09209383
S1130FE0CE096894EE24E5F8F12CF092D109E09250
S1130FF0D00908E210E01093D3090093D2090F2E10
S1131000FFE2CF2ED12CF02DD092D509C092D40975
S11310100F2EF3E1CF2ED12CF02DD092D709C09210
S1131020D6099093D9098093D80901E210E010936E
S1131030DB090093DA091092DD091092DC09D092E1
S1131040DF09C092DE09F092E109E092E0090F2E77
S1131050F2E2EF2EF12CF02DF092E309E092E20996
S11310601092E5091092E4091093E7090093E60948
S113107003E210E01093E9090093E809D093EB0927
S1131080C093EA09C0E3D0E0D093ED09C093EC0922
S1131090F092EF09E092EE09B093F109A093F00900
S11310A0B092F309A092F209ABE2B0E0B093F50973
S11310B0A093F4099092F7098092F6097092F909C5
S11310C06092F8091093FB090093FA091092FD0944
S11310D01092FC090F2EF7E0CF2ED12CF02DD092D8
S11310E0FF09C092FE097093010A6093000A1092EE
S11310F0030A1092020A1092050A1092040AD0926E
S1131100070AC092060A5093090A4093080A1092EB
S11311100B0A10920A0A10920D0A10920C0A0F2E52
S1131120FFE0CF2ED12CF02DD0920F0AC0920E0AE0
S11311303093110A2093100A1092130A1092120A83
S11311401092150A1092140AD092170AC092160A25
S11311509093190A8093180A10921B0A10921A0A83
S113116010921D0A10921C0AF0931F0AE0931E0AA3
S1131170F092210AE092200A1092230A1092220A85
S11311801092250A1092240AF093270AE093260A63
S11311901093290A0093280A10922B0A10922A0A03
S11311A010922D0A10922C0A10932F0A00932E0AE3
S11311B05092310A4092300A1092330A1092320A45
S11311C01092350A1092340A7093370A6093360AE3
S11311D0B093390AA093380A10923B0A10923A0A43
S11311E010923D0A10923C0A50933F0A40933E0AE3
S11311F03092410A2092400A1092430A1092420A05
S11312001092450A1092440A3093470A2093460AE2
S11312100DE210E01093490A0093480A10924B0A19
S113122010924A0A10924D0A10924C0A90934F0A57
S113123080934E0AD093510AC093500A1092530AD5
S11312401092520A1092550A1092540AF092570AB8
S1131250E092560A2FE230E03093590A2093580A5C
S113126010925B0A10925A0A10925D0A10925C0A5C
S1131270DF91CF911F910F91FF90EF90DF90CF906E
S1131280BF90AF909F908F907F906F905F904F90A2
S11312903F902F9008951F920F920FB60F92112432
S11312A00BB60F924F935F936F937F938F939F939C
S11312B0EF93FF938091C60088230CF030C1982FE0
S11312C09F77E09116024E2F50E0FA013197E031FA
S11312D0F10508F032C18827EE58FF4F8F4F0C9468
S11312E00D1EE0913C08F0E0EF5AF74F9083809197
S11312F03C088F5F80933C0880913C0880930501F3
S11313001CC1E0913B08F0E0E35CF74F90838091CF
S11313103B088F5F80933B0880913B0880930501D5
S11313200CC1E0913808F0E0EB59F74F90838091BD
S113133038088F5F8093380800C1E0913708F0E0E7
S1131340EE59F54F9083809137088F5F809337086B
S1131350F4C090931802F1C090931702EEC08091EC
S11313603A088913EAC080913A088F5F80933A085B
S1131370E4C0809139088913E0C0809139088F5FF7
S113138080933908DAC080913608890F8093360833
S1131390D4C090931B02D1C090933508CEC0E09185
S11313A02E08F0912F08EB59F74F80818F3751F0B9
S11313B0E0912E08F0912F08EB59F74F808180932C
S11313C0F80B09C0E0912E08F0912F08EE59F54F63
S11313D0808180937B0880913508813081F4E0918D
S11313E02E08F0912F08EB59F74F9083E0912E08C7
S11313F0F0912F08EE59F54F8FE780830FC0E091ED
S11314002E08F0912F08EE59F54F9083E0912E08A5
S1131410F0912F08EB59F74F8FE780838091F80BF9
S11314208F3719F1E0ECF0E0808185FFFDCF8FE08C
S11314308093C600E0ECF0E0808185FFFDCF81E879
S11314408093C6009091F80BE0ECF0E0808185FF7A
S1131450FDCF80E18093C6009068E0ECF0E08081ED
S113146085FFFDCF9093C60022C0E0ECF0E08081C0
S113147085FFFDCF8FE08093C600E0ECF0E0808133
S113148085FFFDCF82E88093C60090917B08E0EC55
S1131490F0E0808185FFFDCF80E18093C6009068F5
S11314A0E0ECF0E0808185FFFDCF9093C60081E001
S11314B090E090933108809330083FC080913508C4
S11314C0813081F4E0912E08F0912F08EB59F74F09
S11314D09083E0912E08F0912F08EE59F54F8FE795
S11314E080830FC0E0912E08F0912F08EE59F54F3C
S11314F09083E0912E08F0912F08EB59F74F8FE776
S1131500808381E090E0909331088093300815C087
S113151081E090E09093DB078093DA070EC080931C
S11315201602823019F08C3029F007C081E08093D4
S1131530330803C081E080933208FF91EF919F91BB
S11315408F917F916F915F914F910F900BBE0F9090
S11315500FBE0F901F9018951F920F920FB60F9207
S113156011240BB60F928F939F93EF93FF93809167
S1131570D60090913308911118C08F3F81F0E0910B
S11315803C08F0E0EF5AF74F808380913C088F5F6E
S113159080933C0880913C088093050121C01092FF
S11315A0050181E0809333081BC0909132089111AA
S11315B017C08F3F81F0E0913B08F0E0E35CF74F08
S11315C0808380913B088F5F80933B0880913B0828
S11315D08093050105C01092050181E080933208D3
S11315E0FF91EF919F918F910F900BBE0F900FBEC3
S11315F00F901F9018951F920F920FB60F921124FF
S11316008F9381E08093610A8F910F900FBE0F90AA
S11316101F901895259A2D9A0895E1E8F0E010821C
S11316208CEF8093850081E08093840093E0909315
S113163089008FEF809388009093870080938600C1
S11316408BEA80938000109282008CE0808308955E
S113165010928900682F70E080E090E00E94571D8E
S11316602BE734E14EEE5FE30E94BE1C20E030E045
S11316704CE052E40E945A1C0E942B1D6093880087
S113168008953B9A4398089586B1886088B908956F
S113169086B1877F88B9089510BA11BA10920701EC
S11316A010920801089581B18F6081B982B1807F61
S11316B082B9EAE0F1E0808188618083EBE0F1E0C7
S11316C080818861808308956C98749A08956D98D8
S11316D0759A0895E8DFF8DFFADF0E94B300DCDFD3
S11316E0D0CF0895E1E2F1E010828FEF80932501DD
S11316F091E0909324011092290180932801109283
S11317002B0180932A0110922D0180932C0189EAE8
S1131710809320018BE080830895EAE7F0E0108253
S113172010927B0080E280937C0080E880BF86E892
S113173080830895883018F098E090937B00877038
S1131740806280937C00EAE7F0E08081806480839B
S1131750808184FFFDCF80917900EAE7F0E09081F9
S11317609061908310927B000895F894EAE6F0E08B
S1131770808182608083EC9A78940895F894EAE6F4
S1131780F0E0808188608083ED9A789408951F92B8
S11317900F920FB60F9211248F939F93AF93BF9321
S11317A08091CE079091CF07A091D007B091D10737
S11317B00196A11DB11D8093CE079093CF07A093EE
S11317C0D007B093D107BF91AF919F918F910F90A4
S11317D00FBE0F901F9018951F920F920FB60F9285
S11317E011248F939F93AF93BF938091D2079091CD
S11317F0D307A091D407B091D5070196A11DB11DBF
S11318008093D2079093D307A093D407B093D507BE
S1131810BF91AF919F918F910F900FBE0F901F902A
S1131820189592B1907F8F70982B92B9089586E0A5
S1131830F8CF089585E0F5CF08958AE0F2CF0895B2
S113184080E0EFCF0895CF92DF92EF92FF920F9353
S11318501F93BC0180E090E00E94571D28E431EE04
S113186042E850E40E94BE1C0E942B1DAB0160E0C4
S113187070E01092CE071092CF071092D00710920A
S1131880D1071092D2071092D3071092D407109266
S1131890D50791E0E0E0C090CE07D090CF07E0906C
S11318A0D007F090D1070091D2071091D30720916F
S11318B0D4073091D507892F041715072607370752
S11318C008F48E2F811109C0892FC416D506E606A7
S11318D0F70608F48E2F8823F1F2B2DF1F910F91DF
S11318E0FF90EF90DF90CF900895CF93DF93EC01BA
S11318F0A1DF9FEF9093280190932A01CE01A3DFEB
S1131900DF91CF910895CF93DF93EC0196DF9FEFA2
S11319109093280190932A01CE0195DFDF91CF9116
S113192008958FEF809304011092050108958DB1FD
S11319308DB9EAE6F0E0808180688083EF9A0895AB
S1131940F894C8DEE1ECF0E010821092C00026E0CA
S11319502093C2009FE59093C4001092C50088E9CB
S11319608083E1EDF0E010821092D0002093D20049
S11319709093D4001092D5008083F7DEFFDECDDE95
S1131980B1DE0E94BA000E94580144DE46DEC9DF7F
S1131990CEDF78940895BC0180E090E00E94571D4A
S11319A025EE30ED4AEA50E40E94BE1C0E942B1D35
S11319B0AB01BC011092CE071092CF071092D00752
S11319C01092D1078091CE079091CF07A091D007B4
S11319D0B091D107481759076A077B0798F730CFAA
S11319E00895CF93DF93EC0122DF9091100290933E
S11319F0280190932A01CE01CEDFDF91CF91089583
S1131A004F925F926F927F928F929F92AF92BF920A
S1131A10CF92DF92EF92FF920F931F93CF93DF93B6
S1131A20CDB7DEB7C05CD1090FB6F894DEBF0FBEE8
S1131A30CDBFDE01AF59BF4F20E6FD0111922A95BB
S1131A40E9F7EEE7F8E08E010F5F1F4F78016D01B3
S1131A500EED18E0970163E670E04FEF5FEF6193DE
S1131A607193D9014D935D939D01D6011D921D92F1
S1131A706D01E017F10799F7FC01AC01445F5F4F7A
S1131A808FEF9FEF61E070E02081318121153105F6
S1131A9009F1220F331FD901A458B74F1D921C928C
S1131AA0019620813181DC01AA0FBB1F01E010E007
S1131AB00C0F1D1FA00FB11F2D933C93D90111973B
S1131AC0AA0FBB1F21E630E02C0F3D1FA20FB31F4E
S1131AD06D937C933296E417F507B1F6AE2C9F2CE8
S1131AE0812C712C6894BB24B2F8612CCC24C3944F
S1131AF0D12CA981BA81119799236CF0EA2DF92D83
S1131B00282D372D2F5F3F4F4281538141935193AD
S1131B1082179307BCF70197FD01EE0FFF1FEE0F2D
S1131B20FF1FEE0FFF1FE252F74F2B2D362DAA0F8A
S1131B30BB1FAD014258574F2A0161917191611544
S1131B407105D1F1D2010D911C910F5F1F4FAB01B3
S1131B50415051097A01EE0CFF1CD701A258B74F2E
S1131B60ED90FC90E016F10644F07A01EE0CFF1CB7
S1131B70D701A258B74F0D931C938A01000F111F70
S1131B80A1E6B0E0AC0FBD1F0A0F1B1FD8010D91D9
S1131B901C9111970130110579F0CD92DC920196D8
S1131BA0AC01440F551F01E010E00C0F1D1F400F46
S1131BB0511FDA016D937C932150310909F0BDCF97
S1131BC029813A812F3F3F4F09F093CF8F3FEFEFA9
S1131BD09E0709F08ECFC054DF4F0FB6F894DEBFD6
S1131BE00FBECDBFDF91CF911F910F91FF90EF906A
S1131BF0DF90CF90BF90AF909F908F907F906F9029
S1131C005F904F900895DF92EF92FF920F931F938E
S1131C10CF93DF939923C4F422273327281B390B4E
S1131C20253B310534F0815B9E4F5FDEE12CF12CC6
S1131C301DC027EE3FEFA901481B590BCA0163DE03
S1131C40EE24E394F12C12C0853B91055CF02FE463
S1131C5031E0F901E81BF90BCF0155DEEE24E394E2
S1131C60F12C04C0499741DEE12CF12CE9DDFFEFB2
S1131C702FE342E0F15020404040E1F700C0000073
S1131C8008E211E00F2EF4E6DF2EF02DCAE2D1E0D7
S1131C9083E050DD8093CD0782E04CDD8093CC0758
S1131CA081E048DD8093CB074091CD0750E023E0ED
S1131CB030E061E081E00E9483014091CC0750E074
S1131CC023E030E065E081E00E9483014091CB078E
S1131CD050E023E030E069E081E00E948301E114F8
S1131CE0F10429F4A7DDF801D082D88204C0A5DD6F
S1131CF0F801D082D8828091CC07883348F480914F
S1131D00CD07893728F48091CB07893708F4C0CFF1
S1131D1097DDDF91CF911F910F91FF90EF90DF90AE
S1131D2008959C01FC01EB59F74F80818F3729F10D
S1131D30E0ECF0E0908195FFFDCF8FE08093C6004A
S1131D40E0ECF0E0908195FFFDCF81E88093C60040
S1131D50F901EB59F74F9081E0ECF0E0808185FFC9
S1131D60FDCF8EE08093C6009068E0ECF0E08081C7
S1131D7085FFFDCF9093C60024C0E0ECF0E0908195
S1131D8095FFFDCF8FE08093C600E0ECF0E09081FA
S1131D9095FFFDCF82E88093C600F901EE59F54F17
S1131DA09081E0ECF0E0808185FFFDCF8EE08093B0
S1131DB0C6009068E0ECF0E0808185FFFDCF909351
S1131DC0C60081E090E09093310880933008089534
S1131DD0CF93892B29F5CAE58C2F3ADC29E989E5CB
S1131DE091E0215080409040E1F70000C150A0F7FD
S1131DF02FEF8FE794E0215080409040E1F700C03E
S1131E000000C0E08C2F24DC29E989E591E0215011
S1131E1080409040E1F70000CF5FCB3599F725C0B3
S1131E20CAE58C2F15DC29E989E591E02150804031
S1131E309040E1F70000CF5FC53B99F72FEF8FE7A4
S1131E4094E0215080409040E1F700C00000C4EBD2
S1131E508C2FFEDB29E989E591E0215080409040F8
S1131E60E1F70000C150C93599F7CF9108952F9239
S1131E703F924F925F926F927F928F929F92AF9216
S1131E80BF92CF92DF92EF92FF920F931F93CF9363
S1131E90DF93CDB7DEB728970FB6F894DEBF0FBE39
S1131EA0CDBF4C011092280110922A018091120298
S1131EB090911302009709F041C0E0911902F0914A
S1131EC01A023197EE0FFF1FEE0FFF1FE80DF91DE9
S1131ED0EE0FFF1FE858F54FA080B180E091190282
S1131EE0F0911A023197EE0FFF1FEE0FFF1FE80D5E
S1131EF0F91DEE0FFF1FE858F54F008111810856B8
S1131F001140B801012E000C880B990B0E94591D39
S1131F106B017C01E894F7F8B5010B2C000C880BDD
S1131F20990B0E94591D9B01AC015F77C701B60153
S1131F300E94E51D1816ACF0580113C0E091190277
S1131F40F0911A023197EE0FFF1FEE0FFF1FE80DFD
S1131F50F91DEE0FFF1FE858F54FA080B180A81AB5
S1131F60B90AB5010B2C000C880B990B0E94591D62
S1131F709F7720E030E044E352E40E94E51D181608
S1131F800CF0A4C386E490E02CDDC5013CDEE091B6
S1131F901902F0911A023197EE0FFF1FEE0FFF1F87
S1131FA0E80DF91DEE0FFF1FE858F54F8081918170
S1131FB090931302809312022091D8073091D9078D
S1131FC02130310509F09FC366246394712C02C04B
S1131FD0612C712C2091D6073091D707232B09F05F
S1131FE0E6C0E0913A08F0E0EF5AF74FE081209123
S1131FF0C8073091C907F0E03197EE0FFF1FEE0FCD
S1132000FF1FE20FF31FEE0FFF1FEE0FFF1FEA5D2E
S1132010FC4F408151818417950721F481E090E0C1
S1132020D7DEAAC1E0913A08F0E0EF5AF74FE08119
S1132030F0E03197EE0FFF1FEE0FFF1FE20FF31FCB
S1132040EE0FFF1FEE0FFF1FEA5DFC4F428153812D
S11320508417950721F480E090E0BADE8DC1E09109
S11320603A08F0E0EF5AF74FE081F0E03197EE0FD5
S1132070FF1FEE0FFF1FE20FF31FEE0FFF1FEE0F08
S1132080FF1FEA5DFC4F60817181681B790B072E8D
S1132090000C880B990B0E94591D9F770E94261DE6
S11320A0643B710509F062C380E090E091DEE09149
S11320B03A08F0E0EF5AF74FE081F0E03197EE0F85
S11320C0FF1FEE0FFF1F8091C8079091C907E80F0B
S11320D0F91FEE0FFF1FEE0FFF1FEA5DFC4F628139
S11320E073818091120290911302681B790B072E61
S11320F0000C880B990B0E94591D9F770E94261D86
S1132100643B710509F038C181E090E061DE34C1BF
S1132110E0913A08F0E0EF5AF74FE081A0913A08D5
S1132120B0E0AF5AB74FBC90F0E03197EE0FFF1F0D
S1132130EE0FFF1FEE0DFF1DEE0FFF1FEE0FFF1F33
S1132140EA5DFC4F60817181601B710B072E000CEE
S1132150880B990B0E94591D9F770E94261D6B01C5
S1132160EB2DF0E03197EE0FFF1FEE0FFF1FEE0D8A
S1132170FF1DEE0FFF1FEE0FFF1FEA5DFC4F628194
S11321807381601B710B072E000C880B990B0E9446
S1132190591D9F770E94261D6C157D0524F480E04F
S11321A090E016DEE9C081E090E012DEE5C0E09147
S11321B03A08F0E0E35CF74FE0812091C8073091E2
S11321C0C907F0E03197EE0FFF1FEE0FFF1FE20F7C
S11321D0F31FEE0FFF1FEE0FFF1FEA5DFC4F408160
S11321E051818417950721F481E090E0F1DDC4C0AA
S11321F0E0913A08F0E0E35CF74FE081F0E03197DA
S1132200EE0FFF1FEE0FFF1FE20FF31FEE0FFF1F76
S1132210EE0FFF1FEA5DFC4F42815381841795073F
S113222021F480E090E0D4DDA7C0E0913A08F0E02A
S1132230E35CF74FE081F0E03197EE0FFF1FEE0F04
S1132240FF1FE20FF31FEE0FFF1FEE0FFF1FEA5DEC
S1132250FC4F60817181681B790B072E000C880B81
S1132260990B0E94591D9F770E94261D643B71059E
S113227009F0AAC280E090E0ABDDE0913A08F0E01A
S1132280E35CF74FE081F0E03197EE0FFF1FEE0FB4
S1132290FF1F8091C8079091C907E80FF91FEE0F3F
S11322A0FF1FEE0FFF1FEA5DFC4F62817381809177
S11322B0120290911302681B790B072E000C880BF5
S11322C0990B0E94591D9F770E94261D643B71053E
S11322D009F052C081E090E07BDD4EC0E0913A0805
S11322E0F0E0E35CF74FE081A0913A08B0E0A35C32
S11322F0B74FBC90F0E03197EE0FFF1FEE0FFF1FBA
S1132300EE0DFF1DEE0FFF1FEE0FFF1FEA5DFC4FEA
S113231060817181601B710B072E000C880B990B77
S11323200E94591D9F770E94261D6B01EB2DF0E042
S11323303197EE0FFF1FEE0FFF1FEE0DFF1DEE0F87
S1132340FF1FEE0FFF1FEA5DFC4F62817381601B6C
S1132350710B072E000C880B990B0E94591D9F7757
S11323600E94261D6C157D0524F480E090E030DD8C
S113237003C081E090E02CDD1092D9071092D807B9
S113238056DA1092CE071092CF071092D00710920F
S1132390D1078091CE079091CF07A091D007B0913B
S11323A0D1079093C7078093C607672801F58091EA
S11323B0CE079091CF07A091D007B091D1070A978B
S11323C0A105B105A0F4A8E2B1E084E6EAE2F1E0F7
S11323D08C9380834091CE075091CF076091D007B2
S11323E07091D1074A3051056105710588F300E009
S11323F010E021E02F8318860F2EF4E66F2E712C47
S1132400F02D512C412C33243394212C0F2EF0E148
S1132410AF2EF2E0BF2EF02D0F2EF8E2CF2EDD24EA
S1132420D394F02D0F2EFAE2EF2EFF24F394F02D27
S113243083E080D98093CD0782E07CD98093CC0758
S113244081E078D98093CB0786E074D98093CA075A
S11324504091CD0750E023E030E061E081E00E944C
S113246083014091CC0750E023E030E065E081E057
S11324700E9483014091CB0750E023E030E069E003
S113248081E00E9483014091CA0750E023E030E0DC
S11324906CE081E00E9483014091CE075091CF0708
S11324A06091D0077091D1078091C6079091C707BA
S11324B0092E000CAA0BBB0B84179507A607B707B8
S11324C089F40F5F1F4F03331105F4F0809110025C
S11324D0909111024E969093110280931002052D53
S11324E0142D12C08091CE079091CF07A091D007F0
S11324F0B091D1079093C7078093C60770921102D9
S113250060921002052D142D8091CA07803708F0BF
S11325105BC039822A828114910411F059824A8263
S1132520E0911902F0911A023197EE0FFF1FEE0F9E
S1132530FF1F89819A81E80FF91FEE0FFF1FE858EA
S1132540F54F808191812091120230911302821BF8
S1132550930B59DBE0911902F0911A023197EE0FB7
S1132560FF1FEE0FFF1FA981BA81EA0FFB1FEE0FB9
S1132570FF1FE858F54F8081918190931302809357
S113258012028091190290911A0290930F02809383
S11325900E028091190290911A020197880F991FD7
S11325A0880F991F8A0F9B1F880F991F8252974F7C
S11325B0FC018081918190931A0280931902E32D8A
S11325C0F22D5F82488602C0E52DF42D4091CC07A0
S11325D050E02091140230911502241735077CF441
S11325E06091CD0770E0261737070CF4B0C06091F6
S11325F0CB0770E0261737070CF49BC031C06091FD
S1132600CD07862F90E02817390784F410D923E0EA
S113261030E0432D522D61E082E00E948301D50118
S11326208C91F6011082D7018C9302CF7091CB0765
S1132630872F90E02817390784F4F9D823E030E095
S113264042E050E061E082E00E948301F501808174
S1132650D6018C93F7011082EBCE2417350784F44E
S1132660E6D8D5018C91F6018083D7018C9323E0C1
S113267030E0452D542D61E082E00E948301D8CEE4
S1132680761738F4F5018081D6011C92F701808316
S1132690CFCED5018C91F6018083D7011C92C8CE90
S11326A0C6D81092CE071092CF071092D00710927E
S11326B0D1078091CE079091CF07A091D007B09118
S11326C0D1079093C7078093C60771CEE091190292
S11326D0F0911A023197EE0FFF1FEE0FFF1FE80D66
S11326E0F91DEE0FFF1FE858F54F808191819093FB
S11326F01302809312022091D8073091D907213018
S1132700310571F665CC93D81092CE071092CF079D
S11327101092D0071092D1078091CE079091CF07E5
S1132720A091D007B091D1079093C7078093C607B3
S11327305ECE8091CE079091CF07A091D007B09143
S1132740D1074597A105B10508F073C076CF409134
S1132750CE075091CF076091D0077091D1074531D2
S113276051056105710508F05DC050CFE0913A084C
S1132770F0E0EF5AF74FE081E090C807F090C90706
S11327800091120210911302F0E03197EE0FFF1F37
S1132790EE0FFF1FEE0DFF1DEE0FFF1FEE0FFF1FCD
S11327A0EA5DFC4F62817381601B710B072E000C84
S11327B0880B990B0E94591D9F770E94261D643B2C
S11327C0710509F0A5CCA0CCE0913A08F0E0E35CF7
S11327D0F74FE081E090C807F090C907009112021A
S11327E010911302F0E03197EE0FFF1FEE0FFF1F61
S11327F0EE0DFF1DEE0FFF1FEE0FFF1FEA5DFC4FF6
S113280062817381601B710B072E000C880B990B7E
S11328100E94591D9F770E94261D643B710509F093
S11328205DCD58CDEF2B09F0F1CE05C06091CD07F9
S1132830FDCEEF2BD9F70E94170C109228011092AD
S11328402A0123E030E044E650E061E082E00E94A7
S113285083018F81988528960FB6F894DEBF0FBE4A
S1132860CDBFDF91CF911F910F91FF90EF90DF903B
S1132870CF90BF90AF909F908F907F906F905F901C
S11328804F903F902F900895CF93DF939C01BC010C
S113289061507109DB01AA0FBB1FA258B74F8D917C
S11328A09C91892B39F43093000C2093FF0B822FD9
S11328B0932F3CC0DB01AA0FBB1FAA0FBB1FAA0F9B
S11328C0BB1FFD01E252F74F0190F081E02DEE0FA6
S11328D0FF1FE458F74FC081D181A052B74F40E0A9
S11328E050E021E030E08D919D91009761F0880FD8
S11328F0991FFC01E458F74F808191818C179D0743
S113290014F4A901EC012F5F3F4F2430310559F72E
S1132910FB01EE0FFF1FEE0FFF1FE40FF51FEE0F7D
S1132920FF1FE252F74F80819181AEDFDF91CF919B
S113293008959F92AF92BF92CF92DF92EF92FF924F
S11329400F931F93CF93DF9380913C08882309F45E
S113295068C1C0E0D0E0C12CD12C99249394A12C5F
S11329600F2EFFE7BF2EF02D0F2EFFE7EF2EF12CD9
S1132970F02DFE01E35CF74F8081882309F495C0B4
S1132980FE01E35CF74F808190E001979C01220FE8
S1132990331F820F931F880F991F880F991F8A5C1A
S11329A09A4F2ED8E0911C02F0911D02EE0FFF1FEA
S11329B0E458F74F80819181E0911B02F0E0EE0F23
S11329C0FF1FE458F74F20813181281739079CF401
S11329D08091360800913408E0911B0210E0080F42
S11329E0111DF0E0EE0FFF1FE458F74F8081918135
S11329F0080F191F09C0209136080091340810E00F
S1132A00020F111D080F191FFE01EF5AF74F8081A5
S1132A1090E001979C01220F331F820F931F880FB0
S1132A20991F880F991F8A5C9A4F0E94000DE091AC
S1132A301C02F0911D02EE0FFF1FE458F74F808136
S1132A409181E0911B02F0E0EE0FFF1FE458F74F75
S1132A5020813181281739079CF420913608809110
S1132A603408E0911B0290E0820F911DF0E0EE0F1C
S1132A70FF1FE458F74F20813181820F931F09C053
S1132A80409136082091340830E0240F311D820F24
S1132A90931F392D2A2D0817190714F03C2D2D2DBD
S1132AA0032F122F01151105B1F4FE01EF5AF74F50
S1132AB0808190E001979C01220F331F820F931FA6
S1132AC0880F991F880F991F8A5C9A4F0E94000DE6
S1132AD00C2D1D2D13C0FE01E35CF74F808190E0A7
S1132AE001979C01220F331F820F931F880F991F98
S1132AF0880F991F8A5C9A4F0E94000D2091360816
S1132B0080911C0290911D02FC01EE0FFF1FE458FE
S1132B10F74F40815181A0913408E0911B02BA0122
S1132B20620F711DF0E0EE0FFF1FE458F74F208194
S1132B3031812A0F311D261737070CF040C0E09170
S1132B401B0290913408F0E0EE0FFF1FE458F74F9A
S1132B508081890F8093340880911B0290E094DE79
S1132B6080931B02012B89F480910408909105083D
S1132B70880F991FFC01EA5FF74FD183C083FC01E2
S1132B80E452F84FF182E08210C0809104089091E1
S1132B900508880F991FFC01E452F84FD183C083C4
S1132BA0FC01EA5FF74FF182E08280910408909182
S1132BB00508019690930508809304082AC0209183
S1132BC03608420F409336085FDE90931D028093CF
S1132BD01C02012B69F4E0913808F0E0EB59F74F3F
S1132BE0C083E0913808F0E0EE59F54FB0820CC094
S1132BF0E0913808F0E0EE59F54FC083E0913808D1
S1132C00F0E0EB59F74FB082809138088F5F8093E2
S1132C103808219680913C0890E08C179D0709F0B4
S1132C20A8CEDF91CF911F910F91FF90EF90DF908D
S1132C30CF90BF90AF909F9008952F923F924F9264
S1132C405F926F927F928F929F92AF92BF92CF9238
S1132C50DF92EF92FF920F931F93CF93DF931F9214
S1132C601F92CDB7DEB70E9487020E94A00C8AE5AE
S1132C700E94280B10920501109233088BEE96E007
S1132C800E944A018091610A8823E1F30E947B0239
S1132C9086EF96E00E944A018FEF80930501E0ECF5
S1132CA0F0E0808185FFFDCF81E08093C6008091B4
S1132CB03C088823C1F020E030E0E0ECF0E046EC92
S1132CC050E0D901AF5AB74F9C919068808185FF3D
S1132CD0FDCFDA019C932F5F3F4F80913C0890E039
S1132CE02817390774F3E0ECF0E0808185FFFDCF0D
S1132CF082E08093C600E0ECF0E0808185FFFDCFA8
S1132D008BE08093C60080913B088823C1F020E0CB
S1132D1030E0E0ECF0E046EC50E0D901A35CB74FC2
S1132D209C919068808185FFFDCFDA019C932F5F91
S1132D303F4F80913B0890E02817390774F3E0EC8B
S1132D40F0E0808185FFFDCF8CE08093C6008FE0AA
S1132D50809305010E947B0280E097E00E944A0173
S1132D600E947B0286E097E00E944A01E2DD0E9415
S1132D707B0284E197E00E944A01809104089091CB
S1132D80050818161906F4F546E058E00F2EFCED78
S1132D90CF2EF7E0DF2EF02D20E030E0E0ECF0E085
S1132DA00F2EF6ECEF2EF12CF02D13E07DE0DA017E
S1132DB09C914E5F5F4F808185FFFDCFD7011C93AF
S1132DC0692F6068808185FFFDCFD7016C93909354
S1132DD01B02D6019C91B2E0CB0ED11C808185FFF1
S1132DE0FDCFD7017C939068808185FFFDCFD7010B
S1132DF09C932F5F3F4F80910408909105082817FA
S1132E003907ACF20E947B028EE197E00E944A01EE
S1132E10809138088823E1F380E092E09093040CD9
S1132E208093030C88E297E022D70E947B02212C36
S1132E300F2EF6ECAF2EB12CF02D29821A82612CC4
S1132E40712C0F2EF3E64F2EF02D512CD5C4E981B1
S1132E50FA81F093D707E093D607E0912E08F0911A
S1132E602F08EB59F74F80818F3769F1E0912E08D5
S1132E70F0912F08EB59F74FE081F0E0EF5AF74F4C
S1132E80808190E001979C01220F331F820F931FD2
S1132E90880F991F880F991F8A5C9A4F0E94000D12
S1132EA0E0912E08F0912F08EB59F74FE081F0E004
S1132EB0EF5AF74F408150E022E030E06CE082E0CE
S1132EC00E94830132C021E030E03093D707209381
S1132ED0D607E0912E08F0912F08EE59F54FE081C6
S1132EE0F0E0E35CF74F808190E001979C01220FB2
S1132EF0331F820F931F880F991F880F991F8A5CB5
S1132F009A4F0E94000DE0912E08F0912F08EE597F
S1132F10F54FE081F0E0E35CF74F408150E022E0C0
S1132F2030E06CE082E00E948301E0911902F091AC
S1132F301A02EE0FFF1FE458F74F80819181892B0D
S1132F4009F450C14091190250911A0222E030E074
S1132F5065E082E00E948301E0911902F0911A0277
S1132F60EE0FFF1FEE0FFF1FEE0FFF1FEA52F74F8A
S1132F7080809180E62CF72C242D352D862D972DDD
S1132F80E0911902F0911A023197EE0FFF1FEE0F34
S1132F90FF1FE80FF91FEE0FFF1FE252F74F4081AA
S1132FA05181452B09F445C0E0911902F0911A02B0
S1132FB03197EE0FFF1FEE0FFF1FE80FF91FEE0F03
S1132FC0FF1FE252F74F0190F081E02DEE0FFF1F3B
S1132FD0E458F74F408151814217530754F5E0916B
S1132FE01902F0911A023197EE0FFF1FEE0FFF1F27
S1132FF0E80FF91FEE0FFF1FE252F74F0190F08127
S1133000E02DEE0FFF1FE458F74F20813181E0914E
S11330101902F0911A023197EE0FFF1FEE0FFF1FF6
S1133020E80FF91FEE0FFF1FE252F74F80809180E7
S11330307C0101968430910509F0A2CF67018401D7
S113304022E030E0A40168E082E00E9483018091E4
S113305017022091190230911A0290E08217930707
S113306099F48091180290E08815990569F480918B
S11330702E0890912F080E94910E89819A81909335
S1133080310880933008AEC08091170290E0801719
S11330909107D1F38091180290E080179107D1F342
S11330A08091300890913108019739F4A981BA814F
S11330B0B0933108A093300895C0E0ECF0E0808133
S11330C085FFFBCF85E0D5018C930068E0ECF0E050
S11330D0808185FFFBCFD5010C93C6010E94370F79
S11330E0892B09F04AC040910E0250910F02DA0177
S11330F0119729813A81AA0FBB1FAA0FBB1FAE0DDE
S1133100BF1DAA0FBB1FA252B74F8D919C9111975F
S11331100197FC01EE0FFF1FEE0FFF1FE20FF31FDD
S1133120EE0FFF1FE252F74F608171814617570778
S113313069F4FC01EE0FFF1FEE0FFF1FE20FF31FF8
S1133140EE0FFF1FE252F74F118210822F5F3F4FA5
S113315024303105D1F6E0910E02F0910F0231973F
S1133160EE0FFF1FEE0FFF1FEE0DFF1DEE0FFF1FF3
S1133170E252F74F1182108235C0E0911902F091AA
S11331801A023197EE0FFF1FEE0FFF1FEC0DFD1D0E
S1133190EE0FFF1FE252F74F8081918190931A0244
S11331A0809319022091190230911A02E0ECF0E0A8
S11331B0808185FFFBCFD5013C922068E0ECF0E0F4
S11331C0808185FFFBCFD5012C93E0911902F0910A
S11331D01A02EE0FFF1FE458F74F80819181892B6B
S11331E009F0B0CEE0911902F0911A02EE0FFF1F20
S11331F0E458F74F80819181892B09F000C38091B5
S1133200D6079091D707892B61F4E0912E08F091AD
S11332102F08EB59F74F908180913A089813F5CF16
S11332200CC0E0912E08F0912F08EE59F54F9081D3
S113323080913A089813F5CF31C0B091C807A09196
S1133240C907222D30E0E0913A08F0E0EF5AF74F39
S113325080814091190250911A0290E00197BC01BB
S1133260660F771FFB01E80FF91FEE0FFF1FE20F38
S1133270F31FEE0FFF1FEA5CFA4F808191818417E0
S1133280950711F4B22FA32F2F5F3F4F2430310540
S1133290D1F6B093C807A093C90730C0B091C8074E
S11332A0A091C907222D30E0E0913A08F0E0E35CF8
S11332B0F74F80814091190250911A0290E00197D2
S11332C0BC01660F771FFB01E80FF91FEE0FFF1F0C
S11332D0E20FF31FEE0FFF1FEA5CFA4F808191812A
S11332E08417950711F4B22FA32F2F5F3F4F24307B
S11332F03105D1F6B093C807A093C9078091C907D7
S11333008F938091C8078F9387E397E09F938F9360
S11333109BD40F900F900F900F908091D6079091AF
S1133320D707892B09F071C0E0913A08F0E0EF5A11
S1133330F74FE0818091C8079091C907209112024C
S113334030911302F0E03197EE0FFF1FEE0FFF1FD5
S1133350E80FF91FEE0FFF1FEE0FFF1FEA5DFC4F92
S11333604081518142175307D1F0E0913A08F0E0CF
S1133370EF5AF74FE081F0E03197EE0FFF1FEE0FA9
S1133380FF1FE80FF91FEE0FFF1FEE0FFF1FEA5D8F
S1133390FC4F828193812817390709F0A6C03F9317
S11333A02F9383E697E09F938F934ED4E0913A084E
S11333B0F0E0EF5AF74FE081F0E03197EE0FFF1F96
S11333C0EE0FFF1F8091C8079091C907E80FF91FFE
S11333D0EE0FFF1FEE0FFF1FEA5DFC4F0F900F90E3
S11333E00F900F90208131818091120290911302ED
S11333F02817390729F481E090E00E94E80EDCC127
S1133400822D90E00E94E80ED7C1E0913A08F0E0E6
S1133410E35CF74FE0818091C8079091C907209140
S1133420120230911302F0E03197EE0FFF1FEE0FFE
S1133430FF1FE80FF91FEE0FFF1FEE0FFF1FEA5DDE
S1133440FC4F4081518142175307C9F0E0913A087B
S1133450F0E0E35CF74FE081F0E03197EE0FFF1FFF
S1133460EE0FFF1FE80FF91FEE0FFF1FEE0FFF1FF8
S1133470EA5DFC4F8281938128173907B1F53F93A8
S11334802F9383E697E09F938F93DED3E0913A08DE
S1133490F0E0E35CF74FE081F0E03197EE0FFF1FBF
S11334A0EE0FFF1F8091C8079091C907E80FF91F1D
S11334B0EE0FFF1FEE0FFF1FEA5DFC4F0F900F9002
S11334C00F900F902081318180911202909113020C
S11334D02817390729F481E090E00E94E80E6CC1B6
S11334E0822D90E00E94E80E67C1809113028F93B1
S11334F0809112028F938DE897E09F938F93A4D3CA
S11335006091D6077091D7070F900F900F900F908E
S1133510822D90E016E061157105D9F5E0913A0825
S1133520F0E0EF5AF74F208130E021503109A90132
S1133530440F551FFA01E20FF31FEE0FFF1FE80FB0
S1133540F91FEE0FFF1FEA5CFA4F20813181232B14
S113355009F458C0E0913A08F0E0EF5AF74F40817F
S1133560E0911902F0911A0250E041505109149F60
S11335709001159F300D1124D901A80FB91FAA0F6E
S1133580BB1FAA5CBA4F2D913C912E173F07D1F572
S113359040C0E0913A08F0E0E35CF74F208130E06E
S11335A021503109A901440F551FFA01E20FF31FFD
S11335B0EE0FFF1FE80FF91FEE0FFF1FEA5CFA4F33
S11335C020813181232BF1F0E0913A08F0E0E35CB3
S11335D0F74F4081E0911902F0911A0250E04150F6
S11335E05109149F9001159F300D1124D901A80F82
S11335F0B91FAA0FBB1FAA5CBA4F2D913C912E177D
S11336003F0739F001968430910509F084CF822D6B
S113361090E0022D10E061157105D9F5A091190211
S1133620B0911A02E0913A08F0E0EF5AF74FE081C6
S11336301197AA0FBB1FAA0FBB1FA00FB11FAA0F80
S1133640BB1FA252B74FF0E03197EE0FFF1FEE0FF2
S1133650FF1FE80FF91FEE0FFF1FE25EFD4F2D91D4
S11336603C91408151812417350709F04CC0E09109
S11336701902F0911A023197EE0FFF1FEE0FFF1F90
S1133680E00FF11FEE0FFF1FE252F74F8080918091
S113369042C0A0911902B0911A02E0913A08F0E0F8
S11336A0E35CF74FE0811197AA0FBB1FAA0FBB1F62
S11336B0A00FB11FAA0FBB1FA252B74FF0E0319762
S11336C0EE0FFF1FEE0FFF1FE80FF91FEE0FFF1F96
S11336D0E25EFD4F2D913C914081518124173507C5
S11336E091F4E0911902F0911A023197EE0FFF1F45
S11336F0EE0FFF1FE00FF11FEE0FFF1FE252F74F17
S11337008080918008C00F5F1F4F0430110509F0BD
S113371082CF022D10E0E1E0F0E0F093D907E093CE
S1133720D8078091170290E088159905D1F380910C
S1133730180290E088159905D1F3882DA0ECB0E02B
S11337409C9195FFFBCF95E0F50190838068A0ECF8
S1133750B0E09C9195FFFBCFF5018083C8010E94E6
S1133760370F019749F5E0911902F0911A02319748
S1133770EE0FFF1FEE0FFF1FE00FF11FEE0FFF1FF5
S1133780E252F74F8081918190931A02809319023B
S11337908091190290911A02A0ECB0E02C9125FFBF
S11337A0FBCF94E0F50190838068A0ECB0E09C919D
S11337B095FFFBCFF501808380912E0890912F080F
S11337C0019690932F0880932E0880913A08A0ECDC
S11337D0B0E09C9195FFFBCF96E0F5019083806863
S11337E0A0ECB0E09C9195FFFBCFF5018083809124
S11337F03A088F5F80933A086894332432F8E09152
S11338003A08F0E0EF5AF74F8081811108C0E09147
S11338103A08F0E0E35CF74F8081882359F0809107
S1133820380820912E0830912F0890E082179307D2
S113383009F00DCB86EB97E01AD2E0ECF0E0808142
S113384085FFFDCF8AE08093C600E0ECF0E0808144
S113385085FFFDCF80E88093C6008091DA079091C0
S1133860DB070197D1F70E94440BFFEF2FEF30EEF7
S113387080E0F150204030408040D9F700C0000083
S11338800E94480B80E090E00F900F90DF91CF9161
S11338901F910F91FF90EF90DF90CF90BF90AF906A
S11338A09F908F907F906F905F904F903F902F905C
S11338B008955058BB27AA270ED04DC13ED130F0F1
S11338C043D120F031F49F3F11F41EF433C10EF4C0
S11338D0E095E7FB29C1E92F4FD180F3BA176207BE
S11338E073078407950718F071F49EF567C10EF409
S11338F0E0950B2EBA2FA02D0B01B90190010C01FC
S1133900CA01A0011124FF27591B99F0593F50F413
S1133910503E68F11A16F040A22F232F342F44276B
S1133920585FF3CF469537952795A795F040539563
S1133930C9F77EF41F16BA0B620B730B840BBAF033
S11339409150A1F0FF0FBB1F661F771F881FC2F79E
S11339500EC0BA0F621F731F841F48F487957795B2
S11339606795B795F7959E3F08F0B3CF9395880F69
S113397008F09927EE0F9795879508950CD0EBC022
S1133980E3D040F0DAD030F021F45F3F19F0CCC03E
S1133990511115C1CFC0F0D098F39923C9F3552321
S11339A0B1F3951B550BBB27AA276217730784072E
S11339B038F09F5F5F4F220F331F441FAA1FA9F3E4
S11339C033D00E2E3AF0E0E830D091505040E695D6
S11339D0001CCAF729D0FE2F27D0660F771F881F37
S11339E0BB1F261737074807AB07B0E809F0BB0B26
S11339F0802DBF01FF2793585F4F2AF09E3F51054A
S1133A0068F092C0DCC05F3FECF3983EDCF386952F
S1133A1077956795B795F7959F5FC9F7880F911DBF
S1133A209695879597F90895E1E0660F771F881FAB
S1133A30BB1F621773078407BA0720F0621B730B5E
S1133A40840BBA0BEE1F88F7E095089504D06894B0
S1133A50B111B5C0089598D088F09F5790F0B92F50
S1133A609927B751A0F0D1F0660F771F881F991FCF
S1133A701AF0BA95C9F712C0B13081F09FD0B1E005
S1133A8008959CC0672F782F8827B85F39F0B93F15
S1133A90CCF3869577956795B395D9F73EF49095D1
S1133AA08095709561957F4F8F4F9F4F0895E8944F
S1133AB009C097FB3EF490958095709561957F4F72
S1133AC08F4F9F4F9923A9F0F92F96E9BB27939520
S1133AD0F695879577956795B795F111F8CFFAF430
S1133AE0BB0F11F460FF1BC06F5F7F4F8F4F9F4F61
S1133AF016C0882311F096E911C0772321F09EE8BF
S1133B00872F762F05C0662371F096E8862F70E024
S1133B1060E02AF09A95660F771F881FDAF7880FFE
S1133B209695879597F9089597F99F6780E870E0CF
S1133B3060E008959FEF80EC089500240A9416161F
S1133B40170618060906089500240A941216130687
S1133B50140605060895092E0394000C11F4882315
S1133B6052F0BB0F40F4BF2B11F460FF04C06F5F31
S1133B707F4F8F4F9F4F089557FD9058440F551F07
S1133B8059F05F3F71F04795880F97FB991F61F0DB
S1133B909F3F79F087950895121613061406551F52
S1133BA0F2CF4695F1DF08C0161617061806991FBE
S1133BB0F1CF86957105610508940895E894BB27B3
S1133BC066277727CB0197F9089503D008F48FEF80
S1133BD00895990F0008550FAA0BE0E8FEEF16169A
S1133BE01706E807F907C0F012161306E407F507ED
S1133BF098F0621B730B840B950B39F40A2661F061
S1133C00232B242B252B21F408950A2609F4A14003
S1133C10A6958FEF811D811D0895EE0FFF1F881F4C
S1133C208BBF0790F691E02D1994A29FB001B39F2A
S1133C30C001A39F700D811D1124911DB29F700DB1
S1133C40811D1124911D0895CF93DF93CDB7DEB765
S1133C50AE014A5F5F4FFA0161917191AF018091AA
S1133C60030C9091040C33D0DF91CF9108950F93FE
S1133C701F93CF93DF93E091030CF091040C238105
S1133C8021FF1BC08C01D0E0C0E0F80181918F01BD
S1133C906091030C7091040CDB011896ED91FC917A
S1133CA01997882331F01995892B79F3DFEFCFEF3A
S1133CB0ECCF8AE01995892B19F08FEF9FEF02C0A2
S1133CC08D2F9C2FDF91CF911F910F9108952F92EB
S1133CD03F924F925F926F927F928F929F92AF9298
S1133CE0BF92CF92DF92EF92FF920F931F93CF93E5
S1133CF0DF93CDB7DEB72C970FB6F894DEBF0FBEB7
S1133D00CDBF7C016B018A01FC011782168283817D
S1133D1081FFB0C1CE0101964C01F7019381F601F8
S1133D2093FD859193FF81916F01882309F49EC1CE
S1133D30853239F493FD859193FF81916F0185322A
S1133D4021F4B70190E0C7D1E8CF512C312C20E009
S1133D502032A0F48B3269F030F4803259F083328F
S1133D6069F420612CC08D3239F0803339F421603C
S1133D7026C02260246023C0286021C027FD27C0FC
S1133D8030ED380F3A3078F426FF06C0FAE05F9E33
S1133D90300D1124532E13C08AE0389E300D1124A7
S1133DA0332E20620CC08E3221F426FD5FC12064C4
S1133DB006C08C3611F4206802C0883641F4F6013E
S1133DC093FD859193FF81916F018111C1CF982F4C
S1133DD09F7D9554933028F40C5F1F4FFFE3F983C4
S1133DE00DC0833631F0833771F0833509F057C045
S1133DF021C0F801808189830E5F1F4F44244394BE
S1133E00512C540114C03801F2E06F0E711CF801FA
S1133E10A080B18026FF03C0652D70E002C06FEF63
S1133E207FEFC5012C874CD12C0183012C852F7782
S1133E30222E16C03801F2E06F0E711CF801A0802A
S1133E40B18026FF03C0652D70E002C06FEF7FEFE5
S1133E50C5012C872AD12C012C852068222E8301B0
S1133E6023FC19C0832D90E048165906A0F4B7012D
S1133E7080E290E030D13A94F5CFF50127FC8591AA
S1133E8027FE81915F01B70190E025D131103A946A
S1133E90F1E04F1A51084114510479F7DEC0843619
S1133EA011F0893631F5F80127FF07C0608171816F
S1133EB0828193810C5F1F4F08C060817181072E3E
S1133EC0000C880B990B0E5F1F4F2F76722E97FFF5
S1133ED009C090958095709561957F4F8F4F9F4F46
S1133EE02068722E2AE030E0A4012DD1A82EA81853
S1133EF043C0853729F42F7EB22E2AE030E025C056
S1133F00F22FF97FBF2E8F36C1F018F4883579F07F
S1133F10ADC0803719F0883721F0A8C02F2F206159
S1133F20B22EB4FE0DC08B2D8460B82E09C024FFC0
S1133F300AC09F2F9660B92E06C028E030E005C065
S1133F4020E130E002C020E132E0F801B7FE07C012
S1133F5060817181828193810C5F1F4F06C06081F3
S1133F60718180E090E00E5F1F4FA401ECD0A82E79
S1133F70A818FB2DFF777F2E76FE0BC0372D3E7FD2
S1133F80A51450F474FE0AC072FC08C0372D3E7E9E
S1133F9005C0BA2C372D03C0BA2C01C0B52C34FF90
S1133FA00DC0FE01EA0DF11D8081803311F4397ECC
S1133FB009C032FF06C0B394B39404C0832F86783B
S1133FC009F0B39433FD12C030FF06C05A2CB31469
S1133FD018F4530C5B18B32CB31460F4B70180E2EB
S1133FE090E03C8778D0B3943C85F6CFB31410F4BA
S1133FF03B1801C0312C34FF11C0B70180E390E0BD
S11340003C8769D03C8532FF16C031FD03C088E788
S113401090E002C088E590E0B7010CC0832F867859
S113402051F031FF02C08BE201C080E237FD8DE226
S1134030B70190E050D0A51430F4B70180E390E0CC
S11340404AD05A94F8CFAA94F401EA0DF11D808164
S1134050B70190E040D0A110F6CF332009F45DCE33
S1134060B70180E290E037D03A94F7CFF701868128
S1134070978102C08FEF9FEF2C960FB6F894DEBFA6
S11340800FBECDBFDF91CF911F910F91FF90EF90A5
S1134090DF90CF90BF90AF909F908F907F906F9064
S11340A05F904F903F902F900895FC0105906150D0
S11340B070400110D8F7809590958E0F9F1F08953A
S11340C0FC016150704001900110D8F780959095E3
S11340D08E0F9F1F08950F931F93CF93DF93FB01C0
S11340E0238121FD03C08FEF9FEF28C022FF16C05C
S11340F046815781248135814217530744F4A081B6
S1134100B1819D012F5F3F4F318320838C932681A2
S113411037812F5F3F4F3783268310C0EB01092F70
S1134120182F0084F185E02D1995892BE1F68E81F5
S11341309F8101969F838E83812F902FDF91CF9152
S11341401F910F910895FA01AA27283051F12031C7
S113415081F1E8946F936E7F6E5F7F4F8F4F9F4F17
S1134160AF4FB1E03ED0B4E03CD0670F781F891F59
S11341709A1FA11D680F791F8A1F911DA11D6A0F27
S1134180711D811D911DA11D20D009F468943F91DA
S11341902AE0269F11243019305D3193DEF6CF01D9
S11341A00895462F4770405D4193B3E00FD0C9F79F
S11341B0F6CF462F4F70405D4A3318F0495D31FD0C
S11341C04052419302D0A9F7EACFB4E0A69597955F
S11341D0879577956795BA95C9F700976105710535
S11341E008959B01AC010A2E06945795479537957F
S11341F02795BA95C9F7620F731F841F951FA01DD9
S10942000895F894FFCFBD
S11342060000000200000000A400000000000100FD
S113421664005A002300FF0D0D01000D010001008A
S1134226000000000000020000000000000004007E
S1134236000000000000040000000000000005006B
S11342460000000000000600000000000000080056
S11342560000000000000800000000000000090043
S11342660000000000000A000000000000000C002E
S11342760000000000000C000000000000000D001B
S11342860000000000000E00000000000000100006
S113429600000000000010000000000000001100F3
S11342A600000000000012000000000000001400DE
S11342B600000000000014000000000000001500CB
S11342C600000000000016000000000000001800B6
S11342D600000000000018000000000000000100BB
S11342E6000000000000240019002C002B0005002B
S11342F600000000000009001C00000000001D0072
S11343061C002E002D000D0000000000000011000E
S11343160000000000002100200030002F001500DE
S11343260000000000005A00FF00FFFFFFFFFFFF30
S1134336FFFFFFFFFFFF4B00F000FFFFFFFFFFFF44
S1134346FFFFFFFFFFFF3C00E100FFFFFFFFFFFF52
S1134356FFFFFFFFFFFF2D00D200FFFFFFFFFFFF60
S1134366FFFFFFFFFFFF1E00C300FFFFFFFFFFFF6E
S1134376FFFFFFFFFFFF0F00B400FFFFFFFFFFFF7C
S1134386FFFFFFFFFFFF0000A500FFFFFFFFFFFF8A
S1134396FFFFFFFFFFFF59019600FFFFFFFFFFFF2F
S11343A6FFFFFFFFFFFF4A018700FFFFFFFFFFFF3D
S11343B6FFFFFFFFFFFF3B017800FFFFFFFFFFFF4B
S11343C6FFFFFFFFFFFF2C016900FFFFFFFFFFFF59
S11343D6FFFFFFFFFFFF1D015A00FFFFFFFFFFFF67
S11343E6FFFFFFFFFFFF0E014B00FFFFFFFFFFFF75
S11343F6FFFFFFFFFFFFFF003C00FFFFFFFFFFFF84
S1134406FFFFFFFFFFFFF0002D00FFFFFFFFFFFF91
S1134416FFFFFFFFFFFFE1001E00FFFFFFFFFFFF9F
S1134426FFFFFFFFFFFFD2000F00FFFFFFFFFFFFAD
S1134436FFFFFFFFFFFFC3000000FFFFFFFFFFFFBB
S1134446FFFFFFFFFFFFB4005901FFFFFFFFFFFF60
S1134456FFFFFFFFFFFFA5004A01FFFFFFFFFFFF6E
S1134466FFFFFFFFFFFF96003B01FFFFFFFFFFFF7C
S1134476FFFFFFFFFFFF87002C01FFFFFFFFFFFF8A
S1134486FFFFFFFFFFFF78005A00FFFFFFFFFFFF5C
S1134496FFFFFFFFFFFF69001D01FFFFFFFFFFFF97
S11344A6FFFFFFFFFFFFFF005A003C002C01FFFF48
S11344B6FFFFFFFFFFFFF0003C00FFFFFFFFFFFFD2
S11344C6FFFFFFFFFFFFC3001E000000F000FFFF19
S11344D6FFFFFFFFFFFF87004A012C01B400FFFF27
S11344E6FFFFFFFFFFFF78002C01FFFFFFFFFFFF29
S11344F6FFFFFFFFFFFF4B000E01F0007800FFFFF8
S1134506FFFFFFFFFFFF0F00D200B4003C00FFFFD8
S1134516FFFFFFFFFFFF0000B400FFFFFFFFFFFFE9
S1134526FFFFFFFFFFFF3B01960078000000FFFF3F
S1134536FFFFFFFFFFFF0100000000000000000076
S1134546000002000000000000000000000003005C
S1134556000000000000000000000400000000004D
S1134566000000000000050000000000000000003C
S11345760000060000000000000000000000070024
S11345860000000000000000000008000000000019
S11345960000000000000900000000000000000008
S11345A600000A00000000000000000000000B00EC
S11345B6000000000000000000000C0000000000E5
S11345C60000000000000D000000000000000000D4
S11345D600000E00000000000000000000000F00B4
S11345E600000000000000000000100000000000B1
S11345F600000000000011000000000000000000A0
S1134606000012000000000000000000000013007B
S1134616000000000000000000001400000000007C
S1134626000000000000150000000000000000006B
S11346360000160000000000000000000000170043
S11346460000000000000000000018000000000048
S1134656000000000000010023000000000000002C
S11346660000190024002B002C00000000000500A7
S11346761A00000000000000000009001B000000F2
S11346860000000000001C001D002D002E0000008C
S113469600000D001E0000000000000000001100D4
S11346A61F000000000000000000200021002F0071
S11346B63000000000001500220000000000000089
S11346C60000202020202020202020202020202020
S11346D620202020202020202020202020202020D0
S11346E62020202020202020202000576169746982
S11346F66E672E2E2E005265636569766564210009
S113470653656E74210053656E64696E6720546147
S1134716736B730050726F636573736564005461E1
S1134726736B2053656E7400476F6E6E612053740D
S11347366172742121210043757272656E746C79FD
S1134746206F6E202564206F66206E6F6465736E1D
S1134756656172206F662074686174206E6F74657B
S1134766200A00476F6E6E6120537472696B652070
S11347766865726520697473656C6620617320626E
S11347866F74616E67203D202564200A00476F6EB2
S11347966E61206D6F766520746F206E6578742067
S11347A66E6F646520617320626F74616E67203D6D
S11347B6202564200A00476F6E6E61206265204FD3
S10947C67574212121009D
S9030000FC
