S00D00005461736B352E737265634F
S113000071C000008EC000008CC000008AC00000D7
S113001088C0000086C0000084C0000082C00000C8
S113002080C000007EC000007CC000007AC00000D8
S113003078C0000076C0000074C0000072C00000E8
S113004070C000006EC000006CC000006AC00000F8
S113005068C0000066C0000064C0000062C0000008
S113006060C000005FC000005CC000005AC0000017
S113007058C0000056C0000054C0000052C0000028
S113008050C000004EC000004CC000004AC0000038
S113009048C0000046C0000044C0000042C0000048
S11300A040C000003EC000003CC000003AC0000058
S11300B038C0000036C0000034C0000032C0000068
S11300C030C000002EC000002CC000002AC0000078
S11300D028C0000026C0000024C0000022C0000088
S11300E020C0000011241FBECFEFD1E2DEBFCDBF80
S11300F000E00CBF12E0A0E0B2E0E8E3F2E000E0D0
S11301000BBF02C007900D92A630B107D9F722E0C9
S1130110A6E0B2E001C01D92A133B207E1F768D0B6
S113012089C06ECF1F920F920FB60F9211240BB697
S11301300F928F939F93EF93FF938091C600882330
S11301400CF042C090910002943021F128F49130D7
S113015049F0933099F041C0963011F1F0F09730A6
S113016049F13BC0E0910702F0E0E45EFD4F80837B
S1130170809107028F5F809307022FC0E0910602EF
S1130180F0E0E85FFD4F8083809106028F5F8093EB
S1130190060223C08093020220C0809301021DC086
S11301A090910402981319C0809104028F5F809388
S11301B0040213C09091030298130FC080910302AC
S11301C08F5F8093030209C080930002823029F478
S11301D080913002816080933002FF91EF919F9172
S11301E08F910F900BBE0F900FBE0F901F9018951C
S11301F0E1ECF0E010821092C00026E02093C200EF
S11302009FE59093C4001092C50088E98083E1EDD6
S1130210F0E010821092D0002093D2009093D4008A
S11302201092D50080838091300280FDFCCF80E065
S10B023090E00895F894FFCF5B
S1090238FFFFFFFFFF00C1
S9030000FC
