S00D00005461736B352E737265634F
S113000081C00000A0C000009EC000009CC0000091
S11300109AC000000C948E0B0C94690B94C00000E1
S113002092C0000090C000008EC000008CC0000090
S11300308AC0000088C0000086C0000084C00000A0
S113004082C0000080C000007EC000007CC00000B0
S11300507AC0000078C0000076C0000074C00000C0
S113006072C000000C944B096EC000006CC000000C
S11300706AC0000068C0000066C0000064C00000E0
S113008062C0000060C000005EC000005CC00000F0
S11300905AC0000058C0000056C0000054C0000000
S11300A052C0000050C000004EC000004CC0000010
S11300B04AC0000048C0000046C0000044C0000020
S11300C042C0000040C000003EC000003CC0000030
S11300D03AC0000038C0000036C0000034C0000040
S11300E032C0000071099D0A9109A909AC09AF0940
S11300F0B909C309C909880A81099D0A9D09CF095B
S1130100CC095E0A11241FBECFEFD1E2DEBFCDBF02
S113011000E00CBF17E0A0E0B2E0ECE3F7E300E09E
S11301200BBF02C007900D92AC39B107D9F72BE091
S1130130ACE9B7E001C01D92A738B207E1F70E940D
S113014083110C949C1B5CCFCF93C82F8A3011F47D
S11301508DE0FADFE0EDF0E0908195FFFDCFC093F4
S1130160D600CF91089587B1876F87B988B1807819
S113017088B9089586E69EE00197F1F7000040985B
S1130180419880E388B9429AEFEFF7E43197F1F7A9
S113019000C000004298E6E6FEE03197F1F7000067
S11301A04098419888B9429AEFEFF7E43197F1F714
S11301B000C000004298E6E6FEE03197F1F7000047
S11301C04098419888B9429A8FEF97E40197F1F7E4
S11301D000C000004298E6E6FEE03197F1F7000027
S11301E04098419880E288B9429A8FEF97E401974A
S11301F0F1F700C000004298089598B19F7098B933
S113020098B1282F207F922B98B940984198429A10
S1130210EFEFF7E43197F1F700C00000429898B18E
S11302209F7098B998B18295807F892B88B940983E
S11302304198429A8FEF97E40197F1F700C00000CC
S11302404298089598B19F7098B998B1282F207F4B
S1130250922B98B9409A4198429AEFEFF7E431977C
S1130260F1F700C00000429898B19F7098B998B116
S11302708295807F892B88B9409A4198429A8FEF62
S113028097E40197F1F700C000004298089580E8D0
S1130290B4CF0895CF93DF93EC018881882329F0AC
S11302A02196D0DF89918111FCCFDF91CF91089500
S11302B086E69EE00197F1F7000088E29EDF81E088
S11302C09CDF86E09ADF8EE098DF80E896CF089581
S11302D0823069F018F4813031F00895833059F098
S11302E0843069F008958FE7860F87CF08958FEBE8
S11302F0860F83CF089583E9860F7FCF089583ED1A
S1130300860F7BCF08950F931F93CF93DF938A01BA
S1130310E901882311F0611102C0B9DF01C0D8DFFF
S1130320C530D105C1F49801329522952F70232749
S11303303F702327A7E4B3E00E94B01896958795F1
S11303409695879596958795C0969093FE0780938A
S1130350FD0778DF04C0C430D10509F0BEC09801A0
S1130360369527953695279536952795A5ECB0E2D1
S11303700E94B018AC01529542954F7045275F70AA
S113038045275093E0094093DF099A01ADECBCEC9A
S11303900E94B0189695879596958795969587951A
S11303A09C01220F331F880F991F880F991F880FF4
S11303B0991F820F931F9A01281B390BC901C096FC
S11303C090937E0B80937D0B3DDF980136952795A6
S11303D036952795ABE7B4E10E94B018AC01569569
S11303E047955093E0094093DF099A01ADECBCECCA
S11303F00E94B018969587959695879596958795BA
S11304009C01220F331F880F991F880F991F880F93
S1130410991F820F931F9A01281B390BC901C0969B
S113042090937A0B8093790B0DDF04C0C230D10511
S113043009F058C09801ADECBCEC0E94B018AC01B6
S11304405695479556954795569547955093E00987
S11304504093DF099A010E94B01896958795969566
S11304608795969587959C01220F331F880F991FB6
S1130470880F991F880F991F820F931F9A01281BB9
S1130480390BC901C0969093F7098093F609DADE17
S11304909801ADECBCEC0E94B018969587959695A2
S11304A08795969587959C01220F331F880F991F76
S11304B0880F991F880F991F820F931F9801281B7B
S11304C0390BC901C09690937C0B80937B0BBADEE9
S11304D0269764F085E4B6DE09C0C330D10509F07F
S11304E0A5CF73CFC130D10599F7D2CFDF91CF918A
S11304F01F910F91089580E880DE80EC96E0CADEBB
S113050080EC7BDE80EC96E0C5DEC1CE08952F92B0
S11305103F924F925F926F927F928F929F92AF928F
S1130520BF92CF92DF92EF92FF920F931F93CF93DC
S1130530DF93E8EFF9E00F2EFBE4AF2EB12CF02DA2
S1130540B182A0820F2EFDE14F2E55245394F02D3D
S1130550538242828FEF9FEF9583848397838683B0
S1130560CC24CA94D12CD186C086ACE3B0E0B38746
S1130570A287958784879787868720EF30E0318B21
S1130580208B0F2EFDE22F2E312CF02D338A228A60
S1130590158A148A6CE271E0778B668B0F2EF1EE6C
S11305A08F2E912CF02D918E808E0EE110E0138F02
S11305B0028F958F848F978F868F42ED50E051A3E1
S11305C040A3CFE0D0E0D3A3C2A395A384A397A371
S11305D086A303EC10E011A700A713A612A695A703
S11305E084A797A786A744EB50E051AB40AB09E53D
S11305F011E013AB02AB35AB24AB77AB66AB05EACA
S113060010E011AF00AF0AE411E013AF02AF95AFF1
S113061084AF9093370A8093360AE6E9F0E0F093CA
S1130620390AE093380A0BE311E010933B0A009374
S11306303A0A90933D0A80933C0A90933F0A809330
S11306403E0A0F2EF7E86F2E712CF02D7092410A9E
S11306506092400A7093430A6093420A9093450A59
S11306608093440A9093470A8093460AE8E7F0E0AF
S1130670F093490AE093480A50924B0A40924A0A7E
S113068050934D0A40934C0A30934F0A20934E0ADC
S11306900F2EF9E6EF2EF12CF02DF092510AE09294
S11306A0500A0EE011E01093530A0093520A9093FB
S11306B0550A8093540A9093570A8093560A0AE580
S11306C010E01093590A0093580AD0925B0AC09222
S11306D05A0A90935D0A80935C0A90935F0A809310
S11306E05E0AB092610AA092600A3093630A209372
S11306F0620A9093650A8093640A9093670A8093D0
S1130700660AB093690AA093680A90926B0A809271
S11307106A0AF0936D0AE0936C0A50936F0A40934F
S11307206E0A3092710A2092700A0F2EF2EDCF2ECB
S1130730D12CF02DD092730AC092720A9093750A4C
S11307408093740A9093770A8093760A0F2EFEE1C1
S1130750CF2ED12CF02DD092790AC092780A0F2E88
S1130760F3ECCF2ED12CF02DD0927B0AC0927A0AD2
S113077090937D0A80937C0A90937F0A80937E0AEB
S1130780D093810AC093800A5093830A4093820ACB
S11307909093850A8093840A9093870A8093860AAB
S11307A01092890A1092880A0F2EF5EACF2ED12CC6
S11307B0F02DD0928B0AC0928A0AB0938D0AA0932E
S11307C08C0AF0938F0AE0938E0A0F2EF9E5CF2E50
S11307D0DD24D394F02DD092910AC092900A0F2E6A
S11307E0F6E9CF2ED12CF02DD092930AC092920A22
S11307F09093950A8093940A9093970A8093960A0B
S11308000F2EFAE4CF2EDD24D394F02DD092990A42
S1130810C092980A70929B0A60929A0A90939D0AD9
S113082080939C0A90939F0A80939E0A0F2EFBE369
S1130830CF2EDD24D394F02DD092A10AC092A00A29
S1130840F093A30AE093A20A9093A50A8093A40AC2
S11308509093A70A8093A60A7093A90A6093A80AA2
S1130860F092AB0AE092AA0A1092AD0A1092AC0A76
S1130870B093AF0AA093AE0A1093B10A0093B00AE2
S11308805092B30A4092B20A9093B50A8093B40A84
S11308909093B70A8093B60A5093B90A4093B80A62
S11308A01092BB0A1092BA0A3093BD0A2093BC0A74
S11308B09093BF0A8093BE0A5093C10A4093C00A22
S11308C01092C30A1092C20AB093C50AA093C40A34
S11308D07093C70A6093C60A5093C90A4093C80A22
S11308E01092CB0A1092CA0AF093CD0AE093CC0A74
S11308F03093CF0A2093CE0A1092D10A1092D00AD4
S11309005093D30A4093D20A7093D50A6093D40AC1
S11309109093D70A8093D60AB093D90AA093D80AA1
S1130920F093DB0AE093DA0A3093DD0A2093DC0AC1
S11309309093DF0A8093DE0AB093E10AA093E00A61
S11309403093E30A2093E20A7093E50A6093E40A81
S11309505093E70A4093E60AB093E90AA093E80AA1
S11309603093EB0A2093EA0A1092ED0A1092EC0AF3
S1130970F093EF0AE093EE0A3093F10A2093F00A21
S1130980B093F30AA093F20A5093F50A4093F40A41
S11309909093F70A8093F60A7093F90A6093F80A21
S11309A01092FB0A1092FA0AF093FD0AE093FC0AF3
S11309B09093FF0A8093FE0A7093010B6093000BDF
S11309C0F093030BE093020B5093050B4093040B3D
S11309D0B093070BA093060B7093090B6093080B5D
S11309E0F0930B0BE0930A0B30930D0B20930C0B3D
S11309F010920F0B10920E0BF093110BE093100B4F
S1130A00B093130BA093120B7093150B6093140BFC
S1130A109093170B8093160BB093190BA093180B9C
S1130A2030931B0B20931A0B90931D0B80931C0B7C
S1130A3090931F0B80931E0BF093210BE093200BDC
S1130A407093230B6093220B9093250B8093240BBC
S1130A509093270B8093260B7093290B6093280B9C
S1130A60F0932B0BE0932A0B90932D0B80932C0B7C
S1130A7090932F0B80932E0B1092310B1092300B0E
S1130A805093330B4093320B9093350B8093340B7C
S1130A909093370B8093360B5093390B4093380B5C
S1130AA010923B0B10923A0B90933D0B80933C0BAE
S1130AB090933F0B80933E0B3093410B2093400B5C
S1130AC0B093430BA093420B9093450B8093440B3C
S1130AD09093470B8093460B5093490B4093480BDC
S1130AE0B0934B0BA0934A0B90934D0B80934C0BFC
S1130AF090934F0B80934E0BF093510BE093500B5C
S1130B003093530B2093520B9093550B8093540BBB
S1130B109093570B8093560BB093590BA093580B9B
S1130B2070935B0B60935A0B90935D0B80935C0BFB
S1130B3090935F0B80935E0B1092610B1092600B8D
S1130B40F093630BE093620B9093650B8093640BBB
S1130B509093670B8093660B7093690B6093680B9B
S1130B6050936B0B40936A0B90936D0B80936C0BBB
S1130B7090936F0B80936E0B3093710B2093700BDB
S1130B801092730B1092720B9093750B8093740BED
S1130B909093770B8093760BEFE5F8E082E090E09A
S1130BA09183808328E130E0338322831582148289
S1130BB01782168221E030E03187208723E030E07D
S1130BC0338722871586148617861686918B808B29
S1130BD084E090E0938B828B49E150E0558B448B09
S1130BE044E250E0578B468B318F208F25E030E074
S1130BF0338F228F158E148E178E168E91A380A399
S1130C0086E090E093A382A315A214A217A216A2D1
S1130C1031A720A727E030E033A722A715A614A602
S1130C2017A616A691AB80AB88E090E093AB82AB9D
S1130C3045E250E055AB44AB46E250E057AB46AB1F
S1130C4031AF20AF29E030E033AF22AF15AE14AEA0
S1130C5010929E0810929D089093A00880939F087C
S1130C608AE090E09093A2088093A1081092A408CF
S1130C701092A3081092A6081092A5083093A80811
S1130C802093A7082BE030E03093AA082093A9080A
S1130C901092AC081092AB081092AE081092AD08F6
S1130CA09093B0088093AF088CE090E09093B208E2
S1130CB08093B1084CE150E05093B4084093B308DA
S1130CC04DE150E05093B6084093B5083093B8080E
S1130CD02093B7082DE030E03093BA082093B90888
S1130CE01092BC081092BB081092BE081092BD0866
S1130CF09093C0088093BF088EE090E09093C20860
S1130D008093C1081092C4081092C3081092C608B8
S1130D101092C5083093C8082093C708D093CA0816
S1130D20C093C9081092CC081092CB081092CE0838
S1130D301092CD089093D0088093CF0820E130E042
S1130D403093D2082093D10887E290E09093D4089E
S1130D508093D30888E290E09093D6088093D508D6
S1130D60D093D808C093D70881E190E09093DA0833
S1130D708093D9081092DC081092DB081092DE08E8
S1130D801092DD083093E0082093DF0822E130E080
S1130D903093E2082093E1081092E4081092E308EB
S1130DA01092E6081092E5089093E8088093E7080B
S1130DB083E190E09093EA088093E9081092EC08AC
S1130DC01092EB081092EE081092ED083093F008A0
S1130DD02093EF0824E130E03093F2082093F108E7
S1130DE040E250E05093F4084093F30841E250E0AD
S1130DF05093F6084093F5089093F8088093F70809
S1130E0085E190E09093FA088093F9081092FC0829
S1130E101092FB081092FE081092FD08309300090E
S1130E202093FF0826E130E0309302092093010962
S1130E3010920409109203091092060910920509F0
S1130E40909308098093070987E190E090930A0939
S1130E508093090910920C0910920B0910920E0943
S1130E6010920D0986E190E09093100980930F0988
S1130E7088E190E09093120980931109C9E2D0E0CF
S1130E80D0931409C09313090F2EFAE2AF2EB12C9C
S1130E90F02DB0921609A092150981E090E090938C
S1130EA0180980931709E7E1F0E0F0931A09E09339
S1130EB0190910921C0910921B0910921E09109214
S1130EC01D090F2EF3E08F2E912CF02D9092200906
S1130ED080921F096AE170E07093220960932109EE
S1130EE0A4E2B0E0B0932409A09323091092260948
S1130EF0109225090F2EF9E16F2E712CF02D7092AE
S1130F002809609227094BE150E050932A09409345
S1130F10290985E290E090932C0980932B090F2EE8
S1130F20FCE24F2E512CF02D50922E0940922D09A7
S1130F307093300960932F092CE130E0309332092B
S1130F402093310986E290E0909334098093330929
S1130F500DE210E010933609009335090BE010E020
S1130F60109338090093370950933A09409339098B
S1130F708DE190E090933C0980933B0910923E09E7
S1130F8010923D091093400900933F0930934209A0
S1130F90209341092EE130E0309344092093430922
S1130FA01092460910924509909348098093470985
S1130FB08FE190E090934A098093490907E210E099
S1130FC010934C0900934B090F2EFEE22F2E312C67
S1130FD0F02D30924E0920924D0930935009209300
S1130FE04F096894EE24E5F8F12CF0925209E0924E
S1130FF0510908E210E010935409009353090F2E8D
S1131000FFE2CF2ED12CF02DD0925609C092550973
S11310100F2EF3E1CF2ED12CF02DD0925809C0928F
S1131020570990935A098093590901E210E01093EB
S11310305C0900935B0910925E0910925D09D092DD
S11310406009C0925F09F0926209E09261090F2E73
S1131050F2E2EF2EF12CF02DF0926409E092630994
S11310601092660910926509109368090093670944
S113107003E210E010936A0900936909D0936C09A4
S1131080C0936B09C0E3D0E0D0936E09C0936D099F
S1131090F0927009E0926F09B0937209A0937109FC
S11310A0B0927409A0927309ABE2B0E0B0937609F0
S11310B0A0937509909278098092770970927A09C1
S11310C06092790910937C0900937B0910927E0940
S11310D010927D090F2EF7E0CF2ED12CF02DD09257
S11310E08009C0927F0970938209609381091092EC
S11310F08409109283091092860910928509D0926E
S11311008809C092870950938A09409389091092EB
S11311108C0910928B0910928E0910928D090F2E52
S1131120FFE0CF2ED12CF02DD0929009C0928F09E0
S11311303093920920939109109294091092930983
S11311401092960910929509D0929809C092970925
S113115090939A098093990910929C0910929B0983
S113116010929E0910929D09F093A009E0939F09A3
S1131170F092A209E092A1091092A4091092A30985
S11311801092A6091092A509F093A809E093A70963
S11311901093AA090093A9091092AC091092AB0903
S11311A01092AE091092AD091093B0090093AF09E3
S11311B05092B2094092B1091092B4091092B30945
S11311C01092B6091092B5097093B8096093B709E3
S11311D0B093BA09A093B9091092BC091092BB0943
S11311E01092BE091092BD095093C0094093BF09E3
S11311F03092C2092092C1091092C4091092C30905
S11312001092C6091092C5093093C8092093C709E2
S11312100DE210E01093CA090093C9091092CC0999
S11312201092CB091092CE091092CD099093D00957
S11312308093CF09D093D209C093D1091092D409D5
S11312401092D3091092D6091092D509F092D809B8
S1131250E092D7092FE230E03093DA092093D909DC
S11312601092DC091092DB091092DE091092DD095C
S1131270DF91CF911F910F91FF90EF90DF90CF906E
S1131280BF90AF909F908F907F906F905F904F90A2
S11312903F902F9008951F920F920FB60F92112432
S11312A00BB60F924F935F936F937F938F939F939C
S11312B0EF93FF938091C60088230CF030C1982FE0
S11312C09F77E09116024E2F50E0FA013197E031FA
S11312D0F10508F032C18827EE58FF4F8F4F0C9468
S11312E0A818E091BD07F0E0EE52F84F908380918A
S11312F0BD078F5F8093BD078091BD078093050173
S11313001CC1E091BC07F0E0E254F84F9083809157
S1131310BC078F5F8093BC078091BC078093050155
S11313200CC1E091B907F0E0EA51F84F9083809145
S1131330B9078F5F8093B90700C1E091B807F0E067
S1131340EE51F64F90838091B8078F5F8093B80772
S1131350F4C090931802F1C090931702EEC08091EC
S1131360BB078913EAC08091BB078F5F8093BB07DB
S1131370E4C08091BA078913E0C08091BA078F5FF7
S11313808093BA07DAC08091B707890F8093B707B3
S1131390D4C090931B02D1C09093B607CEC0E09105
S11313A0B007F091B107EA51F84F80818F3751F0BF
S11313B0E091B007F091B107EA51F84F8081809332
S11313C0780B09C0E091B007F091B107EE51F64FE8
S11313D080818093FC078091B607813081F4E0918D
S11313E0B007F091B107EA51F84F9083E091B0074C
S11313F0F091B107EE51F64F8FE780830FC0E09173
S1131400B007F091B107EE51F64F9083E091B00729
S1131410F091B107EA51F84F8FE780838091780B00
S11314208F3719F1E0ECF0E0808185FFFDCF8FE08C
S11314308093C600E0ECF0E0808185FFFDCF81E879
S11314408093C6009091780BE0ECF0E0808185FFFA
S1131450FDCF80E18093C6009068E0ECF0E08081ED
S113146085FFFDCF9093C60022C0E0ECF0E08081C0
S113147085FFFDCF8FE08093C600E0ECF0E0808133
S113148085FFFDCF82E88093C6009091FC07E0ECD5
S1131490F0E0808185FFFDCF80E18093C6009068F5
S11314A0E0ECF0E0808185FFFDCF9093C60081E001
S11314B090E09093B3078093B2073FC08091B60742
S11314C0813081F4E091B007F091B107EA51F84F0F
S11314D09083E091B007F091B107EE51F64F8FE79A
S11314E080830FC0E091B007F091B107EE51F64F41
S11314F09083E091B007F091B107EA51F84F8FE77C
S1131500808381E090E09093B3078093B20715C085
S113151081E090E09093AF078093AE070EC0809374
S11315201602823019F08C3029F007C081E08093D4
S1131530B50703C081E08093B407FF91EF919F91B9
S11315408F917F916F915F914F910F900BBE0F9090
S11315500FBE0F901F901895259A2D9A0895E1E8D3
S1131560F0E010828CEF8093850081E0809384000A
S113157093E0909389008FEF809388009093870085
S1131580809386008BEA80938000109282008CE026
S11315908083089510928900682F70E080E090E0C5
S11315A00E94F2172BE734E14EEE5FE30E945E17D0
S11315B020E030E04CE052E40E94FA160E94C61784
S11315C06093880008953B9A4398089586B1886093
S11315D088B9089586B1877F88B9089510BA11BA79
S11315E01092070110920801089581B18F6081B9AA
S11315F082B1807F82B9EAE0F1E0808188618083F2
S1131600EBE0F1E080818861808308956C98749A9E
S113161008956D98759A0895E8DFF8DFFADF0E945F
S1131620B300DCDFD0CF0895E1E2F1E010828FEF68
S11316308093250191E090932401109229018093D5
S1131640280110922B0180932A0110922D0180937E
S11316502C0189EA809320018BE080830895EAE7D6
S1131660F0E0108210927B0080E280937C0080E89E
S113167080BF86E880830895883018F098E09093BE
S11316807B008770806280937C00EAE7F0E08081D1
S113169080648083808184FFFDCF80917900EAE7B4
S11316A0F0E090819061908310927B000895F8940B
S11316B0EAE6F0E0808182608083EC9A7894089571
S11316C0F894EAE6F0E0808188608083ED9A78946B
S11316D008951F920F920FB60F9211248F939F9328
S11316E0AF93BF938091A4079091A507A091A607FB
S11316F0B091A7070196A11DB11D8093A4079093F3
S1131700A507A093A607B093A707BF91AF919F9198
S11317108F910F900FBE0F901F9018951F920F92EC
S11317200FB60F9211248F939F93AF93BF93809121
S1131730A8079091A907A091AA07B091AB070196B9
S1131740A11DB11D8093A8079093A907A093AA0790
S1131750B093AB07BF91AF919F918F910F900FBE44
S11317600F901F90189592B1907F8F70982B92B91B
S1131770089586E0F8CF089585E0F5CF08958AE0CE
S1131780F2CF089580E0EFCF0895CF92DF92EF92E9
S1131790FF920F931F93BC0180E090E00E94F21728
S11317A028E431EE42E850E40E945E170E94C61716
S11317B0AB0160E070E01092A4071092A5071092AC
S11317C0A6071092A7071092A8071092A9071092D3
S11317D0AA071092AB0791E0E0E0C090A407D09074
S11317E0A507E090A607F090A7070091A80710911D
S11317F0A9072091AA073091AB07892F0417150771
S11318002607370708F48E2F811109C0892FC416C3
S1131810D506E606F70608F48E2F8823F1F2B2DF28
S11318201F910F91FF90EF90DF90CF900895CF9389
S1131830DF93EC01A1DF9FEF9093280190932A019D
S1131840CE01A3DFDF91CF910895CF93DF93EC0115
S113185096DF9FEF9093280190932A01CE0195DFA4
S1131860DF91CF9108958FEF8093040110920501C9
S11318700895F894D1DEE1ECF0E010821092C000FB
S113188026E02093C2009FE59093C4001092C50007
S113189088E98083E1EDF0E010821092D00020937B
S11318A0D2009093D4001092D500808300DF08DF2B
S11318B0D6DEBADE0E94BA000E9458014DDE4FDE29
S11318C0D2DF78940895BC0180E090E00E94F21782
S11318D025EE30ED4AEA50E40E945E170E94C617D6
S11318E0AB01BC011092A4071092A5071092A607A1
S11318F01092A7078091A4079091A507A091A6072D
S1131900B091A707481759076A077B0798F73ACF9A
S11319100895CF93DF93EC012CDF90911002909304
S1131920280190932A01CE01CEDFDF91CF91089553
S11319304F925F926F927F928F929F92AF92BF92DB
S1131940CF92DF92EF92FF920F931F93CF93DF9387
S1131950CDB7DEB7C05CD1090FB6F894DEBF0FBEB9
S1131960CDBFDE01AF59BF4F20E6FD0111922A958C
S1131970E9F7EFEFF7E08E010F5F1F4F78016D017C
S11319800FE518E0970163E670E04FEF5FEF6193B6
S11319907193D9014D935D939D01D6011D921D92C2
S11319A06D01E017F10799F7FC01AC01445F5F4F4B
S11319B08FEF9FEF61E070E02081318121153105C7
S11319C009F1220F331FD901A350B84F1D921C9265
S11319D0019620813181DC01AA0FBB1F01E010E0D8
S11319E00C0F1D1FA00FB11F2D933C93D90111970C
S11319F0AA0FBB1F21E630E02C0F3D1FA20FB31F1F
S1131A006D937C933296E417F507B1F6AE2C9F2CB8
S1131A10812C712C6894BB24B2F8612CCC24C3941F
S1131A20D12CA981BA81119799236CF0EA2DF92D53
S1131A30282D372D2F5F3F4F42815381419351937E
S1131A4082179307BCF70197FD01EE0FFF1FEE0FFE
S1131A50FF1FEE0FFF1FE15AF74F2B2D362DAA0F54
S1131A60BB1FAD014150584F2A016191719161151D
S1131A707105D1F1D2010D911C910F5F1F4FAB0184
S1131A80415051097A01EE0CFF1CD701A150B84F07
S1131A90ED90FC90E016F10644F07A01EE0CFF1C88
S1131AA0D701A150B84F0D931C938A01000F111F49
S1131AB0A1E6B0E0AC0FBD1F0A0F1B1FD8010D91AA
S1131AC01C9111970130110579F0CD92DC920196A9
S1131AD0AC01440F551F01E010E00C0F1D1F400F17
S1131AE0511FDA016D937C932150310909F0BDCF68
S1131AF029813A812F3F3F4F09F093CF8F3FEFEF7A
S1131B009E0709F08ECFC054DF4F0FB6F894DEBFA6
S1131B100FBECDBFDF91CF911F910F91FF90EF903A
S1131B20DF90CF90BF90AF909F908F907F906F90F9
S1131B305F904F900895DF92EF92FF920F931F935F
S1131B40CF93DF939923C4F422273327281B390B1F
S1131B50253B310534F08C5A9E4F69DEE12CF12C83
S1131B601DC02CEE3FEFA901481B590BCA016DDEC5
S1131B70EE24E394F12C12C0853B91055CF024E53E
S1131B8031E0F901E81BF90BCF015FDEEE24E394A9
S1131B90F12C04C044974BDEE12CF12CF3DDFFEF74
S1131BA02FE342E0F15020404040E1F700C0000044
S1131BB008E211E00F2EF4E6DF2EF02DCAE2D1E0A8
S1131BC083E05ADD8093A30782E056DD8093A20769
S1131BD081E052DD8093A1074091A30750E023E008
S1131BE030E061E081E00E9483014091A20750E06F
S1131BF023E030E065E081E00E9483014091A10789
S1131C0050E023E030E069E081E00E948301E114C8
S1131C10F10429F4B1DDF801D082D88204C0AFDD2B
S1131C20F801D082D8828091A207883348F4809149
S1131C30A307893728F48091A107893708F4C0CF16
S1131C40A1DDDF91CF911F910F91FF90EF90DF9075
S1131C5008959C01FC01EA51F84F80818F3729F1E6
S1131C60E0ECF0E0908195FFFDCF8FE08093C6001B
S1131C70E0ECF0E0908195FFFDCF81E88093C60011
S1131C80F901EA51F84F9081E0ECF0E0808185FFA2
S1131C90FDCF8EE08093C6009068E0ECF0E0808198
S1131CA085FFFDCF9093C60024C0E0ECF0E0908166
S1131CB095FFFDCF8FE08093C600E0ECF0E09081CB
S1131CC095FFFDCF82E88093C600F901EE51F64FEF
S1131CD09081E0ECF0E0808185FFFDCF8EE0809381
S1131CE0C6009068E0ECF0E0808185FFFDCF909322
S1131CF0C60081E090E09093B3078093B207089503
S1131D00CF93892B29F5CAE58C2F44DC29E989E591
S1131D1091E0215080409040E1F70000C150A0F7CD
S1131D202FEF8FE794E0215080409040E1F700C00E
S1131D300000C0E08C2F2EDC29E989E591E02150D8
S1131D4080409040E1F70000CF5FCB3599F725C084
S1131D50CAE58C2F1FDC29E989E591E021508040F8
S1131D609040E1F70000CF5FC53B99F72FEF8FE775
S1131D7094E0215080409040E1F700C00000C4EBA3
S1131D808C2F08DC29E989E591E0215080409040BE
S1131D90E1F70000C150C93599F7CF9108952F920A
S1131DA03F924F925F926F927F928F929F92AF92E7
S1131DB0BF92CF92DF92EF92FF920F931F93CF9334
S1131DC0DF93CDB7DEB728970FB6F894DEBF0FBE0A
S1131DD0CDBF4C011092280110922A018091120269
S1131DE090911302009709F041C0E0911902F0911B
S1131DF01A023197EE0FFF1FEE0FFF1FE80DF91DBA
S1131E00EE0FFF1FE850F64FA080B180E091190259
S1131E10F0911A023197EE0FFF1FEE0FFF1FE80D2E
S1131E20F91DEE0FFF1FE850F64F0081118108568F
S1131E301140B801012E000C880B990B0E94F41775
S1131E406B017C01E894F7F8B5010B2C000C880BAE
S1131E50990B0E94F4179B01AC015F77C701B6018F
S1131E600E9480181816ACF0580113C0E0911902B2
S1131E70F0911A023197EE0FFF1FEE0FFF1FE80DCE
S1131E80F91DEE0FFF1FE850F64FA080B180A81A8D
S1131E90B90AB5010B2C000C880B990B0E94F4179E
S1131EA09F7720E030E044E352E40E948018181643
S1131EB044F486E490E02DDDC5013DDE01E010E050
S1131EC002C000E010E0E0911902F0911A0231978B
S1131ED0EE0FFF1FEE0FFF1FE80DF91DEE0FFF1FA2
S1131EE0E850F64F808191819093130280931202FF
S1131EF02091AC073091AD072130310541F5E091D7
S1131F00BB07F0E0EE52F84FE081F0E03197EE0FBE
S1131F10FF1FEE0FFF1F20919E0730919F07E20FD6
S1131F20F31FEE0FFF1FEE0FFF1FEC5DFC4F208130
S1131F3031818217930721F481E090E0E1DE03C050
S1131F4080E090E0DDDE1092AD071092AC0711DC6A
S1131F501092A4071092A5071092A6071092A70743
S1131F608091A4079091A507A091A607B091A70717
S1131F7090939D0780939C07012B01F58091A40702
S1131F809091A507A091A607B091A7070A97A1056C
S1131F90B105A0F4A8E2B1E084E6EAE2F1E08C93B2
S1131FA080834091A4075091A5076091A607709182
S1131FB0A7074A3051056105710588F300E010E078
S1131FC021E02F8318860F2EF4E66F2E712CF02D4E
S1131FD0512C412C33243394212C0F2EF0E1AF2EBD
S1131FE0F2E0BF2EF02D0F2EF8E2CF2EDD24D39495
S1131FF0F02D0F2EFAE2EF2EFF24F394F02D83E060
S11320003BDB8093A30782E037DB8093A20781E068
S113201033DB8093A10786E02FDB8093A0074091F8
S1132020A30750E023E030E061E081E00E948301F7
S11320304091A20750E023E030E065E081E00E9497
S113204083014091A10750E023E030E069E081E0A2
S11320500E9483014091A00750E023E030E06CE04F
S113206081E00E9483014091A4075091A5076091EB
S1132070A6077091A70780919C0790919D07092E50
S1132080000CAA0BBB0B84179507A607B70789F4A6
S11320900F5F1F4F03331105F4F0809110029091EC
S11320A011024E969093110280931002052D142D67
S11320B012C08091A4079091A507A091A607B091A2
S11320C0A70790939D0780939C07709211026092DA
S11320D01002052D142D8091A007893608F05BC0ED
S11320E039822A828114910411F059824A82E09142
S11320F01902F0911A023197EE0FFF1FEE0FFF1F26
S113210089819A81E80FF91FEE0FFF1FE850F64FFF
S1132110808191812091120230911302821B930BD2
S11321200ADDE0911902F0911A023197EE0FFF1FB8
S1132130EE0FFF1FA981BA81EA0FFB1FEE0FFF1FED
S1132140E850F64F8081918190931302809312029C
S11321508091190290911A0290930F0280930E02BB
S11321608091190290911A020197880F991F880F84
S1132170991F8A0F9B1F880F991F815A974FFC0143
S11321808081918190931A0280931902E32DF22D9C
S11321905F82488602C0E52DF42D4091A20750E0ED
S11321A02091140230911502241735077CF46091B4
S11321B0A30770E0261737070CF459C06091A107F4
S11321C070E0261737070CF460C031C06091A30794
S11321D0862F90E02817390784F4CBDA23E030E027
S11321E0432D522D61E082E00E948301D5018C9140
S11321F0F6011082D7018C9302CF7091A107872F2B
S113220090E02817390784F4B4DA23E030E042E0A0
S113221050E061E082E00E948301F5018081D601F3
S11322208C93F7011082EBCE2417350784F4A1DADE
S1132230D5018C91F6018083D7018C9323E030E0A3
S1132240452D542D61E082E00E948301D8CE76179B
S113225038F4F5018081D6011C92F7018083CFCE3A
S1132260D5018C91F6018083D7011C92C8CE409190
S1132270A4075091A5076091A6077091A70745315F
S113228051056105710570F4A8CF8091A407909160
S1132290A507A091A607B091A7074597A105B10589
S11322A040F4B2CFEF2B09F098CF05C06091A3079B
S11322B0A4CFEF2BD9F75DDA1092280110922A01EE
S11322C023E030E044E650E061E082E00E948301D4
S11322D08F81988528960FB6F894DEBF0FBECDBFC8
S11322E0DF91CF911F910F91FF90EF90DF90CF90EE
S11322F0BF90AF909F908F907F906F905F904F9022
S11323003F902F9008952F923F924F925F926F9239
S11323107F928F929F92AF92BF92CF92DF92EF9271
S1132320FF920F931F93CF93DF9300D000D0CDB7CC
S1132330DEB70E9487029DDA8AE52CD91092050146
S11323401092B50789EE96E00E944A018091B40785
S11323508823E1F30E947B0284EF96E00E944A0105
S11323608FEF809305018091B9078823E1F380E022
S113237092E09093840B8093830B8EEF96E012D7B8
S11323800E947B02A12C0F2EF6ECCF2ED12CF02D27
S11323901982AA8221E02D831E82612C312C0F2EFA
S11323A0F3E62F2EF02DB12CC3C4E091B007F091C9
S11323B0B107EA51F84F80818F37E1F1E091B0071E
S11323C0F091B107EA51F84FE081F0E0EE52F84F96
S11323D0808190E001979C01220F331F820F931F8D
S11323E0880F991F880F991F8C5C9A4FA1DAE0918E
S11323F0B007F091B107EA51F84FE081F0E0EE52F6
S1132400F84F408150E022E030E06CE082E00E942E
S1132410830189819A819C838B83E0911902F091D5
S11324201A02EE0FFF1FE350F84F80819181892B30
S113243089F57EC1E091B007F091B107EE51F64FF6
S1132440E081F0E0E254F84F808190E001979C0134
S1132450220F331F820F931F880F991F880F991F14
S11324608C5C9A4F65DAE091B007F091B107EE51B8
S1132470F64FE081F0E0E254F84F408150E022E072
S113248030E06CE082E00E9483019D819B83AE81F9
S1132490AC83C3CF4091190250911A0222E030E07C
S11324A065E082E00E948301E0911902F0911A0232
S11324B0EE0FFF1FEE0FFF1FEE0FFF1FE95AF74F3E
S11324C040805180862C932C222D3B2D862D932DDC
S11324D0E0911902F0911A023197EE0FFF1FEE0FEF
S11324E0FF1FE80FF91FEE0FFF1FE15AF74F40815E
S11324F05181452B09F445C0E0911902F0911A026B
S11325003197EE0FFF1FEE0FFF1FE80FF91FEE0FBD
S1132510FF1FE15AF74F0190F081E02DEE0FFF1FEE
S1132520E350F84F408151814217530754F5E0912D
S11325301902F0911A023197EE0FFF1FEE0FFF1FE1
S1132540E80FF91FEE0FFF1FE15AF74F0190F081DA
S1132550E02DEE0FFF1FE350F84F20813181E09111
S11325601902F0911A023197EE0FFF1FEE0FFF1FB1
S1132570E80FF91FEE0FFF1FE15AF74F408051801B
S11325804C0101968430910509F0A2CF74018201B7
S113259022E030E0A20168E082E00E9483018091A1
S11325A017022091190230911A0290E082179307C2
S11325B091F48091180290E08415950561F480915E
S11325C0B0079091B10745DBE981FA81F093B30735
S11325D0E093B207ADC08091170290E08017910795
S11325E0D1F38091180290E080179107D1F3809184
S11325F0B2079091B307019739F429813A81309356
S1132600B3072093B20794C0A0ECB0E08C9185FF8F
S1132610FBCF85E0F60180830068A0ECB0E08C91EC
S113262085FFFBCFF6010083C701B9DB892B09F0D5
S11326304AC040910E0250910F02DA01119729818C
S11326403A81AA0FBB1FAA0FBB1FA80DB91DAA0F61
S1132650BB1FA15AB74F8D919C9111970197FC0113
S1132660EE0FFF1FEE0FFF1FE20FF31FEE0FFF1F12
S1132670E15AF74F608171814617570769F4FC01ED
S1132680EE0FFF1FEE0FFF1FE20FF31FEE0FFF1FF2
S1132690E15AF74F118210822F5F3F4F24303105EA
S11326A0D1F6E0910E02F0910F023197EE0FFF1F69
S11326B0EE0FFF1FE80DF91DEE0FFF1FE15AF74F54
S11326C01182108235C0E0911902F0911A023197FB
S11326D0EE0FFF1FEE0FFF1FEE0DFF1DEE0FFF1F8E
S11326E0E15AF74F8081918190931A0280931902E5
S11326F02091190230911A02A0ECB0E08C9185FF70
S1132700FBCFF60170822068A0ECB0E08C9185FFCD
S1132710FBCFF6012083E0911902F0911A02EE0F2B
S1132720FF1FE350F84F80819181892B09F0B2CECD
S1132730E0911902F0911A02EE0FFF1FE350F84FD7
S113274080819181892B09F0F6C22B813C81232B56
S113275061F4E091B007F091B107EA51F84F90812C
S11327608091BB079813F5CF0CC0E091B007F091AE
S1132770B107EE51F64F90818091BB079813F5CFC6
S11327805DC0A0919E07B0919F0720E03A2DE09193
S1132790BB07F0E0EE52F84F80814091190250914E
S11327A01A0290E00197FC01EE0FFF1FE80FF91FDA
S11327B0EE0FFF1FE20FF31FEE0FFF1FEC5CFA4F4B
S11327C0808191818417950711F4A22FB32F2F5F75
S11327D03F4F24303105D9F6A0939E07B0939F074D
S11327E0BF93AF9380E797E09F938F93C8D4E09112
S11327F0BB07F0E0EE52F84FE08180919E07909184
S11328009F072091120230911302F0E03197EE0FEE
S1132810FF1FEE0FFF1FE80FF91FEE0FFF1FEE0F54
S1132820FF1FEC5DFC4F0F900F900F900F904081B5
S113283051814217530709F05EC077C0A0919E07EB
S1132840B0919F0720E03A2DE091BB07F0E0E254FD
S1132850F84F80814091190250911A0290E001973B
S1132860FC01EE0FFF1FE80FF91FEE0FFF1FE20F31
S1132870F31FEE0FFF1FEC5CFA4F808191818417E8
S1132880950711F4A22FB32F2F5F3F4F243031054A
S1132890D9F6A0939E07B0939F07BF93AF9380E7A9
S11328A097E09F938F936BD4E091BB07F0E0E254E1
S11328B0F84FE08180919E0790919F07209112022A
S11328C030911302F0E03197EE0FFF1FEE0FFF1F60
S11328D0E80FF91FEE0FFF1FEE0FFF1FEC5DFC4F1B
S11328E00F900F900F900F90408151814217530722
S11328F009F04FC067C0E091BB07F0E0EE52F84F1B
S1132900E081F0E03197EE0FFF1FEE0FFF1FE80F9D
S1132910F91FEE0FFF1FEE0FFF1FEC5DFC4F8281CE
S113292093812817390709F081C03F932F938DE0D5
S113293097E09F938F9323D4E091BB07F0E0EE528E
S1132940F84FE081F0E03197EE0FFF1FEE0FFF1F0D
S113295080919E0790919F07E80FF91FEE0FFF1FCC
S1132960EE0FFF1FEC5DFC4F0F900F900F900F9038
S11329702081318180911202909113022817390726
S113298021F481E090E0BCD9B3C180E09A2DB8D99C
S1132990AFC1E091BB07F0E0E254F84FE081F0E012
S11329A03197EE0FFF1FEE0FFF1FE80FF91FEE0F19
S11329B0FF1FEE0FFF1FEC5DFC4F828193812817F0
S11329C03907A1F53F932F938DE097E09F938F9361
S11329D0D6D3E091BB07F0E0E254F84FE081F0E099
S11329E03197EE0FFF1FEE0FFF1F80919E0790910E
S11329F09F07E80FF91FEE0FFF1FEE0FFF1FEC5D9F
S1132A00FC4F0F900F900F900F9020813181809197
S1132A101202909113022817390721F481E090E003
S1132A206FD966C180E09A2D6BD962C1809113027F
S1132A308F93809112028F9387E397E09F938F93F4
S1132A409ED30F900F900F900F9080E09A2DE6E0A8
S1132A50AB81BC81AB2BC9F5A091BB07B0E0AE52F2
S1132A60B84F2C9130E021503109D901AA0FBB1F76
S1132A70A20FB31FAA0FBB1FA80FB91FAA0FBB1F1A
S1132A80AC5CBA4F2D913C91232B09F455C0A09115
S1132A90BB07B0E0AE52B84F4C912091190230916F
S1132AA01A0250E041505109E49FD001E59FB00D56
S1132AB01124A80FB91FAA0FBB1FAC5CBA4F4D91CC
S1132AC05C9142175307C1F53EC0A091BB07B0E02B
S1132AD0A254B84F2C9130E021503109D901AA0FEA
S1132AE0BB1FA20FB31FAA0FBB1FA80FB91FAA0FAA
S1132AF0BB1FAC5CBA4F2D913C91232BE9F0A09104
S1132B00BB07B0E0A254B84F4C9120911902309108
S1132B101A0250E041505109E49FD001E59FB00DE5
S1132B201124A80FB91FAA0FBB1FAC5CBA4F4D915B
S1132B305C914217530739F001968430910509F0EE
S1132B4087CF80E09A2D00E01A2DEB81FC81EF2BDA
S1132B50D9F5A0911902B0911A02E091BB07F0E0F7
S1132B60EE52F84FE0811197AA0FBB1FAA0FBB1FAB
S1132B70A00FB11FAA0FBB1FA15AB74FF0E03197A6
S1132B80EE0FFF1FEE0FFF1FE80FF91FEE0FFF1FE1
S1132B90E45EFD4F4D915C912081318142175307D2
S1132BA009F04CC0E0911902F0911A023197EE0F2E
S1132BB0FF1FEE0FFF1FE00FF11FEE0FFF1FE15A83
S1132BC0F74F4080518042C0A0911902B0911A027F
S1132BD0E091BB07F0E0E254F84FE0811197AA0FAF
S1132BE0BB1FAA0FBB1FA00FB11FAA0FBB1FA15A67
S1132BF0B74FF0E03197EE0FFF1FEE0FFF1FE80F06
S1132C00F91FEE0FFF1FE45EFD4F4D915C91208193
S1132C1031814217530791F4E0911902F0911A029D
S1132C203197EE0FFF1FEE0FFF1FE00FF11FEE0FA6
S1132C30FF1FE15AF74F4080518008C00F5F1F4FBC
S1132C400430110509F081CF00E01A2DFD81F093C5
S1132C50AC072E812093AD078091170290E0841574
S1132C609505D1F38091180290E084159505D1F370
S1132C70842DA0ECB0E09C9195FFFBCF95E0F6018C
S1132C8090838068A0ECB0E09C9195FFFBCFF601A7
S1132C908083C80184D8019759F5E0911902F09115
S1132CA01A023197EE0FFF1FEE0FFF1FE00FF11F07
S1132CB0EE0FFF1FE15AF74F8081918190931A0222
S1132CC0809319028091190290911A029C01A0EC40
S1132CD0B0E09C9195FFFBCFC90194E0F60190838D
S1132CE08068A0ECB0E09C9195FFFBCFF601808357
S1132CF08091B0079091B10701969093B1078093AA
S1132D00B0078091BB07A0ECB0E09C9195FFFBCF8E
S1132D1096E0F60190838068A0ECB0E09C9195FF6A
S1132D20FBCFF60180838091BB078F5F8093BB0745
S1132D306894772472F8E091BB07F0E0EE52F84F04
S1132D408081811108C0E091BB07F0E0E254F84FA4
S1132D508081882359F08091B9072091B007309180
S1132D60B10790E08217930709F01FCB80E697E044
S1132D7019D2E0ECF0E0808185FFFDCF8AE08093FA
S1132D80C600E0ECF0E0808185FFFDCF80E8809311
S1132D90C6008091AE079091AF070197D1F70E94CA
S1132DA0E60AFFEF2FEF30EE80E0F1502040304094
S1132DB08040D9F700C000000E94EA0A80E090E059
S1132DC026960FB6F894DEBF0FBECDBFDF91CF912C
S1132DD01F910F91FF90EF90DF90CF90BF90AF9035
S1132DE09F908F907F906F905F904F903F902F9027
S1132DF008955058BB27AA270ED048C139D130F0C6
S1132E003ED120F031F49F3F11F41EF42EC10EF494
S1132E10E095E7FB24C1E92F4AD180F3BA17620792
S1132E2073078407950718F071F49EF562C10EF4D8
S1132E30E0950B2EBA2FA02D0B01B90190010C01C6
S1132E40CA01A0011124FF27591B99F0593F50F4DE
S1132E50503E68F11A16F040A22F232F342F442736
S1132E60585FF3CF469537952795A795F04053952E
S1132E70C9F77EF41F16BA0B620B730B840BBAF0FE
S1132E809150A1F0FF0FBB1F661F771F881FC2F769
S1132E900EC0BA0F621F731F841F48F4879577957D
S1132EA06795B795F7959E3F08F0B3CF9395880F34
S1132EB008F09927EE0F9795879508950CD0E6C0F2
S1132EC0DED040F0D5D030F021F45F3F19F0C7C018
S1132ED0511110C1CAC0EBD098F39923C9F35523FB
S1132EE0B1F3951B550BBB27AA27621773078407F9
S1132EF038F09F5F5F4F220F331F441FAA1FA9F3AF
S1132F0033D00E2E3AF0E0E830D091505040E695A0
S1132F10001CCAF729D0FE2F27D0660F771F881F01
S1132F20BB1F261737074807AB07B0E809F0BB0BF0
S1132F30802DBF01FF2793585F4F2AF09E3F510514
S1132F4068F08DC0D7C05F3FECF3983EDCF3869504
S1132F5077956795B795F7959F5FC9F7880F911D8A
S1132F609695879597F90895E1E0660F771F881F76
S1132F70BB1F621773078407BA0720F0621B730B29
S1132F80840BBA0BEE1F88F7E095089598D088F06B
S1132F909F5790F0B92F9927B751A0F0D1F0660F41
S1132FA0771F881F991F1AF0BA95C9F712C0B1305C
S1132FB081F09FD0B1E008959CC0672F782F8827B7
S1132FC0B85F39F0B93FCCF3869577956795B3959B
S1132FD0D9F73EF490958095709561957F4F8F4F0A
S1132FE09F4F0895E89409C097FB3EF4909580950F
S1132FF0709561957F4F8F4F9F4F9923A9F0F92FBB
S113300096E9BB279395F695879577956795B79538
S1133010F111F8CFFAF4BB0F11F460FF1BC06F5F1E
S11330207F4F8F4F9F4F16C0882311F096E911C030
S1133030772321F09EE8872F762F05C0662371F051
S113304096E8862F70E060E02AF09A95660F771F65
S1133050881FDAF7880F9695879597F9089597F959
S11330609F6780E870E060E008959FEF80EC08952A
S113307000240A9416161706180609060895002453
S11330800A9412161306140605060895092E0394CD
S1133090000C11F4882352F0BB0F40F4BF2B11F441
S11330A060FF04C06F5F7F4F8F4F9F4F089557FDA0
S11330B09058440F551F59F05F3F71F04795880FA2
S11330C097FB991F61F09F3F79F087950895121639
S11330D013061406551FF2CF4695F1DF08C01616E5
S11330E017061806991FF1CF869571056105089496
S11330F00895E894BB2766277727CB0197F90895AD
S113310003D008F48FEF0895990F0008550FAA0B08
S1133110E0E8FEEF16161706E807F907C0F01216E6
S11331201306E407F50798F0621B730B840B950BE9
S113313039F40A2661F0232B242B252B21F408953E
S11331400A2609F4A140A6958FEF811D811D0895DB
S1133150EE0FFF1F881F8BBF0790F691E02D199487
S1133160A29FB001B39FC001A39F700D811D1124C4
S1133170911DB29F700D811D1124911D0895CF934F
S1133180DF93CDB7DEB7AE014A5F5F4FFA016191BD
S11331907191AF018091830B9091840B33D0DF91B7
S11331A0CF9108950F931F93CF93DF93E091830BF7
S11331B0F091840B238121FF1BC08C01D0E0C0E07F
S11331C0F80181918F016091830B7091840BDB0175
S11331D01896ED91FC911997882331F01995892B54
S11331E079F3DFEFCFEFECCF8AE01995892B19F053
S11331F08FEF9FEF02C08D2F9C2FDF91CF911F91F6
S11332000F9108952F923F924F925F926F927F9207
S11332108F929F92AF92BF92CF92DF92EF92FF92E2
S11332200F931F93CF93DF93CDB7DEB72C970FB6D1
S1133230F894DEBF0FBECDBF7C016B018A01FC0197
S113324017821682838181FFB0C1CE0101964C01A1
S1133250F7019381F60193FD859193FF81916F01AD
S1133260882309F49EC1853239F493FD859193FF37
S113327081916F01853221F4B70190E0C7D1E8CF85
S1133280512C312C20E02032A0F48B3269F030F440
S1133290803259F0833269F420612CC08D3239F0C8
S11332A0803339F4216026C02260246023C0286062
S11332B021C027FD27C030ED380F3A3078F426FFBF
S11332C006C0FAE05F9E300D1124532E13C08AE02D
S11332D0389E300D1124332E20620CC08E3221F41E
S11332E026FD5FC1206406C08C3611F4206802C03C
S11332F0883641F4F60193FD859193FF81916F0126
S11333008111C1CF982F9F7D9554933028F40C5F81
S11333101F4FFFE3F9830DC0833631F0833771F01B
S1133320833509F057C021C0F801808189830E5F7D
S11333301F4F44244394512C540114C03801F2E02B
S11333406F0E711CF801A080B18026FF03C0652DAB
S113335070E002C06FEF7FEFC5012C874CD12C01C8
S113336083012C852F77222E16C03801F2E06F0ED0
S1133370711CF801A080B18026FF03C0652D70E0A8
S113338002C06FEF7FEFC5012C872AD12C012C8559
S11333902068222E830123FC19C0832D90E0481657
S11333A05906A0F4B70180E290E030D13A94F5CF09
S11333B0F50127FC859127FE81915F01B70190E01B
S11333C025D131103A94F1E04F1A510841145104B7
S11333D079F7DEC0843611F0893631F5F80127FF1C
S11333E007C060817181828193810C5F1F4F08C087
S11333F060817181072E000C880B990B0E5F1F4FA3
S11334002F76722E97FF09C09095809570956195DF
S11334107F4F8F4F9F4F2068722E2AE030E0A40127
S11334202DD1A82EA81843C0853729F42F7EB22E9B
S11334302AE030E025C0F22FF97FBF2E8F36C1F08D
S113344018F4883579F0ADC0803719F0883721F049
S1133450A8C02F2F2061B22EB4FE0DC08B2D846026
S1133460B82E09C024FF0AC09F2F9660B92E06C04B
S113347028E030E005C020E130E002C020E132E085
S1133480F801B7FE07C060817181828193810C5F6E
S11334901F4F06C06081718180E090E00E5F1F4F76
S11334A0A401ECD0A82EA818FB2DFF777F2E76FE62
S11334B00BC0372D3E7FA51450F474FE0AC072FC75
S11334C008C0372D3E7E05C0BA2C372D03C0BA2C58
S11334D001C0B52C34FF0DC0FE01EA0DF11D808141
S11334E0803311F4397E09C032FF06C0B394B3941B
S11334F004C0832F867809F0B39433FD12C030FFE3
S113350006C05A2CB31418F4530C5B18B32CB31420
S113351060F4B70180E290E03C8778D0B3943C85B6
S1133520F6CFB31410F43B1801C0312C34FF11C092
S1133530B70180E390E03C8769D03C8532FF16C038
S113354031FD03C088E790E002C088E590E0B70150
S11335500CC0832F867851F031FF02C08BE201C08A
S113356080E237FD8DE2B70190E050D0A51430F42D
S1133570B70180E390E04AD05A94F8CFAA94F401BA
S1133580EA0DF11D8081B70190E040D0A110F6CF83
S1133590332009F45DCEB70180E290E037D03A944D
S11335A0F7CFF7018681978102C08FEF9FEF2C96AA
S11335B00FB6F894DEBF0FBECDBFDF91CF911F9140
S11335C00F91FF90EF90DF90CF90BF90AF909F90BE
S11335D08F907F906F905F904F903F902F900895C1
S11335E0FC010590615070400110D8F780959095CA
S11335F08E0F9F1F0895FC016150704001900110CF
S1133600D8F7809590958E0F9F1F08950F931F9361
S1133610CF93DF93FB01238121FD03C08FEF9FEF45
S113362028C022FF16C04681578124813581421764
S1133630530744F4A081B1819D012F5F3F4F318333
S113364020838C93268137812F5F3F4F37832683D6
S113365010C0EB01092F182F0084F185E02D199576
S1133660892BE1F68E819F8101969F838E83812F22
S1133670902FDF91CF911F910F910895FA01AA27FE
S1133680283051F1203181F1E8946F936E7F6E5FA1
S11336907F4F8F4F9F4FAF4FB1E03ED0B4E03CD04F
S11336A0670F781F891F9A1FA11D680F791F8A1F32
S11336B0911DA11D6A0F711D811D911DA11D20D099
S11336C009F468943F912AE0269F11243019305D53
S11336D03193DEF6CF010895462F4770405D419344
S11336E0B3E00FD0C9F7F6CF462F4F70405D4A3391
S11336F018F0495D31FD4052419302D0A9F7EACF59
S1133700B4E0A6959795879577956795BA95C9F787
S113371000976105710508959B01AC010A2E06947A
S11337205795479537952795BA95C9F7620F731F33
S10F3730841F951FA01D0895F894FFCF7E
S113373C0000000200000000A400000000000100D2
S113374C64005A002300FF01010D00010100000078
S113375C0000000002000000000000000400000053
S113376C0000000004000000000000000500000040
S113377C000000000600000000000000080000002B
S113378C0000000008000000000000000900000018
S113379C000000000A000000000000000C00000003
S11337AC000000000C000000000000000D000000F0
S11337BC000000000E0000000000000010000000DB
S11337CC00000000100000000000000011000000C8
S11337DC00000000120000000000000014000000B3
S11337EC00000000140000000000000015000000A0
S11337FC000000001600000000000000180000008B
S113380C000000001800000000000000010000008F
S113381C00000000240019002C002B0005000000FF
S113382C0000000009001C00000000001D001C002A
S113383C2E002D000D0000000000000011000000FF
S113384C000000002100200030002F0015000000B3
S113385C000000005A00FF00FFFFFFFFFFFFFFFF07
S113386CFFFFFFFF4B00F000FFFFFFFFFFFFFFFF19
S113387CFFFFFFFF3C00E100FFFFFFFFFFFFFFFF27
S113388CFFFFFFFF2D00D200FFFFFFFFFFFFFFFF35
S113389CFFFFFFFF1E00C300FFFFFFFFFFFFFFFF43
S11338ACFFFFFFFF0F00B400FFFFFFFFFFFFFFFF51
S11338BCFFFFFFFF0000A500FFFFFFFFFFFFFFFF5F
S11338CCFFFFFFFF59019600FFFFFFFFFFFFFFFF04
S11338DCFFFFFFFF4A018700FFFFFFFFFFFFFFFF12
S11338ECFFFFFFFF3B017800FFFFFFFFFFFFFFFF20
S11338FCFFFFFFFF2C016900FFFFFFFFFFFFFFFF2E
S113390CFFFFFFFF1D015A00FFFFFFFFFFFFFFFF3B
S113391CFFFFFFFF0E014B00FFFFFFFFFFFFFFFF49
S113392CFFFFFFFFFF003C00FFFFFFFFFFFFFFFF58
S113393CFFFFFFFFF0002D00FFFFFFFFFFFFFFFF66
S113394CFFFFFFFFE1001E00FFFFFFFFFFFFFFFF74
S113395CFFFFFFFFD2000F00FFFFFFFFFFFFFFFF82
S113396CFFFFFFFFC3000000FFFFFFFFFFFFFFFF90
S113397CFFFFFFFFB4005901FFFFFFFFFFFFFFFF35
S113398CFFFFFFFFA5004A01FFFFFFFFFFFFFFFF43
S113399CFFFFFFFF96003B01FFFFFFFFFFFFFFFF51
S11339ACFFFFFFFF87002C01FFFFFFFFFFFFFFFF5F
S11339BCFFFFFFFF78005A00FFFFFFFFFFFFFFFF31
S11339CCFFFFFFFF69001D01FFFFFFFFFFFFFFFF6C
S11339DCFFFFFFFFFF005A003C002C01FFFFFFFF1D
S11339ECFFFFFFFFF0003C00FFFFFFFFFFFFFFFFA7
S11339FCFFFFFFFFC3001E000000F000FFFFFFFFEE
S1133A0CFFFFFFFF87004A012C01B400FFFFFFFFFB
S1133A1CFFFFFFFF78002C01FFFFFFFFFFFFFFFFFD
S1133A2CFFFFFFFF4B000E01F0007800FFFFFFFFCC
S1133A3CFFFFFFFF0F00D200B4003C00FFFFFFFFAD
S1133A4CFFFFFFFF0000B400FFFFFFFFFFFFFFFFBE
S1133A5CFFFFFFFF3B01960078000000FFFFFFFF14
S1133A6CFFFFFFFF01000000000000000000000049
S1133A7C0200000000000000000000000300000031
S1133A8C0000000000000000040000000000000022
S1133A9C0000000005000000000000000000000011
S1133AAC06000000000000000000000007000000F9
S1133ABC00000000000000000800000000000000EE
S1133ACC00000000090000000000000000000000DD
S1133ADC0A00000000000000000000000B000000C1
S1133AEC00000000000000000C00000000000000BA
S1133AFC000000000D0000000000000000000000A9
S1133B0C0E00000000000000000000000F00000088
S1133B1C0000000000000000100000000000000085
S1133B2C0000000011000000000000000000000074
S1133B3C1200000000000000000000001300000050
S1133B4C0000000000000000140000000000000051
S1133B5C0000000015000000000000000000000040
S1133B6C1600000000000000000000001700000018
S1133B7C000000000000000018000000000000001D
S1133B8C0000000001002300000000000000000001
S1133B9C190024002B002C000000000005001A0062
S1133BAC000000000000000009001B0000000000E1
S1133BBC000000001C001D002D002E000000000061
S1133BCC0D001E00000000000000000011001F008A
S1133BDC0000000000000000200021002F00300035
S1133BEC000000001500220000000000000000008E
S1133BFC20202020202020202020202020202020B5
S1133C0C20202020202020202020202020202020A4
S1133C1C20202020202020200057616974696E67C1
S1133C2C2E2E2E0052656365697665642100476FFC
S1133C3C6E6E6120537461727421212100476F6E82
S1133C4C6E6120537472696B6520686572652069B6
S1133C5C7473656C6620617320626F74616E672087
S1133C6C3D202564200A00476F6E6E61206D6F76CF
S1133C7C6520746F206E657874206E6F64652061A6
S1133C8C7320626F74616E67203D202564200A00E6
S1133C9C476F6E6E61206265204F7574212121007F
S1133CAC43757272656E746C79206F6E2025642076
S1133CBC6F66206E6F6465736E656172206F66202B
S10F3CCC74686174206E6F7465200A0037
S9030000FC
