S00D00005461736B352E737265634F
S11300007BC000009AC0000098C0000096C00000A9
S113001094C000000C94AB0A0C94860A8EC00000B5
S11300208CC000008AC0000088C0000086C00000A8
S113003084C0000082C0000080C000007EC00000B8
S11300407CC000007AC0000078C0000076C00000C8
S113005074C0000072C0000070C000006EC00000D8
S11300606CC000000C943E0968C0000066C000002B
S113007064C0000062C0000060C000005EC00000F8
S11300805CC000005AC0000058C0000056C0000008
S113009054C0000052C0000050C000004EC0000018
S11300A04CC000004AC0000048C0000046C0000028
S11300B044C0000042C0000040C000003EC0000038
S11300C03CC000003AC0000038C000000C94C009D5
S11300D034C0000032C0000030C000002EC0000058
S11300E02CC000006409B1097409800983098609D8
S11300F090099A09A009A30911241FBECFEFD1E2E8
S1130100DEBFCDBF00E00CBF14E0A0E0B2E0EEE53E
S1130110FCE200E00BBF02C007900D92A637B107C6
S1130120D9F728E0A6E7B4E001C01D92A635B207CE
S1130130E1F70E94D40E0C942D1662CFE0EDF0E0AE
S1130140908195FFFDCF8093D600089587B1876F86
S113015087B988B1807888B9089586E69EE00197CA
S1130160F1F700004098419880E388B9429AEFEF94
S1130170F7E43197F1F700C000004298E6E6FEE0AC
S11301803197F1F700004098419888B9429AEFEF0F
S1130190F7E43197F1F700C000004298E6E6FEE08C
S11301A03197F1F700004098419888B9429A8FEF4F
S11301B097E40197F1F700C000004298E6E6FEE0FC
S11301C03197F1F700004098419880E288B9429A4B
S11301D08FEF97E40197F1F700C00000429808956B
S11301E098B19F7098B998B1282F207F922B98B915
S11301F040984198429AEFEFF7E43197F1F700C045
S11302000000429898B19F7098B998B18295807F08
S1130210892B88B940984198429A8FEF97E40197C7
S1130220F1F700C000004298089598B19F7098B902
S113023098B1282F207F922B98B9409A4198429ADE
S1130240EFEFF7E43197F1F700C00000429898B15E
S11302509F7098B998B18295807F892B88B9409A0C
S11302604198429A8FEF97E40197F1F700C000009C
S11302704298089580E8B4CF0895CF93DF93EC01BA
S11302808881882329F02196D0DF89918111FCCFC0
S1130290DF91CF91089586E69EE00197F1F7000083
S11302A088E29EDF81E09CDF86E09ADF8EE098DFC3
S11302B080E896CF0895823069F018F4813031F0E7
S11302C00895833059F0843069F008958FE7860FDC
S11302D087CF08958FEB860F83CF089583E9860F28
S11302E07FCF089583ED860F7BCF08950F931F93DF
S11302F0CF93DF938A01E901882311F0611102C0D1
S1130300B9DF01C0D8DFC530D105C1F498013295F9
S113031022952F7023273F702327A7E4B3E00E9480
S11303204113969587959695879596958795C0964A
S11303309093E2048093E10478DF04C0C430D105D3
S113034009F0BEC0980136952795369527953695C0
S11303502795A5ECB0E20E944113AC015295429559
S11303604F7045275F7045275093C4064093C306DA
S11303709A01ADECBCEC0E94411396958795969535
S11303808795969587959C01220F331F880F991F97
S1130390880F991F880F991F820F931F9A01281B9A
S11303A0390BC901C09690934D0880934C083DDFEA
S11303B098013695279536952795ABE7B4E10E94C9
S11303C04113AC01569547955093C4064093C30618
S11303D09A01ADECBCEC0E944113969587959695D5
S11303E08795969587959C01220F331F880F991F37
S11303F0880F991F880F991F820F931F9A01281B3A
S1130400390BC901C09690934908809348080DDFC1
S113041004C0C230D10509F058C09801ADECBCEC61
S11304200E944113AC0156954795569547955695AC
S113043047955093C4064093C3069A010E94411302
S11304409695879596958795969587959C01220F05
S1130450331F880F991F880F991F880F991F820FC8
S1130460931F9A01281B390BC901C0969093C706A4
S11304708093C606DADE9801ADECBCEC0E94411311
S11304809695879596958795969587959C01220FC5
S1130490331F880F991F880F991F880F991F820F88
S11304A0931F9801281B390BC901C09690934B08E0
S11304B080934A08BADE269764F085E4B6DE09C064
S11304C0C330D10509F0A5CF73CFC130D10599F759
S11304D0D2CFDF91CF911F910F91089580E880DEF4
S11304E088EA93E0CADE80EC7BDE88EA93E0C5DE2E
S11304F0C1CE08952F923F924F925F926F927F9256
S11305008F929F92AF92BF92CF92DF92EF92FF921F
S11305100F931F93CF93DF93E8ECF6E00F2EFBE4E9
S1130520AF2EB12CF02DB182A0820F2EFDE14F2E03
S113053055245394F02D538242828FEF9FEF95837D
S1130540848397838683CC24CA94D12CD186C08695
S1130550ACE3B0E0B387A2879587848797878687C3
S113056020EF30E0318B208B0F2EFDE22F2E312C2B
S1130570F02D338A228A158A148A6CE271E0778B13
S1130580668B0F2EF1EE8F2E912CF02D918E808E96
S11305900EE110E0138F028F958F848F978F868FD3
S11305A042ED50E051A340A3CFE0D0E0D3A3C2A3D7
S11305B095A384A397A386A303EC10E011A700A737
S11305C013A612A695A784A797A786A744EB50E085
S11305D051AB40AB09E511E013AB02AB35AB24AB37
S11305E077AB66AB05EA10E011AF00AF0AE411E0A7
S11305F013AF02AF95AF84AF9093070780930607BC
S1130600E6E9F0E0F0930907E09308070BE311E053
S113061010930B0700930A0790930D0780930C0720
S113062090930F0780930E070F2EF7E86F2E712C0F
S1130630F02D709211076092100770931307609366
S113064012079093150780931407909317078093CC
S11306501607E8E7F0E0F0931907E09318075092C3
S11306601B0740921A0750931D0740931C073093B1
S11306701F0720931E070F2EF9E6EF2EF12CF02D05
S1130680F0922107E09220070EE011E01093230777
S113069000932207909325078093240790932707BC
S11306A0809326070AE510E0109329070093280792
S11306B0D0922B07C0922A0790932D0780932C0782
S11306C090932F0780932E07B0923107A0923007A2
S11306D03093330720933207909335078093340780
S11306E09093370780933607B0933907A093380760
S11306F090923B0780923A07F0933D07E0933C07C2
S113070050933F0740933E073092410720924007A1
S11307100F2EF2EDCF2ED12CF02DD0924307C092A4
S1130720420790934507809344079093470780932B
S113073046070F2EFEE1CF2ED12CF02DD092490783
S1130740C09248070F2EF3ECCF2ED12CF02DD0926F
S11307504B07C0924A0790934D0780934C079093A0
S11307604F0780934E07D0935107C093500750937F
S113077053074093520790935507809354079093DF
S113078057078093560710925907109258070F2E57
S1130790F5EACF2ED12CF02DD0925B07C0925A07E8
S11307A0B0935D07A0935C07F0935F07E0935E0747
S11307B00F2EF9E5CF2EDD24D394F02DD0926107CE
S11307C0C09260070F2EF6E9CF2ED12CF02DD092D7
S11307D06307C092620790936507809364079093C0
S11307E06707809366070F2EFAE4CF2EDD24D39497
S11307F0F02DD0926907C092680770926B076092DF
S11308006A0790936D0780936C0790936F078093AA
S11308106E070F2EFBE3CF2EDD24D394F02DD09260
S11308207107C0927007F0937307E0937207909377
S11308307507809374079093770780937607709376
S1130840790760937807F0927B07E0927A07109219
S11308507D0710927C07B0937F07A0937E071093C7
S113086081070093800750928307409282079093F8
S11308708507809384079093870780938607509316
S113088089074093880710928B0710928A07309348
S11308908D0720938C0790938F0780938E07509336
S11308A09107409390071092930710929207B09388
S11308B09507A093940770939707609396075093B6
S11308C099074093980710929B0710929A07F09308
S11308D09D07E0939C0730939F0720939E071092F7
S11308E0A1071092A0075093A3074093A207709307
S11308F0A5076093A4079093A7078093A607B093D6
S1130900A907A093A807F093AB07E093AA07309335
S1130910AD072093AC079093AF078093AE07B093D5
S1130920B107A093B0073093B3072093B207709335
S1130930B5076093B4075093B7074093B607B093D5
S1130940B907A093B8073093BB072093BA07109256
S1130950BD071092BC07F093BF07E093BE07309326
S1130960C1072093C007B093C307A093C207509355
S1130970C5074093C4079093C7078093C607709335
S1130980C9076093C8071092CB071092CA07F09367
S1130990CD07E093CC079093CF078093CE07709355
S11309A0D1076093D007F093D307E093D207509315
S11309B0D5074093D407B093D707A093D607709375
S11309C0D9076093D807F093DB07E093DA073093F5
S11309D0DD072093DC071092DF071092DE07F09307
S11309E0E107E093E007B093E307A093E207709375
S11309F0E5076093E4079093E7078093E607B093D5
S1130A00E907A093E8073093EB072093EA07909354
S1130A10ED078093EC079093EF078093EE07F09334
S1130A20F107E093F0077093F3076093F207909354
S1130A30F5078093F4079093F7078093F607709374
S1130A40F9076093F807F093FB07E093FA07909394
S1130A50FD078093FC079093FF078093FE07109295
S1130A6001081092000850930308409302089093E1
S1130A700508809304089093070880930608509310
S1130A8009084093080810920B0810920A089093E2
S1130A900D0880930C0890930F0880930E083093F0
S1130AA0110820931008B0931308A0931208909390
S1130AB01508809314089093170880931608509390
S1130AC0190840931808B0931B08A0931A08909330
S1130AD01D0880931C0890931F0880931E08F093B0
S1130AE02108E09320083093230820932208909350
S1130AF02508809324089093270880932608B093B0
S1130B002908A093280870932B0860932A089093CF
S1130B102D0880932C0890932F0880932E08109210
S1130B20310810923008F0933308E0933208909320
S1130B30350880933408909337088093360870936F
S1130B4039086093380850933B0840933A089093CF
S1130B503D0880933C0890933F0880933E0830936F
S1130B604108209340081092430810924208909341
S1130B704508809344089093470880934608E3E42B
S1130B80F5E082E090E09183808328E130E03383D4
S1130B902283158214821782168221E030E0318785
S1130BA0208723E030E03387228715861486178652
S1130BB01686918B808B84E090E0938B828B49E145
S1130BC050E0558B448B44E250E0578B468B318F79
S1130BD0208F25E030E0338F228F158E148E178EF0
S1130BE0168E91A380A386E090E093A382A315A21E
S1130BF014A217A216A231A720A727E030E033A73A
S1130C0022A715A614A617A616A691AB80AB88E05A
S1130C1090E093AB82AB45E250E055AB44AB46E287
S1130C2050E057AB46AB31AF20AF29E030E033AFF3
S1130C3022AF15AE14AE10928205109281059093E6
S1130C408405809383058AE090E0909386058093E1
S1130C508505109288051092870510928A051092D6
S1130C60890530938C0520938B052BE030E030937D
S1130C708E0520938D051092900510928F05109289
S1130C8092051092910590939405809393058CE0BE
S1130C9090E090939605809395054CE150E0509335
S1130CA09805409397054DE150E050939A05409381
S1130CB0990530939C0520939B052DE030E03093FB
S1130CC09E0520939D051092A00510929F051092F9
S1130CD0A2051092A1059093A4058093A3058EE02C
S1130CE090E09093A6058093A5051092A805109214
S1130CF0A7051092AA051092A9053093AC0520937C
S1130D00AB05D093AE05C093AD051092B00510921B
S1130D10AF051092B2051092B1059093B40580937B
S1130D20B30520E130E03093B6052093B50587E2A2
S1130D3090E09093B8058093B70588E290E0909393
S1130D40BA058093B905D093BC05C093BB0581E176
S1130D5090E09093BE058093BD051092C00510925B
S1130D60BF051092C2051092C1053093C4052093AB
S1130D70C30522E130E03093C6052093C5051092E7
S1130D80C8051092C7051092CA051092C905909320
S1130D90CC058093CB0583E190E09093CE058093BE
S1130DA0CD051092D0051092CF051092D205109265
S1130DB0D1053093D4052093D30524E130E030935A
S1130DC0D6052093D50540E250E05093D8054093D2
S1130DD0D70541E250E05093DA054093D90590934A
S1130DE0DC058093DB0585E190E09093DE0580933C
S1130DF0DD051092E0051092DF051092E2051092D5
S1130E00E1053093E4052093E30526E130E03093D7
S1130E10E6052093E5051092E8051092E705109287
S1130E20EA051092E9059093EC058093EB0587E1C0
S1130E3090E09093EE058093ED051092F0051092EA
S1130E40EF051092F2051092F10586E190E090937F
S1130E50F4058093F30588E190E09093F605809380
S1130E60F505C9E2D0E0D093F805C093F7050F2E3D
S1130E70FAE2AF2EB12CF02DB092FA05A092F9054A
S1130E8081E090E09093FC058093FB05E7E1F0E0BE
S1130E90F093FE05E093FD05109200061092FF0505
S1130EA010920206109201060F2EF3E08F2E912C61
S1130EB0F02D90920406809203066AE170E070932C
S1130EC0060660930506A4E2B0E0B0930806A0937A
S1130ED0070610920A06109209060F2EF9E16F2EEA
S1130EE0712CF02D70920C0660920B064BE150E0D1
S1130EF050930E0640930D0685E290E09093100601
S1130F0080930F060F2EFCE24F2E512CF02D5092A1
S1130F1012064092110670931406609313062CE196
S1130F2030E0309316062093150686E290E0909305
S1130F301806809317060DE210E010931A0600932A
S1130F4019060BE010E010931C0600931B06509347
S1130F501E0640931D068DE190E090932006809339
S1130F601F06109222061092210610932406009365
S1130F70230630932606209325062EE130E0309395
S1130F8028062093270610922A0610922906909389
S1130F902C0680932B068FE190E090932E0680938D
S1130FA02D0607E210E01093300600932F060F2E53
S1130FB0FEE22F2E312CF02D309232062092310693
S1130FC030933406209333066894EE24E5F8F12C2C
S1130FD0F0923606E092350608E210E010933806E7
S1130FE0009337060F2EFFE2CF2ED12CF02DD09296
S1130FF03A06C09239060F2EF3E1CF2ED12CF02DF4
S1131000D0923C06C0923B0690933E0680933D06E8
S113101001E210E01093400600933F06109242064E
S113102010924106D0924406C0924306F0924606BE
S1131030E09245060F2EF2E2EF2EF12CF02DF09205
S11310404806E092470610924A0610924906109309
S11310504C0600934B0603E210E010934E060093F7
S11310604D06D0935006C0934F06C0E3D0E0D09312
S11310705206C0935106F0925406E0925306B09380
S11310805606A0935506B0925806A0925706ABE2B6
S1131090B0E0B0935A06A093590690925C068092F1
S11310A05B0670925E0660925D0610936006009384
S11310B05F0610926206109261060F2EF7E0CF2EA3
S11310C0D12CF02DD0926406C0926306709366060C
S11310D060936506109268061092670610926A067D
S11310E010926906D0926C06C0926B0650936E06FD
S11310F040936D061092700610926F06109272065D
S1131100109271060F2EFFE0CF2ED12CF02DD0922D
S11311107406C09273063093760620937506109277
S113112078061092770610927A0610927906D09279
S11311307C06C0927B0690937E0680937D06109277
S1131140800610927F061092820610928106F09318
S11311508406E0938306F0928606E0928506109258
S113116088061092870610928A0610928906F093D8
S11311708C06E0938B0610938E0600938D061092D6
S1131180900610928F061092920610929106109378
S113119094060093930650929606409295061092F8
S11311A098061092970610929A06109299067093D8
S11311B09C0660939B06B0939E06A0939D06109296
S11311C0A00610929F061092A2061092A1065093B8
S11311D0A4064093A3063092A6062092A506109278
S11311E0A8061092A7061092AA061092A906309398
S11311F0AC062093AB060DE210E01093AE0600930C
S1131200AD061092B0061092AF061092B20610927C
S1131210B1069093B4068093B306D093B606C093F8
S1131220B5061092B8061092B7061092BA0610923C
S1131230B906F092BC06E092BB062FE230E0309390
S1131240BE062093BD061092C0061092BF061092EF
S1131250C2061092C106DF91CF911F910F91FF90AA
S1131260EF90DF90CF90BF90AF909F908F907F9042
S11312706F905F904F903F902F9008951F920F9220
S11312800FB60F9211240BB60F924F935F936F9387
S11312907F938F939F93EF93FF938091C60088234E
S11312A00CF058C0982F9F77E09114024E2F50E015
S11312B0FA013197EA30F10508F053C08827EE5857
S11312C0FF4F8F4F0C943913E091B604F0E0E353D1
S11312D0FB4F90838091B6048F5F8093B604809116
S11312E0B604809305013DC0E091B304F0E0E954F5
S11312F0FB4F90838091B3048F5F8093B30431C01C
S1131300909316022EC0909315022BC08091B504C1
S1131310891327C08091B5048F5F8093B50421C0E1
S11313208091B40489131DC08091B4048F5F8093AD
S1131330B40417C08091B204890F8093B20411C021
S1131340909319020EC081E090E0909385048093FD
S1131350840407C080931402823019F481E08093DE
S1131360B004FF91EF919F918F917F916F915F9165
S11313704F910F900BBE0F900FBE0F901F901895BA
S11313801F920F920FB60F9211240BB60F928F93E8
S1131390EF93FF938091D6008F3F81F0E091B604E4
S11313A0F0E0E353FB4F80838091B6048F5F80931A
S11313B0B6048091B6048093050105C0109205011E
S11313C081E08093B004FF91EF918F910F900BBE59
S11313D00F900FBE0F901F9018953B9A4398089555
S11313E086B1886088B9089586B1877F88B90895E1
S11313F010BA11BA1092070110920801089581B130
S11314008F6081B982B1807F82B9EAE0F1E08081A6
S113141088618083EBE0F1E08081886180830895B6
S11314206C98749A08956D98759A0895E8DFF8DFBA
S1131430FADF0E94A600DCDFD0CF0895E1E2F1E0FC
S113144010828FEF8093250191E0909324011092F4
S113145029018093280110922B0180932A01109274
S11314602D0180932C0189EA809320018BE08083F5
S11314700895EAE7F0E0108210927B0080E2809306
S11314807C0080E880BF86E880830895883018F067
S113149098E090937B008770806280937C00EAE7F9
S11314A0F0E0808180648083808184FFFDCF80911F
S11314B07900EAE7F0E090819061908310927B00DC
S11314C00895CF93DF93C82FD62F842FDFDF809327
S11314D0C506482F50E023E030E06D2F8C2F0E948A
S11314E07601DF91CF910895F894EAE6F0E08081E7
S11314F082608083EC9A78940895F894EAE6F0E0A8
S1131500808188608083ED9A789408951F920F9269
S11315100FB60F9211248F939F93AF93BF93809133
S11315207A0490917B04A0917C04B0917D0401968F
S1131530A11DB11D80937A0490937B04A0937C0435
S1131540B0937D04BF91AF919F918F910F900FBE87
S11315500F901F9018951F920F920FB60F9211249F
S11315608F939F93AF93BF9380917E0490917F0458
S1131570A0918004B09181040196A11DB11D8093B6
S11315807E0490937F04A0938004B0938104BF9160
S1131590AF919F918F910F900FBE0F901F90189550
S11315A092B1907F8F70982B92B9089586E0F8CF0E
S11315B0089585E0F5CF089580911202F1CF089542
S11315C080E0EECF0895CF92DF92EF92FF920F93D7
S11315D01F93BC0180E090E096D728E431EE42E806
S11315E050E4FDD664D7AB0160E070E010927A0459
S11315F010927B0410927C0410927D0410927E045D
S113160010927F04109280041092810491E0E0E033
S1131610C0907A04D0907B04E0907C04F0907D0428
S113162000917E0410917F04209180043091810404
S1131630892F041715072607370708F48E2F811101
S113164009C0892FC416D506E606F70608F48E2FBE
S11316508823F1F21F910F91FF90EF90DF90CF90CC
S11316600895CF93DF93EC01A4DF9FEF90932801BB
S113167090932A01CE01A7DFDF91CF910895CF93F4
S1131680DF93EC0199DF9FEF9093280190932A0157
S1131690CE0199DFDF91CF9108958FEF80930401FC
S11316A0109205010895F894C1DEE1ECF0E0108297
S11316B01092C00026E02093C2009FE59093C400DE
S11316C01092C50088E98083E1EDF0E01082109269
S11316D0D0002093D2009093D4001092D500808340
S11316E003DF0BDFC6DEAADE0E94AD000E944B01C1
S11316F0D4DF78940895BC0180E090E004D725EE0F
S113170030ED4AEA50E46BD6D2D6AB01BC0110925C
S11317107A0410927B0410927C0410927D048091D0
S11317207A0490917B04A0917C04B0917D044817C5
S113173059076A077B0798F743CF0895CF93DF9340
S1131740EC0134DF90910E029093280190932A01CA
S1131750CE01D1DFDF91CF9108954F925F926F92C6
S11317607F928F929F92AF92BF92CF92DF92EF922D
S1131770FF920F931F93CF93DF93CDB7DEB7C05C77
S1131780D1090FB6F894DEBF0FBECDBFDE01AF594D
S1131790BF4F20E6FD0111922A95E9F7E3EEF4E04C
S11317A08E010F5F1F4F78016D0103E415E097016F
S11317B063E670E04FEF5FEF61937193D9014D934E
S11317C05D939D01D6011D921D926D01E017F107F5
S11317D099F7FC01AC01445F5F4F8FEF9FEF61E02D
S11317E070E0208131812115310509F1220F331F69
S11317F0D901AF51BB4F1D921C92019620813181BA
S1131800DC01AA0FBB1F01E010E00C0F1D1FA00F8D
S1131810B11F2D933C93D9011197AA0FBB1F21E649
S113182030E02C0F3D1FA20FB31F6D937C933296B3
S1131830E417F507B1F6AE2C9F2C812C712C68941B
S1131840BB24B2F8612CCC24C394D12CA981BA81D5
S1131850119799236CF0EA2DF92D282D372D2F5F40
S11318603F4F428153814193519382179307BCF7B1
S11318700197FD01EE0FFF1FEE0FFF1FEE0FFF1F7D
S1131880ED5BFA4F2B2D362DAA0FBB1FAD014D5129
S11318905B4F2A016191719161157105D1F1D201FA
S11318A00D911C910F5F1F4FAB01415051097A01FB
S11318B0EE0CFF1CD701AD51BB4FED90FC90E01630
S11318C0F10644F07A01EE0CFF1CD701AD51BB4F79
S11318D00D931C938A01000F111FA1E6B0E0AC0F19
S11318E0BD1F0A0F1B1FD8010D911C9111970130C8
S11318F0110579F0CD92DC920196AC01440F551F8D
S113190001E010E00C0F1D1F400F511FDA016D9311
S11319107C932150310909F0BDCF29813A812F3FB1
S11319203F4F09F093CF8F3FEFEF9E0709F08ECF23
S1131930C054DF4F0FB6F894DEBF0FBECDBFDF91AA
S1131940CF911F910F91FF90EF90DF90CF90BF90B8
S1131950AF909F908F907F906F905F904F9008957D
S1131960EF92FF920F931F93CF93992344F42CEE9D
S11319703FEFA901481B590BCA0181DE02C04497FD
S113198070DE0F2EF8E2EF2EFF24F394F02DC6E95B
S11319900AE211E0F701C083F801C08382E076DD3A
S11319A08093780442E065E081E08BDD80917804E7
S11319B090E020911202309113022817390754F74E
S11319C0FFDDCF911F910F91FF90EF900895EF925B
S11319D0FF920F931F93CF93DF93EC011092280192
S11319E010922A01E0911702F09118023197EE0F3C
S11319F0FF1FEE0FFF1FE80FF91FEE0FFF1FE85345
S1131A00F94F008111818091100290911102081BFD
S1131A10190BB801012E000C880B990B76D59F7712
S1131A2020E030E044E352E4FCD518162CF486E4BC
S1131A3090E084DEC80194DF80911702909118022F
S1131A400197880F991F880F991FC80FD91FCC0FB2
S1131A50DD1FC853D94F88819981909311028093D7
S1131A601002A4DD10927A0410927B0410927C047C
S1131A7010927D040F2EFEE0EF2EF2E0FF2EF02DEB
S1131A8008E211E0CAE2D1E083E000DD809379044A
S1131A9082E0FCDC8093780481E0F8DC80937704B6
S1131AA086E0F4DC809376044091790450E023E0EE
S1131AB030E061E081E00E9476014091780450E0DA
S1131AC023E030E065E081E00E94760140917704F4
S1131AD050E023E030E069E081E00E94760140912B
S1131AE0760450E023E030E06CE081E00E9476016F
S1131AF080911202909113022091780430E08217B1
S1131B0093076CF42091790430E08217930794F1E1
S1131B102091770430E082179307CCF145C02091DF
S1131B20790430E0821793070CF04DC03FDD23E0C9
S1131B3030E041E050E061E082E00E947601F7018C
S1131B408081F801108288839FCF30DD23E030E06C
S1131B5042E050E061E082E00E947601F70180817A
S1131B60F8018083188290CFF7018081F801808387
S1131B7088838ACF80917A0490917B04A0917C041D
S1131B80B0917D040B97A105B10580F223C080912B
S1131B907A0490917B04A0917C04B0917D040B970E
S1131BA0A105B10590F216C001DDF7018081F801AD
S1131BB08083888323E030E040E050E061E082E00D
S1131BC00E94760161CF2091770430E08217930759
S1131BD05CF6BBCFEBDC1092280110922A0123E0C3
S1131BE030E044E650E061E082E00E94760181E06A
S1131BF090E0DF91CF911F910F91FF90EF900895A6
S1131C00CF93DF939C01BC0161507109DB01AA0FE2
S1131C10BB1FAD51BB4F8D919C91892B39F43093EF
S1131C204F0820934E08822F932F3CC0DB01AA0F4C
S1131C30BB1FAA0FBB1FAA0FBB1FFD01ED5BFA4F11
S1131C400190F081E02DEE0FFF1FEF51FB4FC0819B
S1131C50D181AB5BBA4F40E050E021E030E08D91A0
S1131C609D91009761F0880F991FFC01EF51FB4F84
S1131C70808191818C179D0714F4A901EC012F5FD9
S1131C803F4F2430310559F7FB01EE0FFF1FEE0FD4
S1131C90FF1FE40FF51FEE0FFF1FED5BFA4F80816E
S1131CA09181AEDFDF91CF910895CF93DF9380913F
S1131CB0B604882309F475C0C0E0D0E0FE01E35304
S1131CC0FB4F808190E001979C01220F331F820F0C
S1131CD0931F880F991F880F991F845E9D4F3DDDC8
S1131CE02091B20480911A0290911B02FC01EE0F24
S1131CF0FF1FEF51FB4F40815181A091B104E0914E
S1131D001902BA01620F711DF0E0EE0FFF1FEF51CF
S1131D10FB4F208131812A0F311D2617370724F507
S1131D20E09119029091B104F0E0EE0FFF1FEF5122
S1131D30FB4F8081890F8093B1048091190290E058
S1131D405FDF809319028091860490918704FC01DF
S1131D50EE0FFF1FE857FB4FD183C083019690938A
S1131D6087048093860415C02091B204420F4093E7
S1131D70B20446DF90931B0280931A02E091B304ED
S1131D80F0E0E954FB4FC0838091B3048F5F8093EC
S1131D90B30421968091B60490E08C179D0709F056
S1131DA08DCFDF91CF9108952F923F924F925F9202
S1131DB06F927F928F929F92AF92BF92CF92DF9257
S1131DC0EF92FF920F931F93CF93DF930E947A02B7
S1131DD06ADC109205011092B00481ED93E00E9438
S1131DE03D018091B0048823E1F30E946E028CEDE2
S1131DF093E00E943D018FEF80930501E0ECF0E059
S1131E00808185FFFDCF81E08093C6008091B60478
S1131E108823B9F020E030E0E0ECF0E0C6ECD0E05C
S1131E20D901A353BB4F9C919068808185FFFDCF5E
S1131E3098832F5F3F4F8091B60490E028173907AD
S1131E407CF3E0ECF0E0808185FFFDCF82E08093BD
S1131E50C6008FE0809305010E946E0286EE93E037
S1131E600E943D010E946E028CEE93E00E943D01AF
S1131E701CDF0E946E028AEF93E00E943D01809174
S1131E808604909187041816190604F5A8E8B4E0AE
S1131E9020E030E0E0ECF0E0C6ECD0E053E09C91D0
S1131EA01296808185FFFDCF5883492F4068808139
S1131EB085FFFDCF4883909319022F5F3F4F809198
S1131EC0860490918704281739074CF30E946E0208
S1131ED084E094E00E943D018091B3048823E1F3FF
S1131EE080E092E090935308809352088091B60466
S1131EF08823E9F0C0E0D0E0FE01E353FB4F4081CA
S1131F0050E022E030E061E082E00E9476012FEFB1
S1131F103FEF8CE2215030408040E1F700C00000E8
S1131F2021968091B60490E0C817D9072CF30E943B
S1131F306E02C0ECD0E00F2EF6ECAF2EB12CF02DDB
S1131F40212C422C512C66246394712CF7C1FC0182
S1131F50E954FB4FE081F0E0E353FB4F80811F9293
S1131F608F93AEE0B4E0BF93AF939AD3E091820431
S1131F70F0918304E954FB4FE081F0E0E353FB4F1D
S1131F80808190E001979C01220F331F820F931FE1
S1131F90880F991F880F991F845E9D4FDEDBE091A7
S1131FA08204F0918304E954FB4FE081F0E0E353B1
S1131FB0FB4F408150E022E030E06CE082E00E9480
S1131FC07601E0911702F0911802A0918204B09179
S1131FD08304A954BB4F8C91EE0FFF1FEF51FB4FAD
S1131FE091819F9390819F931F928F93A5E2B4E078
S1131FF0BF93AF9355D3E0911702F0911802EE0FFF
S1132000FF1FEF51FB4F2DB73EB7265F3F4F0FB673
S1132010F8943EBF0FBE2DBF80819181892B09F4B6
S11320203AC1409117025091180222E030E065E075
S113203082E00E947601E0911702F0911802EE0FFF
S1132040FF1FEE0FFF1FEE0FFF1FE55CFA4F01901D
S1132050F081E02DEE0FFF1FEF51FB4F2081318106
S1132060E0911702F0911802EE0FFF1FEE0FFF1F11
S1132070EE0FFF1FE55CFA4F80809180E42CF52C75
S1132080862D972DE0911702F09118023197EE0FEB
S1132090FF1FEE0FFF1FE80FF91FEE0FFF1FED5B91
S11320A0FA4F40815181452B09F445C0E091170254
S11320B0F09118023197EE0FFF1FEE0FFF1FE80F8C
S11320C0F91FEE0FFF1FED5BFA4F0190F081E02D39
S11320D0EE0FFF1FEF51FB4F408151814217530711
S11320E054F5E0911702F09118023197EE0FFF1F9B
S11320F0EE0FFF1FE80FF91FEE0FFF1FED5BFA4F06
S11321000190F081E02DEE0FFF1FEF51FB4F208176
S11321103181E0911702F09118023197EE0FFF1F01
S1132120EE0FFF1FE80FF91FEE0FFF1FED5BFA4FD5
S1132130808091807C0101968430910509F0A2CFC2
S11321406701840122E030E0A40168E082E00E949B
S113215076018091150290E008171907D1F3888160
S113216085FFFDCF85E0D5018C930068888185FFCC
S1132170FDCFF5010083C6012ADC892B09F05AC082
S1132180822D90E0E0911702F09118023197EE0F42
S1132190FF1FEE0FFF1FEE0DFF1DEE0FFF1FED5B88
S11321A0FA4F0190F081E02D3197EE0FFF1FEE0FF3
S11321B0FF1FE80FF91FEE0FFF1FED5BFA4F2081A1
S11321C0318128153905F9F4E0911702F0911802CC
S11321D03197EE0FFF1FEE0FFF1FEE0DFF1DEE0FE9
S11321E0FF1FED5BFA4F0190F081E02D3197EE0F68
S11321F0FF1FEE0FFF1FE80FF91FEE0FFF1FED5B30
S1132200FA4F1182108201968430910509F0BACFF9
S1132210E0911702F09118023197EE0FFF1FEE0FB5
S1132220FF1FEE0DFF1DEE0FFF1FED5BFA4F118236
S1132230108231C0E0911702F09118023197EE0F2D
S1132240FF1FEE0FFF1FEC0DFD1DEE0FFF1FED5BDB
S1132250FA4F808191819093180280931702209104
S1132260170230911802888185FFFDCFD5013C9279
S11322702068888185FFFDCFF5012083E091170256
S1132280F0911802EE0FFF1FEF51FB4F80819181F7
S1132290892B09F0C6CEE0911702F0911802EE0FD7
S11322A0FF1FEF51FB4F80819181892B09F049C0B9
S11322B08091820490918304FC01E954FB4F3081A6
S11322C02091B5043213FBCFFC01E954FB4FE081AC
S11322D0F0E0E353FB4F80811F928F9387E494E0F7
S11322E09F938F93DDD17CD8FFEF2FE736E1F15038
S11322F020403040E1F700C0000076D8809182048D
S11323009091830401969093830480938204809136
S1132310B5040F900F900F900F90988195FFFDCF0B
S113232096E0D5019C938068988195FFFDCFF501D7
S113233080838091B5048F5F8093B50468943324BF
S113234032F8E091B504F0E0E353FB4F8081882339
S113235059F02091B304809182049091830430E079
S11323602817390709F0F3CD85E694E0ACD1E0EC09
S1132370F0E0808185FFFDCF8AE08093C600E0EC29
S1132380F0E0808185FFFDCF80E88093C6008091D6
S11323908404909185040197D1F722D8FFEF2FEFA1
S11323A030EE80E0F150204030408040D9F700C04A
S11323B000001AD880E090E0DF91CF911F910F9137
S11323C0FF90EF90DF90CF90BF90AF909F908F9051
S11323D07F906F905F904F903F902F9008950CD016
S11323E0E6C0DED040F0D5D030F021F45F3F19F0E4
S11323F0C7C0511110C1CAC0EBD098F39923C9F3D7
S11324005523B1F3951B550BBB27AA2762177307F6
S1132410840738F09F5F5F4F220F331F441FAA1FAA
S1132420A9F333D00E2E3AF0E0E830D0915050406A
S1132430E695001CCAF729D0FE2F27D0660F771F18
S1132440881FBB1F261737074807AB07B0E809F0FA
S1132450BB0B802DBF01FF2793585F4F2AF09E3F8F
S1132460510568F08DC0D7C05F3FECF3983EDCF3B4
S1132470869577956795B795F7959F5FC9F7880F08
S1132480911D9695879597F90895E1E0660F771F5A
S1132490881FBB1F621773078407BA0720F0621BEB
S11324A0730B840BBA0BEE1F88F7E095089598D050
S11324B088F09F5790F0B92F9927B751A0F0D1F029
S11324C0660F771F881F991F1AF0BA95C9F712C0B3
S11324D0B13081F09FD0B1E008959CC0672F782F70
S11324E08827B85F39F0B93FCCF38695779567951F
S11324F0B395D9F73EF490958095709561957F4F8B
S11325008F4F9F4F0895E89409C097FB3EF4909530
S11325108095709561957F4F8F4F9F4F9923A9F0B8
S1132520F92F96E9BB279395F69587957795679547
S1132530B795F111F8CFFAF4BB0F11F460FF1BC08B
S11325406F5F7F4F8F4F9F4F16C0882311F096E91E
S113255011C0772321F09EE8872F762F05C06623CC
S113256071F096E8862F70E060E02AF09A95660F85
S1132570771F881FDAF7880F9695879597F908953E
S113258097F99F6780E870E060E008959FEF80EC22
S1132590089500240A9416161706180609060895C5
S11325A000240A9412161306140605060895092E2B
S11325B00394000C11F4882352F0BB0F40F4BF2B9A
S11325C011F460FF04C06F5F7F4F8F4F9F4F0895DA
S11325D057FD9058440F551F59F05F3F71F04795D0
S11325E0880F97FB991F61F09F3F79F087950895B5
S11325F0121613061406551FF2CF4695F1DF08C0D4
S1132600161617061806991FF1CF869571056105F0
S113261008940895E894BB2766277727CB0197F998
S1132620089503D008F48FEF0895990F0008550F0B
S1132630AA0BE0E8FEEF16161706E807F907C0F044
S113264012161306E407F50798F0621B730B840B4C
S1132650950B39F40A2661F0232B242B252B21F426
S113266008950A2609F4A140A6958FEF811D811DC6
S11326700895EE0FFF1F881F8BBF0790F691E02D82
S11326801994A29FB001B39FC001A39F700D811D37
S11326901124911DB29F700D811D1124911D089567
S11326A0CF93DF93CDB7DEB7AE014A5F5F4FFA0138
S11326B061917191AF01809152089091530833D088
S11326C0DF91CF9108950F931F93CF93DF93E09100
S11326D05208F0915308238121FF1BC08C01D0E0E4
S11326E0C0E0F80181918F01609152087091530804
S11326F0DB011896ED91FC911997882331F0199517
S1132700892B79F3DFEFCFEFECCF8AE01995892B92
S113271019F08FEF9FEF02C08D2F9C2FDF91CF9187
S11327201F910F9108952F923F924F925F926F9253
S11327307F928F929F92AF92BF92CF92DF92EF924D
S1132740FF920F931F93CF93DF93CDB7DEB72C97F0
S11327500FB6F894DEBF0FBECDBF7C016B018A01BA
S1132760FC0117821682838181FFB0C1CE010196DC
S11327704C01F7019381F60193FD859193FF8191BB
S11327806F01882309F49EC1853239F493FD859144
S113279093FF81916F01853221F4B70190E0C7D195
S11327A0E8CF512C312C20E02032A0F48B3269F098
S11327B030F4803259F0833269F420612CC08D32B8
S11327C039F0803339F4216026C02260246023C0AC
S11327D0286021C027FD27C030ED380F3A3078F447
S11327E026FF06C0FAE05F9E300D1124532E13C05D
S11327F08AE0389E300D1124332E20620CC08E32B4
S113280021F426FD5FC1206406C08C3611F42068D3
S113281002C0883641F4F60193FD859193FF8191BE
S11328206F018111C1CF982F9F7D9554933028F467
S11328300C5F1F4FFFE3F9830DC0833631F08337FC
S113284071F0833509F057C021C0F8018081898374
S11328500E5F1F4F44244394512C540114C038017B
S1132860F2E06F0E711CF801A080B18026FF03C056
S1132870652D70E002C06FEF7FEFC5012C874CD14E
S11328802C0183012C852F77222E16C03801F2E00B
S11328906F0E711CF801A080B18026FF03C0652D66
S11328A070E002C06FEF7FEFC5012C872AD12C01A5
S11328B02C852068222E830123FC19C0832D90E0EF
S11328C048165906A0F4B70180E290E030D13A945A
S11328D0F5CFF50127FC859127FE81915F01B701B2
S11328E090E025D131103A94F1E04F1A5108411487
S11328F0510479F7DEC0843611F0893631F5F801D8
S113290027FF07C060817181828193810C5F1F4F13
S113291008C060817181072E000C880B990B0E5F33
S11329201F4F2F76722E97FF09C090958095709552
S113293061957F4F8F4F9F4F2068722E2AE030E0C1
S1132940A4012DD1A82EA81843C0853729F42F7EC1
S1132950B22E2AE030E025C0F22FF97FBF2E8F3649
S1132960C1F018F4883579F0ADC0803719F0883794
S113297021F0A8C02F2F2061B22EB4FE0DC08B2DE4
S11329808460B82E09C024FF0AC09F2F9660B92E18
S113299006C028E030E005C020E130E002C020E1BC
S11329A032E0F801B7FE07C06081718182819381B2
S11329B00C5F1F4F06C06081718180E090E00E5F64
S11329C01F4FA401ECD0A82EA818FB2DFF777F2E53
S11329D076FE0BC0372D3E7FA51450F474FE0AC05A
S11329E072FC08C0372D3E7E05C0BA2C372D03C0BB
S11329F0BA2C01C0B52C34FF0DC0FE01EA0DF11D47
S1132A008081803311F4397E09C032FF06C0B3944B
S1132A10B39404C0832F867809F0B39433FD12C0B5
S1132A2030FF06C05A2CB31418F4530C5B18B32CA3
S1132A30B31460F4B70180E290E03C8778D0B3949B
S1132A403C85F6CFB31410F43B1801C0312C34FF8D
S1132A5011C0B70180E390E03C8769D03C8532FF28
S1132A6016C031FD03C088E790E002C088E590E01D
S1132A70B7010CC0832F867851F031FF02C08BE27E
S1132A8001C080E237FD8DE2B70190E050D0A5147B
S1132A9030F4B70180E390E04AD05A94F8CFAA9476
S1132AA0F401EA0DF11D8081B70190E040D0A1103E
S1132AB0F6CF332009F45DCEB70180E290E037D041
S1132AC03A94F7CFF7018681978102C08FEF9FEF89
S1132AD02C960FB6F894DEBF0FBECDBFDF91CF9119
S1132AE01F910F91FF90EF90DF90CF90BF90AF9028
S1132AF09F908F907F906F905F904F903F902F901A
S1132B000895FC010590615070400110D8F780953C
S1132B1090958E0F9F1F0895FC01615070400190A5
S1132B200110D8F7809590958E0F9F1F08950F93ED
S1132B301F93CF93DF93FB01238121FD03C08FEF0C
S1132B409FEF28C022FF16C046815781248135811A
S1132B504217530744F4A081B1819D012F5F3F4F79
S1132B60318320838C93268137812F5F3F4F3783B6
S1132B70268310C0EB01092F182F0084F185E02D66
S1132B801995892BE1F68E819F8101969F838E830F
S1132B90812F902FDF91CF911F910F910895FA010A
S1132BA0AA27283051F1203181F1E8946F936E7F88
S1132BB06E5F7F4F8F4F9F4FAF4FB1E03ED0B4E079
S1132BC03CD0670F781F891F9A1FA11D680F791FBA
S1132BD08A1F911DA11D6A0F711D811D911DA11DCB
S1132BE020D009F468943F912AE0269F11243019DB
S1132BF0305D3193DEF6CF010895462F4770405D76
S1132C004193B3E00FD0C9F7F6CF462F4F70405D24
S1132C104A3318F0495D31FD4052419302D0A9F77F
S1132C20EACFB4E0A6959795879577956795BA9579
S1132C30C9F700976105710508959B01AC010A2E3F
S1132C4006945795479537952795BA95C9F7620F16
S1112C50731F841F951FA01D0895F894FFCFD5
S1132C5E00000002000000009E000000000064005E
S1132C6E5A004600FF0D0D01000D01000100000089
S1132C7E0000000000000000020000000000000040
S1132C8E000000000300000000000000000000002F
S1132C9E0400000000000000000000000500000019
S1132CAE000000000000000006000000000000000C
S1132CBE00000000070000000000000000000000FB
S1132CCE08000000000000000000000009000000E1
S1132CDE00000000000000000A00000000000000D8
S1132CEE000000000B0000000000000000000000C7
S1132CFE0C00000000000000000000000D000000A9
S1132D0E00000000000000000E00000000000000A3
S1132D1E000000000F000000000000000000000092
S1132D2E1000000000000000000000001100000070
S1132D3E000000000000000012000000000000006F
S1132D4E000000001300000000000000000000005E
S1132D5E1400000000000000000000001500000038
S1132D6E000000000000000016000000000000003B
S1132D7E000000001700000000000000000000002A
S1132D8E18000000000000000000000001002300F5
S1132D9E000000000000000019001A0023002400A7
S1132DAE2B002C0005001A0000000000000000009B
S1132DBE09001B0000000000000000001B001C00A6
S1132DCE1D001E002D002E000D001E000000000030
S1132DDE0000000011001F000000000000000000B1
S1132DEE1F002000210022002F00300015002200B9
S1132DFE00000000000000002020202020202020C1
S1132E0E20202020202020202020202020202020B0
S1132E1E20202020202020202020202020202020A0
S1132E2E0057616974696E672E2E2E0052656365B4
S1132E3E69766564210053656E74210053656E6472
S1132E4E696E67205461736B730050726F636573A0
S1132E5E736564005461736B2053656E740043751F
S1132E6E7272656E74205461736B204E6F64653D8F
S1132E7E2564200A00436F737420506C616E6E6576
S1132E8E6420666F72207461736B203D2564204349
S1132E9E6F73743D256400526561636865642044F4
S1132EAE657374696E6174696F6E206E6F64653DCF
S1132EBE2564200A00476F6E6E61206265204F758F
S1092ECE74212121000023
S9030000FC
