S00D00005461736B352E737265634F
S11300007BC000009AC0000098C0000096C00000A9
S113001094C000000C946E090C9449098EC0000031
S11300208CC000008AC0000088C0000086C00000A8
S113003084C0000082C0000080C000007EC00000B8
S11300407CC000007AC0000078C0000076C00000C8
S113005074C0000072C0000070C000006EC00000D8
S11300606CC00000E1C7000068C0000066C000006A
S113007064C0000062C0000060C000005EC00000F8
S11300805CC000005AC0000058C0000056C0000008
S113009054C0000052C0000050C000004EC0000018
S11300A04CC000004AC0000048C0000046C0000028
S11300B044C0000042C0000040C000003EC0000038
S11300C03CC000003AC0000038C000000C94960800
S11300D034C0000032C0000030C000002EC0000058
S11300E02CC000003A0887084A08560859085C08DA
S11300F0660870087608790811241FBECFEFD1E294
S1130100DEBFCDBF00E00CBF13E0A0E0B2E0E4EB43
S1130110F1E200E00BBF02C007900D92AC3DB107C5
S1130120D9F727E0ACEDB3E001C01D92AA38B207BD
S1130130E1F70E94EF0C0C94D81062CF87B1876F5F
S113014087B988B1807888B9089586E69EE00197DA
S1130150F1F700004098419880E388B9429AEFEFA4
S1130160F7E43197F1F700C000004298E6E6FEE0BC
S11301703197F1F700004098419888B9429AEFEF1F
S1130180F7E43197F1F700C000004298E6E6FEE09C
S11301903197F1F700004098419888B9429A8FEF5F
S11301A097E40197F1F700C000004298E6E6FEE00C
S11301B03197F1F700004098419880E288B9429A5B
S11301C08FEF97E40197F1F700C00000429808957B
S11301D098B19F7098B998B1282F207F922B98B925
S11301E040984198429AEFEFF7E43197F1F700C055
S11301F00000429898B19F7098B998B18295807F19
S1130200892B88B940984198429A8FEF97E40197D7
S1130210F1F700C000004298089598B19F7098B912
S113022098B1282F207F922B98B9409A4198429AEE
S1130230EFEFF7E43197F1F700C00000429898B16E
S11302409F7098B998B18295807F892B88B9409A1C
S11302504198429A8FEF97E40197F1F700C00000AC
S113026042980895CF93DF93EC018881882329F085
S11302702196D3DF89918111FCCFDF91CF9108952D
S113028086E69EE00197F1F7000088E2A1DF81E0B5
S11302909FDF86E09DDF8EE09BDF80E899CF0895A5
S11302A02F923F924F925F926F927F928F929F9282
S11302B0AF92BF92CF92DF92EF92FF920F931F9370
S11302C0CF93DF93E2E0F6E00F2EFBE4AF2EB12CE8
S11302D0F02DB182A0820F2EFDE14F2E55245394B0
S11302E0F02D538242828FEF9FEF9583848397830F
S11302F08683CC24CA94D12CD186C086ACE3B0E0EA
S1130300B387A287958784879787868720EF30E015
S1130310318B208B0F2EFDE22F2E312CF02D338AC2
S1130320228A158A148A6CE271E0778B668B0F2E11
S1130330F1EE8F2E912CF02D918E808E0EE110E037
S1130340138F028F958F848F978F868F42ED50E0A5
S113035051A340A3CFE0D0E0D3A3C2A395A384A329
S113036097A386A303EC10E011A700A713A612A677
S113037095A784A797A786A744EB50E051AB40AB61
S113038009E511E013AB02AB35AB24AB77AB66AB3D
S113039005EA10E011AF00AF0AE411E013AF02AFB9
S11303A095AF84AF9093410680934006E6E9F0E070
S11303B0F0934306E09342060BE311E010934506E5
S11303C0009344069093470680934606909349060B
S11303D0809348060F2EF7E86F2E712CF02D709243
S11303E04B0660924A0670934D0660934C069093B8
S11303F04F0680934E069093510680935006E8E78B
S1130400F0E0F0935306E093520650925506409262
S1130410540650935706409356063093590620933A
S113042058060F2EF9E6EF2EF12CF02DF0925B0614
S1130430E0925A060EE011E010935D0600935C060C
S113044090935F0680935E069093610680936006A6
S11304500AE510E01093630600936206D0926506E5
S1130460C09264069093670680936606909369062B
S113047080936806B0926B06A0926A0630936D066C
S113048020936C0690936F0680936E06909371068A
S113049080937006B0937306A093720690927506CB
S11304A080927406F0937706E0937606509379066B
S11304B04093780630927B0620927A060F2EF2ED56
S11304C0CF2ED12CF02DD0927D06C0927C06909335
S11304D07F0680937E0690938106809380060F2E7C
S11304E0FEE1CF2ED12CF02DD0928306C09282064D
S11304F00F2EF3ECCF2ED12CF02DD0928506C09286
S11305008406909387068093860690938906809349
S11305108806D0938B06C0938A0650938D06409329
S11305208C0690938F0680938E0690939106809309
S1130530900610929306109292060F2EF5EACF2E93
S1130540D12CF02DD0929506C0929406B0939706C4
S1130550A0939606F0939906E09398060F2EF9E57A
S1130560CF2EDD24D394F02DD0929B06C0929A0610
S11305700F2EF6E9CF2ED12CF02DD0929D06C092ED
S11305809C0690939F0680939E069093A106809369
S1130590A0060F2EFAE4CF2EDD24D394F02DD092B2
S11305A0A306C092A2067092A5066092A406909338
S11305B0A7068093A6069093A9068093A8060F2EFB
S11305C0FBE3CF2EDD24D394F02DD092AB06C09262
S11305D0AA06F093AD06E093AC069093AF06809321
S11305E0AE069093B1068093B0067093B306609301
S11305F0B206F092B506E092B4061092B7061092D5
S1130600B606B093B906A093B8061093BB06009340
S1130610BA065092BD064092BC069093BF068093E2
S1130620BE069093C1068093C0065093C3064093C0
S1130630C2061092C5061092C4063093C7062093D2
S1130640C6069093C9068093C8065093CB06409380
S1130650CA061092CD061092CC06B093CF06A09392
S1130660CE067093D1066093D0065093D306409380
S1130670D2061092D5061092D406F093D706E093D2
S1130680D6063093D9062093D8061092DB06109232
S1130690DA065093DD064093DC067093DF06609320
S11306A0DE069093E1068093E006B093E306A09300
S11306B0E206F093E506E093E4063093E706209320
S11306C0E6069093E9068093E806B093EB06A093C0
S11306D0EA063093ED062093EC067093EF066093E0
S11306E0EE065093F1064093F006B093F306A09300
S11306F0F2063093F5062093F4061092F706109252
S1130700F606F093F906E093F8063093FB0620937F
S1130710FA06B093FD06A093FC065093FF0640939F
S1130720FE0690930107809300077093030760937C
S113073002071092050710920407F0930707E0934D
S11307400607909309078093080770930B0760933B
S11307500A07F0930D07E0930C0750930F0740939B
S11307600E07B0931107A0931007709313076093BB
S11307701207F0931507E09314073093170720939B
S113078016071092190710921807F0931B07E093AD
S11307901A07B0931D07A0931C0770931F0760935B
S11307A01E079093210780932007B0932307A093FB
S11307B022073093250720932407909327078093DB
S11307C026079093290780932807F0932B07E0933B
S11307D02A0770932D0760932C0790932F0780931B
S11307E02E079093310780933007709333076093FB
S11307F03207F0933507E0933407909337078093DB
S11308003607909339078093380710923B0710926C
S11308103A0750933D0740933C0790933F078093DA
S11308203E079093410780934007509343074093BA
S1130830420710924507109244079093470780930C
S11308404607909349078093480730934B072093BA
S11308504A07B0934D07A0934C0790934F0780939A
S11308604E0790935107809350075093530740933A
S11308705207B0935507A09354079093570780935A
S113088056079093590780935807F0935B07E093BA
S11308905A0730935D0720935C0790935F0780931A
S11308A05E079093610780936007B0936307A093FA
S11308B0620770936507609364079093670780935A
S11308C06607909369078093680710926B071092EC
S11308D06A07F0936D07E0936C0790936F0780931A
S11308E06E079093710780937007709373076093FA
S11308F0720750937507409374079093770780931A
S11309007607909379078093780730937B07209339
S11309107A0710927D0710927C0790937F0780934B
S11309207E079093810780938007EDE7F4E082E0EF
S113093090E09183808328E130E033832283158221
S113094014821782168221E030E03187208723E069
S113095030E0338722871586148617861686918B96
S1130960808B84E090E0938B828B49E150E0558B3F
S1130970448B44E250E0578B468B318F208F25E027
S113098030E0338F228F158E148E178E168E91A31E
S113099080A386E090E093A382A315A214A217A2D9
S11309A016A231A720A727E030E033A722A715A677
S11309B014A617A616A691AB80AB88E090E093AB83
S11309C082AB45E250E055AB44AB46E250E057AB56
S11309D046AB31AF20AF29E030E033AF22AF15AEE4
S11309E014AE1092BC041092BB049093BE04809386
S11309F0BD048AE090E09093C0048093BF041092F9
S1130A00C2041092C1041092C4041092C30430931F
S1130A10C6042093C5042BE030E03093C80420932F
S1130A20C7041092CA041092C9041092CC04109204
S1130A30CB049093CE048093CD048CE090E090930B
S1130A40D0048093CF044CE150E05093D2044093FF
S1130A50D1044DE150E05093D4044093D304309337
S1130A60D6042093D5042DE030E03093D8042093AD
S1130A70D7041092DA041092D9041092DC04109274
S1130A80DB049093DE048093DD048EE090E0909389
S1130A90E0048093DF041092E2041092E1041092C7
S1130AA0E4041092E3043093E6042093E504D09325
S1130AB0E804C093E7041092EA041092E904109247
S1130AC0EC041092EB049093EE048093ED0420E187
S1130AD030E03093F0042093EF0487E290E09093A9
S1130AE0F2048093F10488E290E09093F4048093FC
S1130AF0F304D093F604C093F50481E190E090935D
S1130B00F8048093F7041092FA041092F9041092F6
S1130B10FC041092FB043093FE042093FD0422E1B4
S1130B2030E0309300052093FF04109202051092E8
S1130B300105109204051092030590930605809315
S1130B40050583E190E090930805809307051092D2
S1130B500A051092090510920C0510920B053093AA
S1130B600E0520930D0524E130E030931005209309
S1130B700F0540E250E0509312054093110541E205
S1130B8050E05093140540931305909316058093F9
S1130B90150585E190E09093180580931705109250
S1130BA01A051092190510921C0510921B0530931A
S1130BB01E0520931D0526E130E030932005209387
S1130BC01F051092220510922105109224051092FF
S1130BD02305909326058093250587E190E0909363
S1130BE028058093270510922A0510922905109252
S1130BF02C0510922B0586E190E090932E058093AE
S1130C002D0588E190E09093300580932F05C9E28B
S1130C10D0E0D0933205C09331050F2EFAE2AF2E07
S1130C20B12CF02DB0923405A092330581E090E010
S1130C309093360580933505E7E1F0E0F0933805AD
S1130C40E093370510923A051092390510923C054D
S1130C5010923B050F2EF3E08F2E912CF02D9092E5
S1130C603E0580923D056AE170E070934005609313
S1130C703F05A4E2B0E0B0934205A0934105109271
S1130C804405109243050F2EF9E16F2E712CF02DBF
S1130C9070924605609245054BE150E0509348053B
S1130CA04093470585E290E090934A058093490577
S1130CB00F2EFCE24F2E512CF02D50924C054092F9
S1130CC04B0570934E0560934D052CE130E0309355
S1130CD0500520934F0586E290E09093520580934F
S1130CE051050DE210E010935405009353050BE0F9
S1130CF010E0109356050093550550935805409302
S1130D0057058DE190E090935A0580935905109210
S1130D105C0510925B0510935E0500935D053093AE
S1130D20600520935F052EE130E030936205209347
S1130D306105109264051092630590936605809393
S1130D4065058FE190E0909368058093670507E25D
S1130D5010E010936A05009369050F2EFEE22F2E12
S1130D60312CF02D30926C0520926B0530936E057A
S1130D7020936D056894EE24E5F8F12CF09270054B
S1130D80E0926F0508E210E010937205009371057C
S1130D900F2EFFE2CF2ED12CF02DD0927405C092ED
S1130DA073050F2EF3E1CF2ED12CF02DD0927605C2
S1130DB0C0927505909378058093770501E210E061
S1130DC010937A050093790510927C0510927B05A7
S1130DD0D0927E05C0927D05F0928005E0927F0559
S1130DE00F2EF2E2EF2EF12CF02DF0928205E0921C
S1130DF08105109284051092830510938605009353
S1130E00850503E210E01093880500938705D093CD
S1130E108A05C0938905C0E3D0E0D0938C05C093C4
S1130E208B05F0928E05E0928D05B0939005A0930A
S1130E308F05B0929205A0929105ABE2B0E0B09319
S1130E409405A093930590929605809295057092CF
S1130E5098056092970510939A050093990510924E
S1130E609C0510929B050F2EF7E0CF2ED12CF02D70
S1130E70D0929E05C0929D057093A00560939F0536
S1130E801092A2051092A1051092A4051092A30538
S1130E90D092A605C092A5055093A8054093A70536
S1130EA01092AA051092A9051092AC051092AB05F8
S1130EB00F2EFFE0CF2ED12CF02DD092AE05C09294
S1130EC0AD053093B0052093AF051092B205109292
S1130ED0B1051092B4051092B305D092B605C09234
S1130EE0B5059093B8058093B7051092BA05109292
S1130EF0B9051092BC051092BB05F093BE05E093B2
S1130F00BD05F092C005E092BF051092C205109293
S1130F10C1051092C4051092C305F093C605E09371
S1130F20C5051093C8050093C7051092CA05109211
S1130F30C9051092CC051092CB051093CE050093F1
S1130F40CD055092D0054092CF051092D205109253
S1130F50D1051092D4051092D3057093D6056093F1
S1130F60D505B093D805A093D7051092DA05109251
S1130F70D9051092DC051092DB055093DE054093F1
S1130F80DD053092E0052092DF051092E205109213
S1130F90E1051092E4051092E3053093E6052093F1
S1130FA0E5050DE210E01093E8050093E7051092C3
S1130FB0EA051092E9051092EC051092EB05909366
S1130FC0EE058093ED05D093F005C093EF051092E4
S1130FD0F2051092F1051092F4051092F305F092C7
S1130FE0F605E092F5052FE230E03093F805209302
S1130FF0F7051092FA051092F9051092FC0510926B
S1131000FB05DF91CF911F910F91FF90EF90DF903F
S1131010CF90BF90AF909F908F907F906F905F9094
S11310204F903F902F9008951F920F920FB60F92FA
S113103011240BB60F924F935F936F937F938F930B
S11310409F93EF93FF938091C60088230CF058C0C0
S1131050982F9F77E09104024E2F50E0FA013197C8
S1131060EA30F10508F053C08827EE58FF4F8F4F40
S11310700C94D010E091F003F0E0E95FFB4F908313
S11310808091F0038F5F8093F0038091F00380934D
S113109005013DC0E091EF03F0E0EF50FC4F908379
S11310A08091EF038F5F8093EF0331C09093090227
S11310B02EC0909308022BC080910B02891327C085
S11310C080910B028F5F80930B0221C080910A02F2
S11310D089131DC080910A028F5F80930A0217C092
S11310E08091EE03890F8093EE0311C09093070261
S11310F00EC081E090E09093EB038093EA0307C075
S113110080930402823019F481E08093EC03FF9110
S1131110EF919F918F917F916F915F914F910F907C
S11311200BBE0F900FBE0F901F9018951F920F9239
S11311300FB60F9211240BB60F928F93EF93FF9378
S11311408091D6008F3F81F0E091F003F0E0E95FF9
S1131150FB4F80838091F0038F5F8093F003809135
S1131160F0038093050105C01092050181E080938E
S1131170EC03FF91EF918F910F900BBE0F900FBE78
S11311800F901F9018953B9A4398089586B18860F4
S113119088B9089586B1877F88B9089510BA11BABD
S11311A01092070110920801089581B18F6081B9EE
S11311B082B1807F82B9EAE0F1E080818861808336
S11311C0EBE0F1E080818861808308956C98749AE3
S11311D008956D98759A0895E8DFF8DFFADF0E94A4
S11311E09E00DCDFD0CF0895E1E2F1E010828FEFC2
S11311F08093250191E0909324011092290180931A
S1131200280110922B0180932A0110922D018093C2
S11312102C0189EA809320018BE080830895EAE71A
S1131220F0E0108210927B0080E280937C0080E8E2
S113123080BF86E880830895883018F098E0909302
S11312407B008770806280937C00EAE7F0E0808115
S113125080648083808184FFFDCF80917900EAE7F8
S1131260F0E090819061908310927B000895F8944F
S1131270EAE6F0E0808182608083EC9A78940895B5
S1131280F894EAE6F0E0808188608083ED9A7894AF
S113129008951F920F920FB60F9211248F939F936C
S11312A0AF93BF938091E0039091E103A091E20397
S11312B0B091E3030196A11DB11D8093E0039093C7
S11312C0E103A093E203B093E303BF91AF919F9135
S11312D08F910F900FBE0F901F9018951F920F9231
S11312E00FB60F9211248F939F93AF93BF93809166
S11312F0E4039091E503A091E603B091E70301961E
S1131300A11DB11D8093E4039093E503A093E6032C
S1131310B093E703BF91AF919F918F910F900FBE50
S11313200F901F90189592B1907F8F70982B92B95F
S1131330089586E0F8CF089585E0F5CF089580916B
S11313400202F1CF089580E0EECF0895CF92DF92AC
S1131350EF92FF920F931F93BC0180E090E06AD656
S113136028E431EE42E850E4D1D538D6AB0160E050
S113137070E01092E0031092E1031092E2031092E5
S1131380E3031092E4031092E5031092E603109233
S1131390E70391E0E0E0C090E003D090E103E09047
S11313A0E203F090E3030091E4031091E50320913C
S11313B0E6033091E703892F04171507260737073B
S11313C008F48E2F811109C0892FC416D506E606AC
S11313D0F70608F48E2F8823F1F2B5DF1F910F91E1
S11313E0FF90EF90DF90CF900895CF93DF93EC01BF
S11313F0A3DF9FEF9093280190932A01CE01A6DFEB
S1131400DF91CF910895CF93DF93EC0198DF9FEFA5
S11314109093280190932A01CE0198DFDF91CF9118
S113142008958FEF80930401109205010895F894B4
S1131430D3DEE1ECF0E010821092C00026E02093AD
S1131440C2009FE59093C4001092C50088E9808390
S1131450E1EDF0E010821092D0002093D20090933E
S1131460D4001092D500808302DF0ADFD8DEBCDE10
S11314700E94A5000E944001D4DF78940895BC0125
S113148080E090E0D7D525EE30ED4AEA50E43ED531
S1131490A5D5AB01BC011092E0031092E1031092B8
S11314A0E2031092E3038091E0039091E103A091A1
S11314B0E203B091E303481759076A077B0798F7DB
S11314C042CF0895CF93DF93EC0133DF9AE59093F5
S11314D0280190932A01CE01D2DFDF91CF910895A4
S11314E04F925F926F927F928F929F92AF92BF9230
S11314F0CF92DF92EF92FF920F931F93CF93DF93DC
S1131500CDB7DEB7C05CD1090FB6F894DEBF0FBE0D
S1131510CDBFDE01AF59BF4F20E6FD0111922A95E0
S1131520E9F7EDE1F4E08E010F5F1F4F78016D01E3
S11315300DE714E0970163E670E04FEF5FEF61930E
S11315407193D9014D935D939D01D6011D921D9216
S11315506D01E017F10799F7FC01AC01445F5F4F9F
S11315608FEF9FEF61E070E020813181211531051B
S113157009F1220F331FD901A55EBB4F1D921C92A6
S1131580019620813181DC01AA0FBB1F01E010E02C
S11315900C0F1D1FA00FB11F2D933C93D901119760
S11315A0AA0FBB1F21E630E02C0F3D1FA20FB31F73
S11315B06D937C933296E417F507B1F6AE2C9F2C0D
S11315C0812C712C6894BB24B2F8612CCC24C39474
S11315D0D12CA981BA81119799236CF0EA2DF92DA8
S11315E0282D372D2F5F3F4F4281538141935193D3
S11315F082179307BCF70197FD01EE0FFF1FEE0F53
S1131600FF1FEE0FFF1FE358FB4F2B2D362DAA0FA4
S1131610BB1FAD01435E5B4F2A016191719161155E
S11316207105D1F1D2010D911C910F5F1F4FAB01D8
S1131630415051097A01EE0CFF1CD701A35EBB4F48
S1131640ED90FC90E016F10644F07A01EE0CFF1CDC
S1131650D701A35EBB4F0D931C938A01000F111F8A
S1131660A1E6B0E0AC0FBD1F0A0F1B1FD8010D91FE
S11316701C9111970130110579F0CD92DC920196FD
S1131680AC01440F551F01E010E00C0F1D1F400F6B
S1131690511FDA016D937C932150310909F0BDCFBC
S11316A049815A814F3F5F4F29F08F3FEFEF9E07EB
S11316B009F08FCFC054DF4F0FB6F894DEBF0FBED2
S11316C0CDBFDF91CF911F910F91FF90EF90DF90ED
S11316D0CF90BF90AF909F908F907F906F905F90CE
S11316E04F900895992344F427EE3FEFA901481B36
S11316F0590BCA0188DE02C0499777DE82E09CDD7F
S11317008093DE038937D0F308958F929F92AF922E
S1131710BF92CF92DF92EF92FF920F931F93CF93DA
S1131720DF93EC01E0910502F09106023197EE0F90
S1131730FF1FEE0FFF1FE80FF91FEE0FFF1FEE5FF5
S1131740F94FE080F1808091000290910102E81A43
S1131750F90AB7010F2C000C880B990B6DD49F77F5
S113176020E030E044E352E4F3D418162CF486E489
S113177090E0A8DEC701B6DF8091050290910602D1
S11317800197880F991F880F991FC80FD91FCC0F75
S1131790DD1FCE5FD94F8881998190930102809398
S11317A00002C7DDBB24B394C12C08E211E00F2E64
S11317B0FAE5DF2EF02DCAE2D1E00F2EF2E89F2EDB
S11317C0F02DA12C812C06C090930102809300027D
S11317D0BA2CC82C83E030DD8093DF0382E02CDD5B
S11317E08093DE0381E028DD8093DD0386E024DD41
S11317F08093DC0383E020DD8093FF0582E01CDD21
S11318008093FF0581E018DD8093FF051092E003CB
S11318101092E1031092E2031092E3038091DC033F
S1131820813FB0F084EB90E05DDF80910002909105
S11318300102845B91098E199F090AF0C5CF88596A
S11318409E4F9093010280930002BA2CC82CC2CF01
S1131850E091DE038E2F90E040910202509103024A
S1131860481759076CF42091DF0330E042175307FF
S11318709CF16091DD0370E046175707D4F146C030
S11318802091DF0330E0421753072CF452DDF801B6
S11318901082D8829FCF6091DD0370E0461757070E
S11318A02CF447DDF801D082188294CFE93720F078
S11318B0F801908298828ECF841795070CF08ACF16
S11318C0241735070CF086CF641775070CF082CF08
S11318D0F801D082D8827ECF8091E0039091E10319
S11318E0A091E203B091E3030B97A105B10570F257
S11318F011C08091E0039091E103A091E203B091C3
S1131900E3030B97A105B10560F204C06091DD0308
S113191070E0CCCF0EDD1092280110922A018B2D9D
S11319209C2DDF91CF911F910F91FF90EF90DF904D
S1131930CF90BF90AF909F908F900895CF93DF93F7
S11319409C01BC0161507109DB01AA0FBB1FA35E9E
S1131950BB4F8D919C91892B39F430938907209347
S11319608807822F932F38C0DB01AA0FBB1FAA0F51
S1131970BB1FAA0FBB1FFD01E358FB4F0190F08171
S1131980E02DEE0FFF1FE35EFB4FC081D181A15814
S1131990BB4F20E030E081E090E0ED91FD91EE0F4F
S11319A0FF1FE35EFB4F408151814C175D0714F428
S11319B09C01EA0101968430910579F7FB01EE0F51
S11319C0FF1FEE0FFF1FE20FF31FEE0FFF1FE35881
S11319D0FB4F80819181B2DFDF91CF9108952F92E7
S11319E03F924F925F926F927F928F929F92AF92AB
S11319F0BF92CF92DF92EF92FF920F931F93CF93F8
S1131A00DF930E94500113DD109205011092EC0344
S1131A1081EC93E00E9432018091EC038823E1F38E
S1131A208CEC93E00E9432018FEF80930501E0EC8F
S1131A30F0E0808185FFFDCF81E08093C6002FEF29
S1131A403FEF4CE2215030404040E1F700C000003D
S1131A508091F003882301F120E030E0E0ECF0E035
S1131A60C6ECD0E0D901A95FBB4F9C9190688081FE
S1131A7085FFFDCF98838FEF9FEF4CE2815090401C
S1131A804040E1F700C000002F5F3F4F8091F0031A
S1131A9090E02817390734F3E0ECF0E0808185FF0B
S1131AA0FDCF82E08093C6008FEF9FEFECE2815080
S1131AB09040E040E1F700C000008FE08093050112
S1131AC086ED93E00E943201312C212CC0ECD0E051
S1131AD00F2EF6ECCF2ED12CF02D0F2EF5E09F2EED
S1131AE0F02D6894882482F8632C522C7724739404
S1131AF0412CCBC12091EF038091E8039091E9033D
S1131B0030E02817390709F0A0C0E0910A02F0E09C
S1131B10E95FFB4F808190E001979C01220F331F06
S1131B20820F931F880F991F880F991F845F9D4F01
S1131B30D7DCE0910502F0910602EE0FFF1FE55E8F
S1131B40FB4F808191814091ED03E0910702F0E029
S1131B50EE0FFF1FE35EFB4F20813181240F311D07
S1131B602817390764F590910A02888185FFFDCF13
S1131B7083E0F6018083292F2068888185FFFDCFCB
S1131B80F601208390930702E0910702F0E0EE0F44
S1131B90FF1FE35EFB4F9081888185FFFDCF88E0C6
S1131BA0F60180839068888185FFFDCFF6019083DC
S1131BB08091070290E0C2DE8093070232C0E09178
S1131BC0EF03F0E090910A02EF50FC4F9083909164
S1131BD0EE03890F8093EE038091EF038F5F809370
S1131BE0EF0390910A02888185FFFDCF89E0F60119
S1131BF080839068888185FFFDCFF6019083809172
S1131C000502909106029ADE988195FFFDCF99E036
S1131C10F6019083982F9068888185FFFDCFF601A7
S1131C20908390910A02888185FFFDCF87E0F601B9
S1131C3080839068888185FFFDCFF6019083809131
S1131C400A028F5F80930A0220C1FC01EF50FC4F0F
S1131C50E081F0E0E95FFB4F808190E001979C0117
S1131C60220F331F820F931F880F991F880F991F0C
S1131C70845F9D4F35DCE0910502F09106023197B7
S1131C80DF01AA0FBB1FA35EBB4F8D919C91892BD3
S1131C9009F4C9C0EE0FFF1FEE0FFF1FEE0FFF1F69
S1131CA0DF01A358BB4FED90FC90D701AA0FBB1FD7
S1131CB0A35EBB4F4D915C91E158FB4F062D152D52
S1131CC0872D942D219131912115310569F0D90188
S1131CD0AA0FBB1FA35EBB4F6D917C916417750760
S1131CE01CF48C017901AB0101968430910551F704
S1131CF0580197018091080290E028173907D1F321
S1131D00888185FFFDCFF60190822068888185FF58
S1131D10FDCFF6012083C501F8DC892B09F054C0FE
S1131D20A0910502B09106021197232D322DAA0F1E
S1131D30BB1FAA0FBB1FA00FB11FAA0FBB1FA35825
S1131D40BB4F8D919C9111970197FC01EE0FFF1FE2
S1131D50EE0FFF1FE20FF31FEE0FFF1FE358FB4FC1
S1131D60408151814E155F0569F4FC01EE0FFF1FA0
S1131D70EE0FFF1FE20FF31FEE0FFF1FE358FB4FA1
S1131D80118210822F5F3F4F24303105D1F68091AC
S1131D900502909106020197FC01EE0FFF1FEE0F62
S1131DA0FF1FE00FF11FEE0FFF1FE358FB4F1182DF
S1131DB01082880F991FFC01E35EFB4F80819181A3
S1131DC0892B09F062C02FC0E0910502F091060250
S1131DD03197EE0FFF1FEE0FFF1FEA0DFB1DEE0FF5
S1131DE0FF1FE358FB4F90818181909305028093FC
S1131DF00602888185FFFDCFF60180829068888184
S1131E0085FFFDCFF6019083E0910502F091060273
S1131E103197DF01AA0FBB1FA35EBB4F8D919C912D
S1131E20892B09F037CFE091E803F091E903EF50F3
S1131E30FC4F908180910B029813FBCFA7D9FFEF41
S1131E402FE736E1F15020403040E1F700C00000B8
S1131E50A1D98091E8039091E90301969093E90355
S1131E608093E80390910B02888185FFFDCF86E083
S1131E70F60180839068888185FFFDCFF601908309
S1131E8080910B028F5F80930B02E0910B02F0E0D4
S1131E90E95FFB4F808181112DCEE0ECF0E0808181
S1131EA085FFFDCF8AE08093C600E0ECF0E08081FE
S1131EB085FFFDCF80E88093C6008091EA0390916E
S1131EC0EB0381309105E9F761D9FFEF2FEF30EE95
S1131ED040E0F150204030404040D9F700C00000BD
S1131EE059D980E090E0DF91CF911F910F91FF903D
S1131EF0EF90DF90CF90BF90AF909F908F907F90A6
S1131F006F905F904F903F902F9008950CD0E6C053
S1131F10DED040F0D5D030F021F45F3F19F0C7C0D7
S1131F20511110C1CAC0EBD098F39923C9F35523BA
S1131F30B1F3951B550BBB27AA27621773078407B8
S1131F4038F09F5F5F4F220F331F441FAA1FA9F36E
S1131F5033D00E2E3AF0E0E830D091505040E69560
S1131F60001CCAF729D0FE2F27D0660F771F881FC1
S1131F70BB1F261737074807AB07B0E809F0BB0BB0
S1131F80802DBF01FF2793585F4F2AF09E3F5105D4
S1131F9068F08DC0D7C05F3FECF3983EDCF38695C4
S1131FA077956795B795F7959F5FC9F7880F911D4A
S1131FB09695879597F90895E1E0660F771F881F36
S1131FC0BB1F621773078407BA0720F0621B730BE9
S1131FD0840BBA0BEE1F88F7E095089598D088F02B
S1131FE09F5790F0B92F9927B751A0F0D1F0660F01
S1131FF0771F881F991F1AF0BA95C9F712C0B1301C
S113200081F09FD0B1E008959CC0672F782F882776
S1132010B85F39F0B93FCCF3869577956795B3955A
S1132020D9F73EF490958095709561957F4F8F4FC9
S11320309F4F0895E89409C097FB3EF490958095CE
S1132040709561957F4F8F4F9F4F9923A9F0F92F7A
S113205096E9BB279395F695879577956795B795F8
S1132060F111F8CFFAF4BB0F11F460FF1BC06F5FDE
S11320707F4F8F4F9F4F16C0882311F096E911C0F0
S1132080772321F09EE8872F762F05C0662371F011
S113209096E8862F70E060E02AF09A95660F771F25
S11320A0881FDAF7880F9695879597F9089597F919
S11320B09F6780E870E060E008959FEF80EC0895EA
S11320C000240A9416161706180609060895002413
S11320D00A9412161306140605060895092E03948D
S11320E0000C11F4882352F0BB0F40F4BF2B11F401
S11320F060FF04C06F5F7F4F8F4F9F4F089557FD60
S11321009058440F551F59F05F3F71F04795880F61
S113211097FB991F61F09F3F79F0879508951216F8
S113212013061406551FF2CF4695F1DF08C01616A4
S113213017061806991FF1CF869571056105089455
S11321400895E894BB2766277727CB0197F908956C
S113215003D008F48FEF0895990F0008550FAA0BC8
S1132160E0E8FEEF16161706E807F907C0F01216A6
S11321701306E407F50798F0621B730B840B950BA9
S113218039F40A2661F0232B242B252B21F40895FE
S11321900A2609F4A140A6958FEF811D811D08959B
S11321A0EE0FFF1F881F8BBF0790F691E02D199447
S10721B0F894FFCFCD
S11321B45A002300FF01000DFFFFFFFF0100000090
S11321C40000000000000000020000000000000005
S11321D400000000030000000000000000000000F4
S11321E404000000000000000000000005000000DE
S11321F400000000000000000600000000000000D1
S113220400000000070000000000000000000000BF
S113221408000000000000000000000009000000A5
S113222400000000000000000A000000000000009C
S1132234000000000B00000000000000000000008B
S11322440C00000000000000000000000D0000006D
S113225400000000000000000E0000000000000068
S1132264000000000F000000000000000000000057
S11322741000000000000000000000001100000035
S11322840000000000000000120000000000000034
S11322940000000013000000000000000000000023
S11322A414000000000000000000000015000000FD
S11322B40000000000000000160000000000000000
S11322C400000000170000000000000000000000EF
S11322D418000000000000000000000001002300BA
S11322E4000000000000000019001A00230024006C
S11322F42B002C0005001A00000000000000000060
S113230409001B0000000000000000001B001C006A
S11323141D001E002D002E000D001E0000000000F4
S11323240000000011001F00000000000000000075
S11323341F002000210022002F003000150022007D
S11323440000000000000000202020202020202085
S11323542020202020202020202020202020202075
S11323642020202020202020202020202020202065
S11323740057616974696E672E2E2E005265636579
S10F238469766564210053656E742100C5
S9030000FC
