S00D00005461736B352E737265634F
S11300007BC000009AC0000098C0000096C00000A9
S113001094C000000C94BA080C9495088EC000009B
S11300208CC000008AC0000088C0000086C00000A8
S113003084C0000082C0000080C000007EC00000B8
S11300407CC000007AC0000078C0000076C00000C8
S113005074C0000072C0000070C000006EC00000D8
S11300606CC000002FC7000068C0000066C000001C
S113007064C0000062C0000060C000005EC00000F8
S11300805CC000005AC0000058C0000056C0000008
S113009054C0000052C0000050C000004EC0000018
S11300A04CC000004AC0000048C0000046C0000028
S11300B044C0000042C0000040C000003EC0000038
S11300C03CC000003AC0000038C000007DC70000FA
S11300D034C0000032C0000030C000002EC0000058
S11300E02CC000008807D5079807A407A707AA070C
S11300F0B407BE07C407C70711241FBECFEFD1E260
S1130100DEBFCDBF00E00CBF13E0A0E0B2E0ECE244
S1130110F0E200E00BBF02C007900D92A839B107CE
S1130120D9F727E0A8E9B3E001C01D92AA33B207CA
S1130130E1F70E94370C0C94141062CF2F923F9277
S11301404F925F926F927F928F929F92AF92BF92E3
S1130150CF92DF92EF92FF920F931F93CF93DF938F
S1130160E8EBF5E00F2EFBE4AF2EB12CF02DB182BD
S1130170A0820F2EFDE14F2E55245394F02D53826F
S113018042828FEF9FEF9583848397838683CC2469
S1130190CA94D12CD186C086ACE3B0E0B387A287E1
S11301A0958784879787868720EF30E0318B208B73
S11301B00F2EFDE22F2E312CF02D338A228A158A40
S11301C0148A6CE271E0778B668B0F2EF1EE8F2E22
S11301D0912CF02D918E808E0EE110E0138F028F02
S11301E0958F848F978F868F42ED50E051A340A363
S11301F0CFE0D0E0D3A3C2A395A384A397A386A3FF
S113020003EC10E011A700A713A612A695A784A7D4
S113021097A786A744EB50E051AB40AB09E511E04A
S113022013AB02AB35AB24AB77AB66AB05EA10E09E
S113023011AF00AF0AE411E013AF02AF95AF84AF82
S11302409093F7058093F605E6E9F0E0F093F9055D
S1130250E093F8050BE311E01093FB050093FA0516
S11302609093FD058093FC059093FF058093FE0514
S11302700F2EF7E86F2E712CF02D7092010660920C
S1130280000670930306609302069093050680931C
S113029004069093070680930606E8E7F0E0F093DF
S11302A00906E093080650920B0640920A06509302
S11302B00D0640930C0630930F0620930E060F2E66
S11302C0F9E6EF2EF12CF02DF0921106E0921006D3
S11302D00EE011E010931306009312069093150696
S11302E08093140690931706809316060AE510E08F
S11302F01093190600931806D0921B06C0921A0692
S113030090931D0680931C0690931F0680931E06EF
S1130310B0922106A0922006309323062093220651
S113032090932506809324069093270680932606AF
S1130330B0932906A093280690922B0680922A0651
S1130340F0932D06E0932C0650932F0640932E062F
S113035030923106209230060F2EF2EDCF2ED12CA2
S1130360F02DD0923306C0923206909335068093D6
S1130370340690933706809336060F2EFEE1CF2E77
S1130380D12CF02DD0923906C09238060F2EF3EC02
S1130390CF2ED12CF02DD0923B06C0923A069093EA
S11303A03D0680933C0690933F0680933E06D0938F
S11303B04106C093400650934306409342069093EF
S11303C04506809344069093470680934606109210
S11303D04906109248060F2EF5EACF2ED12CF02DA7
S11303E0D0924B06C0924A06B0934D06A0934C0699
S11303F0F0934F06E0934E060F2EF9E5CF2EDD2441
S1130400D394F02DD0925106C09250060F2EF6E9E7
S1130410CF2ED12CF02DD0925306C0925206909339
S113042055068093540690935706809356060F2ED4
S1130430FAE4CF2EDD24D394F02DD0925906C09245
S1130440580670925B0660925A0690935D068093FC
S11304505C0690935F0680935E060F2EFBE3CF2E1F
S1130460DD24D394F02DD0926106C0926006F093FF
S11304706306E09362069093650680936406909306
S11304806706809366067093690660936806F09227
S11304906B06E0926A0610926D0610926C06B09399
S11304A06F06A0936E061093710600937006509227
S11304B07306409272069093750680937406909327
S11304C077068093760650937906409378061092C7
S11304D07B0610927A0630937D0620937C069093D7
S11304E07F0680937E065093810640938006109287
S11304F0830610928206B0938506A09384067093B7
S11305008706609386065093890640938806109266
S11305108B0610928A06F0938D06E0938C06309336
S11305208F0620938E061092910610929006509397
S11305309306409392067093950660939406909365
S1130540970680939606B0939906A0939806F09325
S11305509B06E0939A0630939D0620939C06909305
S11305609F0680939E06B093A106A093A0063093A5
S1130570A3062093A2067093A5066093A406509345
S1130580A7064093A606B093A906A093A8063093A5
S1130590AB062093AA061092AD061092AC06F09317
S11305A0AF06E093AE063093B1062093B006B09345
S11305B0B306A093B2065093B5064093B406909345
S11305C0B7068093B6067093B9066093B806109286
S11305D0BB061092BA06F093BD06E093BC06909356
S11305E0BF068093BE067093C1066093C006F09365
S11305F0C306E093C2065093C5064093C406B09365
S1130600C706A093C6067093C9066093C806F09304
S1130610CB06E093CA063093CD062093CC06109205
S1130620CF061092CE06F093D106E093D006B09395
S1130630D306A093D2067093D5066093D406909304
S1130640D7068093D606B093D906A093D8063093E4
S1130650DB062093DA069093DD068093DC06909304
S1130660DF068093DE06F093E106E093E0067093E4
S1130670E3066093E2069093E5068093E406909384
S1130680E7068093E6067093E9066093E806F09324
S1130690EB06E093EA069093ED068093EC069093C4
S11306A0EF068093EE061092F1061092F006509336
S11306B0F3064093F2069093F5068093F406909324
S11306C0F7068093F6065093F9064093F8061092C5
S11306D0FB061092FA069093FD068093FC06909315
S11306E0FF068093FE063093010720930007B09322
S11306F00307A09302079093050780930407909340
S11307000707809306075093090740930807B0939F
S11307100B07A0930A0790930D0780930C079093FF
S11307200F0780930E07F0931107E093100730939F
S1130730130720931207909315078093140790933F
S1130740170780931607B0931907A093180770939F
S11307501B0760931A0790931D0780931C079093BF
S11307601F0780931E071092210710922007F09311
S11307702307E093220790932507809324079093FF
S113078027078093260770932907609328075093BF
S11307902B0740932A0790932D0780932C0790935F
S11307A02F0780932E073093310720933007109240
S11307B03307109232079093350780933407909350
S11307C0370780933607E7E3F4E082E090E0918313
S11307D0808328E130E033832283158214821782D8
S11307E0168221E030E03187208723E030E0338730
S11307F022871586148617861686918B808B84E053
S113080090E0938B828B49E150E0558B448B44E21A
S113081050E0578B468B318F208F25E030E0338FAB
S1130820228F158E148E178E168E91A380A386E0C8
S113083090E093A382A315A214A217A216A231A733
S113084020A727E030E033A722A715A614A617A6F1
S113085016A691AB80AB88E090E093AB82AB45E207
S113086050E055AB44AB46E250E057AB46AB31AF3A
S113087020AF29E030E033AF22AF15AE14AE1092B2
S113088076041092750490937804809377048AE038
S113089090E090937A048093790410927C041092EF
S11308A07B0410927E0410927D0430938004209384
S11308B07F042BE030E03093820420938104109273
S11308C084041092830410928604109285049093F9
S11308D08804809387048CE090E090938A0480934A
S11308E089044CE150E050938C0440938B044DE117
S11308F050E050938E0440938D04309390042093E1
S11309008F042DE030E030939204209391041092F0
S11309109404109293041092960410929504909368
S11309209804809397048EE090E090939A048093C7
S1130930990410929C0410929B0410929E041092AD
S11309409D043093A00420939F04D093A204C093E9
S1130950A1041092A4041092A3041092A60410926D
S1130960A5049093A8048093A70420E130E0309379
S1130970AA042093A90487E290E09093AC048093A6
S1130980AB0488E290E09093AE048093AD04D093DE
S1130990B004C093AF0481E190E09093B2048093DB
S11309A0B1041092B4041092B3041092B6041092DD
S11309B0B5043093B8042093B70422E130E03093B7
S11309C0BA042093B9041092BC041092BB04109290
S11309D0BE041092BD049093C0048093BF0483E1CD
S11309E090E09093C2048093C1041092C4041092C6
S11309F0C3041092C6041092C5043093C804209313
S1130A00C70424E130E03093CA042093C90440E2CF
S1130A1050E05093CC044093CB0441E250E0509317
S1130A20CE044093CD049093D0048093CF0485E109
S1130A3090E09093D2048093D1041092D404109245
S1130A40D3041092D6041092D5043093D804209382
S1130A50D70426E130E03093DA042093D9041092CD
S1130A60DC041092DB041092DE041092DD049093F7
S1130A70E0048093DF0487E190E09093E2048093A4
S1130A80E1041092E4041092E3041092E60410923C
S1130A90E50486E190E09093E8048093E70488E11C
S1130AA090E09093EA048093E904C9E2D0E0D09303
S1130AB0EC04C093EB040F2EFAE2AF2EB12CF02D10
S1130AC0B092EE04A092ED0481E090E09093F004E3
S1130AD08093EF04E7E1F0E0F093F204E093F10493
S1130AE01092F4041092F3041092F6041092F50498
S1130AF00F2EF3E08F2E912CF02D9092F80480921B
S1130B00F7046AE170E07093FA046093F904A4E2D4
S1130B10B0E0B093FC04A093FB041092FE04109286
S1130B20FD040F2EF9E16F2E712CF02D709200054B
S1130B306092FF044BE150E050930205409301059D
S1130B4085E290E090930405809303050F2EFCE268
S1130B504F2E512CF02D50920605409205057093AE
S1130B600805609307052CE130E030930A052093D3
S1130B70090586E290E090930C0580930B050DE245
S1130B8010E010930E0500930D050BE010E0109398
S1130B90100500930F0550931205409311058DE144
S1130BA090E090931405809313051092160510920B
S1130BB01505109318050093170530931A05209313
S1130BC019052EE130E030931C0520931B0510928B
S1130BD01E0510921D059093200580931F058FE13B
S1130BE090E0909322058093210507E210E0109392
S1130BF02405009323050F2EFEE22F2E312CF02D19
S1130C003092260520922505309328052093270548
S1130C106894EE24E5F8F12CF0922A05E092290577
S1130C2008E210E010932C0500932B050F2EFFE231
S1130C30CF2ED12CF02DD0922E05C0922D050F2E43
S1130C40F3E1CF2ED12CF02DD0923005C0922F0598
S1130C50909332058093310501E210E0109334053E
S1130C60009333051092360510923505D09238055D
S1130C70C0923705F0923A05E09239050F2EF2E260
S1130C80EF2EF12CF02DF0923C05E0923B051092F2
S1130C903E0510923D051093400500933F0503E285
S1130CA010E01093420500934105D0934405C0938E
S1130CB04305C0E3D0E0D0934605C0934505F092C8
S1130CC04805E0924705B0934A05A0934905B092C0
S1130CD04C05A0924B05ABE2B0E0B0934E05A09357
S1130CE04D059092500580924F0570925205609286
S1130CF05105109354050093530510925605109214
S1130D0055050F2EF7E0CF2ED12CF02DD09258059B
S1130D10C092570570935A056093590510925C056B
S1130D2010925B0510925E0510925D05D0926005ED
S1130D30C0925F055093620540936105109264056B
S1130D401092630510926605109265050F2EFFE060
S1130D50CF2ED12CF02DD0926805C0926705309328
S1130D606A052093690510926C0510926B05109228
S1130D706E0510926D05D0927005C0926F05909328
S1130D807205809371051092740510927305109288
S1130D90760510927505F0937805E0937705F09247
S1130DA07A05E092790510927C0510927B051092E9
S1130DB07E0510927D05F0938005E0937F051093E6
S1130DC08205009381051092840510928305109288
S1130DD08605109285051093880500938705509227
S1130DE08A054092890510928C0510928B05109209
S1130DF08E0510928D057093900560938F05B093C6
S1130E009205A09391051092940510929305109267
S1130E109605109295055093980540939705309246
S1130E209A052092990510929C0510929B051092A8
S1130E309E0510929D053093A00520939F050DE219
S1130E4010E01093A2050093A1051092A40510923E
S1130E50A3051092A6051092A5059093A80580936A
S1130E60A705D093AA05C093A9051092AC051092CA
S1130E70AB051092AE051092AD05F092B005E0926C
S1130E80AF052FE230E03093B2052093B105109204
S1130E90B4051092B3051092B6051092B505DF9112
S1130EA0CF911F910F91FF90EF90DF90CF90BF9063
S1130EB0AF909F908F907F906F905F904F903F90F6
S1130EC02F9008951F920F920FB60F9211240BB614
S1130ED00F924F935F936F937F938F939F93EF93AF
S1130EE0FF938091C60088230CF058C0982F9F77F9
S1130EF0E09104024E2F50E0FA013197EA30F105F7
S1130F0008F053C08827EE58FF4F8F4F0C940C10F5
S1130F10E091AC03F0E0ED53FC4F90838091AC037F
S1130F208F5F8093AC038091AC03809305013DC037
S1130F30E091AB03F0E0E355FC4F90838091AB0369
S1130F408F5F8093AB0331C0909309022EC09093BE
S1130F5008022BC080910B02891327C080910B02D9
S1130F608F5F80930B0221C080910A0289131DC0F8
S1130F7080910A028F5F80930A0217C08091AA03AE
S1130F80890F8093AA0311C0909307020EC081E0D9
S1130F9090E09093A7038093A60307C08093040274
S1130FA0823019F481E08093A803FF91EF919F911F
S1130FB08F917F916F915F914F910F900BBE0F9026
S1130FC00FBE0F901F9018951F920F920FB60F929D
S1130FD011240BB60F928F93EF93FF938091D60059
S1130FE08F3F81F0E091AC03F0E0ED53FC4F808340
S1130FF08091AC038F5F8093AC038091AC038093AA
S1131000050105C01092050181E08093A803FF91BA
S1131010EF918F910F900BBE0F900FBE0F901F900A
S113102018953B9A4398089586B1886088B90895C5
S113103086B1877F88B9089510BA11BA1092070152
S113104010920801089581B18F6081B982B1807FC7
S113105082B9EAE0F1E0808188618083EBE0F1E02D
S113106080818861808308956C98749A08956D983E
S1131070759A0895E8DFF8DFFADFDEDFD2CF08954E
S1131080E1E2F1E010828FEF8093250191E09093EB
S11310902401109229018093280110922B0180933E
S11310A02A0110922D0180932C0189EA809320015A
S11310B08BE080830895EAE7F0E0108210927B00D1
S11310C080E280937C0080E880BF86E88083089576
S11310D0883018F098E090937B008770806280934A
S11310E07C00EAE7F0E0808180648083808184FF73
S11310F0FDCF80917900EAE7F0E0908190619083E0
S113110010927B000895F894EAE6F0E08081826012
S11311108083EC9A78940895F894EAE6F0E080816C
S113112088608083ED9A789408951F920F920FB689
S11311300F9211248F939F93AF93BF9380919C033D
S113114090919D03A0919E03B0919F030196A11DD0
S1131150B11D80939C0390939D03A0939E03B09331
S11311609F03BF91AF919F918F910F900FBE0F90EE
S11311701F9018951F920F920FB60F9211248F9300
S11311809F93AF93BF938091A0039091A103A091EB
S1131190A203B091A3030196A11DB11D8093A003E6
S11311A09093A103A093A203B093A303BF91AF9123
S11311B09F918F910F900FBE0F901F90189592B131
S11311C0907F8F70982B92B9089586E0F8CF089598
S11311D085E0F5CF089580910202F1CF089580E073
S11311E0EECF0895CF92DF92EF92FF920F931F9369
S11311F0BC0180E090E05AD628E431EE42E850E4A5
S1131200C1D528D6AB0160E070E010929C03109227
S11312109D0310929E0310929F031092A0031092BC
S1131220A1031092A2031092A30391E0E0E0C09006
S11312309C03D0909D03E0909E03F0909F03009147
S1131240A0031091A1032091A2033091A303892F3D
S1131250041715072607370708F48E2F811109C0D4
S1131260892FC416D506E606F70608F48E2F8823C0
S1131270F1F2B5DF1F910F91FF90EF90DF90CF90C7
S11312800895CF93DF93EC01A3DF9FEF90932801A0
S113129090932A01CE01A6DFDF91CF910895CF93D9
S11312A0DF93EC0198DF9FEF9093280190932A013C
S11312B0CE0198DFDF91CF9108958FEF80930401E1
S11312C0109205010895F894D5DEE1ECF0E0108267
S11312D01092C00026E02093C2009FE59093C400C2
S11312E01092C50088E98083E1EDF0E0108210924D
S11312F0D0002093D2009093D4001092D500808324
S113130002DF0ADFD8DEBCDED8DF78940895BC01A2
S113131080E090E0CBD525EE30ED4AEA50E432D5BA
S113132099D5AB01BC0110929C0310929D031092BD
S11313309E0310929F0380919C0390919D03A09122
S11313409E03B0919F03481759076A077B0798F7D4
S113135046CF0895CF93DF93EC0137DF9AE590935E
S1131360280190932A01CE01D2DFDF91CF91089515
S11313704F925F926F927F928F929F92AF92BF92A1
S1131380CF92DF92EF92FF920F931F93CF93DF934D
S1131390CDB7DEB7C05CD1090FB6F894DEBF0FBE7F
S11313A0CDBFDE01AF59BF4F20E6FD0111922A9552
S11313B0E9F7E7EDF3E08E010F5F1F4F78016D0150
S11313C007E314E0970163E670E04FEF5FEF61938A
S11313D07193D9014D935D939D01D6011D921D9288
S11313E06D01E017F10799F7FC01AC01445F5F4F11
S11313F08FEF9FEF61E070E020813181211531058D
S113140009F1220F331FD901AB52BC4F1D921C921C
S1131410019620813181DC01AA0FBB1F01E010E09D
S11314200C0F1D1FA00FB11F2D933C93D9011197D1
S1131430AA0FBB1F21E630E02C0F3D1FA20FB31FE4
S11314406D937C933296E417F507B1F6AE2C9F2C7E
S1131450812C712C6894BB24B2F8612CCC24C394E5
S1131460D12CA981BA81119799236CF0EA2DF92D19
S1131470282D372D2F5F3F4F428153814193519344
S113148082179307BCF70197FD01EE0FFF1FEE0FC4
S1131490FF1FEE0FFF1FE95CFB4F2B2D362DAA0F0C
S11314A0BB1FAD0149525C4F2A01619171916115D5
S11314B07105D1F1D2010D911C910F5F1F4FAB014A
S11314C0415051097A01EE0CFF1CD701A952BC4FBF
S11314D0ED90FC90E016F10644F07A01EE0CFF1C4E
S11314E0D701A952BC4F0D931C938A01000F111F01
S11314F0A1E6B0E0AC0FBD1F0A0F1B1FD8010D9170
S11315001C9111970130110579F0CD92DC9201966E
S1131510AC01440F551F01E010E00C0F1D1F400FDC
S1131520511FDA016D937C932150310909F0BDCF2D
S113153049815A814F3F5F4F29F08F3FEFEF9E075C
S113154009F08FCFC054DF4F0FB6F894DEBF0FBE43
S1131550CDBFDF91CF911F910F91FF90EF90DF905E
S1131560CF90BF90AF909F908F907F906F905F903F
S11315704F900895992344F427EE3FEFA901481BA7
S1131580590BCA018CDE02C049977BDE82E0A0DDE4
S113159080939A038937D0F308958F929F92AF92E4
S11315A0BF92CF92DF92EF92FF920F931F93CF934C
S11315B0DF93EC01E0910502F09106023197EE0F02
S11315C0FF1FEE0FFF1FE80FF91FEE0FFF1FE85478
S11315D0FA4FE080F1808091000290910102E81AB4
S11315E0F90AB7010F2C000C880B990B61D49F7773
S11315F020E030E044E352E4E7D418162CF486E407
S113160090E0A8DEC701B6DF809105029091060242
S11316100197880F991F880F991FC80FD91FCC0FE6
S1131620DD1FC854DA4F8881998190930102809319
S11316300002CBDDBB24B394C12C08E211E00F2ED1
S1131640FAE5DF2EF02DCAE2D1E00F2EF2E89F2E4C
S1131650F02DA12C812C06C09093010280930002EE
S1131660BA2CC82C83E034DD80939B0382E030DD08
S113167080939A0381E02CDD8093990386E028DD32
S11316808093980383E024DD8093B70582E020DD16
S11316908093B70581E01CDD8093B70510929C030D
S11316A010929D0310929E0310929F0380919803C1
S11316B0813FB0F084EB90E05DDF80910002909177
S11316C00102845B91098E199F090AF0C5CF8859DC
S11316D09E4F9093010280930002BA2CC82CC2CF73
S11316E0E0919A038E2F90E0409102025091030200
S11316F0481759076CF420919B0330E042175307B5
S11317009CF16091990370E046175707D4F146C0E5
S113171020919B0330E0421753072CF456DDF80167
S11317201082D8829FCF6091990370E046175707C3
S11317302CF44BDDF801D082188294CFE93720F0E5
S1131740F801908298828ECF841795070CF08ACF87
S1131750241735070CF086CF641775070CF082CF79
S1131760F801D082D8827ECF80919C0390919D0312
S1131770A0919E03B0919F030B97A105B10570F250
S113178011C080919C0390919D03A0919E03B09100
S11317909F030B97A105B10560F204C06091990302
S11317A070E0CCCF12DD1092280110922A018B2D0B
S11317B09C2DDF91CF911F910F91FF90EF90DF90BF
S11317C0CF90BF90AF909F908F900895CF93DF9369
S11317D09C01BC0161507109DB01AA0FBB1FA95216
S11317E0BC4F8D919C91892B39F430933907209308
S11317F03807822F932F38C0DB01AA0FBB1FAA0F13
S1131800BB1FAA0FBB1FFD01E95CFB4F0190F081D8
S1131810E02DEE0FFF1FE952FC4FC081D181A75C80
S1131820BB4F20E030E081E090E0ED91FD91EE0FC0
S1131830FF1FE952FC4F408151814C175D0714F49E
S11318409C01EA0101968430910579F7FB01EE0FC2
S1131850FF1FEE0FFF1FE20FF31FEE0FFF1FE95CE8
S1131860FB4F80819181B2DFDF91CF9108952F9258
S11318703F924F925F926F927F928F929F92AF921C
S1131880BF92CF92DF92EF92FF920F931F93CF9369
S1131890DF930E949E0017DD109205011092A803A9
S11318A08091A8038823E1F38FEF80930501E0EC96
S11318B0F0E0808185FFFDCF81E08093C6002FEFAB
S11318C03FEF4CE2215030404040E1F700C00000BF
S11318D08091AC03882301F120E030E0E0ECF0E0FB
S11318E0C6ECD0E0D901AD53BC4F9C919068808187
S11318F085FFFDCF98838FEF9FEF4CE2815090409E
S11319004040E1F700C000002F5F3F4F8091AC03DF
S113191090E02817390734F3E0ECF0E0808185FF8C
S1131920FDCF82E08093C6008FEF9FEFECE2815001
S11319309040E040E1F700C000008FE08093050193
S1131940312C212CC0ECD0E00F2EF6ECCF2ED12C74
S1131950F02D0F2EF5E09F2EF02D6894882482F848
S1131960632C522C77247394412CCBC12091AB036C
S11319708091A4039091A50330E02817390709F05A
S1131980A0C0E0910A02F0E0ED53FC4F808190E0AA
S113199001979C01220F331F820F931F880F991FF9
S11319A0880F991F845F9D4FE3DCE0910502F0915D
S11319B00602EE0FFF1FEB52FC4F80819181409194
S11319C0A903E0910702F0E0EE0FFF1FE952FC4F7C
S11319D020813181240F311D2817390764F5909136
S11319E00A02888185FFFDCF83E0F6018083292FD9
S11319F02068888185FFFDCFF6012083909307023C
S1131A00E0910702F0E0EE0FFF1FE952FC4F9081D6
S1131A10888185FFFDCF88E0F60180839068888106
S1131A2085FFFDCFF60190838091070290E0CEDE22
S1131A308093070232C0E091AB03F0E090910A0278
S1131A40E355FC4F90839091AA03890F8093AA03D6
S1131A508091AB038F5F8093AB0390910A028881DE
S1131A6085FFFDCF89E0F60180839068888185FF3A
S1131A70FDCFF60190838091050290910602A6DEC7
S1131A80988195FFFDCF99E0F6019083982F906897
S1131A90888185FFFDCFF601908390910A028881A9
S1131AA085FFFDCF87E0F60180839068888185FFFC
S1131AB0FDCFF601908380910A028F5F80930A0222
S1131AC020C1FC01E355FC4FE081F0E0ED53FC4FF5
S1131AD0808190E001979C01220F331F820F931F96
S1131AE0880F991F880F991F845F9D4F41DCE091F7
S1131AF00502F09106023197DF01AA0FBB1FA9521C
S1131B00BC4F8D919C91892B09F4C9C0EE0FFF1F26
S1131B10EE0FFF1FEE0FFF1FDF01A95CBB4FED901F
S1131B20FC90D701AA0FBB1FA952BC4F4D915C91E9
S1131B30E75CFB4F062D152D872D942D21913191B6
S1131B402115310569F0D901AA0FBB1FA952BC4F59
S1131B506D917C91641775071CF48C017901AB01BC
S1131B6001968430910551F758019701809108023C
S1131B7090E028173907D1F3888185FFFDCFF6015E
S1131B8090822068888185FFFDCFF6012083C501FE
S1131B9004DD892B09F054C0A0910502B09106021E
S1131BA01197232D322DAA0FBB1FAA0FBB1FA00F05
S1131BB0B11FAA0FBB1FA95CBB4F8D919C911197BC
S1131BC00197FC01EE0FFF1FEE0FFF1FE20FF31F43
S1131BD0EE0FFF1FE95CFB4F408151814E155F05FD
S1131BE069F4FC01EE0FFF1FEE0FFF1FE20FF31F5E
S1131BF0EE0FFF1FE95CFB4F118210822F5F3F4FF6
S1131C0024303105D1F680910502909106020197A6
S1131C10FC01EE0FFF1FEE0FFF1FE00FF11FEE0F91
S1131C20FF1FE95CFB4F11821082880F991FFC0192
S1131C30E952FC4F80819181892B09F062C02FC049
S1131C40E0910502F09106023197EE0FFF1FEE0FAF
S1131C50FF1FEA0DFB1DEE0FFF1FE95CFB4F908198
S1131C6081819093050280930602888185FFFDCFD0
S1131C70F60180829068888185FFFDCFF60190830C
S1131C80E0910502F09106023197DF01AA0FBB1F14
S1131C90A952BC4F8D919C91892B09F037CFE091CB
S1131CA0A403F091A503E355FC4F908180910B02AE
S1131CB09813FBCFB9D9FFEF2FE736E1F15020405D
S1131CC03040E1F700C00000B3D98091A4039091A3
S1131CD0A50301969093A5038093A40390910B020E
S1131CE0888185FFFDCF86E0F60180839068888136
S1131CF085FFFDCFF601908380910B028F5F809367
S1131D000B02E0910B02F0E0ED53FC4F8081811156
S1131D102DCEE0ECF0E0808185FFFDCF8AE080935A
S1131D20C600E0ECF0E0808185FFFDCF80E8809381
S1131D30C6008091A6039091A70381309105E9F72D
S1131D4073D9FFEF2FEF30EE40E0F15020403040E8
S1131D504040D9F700C000006BD980E090E0DF91EB
S1131D60CF911F910F91FF90EF90DF90CF90BF9094
S1131D70AF909F908F907F906F905F904F903F9027
S1131D802F9008950CD0E6C0DED040F0D5D030F0CE
S1131D9021F45F3F19F0C7C0511110C1CAC0EBD084
S1131DA098F39923C9F35523B1F3951B550BBB271E
S1131DB0AA2762177307840738F09F5F5F4F220FCB
S1131DC0331F441FAA1FA9F333D00E2E3AF0E0E8C4
S1131DD030D091505040E695001CCAF729D0FE2F10
S1131DE027D0660F771F881FBB1F261737074807A2
S1131DF0AB07B0E809F0BB0B802DBF01FF27935858
S1131E005F4F2AF09E3F510568F08DC0D7C05F3FF9
S1131E10ECF3983EDCF3869577956795B795F7953F
S1131E209F5FC9F7880F911D9695879597F9089537
S1131E30E1E0660F771F881FBB1F621773078407D3
S1131E40BA0720F0621B730B840BBA0BEE1F88F7E2
S1131E50E095089598D088F09F5790F0B92F99276E
S1131E60B751A0F0D1F0660F771F881F991F1AF0A1
S1131E70BA95C9F712C0B13081F09FD0B1E008958E
S1131E809CC0672F782F8827B85F39F0B93FCCF30F
S1131E90869577956795B395D9F73EF49095809597
S1131EA0709561957F4F8F4F9F4F0895E89409C0B7
S1131EB097FB3EF490958095709561957F4F8F4F79
S1131EC09F4F9923A9F0F92F96E9BB279395F6958F
S1131ED0879577956795B795F111F8CFFAF4BB0F0D
S1131EE011F460FF1BC06F5F7F4F8F4F9F4F16C071
S1131EF0882311F096E911C0772321F09EE8872FFB
S1131F00762F05C0662371F096E8862F70E060E0B6
S1131F102AF09A95660F771F881FDAF7880F96952F
S1131F20879597F9089597F99F6780E870E060E0D6
S1131F3008959FEF80EC089500240A94161617065E
S1131F4018060906089500240A94121613061406A6
S1131F5005060895092E0394000C11F4882352F009
S1131F60BB0F40F4BF2B11F460FF04C06F5F7F4FC1
S1131F708F4F9F4F089557FD9058440F551F59F0A8
S1131F805F3F71F04795880F97FB991F61F09F3F62
S1131F9079F087950895121613061406551FF2CF8B
S1131FA04695F1DF08C0161617061806991FF1CFDB
S1131FB086957105610508940895E894BB27662702
S1131FC07727CB0197F9089503D008F48FEF08958C
S1131FD0990F0008550FAA0BE0E8FEEF1616170636
S1131FE0E807F907C0F012161306E407F50798F09E
S1131FF0621B730B840B950B39F40A2661F0232BB7
S1132000242B252B21F408950A2609F4A140A69532
S11320108FEF811D811D0895EE0FFF1F881F8BBF59
S10F20200790F691E02D1994F894FFCF7E
S113202C5A002300FF01000DFFFFFFFF0100000019
S113203C000000000000000002000000000000008E
S113204C000000000300000000000000000000007D
S113205C0400000000000000000000000500000067
S113206C000000000000000006000000000000005A
S113207C0000000007000000000000000000000049
S113208C080000000000000000000000090000002F
S113209C00000000000000000A0000000000000026
S11320AC000000000B000000000000000000000015
S11320BC0C00000000000000000000000D000000F7
S11320CC00000000000000000E00000000000000F2
S11320DC000000000F0000000000000000000000E1
S11320EC10000000000000000000000011000000BF
S11320FC00000000000000001200000000000000BE
S113210C00000000130000000000000000000000AC
S113211C1400000000000000000000001500000086
S113212C0000000000000000160000000000000089
S113213C0000000017000000000000000000000078
S113214C1800000000000000000000000100230043
S113215C000000000000000019001A0023002400F5
S113216C2B002C0005001A000000000000000000E9
S113217C09001B0000000000000000001B001C00F4
S113218C1D001E002D002E000D001E00000000007E
S113219C0000000011001F000000000000000000FF
S11321AC1F002000210022002F0030001500220007
S10B21BC000000000000000017
S9030000FC
