S00D00005461736B352E737265634F
S11300007EC000009DC000009BC0000099C000009D
S113001097C000000C94250B0C94000B91C00000B9
S11300208FC000008DC000008BC0000089C000009C
S113003087C0000085C0000083C0000081C00000AC
S11300407FC000007DC000007BC0000079C00000BC
S113005077C0000075C0000073C0000071C00000CC
S11300606FC000000C9441096BC0000069C000001F
S113007067C0000065C0000063C0000061C00000EC
S11300805FC000005DC000005BC0000059C00000FC
S113009057C0000055C0000053C0000051C000000C
S11300A04FC000004DC000004BC0000049C000001C
S11300B047C0000045C0000043C0000041C000002C
S11300C03FC000003DC000003BC000000C94F40998
S11300D037C0000035C0000033C0000031C000004C
S11300E02FC000006709E5098709AD09B009B30904
S11300F0BD09C709CD09D0097709E5099A09112471
S11301001FBECFEFD1E2DEBFCDBF00E00CBF16E0D3
S1130110A0E0B2E0E0E5F3E300E00BBF02C007902B
S11301200D92A230B107D9F72AE0A2E0B6E001C0EF
S11301301D92AE30B207E1F70E9455100C94A61937
S11301405FCFE0EDF0E0908195FFFDCF8093D60086
S1130150089587B1876F87B988B1807888B9089581
S113016086E69EE00197F1F700004098419880E30D
S113017088B9429AEFEFF7E43197F1F700C0000035
S11301804298E6E6FEE03197F1F700004098419886
S113019088B9429AEFEFF7E43197F1F700C0000015
S11301A04298E6E6FEE03197F1F700004098419866
S11301B088B9429A8FEF97E40197F1F700C00000E5
S11301C04298E6E6FEE03197F1F700004098419846
S11301D080E288B9429A8FEF97E40197F1F700C063
S11301E000004298089598B19F7098B998B1282F4B
S11301F0207F922B98B940984198429AEFEFF7E408
S11302003197F1F700C00000429898B19F7098B9F7
S113021098B18295807F892B88B940984198429AF9
S11302208FEF97E40197F1F700C00000429808951A
S113023098B19F7098B998B1282F207F922B98B9C4
S1130240409A4198429AEFEFF7E43197F1F700C0F2
S11302500000429898B19F7098B998B18295807FB8
S1130260892B88B9409A4198429A8FEF97E4019775
S1130270F1F700C000004298089580E8B4CF0895D3
S1130280CF93DF93EC018881882329F02196D0DF76
S113029089918111FCCFDF91CF91089586E69EE08C
S11302A00197F1F7000088E29EDF81E09CDF86E0A1
S11302B09ADF8EE098DF80E896CF0895823069F067
S11302C018F4813031F00895833059F0843069F0A6
S11302D008958FE7860F87CF08958FEB860F83CF1E
S11302E0089583E9860F7FCF089583ED860F7BCF32
S11302F008950F931F93CF93DF938A01E901882315
S113030011F0611102C0B9DF01C0D8DFC530D105D9
S1130310C1F49801329522952F7023273F7023272B
S1130320A7E4B3E00E94BA169695879596958795AB
S113033096958795C096909386068093850678DF78
S113034004C0C430D10509F0BEC098013695279584
S11303503695279536952795A5ECB0E20E94BA16F6
S1130360AC01529542954F7045275F7045275093D5
S11303706808409367089A01ADECBCEC0E94BA1679
S11303809695879596958795969587959C01220FC6
S1130390331F880F991F880F991F880F991F820F89
S11303A0931F9A01281B390BC901C0969093050A23
S11303B08093040A3DDF9801369527953695279555
S11303C0ABE7B4E10E94BA16AC0156954795509339
S11303D06808409367089A01ADECBCEC0E94BA1619
S11303E09695879596958795969587959C01220F66
S11303F0331F880F991F880F991F880F991F820F29
S1130400931F9A01281B390BC901C0969093010AC6
S11304108093000A0DDF04C0C230D10509F058C032
S11304209801ADECBCEC0E94BA16AC015695479508
S11304305695479556954795509368084093670895
S11304409A010E94BA1696958795969587959695E2
S113045087959C01220F331F880F991F880F991FBE
S1130460880F991F820F931F9A01281B390BC9010A
S1130470C09690937F0880937E08DADE9801ADECF5
S1130480BCEC0E94BA169695879596958795969595
S113049087959C01220F331F880F991F880F991F7E
S11304A0880F991F820F931F9801281B390BC901CC
S11304B0C0969093030A8093020ABADE269764F0EA
S11304C085E4B6DE09C0C330D10509F0A5CF73CFEA
S11304D0C130D10599F7D2CFDF91CF911F910F9100
S11304E0089580E880DE84E395E0CADE80EC7BDE5C
S11304F084E395E0C5DEC1CE08952F923F924F92DA
S11305005F926F927F928F929F92AF92BF92CF929F
S1130510DF92EF92FF920F931F93CF93DF93E0E864
S1130520F8E00F2EFBE4AF2EB12CF02DB182A082A7
S11305300F2EFDE14F2E55245394F02D5382428209
S11305408FEF9FEF9583848397838683CC24CA940B
S1130550D12CD186C086ACE3B0E0B387A28795875F
S113056084879787868720EF30E0318B208B0F2E8E
S1130570FDE22F2E312CF02D338A228A158A148A1B
S11305806CE271E0778B668B0F2EF1EE8F2E912C3F
S1130590F02D918E808E0EE110E0138F028F958FD7
S11305A0848F978F868F42ED50E051A340A3CFE014
S11305B0D0E0D3A3C2A395A384A397A386A303ECFB
S11305C010E011A700A713A612A695A784A797A7C2
S11305D086A744EB50E051AB40AB09E511E013AB07
S11305E002AB35AB24AB77AB66AB05EA10E011AFD9
S11305F000AF0AE411E013AF02AF95AF84AF90935C
S1130600BF088093BE08E6E9F0E0F093C108E093E8
S1130610C0080BE311E01093C3080093C208909341
S1130620C5088093C4089093C7088093C6080F2E0A
S1130630F7E86F2E712CF02D7092C9086092C808EB
S11306407093CB086093CA089093CD088093CC082C
S11306509093CF088093CE08E8E7F0E0F093D108B8
S1130660E093D0085092D3084092D2085093D50812
S11306704093D4083093D7082093D6080F2EF9E678
S1130680EF2EF12CF02DF092D908E092D8080EE06C
S113069011E01093DB080093DA089093DD0880934F
S11306A0DC089093DF088093DE080AE510E01093DD
S11306B0E1080093E008D092E308C092E208909326
S11306C0E5088093E4089093E7088093E608B092E5
S11306D0E908A092E8083093EB082093EA08909385
S11306E0ED088093EC089093EF088093EE08B093A4
S11306F0F108A093F0089092F3088092F208F09326
S1130700F508E093F4085093F7084093F608309204
S1130710F9082092F8080F2EF2EDCF2ED12CF02DEF
S1130720D092FB08C092FA089093FD088093FC08CD
S11307309093FF088093FE080F2EFEE1CF2ED12C5C
S1130740F02DD0920109C09200090F2EF3ECCF2EA8
S1130750D12CF02DD0920309C0920209909305097F
S1130760809304099093070980930609D09309099B
S1130770C093080950930B0940930A0990930D09FB
S113078080930C0990930F0980930E09109211091C
S1130790109210090F2EF5EACF2ED12CF02DD09205
S11307A01309C0921209B0931509A0931409F09388
S11307B01709E09316090F2EF9E5CF2EDD24D39403
S11307C0F02DD0921909C09218090F2EF6E9CF2EF8
S11307D0D12CF02DD0921B09C0921A0990931D09B7
S11307E080931C0990931F0980931E090F2EFAE42D
S11307F0CF2EDD24D394F02DD0922109C09220096C
S11308007092230960922209909325098093240908
S113081090932709809326090F2EFBE3CF2EDD2426
S1130820D394F02DD0922909C0922809F0932B0972
S1130830E0932A0990932D0980932C0990932F0912
S113084080932E097093310960933009F092330933
S1130850E09232091092350910923409B0933709A5
S1130860A0933609109339090093380950923B0933
S113087040923A0990933D0980933C0990933F0933
S113088080933E09509341094093400910924309D3
S113089010924209309345092093440990934709E3
S11308A080934609509349094093480910924B0993
S11308B010924A09B0934D09A0934C0970934F09C3
S11308C060934E0950935109409350091092530973
S11308D010925209F0935509E09354093093570943
S11308E020935609109259091092580950935B09A4
S11308F040935A0970935D0960935C0990935F0972
S113090080935E09B0936109A0936009F093630931
S1130910E093620930936509209364099093670911
S113092080936609B0936909A093680930936B09B1
S113093020936A0970936D0960936C0950936F0951
S113094040936E09B0937109A093700930937309B1
S1130950209372091092750910927409F093770923
S1130960E09376093093790920937809B0937B0951
S1130970A0937A0950937D0940937C0990937F0951
S113098080937E0970938109609380091092830992
S113099010928209F0938509E09384099093870962
S11309A0809386097093890960938809F0938B0971
S11309B0E0938A0950938D0940938C09B0938F0971
S11309C0A0938E097093910960939009F093930911
S11309D0E093920930939509209394091092970912
S11309E010929609F0939909E0939809B0939B09A2
S11309F0A0939A0970939D0960939C0990939F0911
S1130A0080939E09B093A109A093A0093093A309F0
S1130A102093A2099093A5098093A4099093A70910
S1130A208093A609F093A909E093A8097093AB09F0
S1130A306093AA099093AD098093AC099093AF0990
S1130A408093AE097093B1096093B009F093B30930
S1130A50E093B2099093B5098093B4099093B709D0
S1130A608093B6091092B9091092B8095093BB0942
S1130A704093BA099093BD098093BC099093BF0930
S1130A808093BE095093C1094093C0091092C309D1
S1130A901092C2099093C5098093C4099093C70921
S1130AA08093C6093093C9092093C809B093CB0930
S1130AB0A093CA099093CD098093CC099093CF0950
S1130AC08093CE095093D1094093D009B093D309B0
S1130AD0A093D2099093D5098093D4099093D70910
S1130AE08093D609F093D909E093D8093093DB09B0
S1130AF02093DA099093DD098093DC099093DF0950
S1130B008093DE09B093E109A093E0097093E309AF
S1130B106093E2099093E5098093E4099093E709CF
S1130B208093E6091092E9091092E809F093EB0921
S1130B30E093EA099093ED098093EC099093EF090F
S1130B408093EE097093F1096093F0095093F309CF
S1130B504093F2099093F5098093F4099093F7096F
S1130B608093F6093093F9092093F8091092FB0950
S1130B701092FA099093FD098093FC099093FF0960
S1130B808093FE09E7EEF6E082E090E091838083B3
S1130B9028E130E03383228315821482178216827F
S1130BA021E030E03187208723E030E0338722875B
S1130BB01586148617861686918B808B84E090E0C8
S1130BC0938B828B49E150E0558B448B44E250E097
S1130BD0578B468B318F208F25E030E0338F228F67
S1130BE0158E148E178E168E91A380A386E090E046
S1130BF093A382A315A214A217A216A231A720A719
S1130C0027E030E033A722A715A614A617A616A638
S1130C1091AB80AB88E090E093AB82AB45E250E0CF
S1130C2055AB44AB46E250E057AB46AB31AF20AFD7
S1130C3029E030E033AF22AF15AE14AE1092260790
S1130C401092250790932807809327078AE090E065
S1130C5090932A078093290710922C0710922B0750
S1130C6010922E0710922D073093300720932F07F0
S1130C702BE030E030933207209331071092340791
S1130C801092330710923607109235079093380765
S1130C90809337078CE090E090933A07809339076C
S1130CA04CE150E050933C0740933B074DE150E04A
S1130CB050933E0740933D073093400720933F07EE
S1130CC02DE030E03093420720934107109244070F
S1130CD010924307109246071092450790934807D5
S1130CE0809347078EE090E090934A0780934907EA
S1130CF010924C0710924B0710924E0710924D071A
S1130D003093500720934F07D0935207C093510755
S1130D1010925407109253071092560710925507D9
S1130D20909358078093570720E130E030935A0797
S1130D302093590787E290E090935C0780935B07C8
S1130D4088E290E090935E0780935D07D0936007FC
S1130D50C0935F0781E190E09093620780936107FD
S1130D601092640710926307109266071092650749
S1130D70309368072093670722E130E030936A07D5
S1130D802093690710926C0710926B0710926E07FC
S1130D9010926D079093700780936F0783E190E042
S1130DA090937207809371071092740710927307DF
S1130DB0109276071092750730937807209377077F
S1130DC024E130E030937A072093790740E250E041
S1130DD050937C0740937B0741E250E050937E0799
S1130DE040937D079093800780937F0785E190E08F
S1130DF0909382078093810710928407109283074F
S1130E0010928607109285073093880720938707EE
S1130E1026E130E030938A072093890710928C07EB
S1130E2010928B0710928E0710928D079093900763
S1130E3080938F0787E190E09093920780939107C6
S1130E4010929407109293071092960710929507A8
S1130E5086E190E0909398078093970788E190E06B
S1130E6090939A0780939907C9E2D0E0D0939C07A6
S1130E70C0939B070F2EFAE2AF2EB12CF02DB09247
S1130E809E07A0929D0781E090E09093A007809335
S1130E909F07E7E1F0E0F093A207E093A107109227
S1130EA0A4071092A3071092A6071092A5070F2E6D
S1130EB0F3E08F2E912CF02D9092A8078092A70733
S1130EC06AE170E07093AA076093A907A4E2B0E016
S1130ED0B093AC07A093AB071092AE071092AD0786
S1130EE00F2EF9E16F2E712CF02D7092B0076092E5
S1130EF0AF074BE150E05093B2074093B10785E24E
S1130F0090E09093B4078093B3070F2EFCE24F2E2A
S1130F10512CF02D5092B6074092B5077093B80744
S1130F206093B7072CE130E03093BA072093B907F8
S1130F3086E290E09093BC078093BB070DE210E03B
S1130F401093BE070093BD070BE010E01093C00799
S1130F500093BF075093C2074093C1078DE190E00F
S1130F609093C4078093C3071092C6071092C507D5
S1130F701093C8070093C7073093CA072093C90783
S1130F802EE130E03093CC072093CB071092CE07AC
S1130F901092CD079093D0078093CF078FE190E014
S1130FA09093D2078093D10707E210E01093D407FF
S1130FB00093D3070F2EFEE22F2E312CF02D30920A
S1130FC0D6072092D5073093D8072093D707689483
S1130FD0EE24E5F8F12CF092DA07E092D90708E262
S1130FE010E01093DC070093DB070F2EFFE2CF2EF7
S1130FF0D12CF02DD092DE07C092DD070F2EF3E145
S1131000CF2ED12CF02DD092E007C092DF07909321
S1131010E2078093E10701E210E01093E4070093F4
S1131020E3071092E6071092E507D092E807C09212
S1131030E707F092EA07E092E9070F2EF2E2EF2EBB
S1131040F12CF02DF092EC07E092EB071092EE07F2
S11310501092ED071093F0070093EF0703E210E0FE
S11310601093F2070093F107D093F407C093F307AA
S1131070C0E3D0E0D093F607C093F507F092F807E9
S1131080E092F707B093FA07A093F907B092FC0730
S1131090A092FB07ABE2B0E0B093FE07A093FD077C
S11310A0909200088092FF077092020860920108F3
S11310B01093040800930308109206081092050880
S11310C00F2EF7E0CF2ED12CF02DD0920808C0922D
S11310D0070870930A086093090810920C0810928C
S11310E00B0810920E0810920D08D0921008C092AE
S11310F00F0850931208409311081092140810928C
S1131100130810921608109215080F2EFFE0CF2E28
S1131110D12CF02DD0921808C092170830931A08D9
S11311202093190810921C0810921B0810921E0894
S113113010921D08D0922008C0921F089093220894
S113114080932108109224081092230810922608F4
S113115010922508F0932808E0932708F0922A08B3
S1131160E092290810922C0810922B0810922E0855
S113117010922D08F0933008E0932F081093320852
S113118000933108109234081092330810923608F4
S113119010923508109338080093370850923A0893
S11311A04092390810923C0810923B0810923E0875
S11311B010923D087093400860933F08B093420832
S11311C0A0934108109244081092430810924608D4
S11311D010924508509348084093470830924A08B3
S11311E02092490810924C0810924B0810924E0815
S11311F010924D083093500820934F080DE210E0F0
S113120010935208009351081092540810925308F6
S113121010925608109255089093580880935708D6
S1131220D0935A08C093590810925C0810925B0836
S113123010925E0810925D08F0926008E0925F08D8
S11312402FE230E030936208209361081092640822
S1131250109263081092660810926508DF91CF918E
S11312601F910F91FF90EF90DF90CF90BF90AF90C0
S11312709F908F907F906F905F904F903F902F90B2
S113128008951F920F920FB60F9211240BB60F926E
S11312904F935F936F937F938F939F93EF93FF93FA
S11312A08091C60088230CF082C0982F9F77E0912C
S11312B014024E2F50E0FA013197ED30F10508F099
S11312C084C08827EE58FF4F8F4F0C94B216E091DC
S11312D04606F0E0E55AF94F9083809146068F5F09
S11312E08093460680914606809305016EC0E09186
S11312F04506F0E0E95BF94F9083809145068F5FE6
S11313008093450680914506809305015EC0E09177
S11313104206F0E0E159F94F9083E0914206F0E093
S1131320E659F74F8FEF8083809142068F5F809359
S113133042064BC0E0914206F0E0E159F94F8FEFCD
S11313408083E0914206F0E0E659F74F9083809164
S113135042068F5F8093420638C09093160235C0D0
S11313609093150232C08091440689132EC0809157
S113137044068F5F8093440628C0809143068913F6
S113138024C0809143068F5F809343061EC08091E2
S11313904106890F8093410618C09093190215C025
S11313A081E090E090931306809312060EC0809320
S11313B01402823019F08C3029F007C081E0809348
S11313C03F0603C081E080933E06FF91EF919F9119
S11313D08F917F916F915F914F910F900BBE0F9002
S11313E00FBE0F901F9018951F920F920FB60F9279
S11313F011240BB60F928F939F93EF93FF938091D9
S1131400D60090913F06911118C08F3F81F0E09172
S11314104606F0E0E55AF94F8083809146068F5FD7
S113142080934606809146068093050121C0109260
S1131430050181E080933F061BC090913E06911107
S113144017C08F3F81F0E0914506F0E0E95BF94F6A
S11314508083809145068F5F809345068091450681
S11314608093050105C01092050181E080933E063A
S1131470FF91EF919F918F910F900BBE0F900FBE34
S11314800F901F901895259A2D9A0895E1E8F0E0A1
S113149010828CEF8093850081E08093840093E038
S11314A0909389008FEF80938800909387008093B6
S11314B086008BEA80938000109282008CE0808307
S11314C0089510928900682F70E080E090E00E94F7
S11314D0FC152BE734E14EEE5FE30E94681520E033
S11314E030E04CE052E40E9404150E94D015609351
S11314F0880008953B9A4398089586B1886088B916
S1131500089586B1877F88B9089510BA11BA1092E8
S1131510070110920801089581B18F6081B982B1E9
S1131520807F82B9EAE0F1E0808188618083EBE02A
S1131530F1E080818861808308956C98749A08959D
S11315406D98759A0895E8DFF8DFFADF0E94A90024
S1131550DCDFD0CF0895E1E2F1E010828FEF8093D9
S1131560250191E090932401109229018093280190
S113157010922B0180932A0110922D0180932C014B
S113158089EA809320018BE080830895EAE7F0E004
S1131590108210927B0080E280937C0080E880BF00
S11315A086E880830895883018F098E090937B0053
S11315B08770806280937C00EAE7F0E08081806439
S11315C08083808184FFFDCF80917900EAE7F0E099
S11315D090819061908310927B000895F894EAE6DC
S11315E0F0E0808182608083EC9A78940895F89486
S11315F0EAE6F0E0808188608083ED9A789408952B
S11316001F920F920FB60F9211248F939F93AF9353
S1131610BF938091060690910706A0910806B091A9
S113162009060196A11DB11D809306069093070635
S1131630A0930806B0930906BF91AF919F918F9133
S11316400F900FBE0F901F9018951F920F920FB618
S11316500F9211248F939F93AF93BF9380910A06A7
S113166090910B06A0910C06B0910D060196A11D58
S1131670B11D80930A0690930B06A0930C06B093B9
S11316800D06BF91AF919F918F910F900FBE0F9058
S11316901F90189592B1907F8F70982B92B90895EE
S11316A086E0F8CF089585E0F5CF08958AE0F2CF7B
S11316B0089580E0EFCF0895CF92DF92EF92FF92EA
S11316C00F931F93BC0180E090E00E94FC1528E476
S11316D031EE42E850E40E9468150E94D015AB0137
S11316E060E070E010920606109207061092080659
S11316F01092090610920A0610920B0610920C061C
S113170010920D0691E0E0E0C0900606D090070626
S1131710E0900806F090090600910A0610910B0665
S113172020910C0630910D06892F04171507260702
S1131730370708F48E2F811109C0892FC416D506E6
S1131740E606F70608F48E2F8823F1F2B2DF1F9124
S11317500F91FF90EF90DF90CF900895CF93DF9398
S1131760EC01A1DF9FEF9093280190932A01CE0111
S1131770A3DFDF91CF910895CF93DF93EC0196DF40
S11317809FEF9093280190932A01CE0195DFDF917A
S1131790CF9108958FEF809304011092050108956D
S11317A0F894D1DEE1ECF0E010821092C00026E063
S11317B02093C2009FE59093C4001092C50088E96D
S11317C08083E1EDF0E010821092D0002093D200EB
S11317D09093D4001092D500808300DF08DFD6DE1A
S11317E0BADE0E94B0000E944E014DDE4FDED2DF11
S11317F078940895BC0180E090E00E94FC1525EEE9
S113180030ED4AEA50E40E9468150E94D015AB01FD
S1131810BC01109206061092070610920806109258
S113182009068091060690910706A0910806B091DA
S11318300906481759076A077B0798F73ACF0895AE
S1131840CF93DF93EC012CDF90910E02909328014B
S113185090932A01CE01CEDFDF91CF9108954F926C
S11318605F926F927F928F929F92AF92BF92CF922C
S1131870DF92EF92FF920F931F93CF93DF93CDB735
S1131880DEB7C05CD1090FB6F894DEBF0FBECDBF82
S1131890DE01AF59BF4F20E6FD0111922A95E9F709
S11318A0E7E8F6E08E010F5F1F4F78016D0107EE48
S11318B016E0970163E670E04FEF5FEF6193719379
S11318C0D9014D935D939D01D6011D921D926D0129
S11318D0E017F10799F7FC01AC01445F5F4F8FEF0C
S11318E09FEF61E070E0208131812115310509F11C
S11318F0220F331FD901AB57B94F1D921C92019689
S113190020813181DC01AA0FBB1F01E010E00C0F24
S11319101D1FA00FB11F2D933C93D9011197AA0F3E
S1131920BB1F21E630E02C0F3D1FA20FB31F6D93A8
S11319307C933296E417F507B1F6AE2C9F2C812CDC
S1131940712C6894BB24B2F8612CCC24C394D12CA0
S1131950A981BA81119799236CF0EA2DF92D282DCC
S1131960372D2F5F3F4F428153814193519382170B
S11319709307BCF70197FD01EE0FFF1FEE0FFF1F4A
S1131980EE0FFF1FE951F94F2B2D362DAA0FBB1F68
S1131990AD014957594F2A01619171916115710542
S11319A0D1F1D2010D911C910F5F1F4FAB0141503A
S11319B051097A01EE0CFF1CD701A957B94FED90DC
S11319C0FC90E016F10644F07A01EE0CFF1CD701FE
S11319D0A957B94F0D931C938A01000F111FA1E65B
S11319E0B0E0AC0FBD1F0A0F1B1FD8010D911C9155
S11319F011970130110579F0CD92DC920196AC017A
S1131A00440F551F01E010E00C0F1D1F400F511F24
S1131A10DA016D937C932150310909F0BDCF2981FE
S1131A203A812F3F3F4F09F093CF8F3FEFEF9E074F
S1131A3009F08ECFC054DF4F0FB6F894DEBF0FBE4F
S1131A40CDBFDF91CF911F910F91FF90EF90DF9069
S1131A50CF90BF90AF909F908F907F906F905F904A
S1131A604F900895DF92EF92FF920F931F93CF93BD
S1131A70DF939923C4F422273327281B390B253BF2
S1131A80310534F08C5A9E4F69DEE12CF12C1DC0D7
S1131A902CEE3FEFA901481B590BCA016DDEEE2461
S1131AA0E394F12C12C0853B91055CF024E531E010
S1131AB0F901E81BF90BCF015FDEEE24E394F12C6E
S1131AC004C044974BDEE12CF12CF3DDFFEF2FE350
S1131AD042E0F15020404040E1F700C0000008E23D
S1131AE011E00F2EF4E6DF2EF02DCAE2D1E083E000
S1131AF05ADD8093050682E056DD8093040681E07A
S1131B0052DD809303064091050650E023E030E067
S1131B1061E081E00E9479014091040650E023E0F5
S1131B2030E065E081E00E9479014091030650E0D5
S1131B3023E030E069E081E00E947901E114F104DE
S1131B4029F4B1DDF801D082D88204C0AFDDF801F8
S1131B50D082D88280910406883348F480910506A7
S1131B60893728F480910306893708F4C0CFA1DDB2
S1131B70DF91CF911F910F91FF90EF90DF90089527
S1131B80CF93892B29F5CAE58C2F9BDC29E989E5BC
S1131B9091E0215080409040E1F70000C150A0F74F
S1131BA02FEF8FE794E0215080409040E1F700C090
S1131BB00000C0E08C2F85DC29E989E591E0215003
S1131BC080409040E1F70000CF5FCB3599F725C006
S1131BD0CAE58C2F76DC29E989E591E02150804023
S1131BE09040E1F70000CF5FC53B99F72FEF8FE7F7
S1131BF094E0215080409040E1F700C00000C4EB25
S1131C008C2F5FDC29E989E591E0215080409040E8
S1131C10E1F70000C150C93599F7CF910895EF92CB
S1131C20FF920F931F93CF93DF93EC01109228013F
S1131C3010922A01E0911702F09118023197EE0FE9
S1131C40FF1FEE0FFF1FE80FF91FEE0FFF1FE058F5
S1131C50F74F008111818091100290911102081BAD
S1131C60190BB801012E000C880B990BC7D79F776D
S1131C7020E030E044E352E40E948A16181644F44B
S1131C8086E490E0DDDDC801EDDE01E010E002C095
S1131C9000E010E080911702909118020197880FDC
S1131CA0991F880F991FC80FD91FCC0FDD1FC0586B
S1131CB0D74F8881998190931102809310022091CB
S1131CC010063091110621303105E9F4E091440603
S1131CD0F0E0E55AF94FE081F0E0EE0FFF1FEE0F60
S1131CE0FF1FE05EFC4F208131818217930721F4AE
S1131CF081E090E045DF03C080E090E041DF109296
S1131D00110610921006CCDC1092060610920706FB
S1131D101092080610920906012B01F5809106061F
S1131D2090910706A0910806B09109060A97A105AB
S1131D30B105A0F4A8E2B1E084E6EAE2F1E08C9314
S1131D4080834091060650910706609108067091C1
S1131D5009064A3051056105710588F30F2EFEE02E
S1131D60EF2EF2E0FF2EF02D08E211E0CAE2D1E0FE
S1131D7083E019DC8093050682E015DC8093040679
S1131D8081E011DC8093030686E00DDC809302067B
S1131D904091050650E023E030E061E081E00E94DC
S1131DA079014091040650E023E030E065E081E0F1
S1131DB00E9479014091030650E023E030E069E09D
S1131DC081E00E9479014091020650E023E030E076
S1131DD06CE081E00E9479018091120290911302DB
S1131DE02091040630E08217930774F420910506CD
S1131DF030E0821793070CF448C02091030630E0CA
S1131E0082179307ACF14FC020910506422F50E092
S1131E10841795070CF056C043DC23E030E041E022
S1131E2050E061E082E00E947901F7018081F801CD
S1131E30108288839DCF34DC23E030E042E050E020
S1131E4061E082E00E947901F7018081F8018083DA
S1131E5018828ECF321730F4F7018081F801108296
S1131E60888386CFF7018081F8018083188280CF30
S1131E708091060690910706A0910806B091090684
S1131E804597A105B105B8F226C080910606909148
S1131E900706A0910806B09109064597A105B1056A
S1131EA008F4BACF18C0FCDBF7018081F801808305
S1131EB0888323E030E040E050E061E082E00E946B
S1131EC0790156CF30910306432F50E084179507CC
S1131ED00CF0C0CFB0CFE4DB1092280110922A019D
S1131EE023E030E044E650E061E082E00E947901C2
S1131EF081E090E0DF91CF911F910F91FF90EF90DF
S1131F000895CF93DF939C01BC0161507109DB01FB
S1131F10AA0FBB1FA957B94F8D919C91892B39F4F6
S1131F203093070A2093060A822F932F3CC0DB01CB
S1131F30AA0FBB1FAA0FBB1FAA0FBB1FFD01E951AC
S1131F40F94F0190F081E02DEE0FFF1FEB57F94F91
S1131F50C081D181A751B94F40E050E021E030E089
S1131F608D919D91009761F0880F991FFC01EB57AB
S1131F70F94F808191818C179D0714F4A901EC011C
S1131F802F5F3F4F2430310559F7FB01EE0FFF1F40
S1131F90EE0FFF1FE40FF51FEE0FFF1FE951F94F7E
S1131FA080819181AEDFDF91CF910895CF93DF934C
S1131FB080914606882309F475C0C0E0D0E0FE0194
S1131FC0E55AF94F808190E001979C01220F331F5D
S1131FD0820F931F880F991F880F991F88559C4F54
S1131FE03EDC2091410680911A0290911B02FC0173
S1131FF0EE0FFF1FEB57F94F40815181A09140062E
S1132000E0911902BA01620F711DF0E0EE0FFF1F9B
S1132010EB57F94F208131812A0F311D26173707DD
S113202024F5E091190290914006F0E0EE0FFF1FB5
S1132030EB57F94F8081890F8093400680911902F4
S113204090E05FDF80931902809114069091150649
S1132050FC01EE0FFF1FEA5EF94FD183C0830196A6
S1132060909315068093140615C020914106420FE3
S11320704093410646DF90931B0280931A02E0913D
S11320804206F0E0E159F94FC083809142068F5F28
S11320908093420621968091460690E08C179D0716
S11320A009F08DCFDF91CF9108952F923F924F92F7
S11320B05F926F927F928F929F92AF92BF92CF92D4
S11320C0DF92EF92FF920F931F93CF93DF9300D091
S11320D01F92CDB7DEB70E947D0262DB8AE5F1D99B
S11320E01092050110923F068DE595E00E94400193
S11320F080913E068823E1F30E94710288E695E010
S11321000E9440018FEF80930501E0ECF0E08081B4
S113211085FFFDCF81E08093C60080914606882329
S1132120C1F020E030E0E0ECF0E046EC50E0D90112
S1132130A55AB94F9C919068808185FFFDCFDA0143
S11321409C932F5F3F4F8091460690E028173907F4
S113215074F3E0ECF0E0808185FFFDCF82E08093B2
S1132160C600E0ECF0E0808185FFFDCF8BE080933A
S1132170C600809145068823C1F020E030E0E0EC01
S1132180F0E046EC50E0D901A95BB94F9C9190680E
S1132190808185FFFDCFDA019C932F5F3F4F8091B3
S11321A0450690E02817390774F3E0ECF0E08081ED
S11321B085FFFDCF8CE08093C6008FE080930501FE
S11321C00E94710282E795E00E9440010E94710220
S11321D088E795E00E944001E9DE0E94710286E8EA
S11321E095E00E94400180911406909115061816FE
S11321F019062CF5A6E1B6E020E030E0E0ECF0E0D2
S113220066EC70E053E08D01D8019C910E5F1F4F86
S1132210808185FFFDCFDB015C93492F406880817D
S113222085FFFDCFDB014C93909319022F5F3F4F45
S11322308091140690911506281739072CF30E94F3
S1132240710280E995E00E94400180914206882352
S1132250E1F380E092E090930B0A80930A0A809164
S113226046068823F1F000E010E0F801E55AF94F42
S1132270408150E022E030E061E082E00E94790198
S1132280BFEFEFEFFCE2B150E040F040E1F700C0F7
S113229000000F5F1F4F8091460690E00817190752
S11322A024F30E947102A12C0F2EF6ECCF2ED12C18
S11322B0F02D1982AA8221E02B831C82312C412C1F
S11322C055245394B12C48C3FC01E159F94FE081E2
S11322D0F0E0E55AF94F80811F928F93AAE9B5E0A7
S11322E0BF93AF9356D5E0910E06F0910F06E159D6
S11322F0F94FE081F0E0E55AF94F808190E00197D1
S11323009C01220F331F820F931F880F991F880F80
S1132310991F88559C4FA3DAE0910E06F0910F06A1
S1132320E159F94FE081F0E0E55AF94F408150E07E
S113233022E030E06CE082E00E947901E091170233
S1132340F0911802A0910E06B0910F06A159B94F51
S11323508C91EE0FFF1FEB57F94F91819F93908162
S11323609F931F928F93A1EBB5E0BF93AF9311D5C9
S1132370E0911702F0911802EE0FFF1FEB57F94F8F
S11323800FB6F894DEBF0FBECDBF80819181892B3B
S113239009F449C1409117025091180222E030E03B
S11323A065E082E00E947901E0911702F091180241
S11323B0EE0FFF1FEE0FFF1FEE0FFF1FE152F94F4D
S11323C00190F081E02DEE0FFF1FEB57F94F2081B4
S11323D03181E0911702F0911802EE0FFF1FEE0F0A
S11323E0FF1FEE0FFF1FE152F94F60807180E32C55
S11323F0F42C852D9B2DE0911702F0911802319752
S1132400EE0FFF1FEE0FFF1FE80FF91FEE0FFF1F68
S1132410E951F94F40815181452B09F445C0E091C0
S11324201702F09118023197EE0FFF1FEE0FFF1FF6
S1132430E80FF91FEE0FFF1FE951F94F0190F081EA
S1132440E02DEE0FFF1FEB57F94F408151814217EA
S1132450530754F5E0911702F09118023197EE0FEB
S1132460FF1FEE0FFF1FE80FF91FEE0FFF1FE951CB
S1132470F94F0190F081E02DEE0FFF1FEB57F94F5C
S113248020813181E0911702F09118023197EE0F0B
S1132490FF1FEE0FFF1FE80FF91FEE0FFF1FE9519B
S11324A0F94F608071807C0101968430910509F0B8
S11324B0A2CF4701830122E030E0A30168E082E07B
S11324C00E9479018091150290E080179107D1F361
S11324D08091160290E080179107D1F3A0ECB0E050
S11324E08C9185FFFBCF85E0F60180830068A0EC2A
S11324F0B0E08C9185FFFBCFF6010083C4018FDB34
S1132500892B09F05BC0930189819A81E0911702BC
S1132510F09118023197EE0FFF1FEE0FFF1FEE0D23
S1132520FF1DEE0FFF1FE951F94F0190F081E02DDF
S11325303197EE0FFF1FEE0FFF1FE80FF91FEE0F8D
S1132540FF1FE951F94F4081518142175307F9F4B4
S1132550E0911702F09118023197EE0FFF1FEE0F72
S1132560FF1FEE0DFF1DEE0FFF1FE951F94F019004
S1132570F081E02D3197EE0FFF1FEE0FFF1FE80FE4
S1132580F91FEE0FFF1FE951F94F118210820196D6
S11325908430910509F0BACFE0911702F091180246
S11325A03197EE0FFF1FEE0FFF1FEE0DFF1DEE0F15
S11325B0FF1FE951F94F1182108235C0E0911702D3
S11325C0F09118023197EE0FFF1FEE0FFF1FE80D79
S11325D0F91DEE0FFF1FE951F94F8081918190930E
S11325E01802809317022091170230911802A0EC70
S11325F0B0E08C9185FFFBCFF60120822068A0EC2F
S1132600B0E08C9185FFFBCFF6012083E0911702A7
S1132610F0911802EE0FFF1FEB57F94F8081918163
S1132620892B09F0B7CEE0911702F0911802EE0F52
S1132630FF1FEB57F94F80819181892B09F08FC1DE
S1132640E0910E06F0910F06E159F94F90818091C7
S113265044069813FBCFE0914406F0E0E55AF94FA5
S1132660E081809110029091110224E0E29FF00138
S11326701124E05EFC4F208131812817390789F04D
S1132680E0914406F0E0E55AF94FE08134E0E39F3D
S1132690F0011124E05EFC4F2281338182179307FD
S11326A0C9F4E0914406F0E0E55AF94FE081A4E072
S11326B0EA9FF0011124E05EFC4F208131818217F2
S11326C0930721F481E090E05BDA03C180E09A2D66
S11326D057DAFFC080E09A2DA6E0E0914406F0E0CE
S11326E0E55AF94F208130E021503109F901EE0F0C
S11326F0FF1FE20FF31FEE0FFF1FE80FF91FEE0F8E
S1132700FF1FE855FC4F20813181232BE9F0E09134
S11327104406F0E0E55AF94F4081209117023091C8
S1132720180250E041505109A49FF001A59FF00DFB
S11327301124E80FF91FEE0FFF1FE855FC4F4081ED
S113274051814217530731F001968430910529F6DF
S113275080E09A2D2091170230911802E0914406EE
S1132760F0E0E55AF94FE081220F331F220F331FA7
S1132770220F331FD901A152B94FF0E03197EE0F68
S1132780FF1FEE0FFF1FE80FF91FEE0FFF1FE45EA0
S1132790FD4F2D913C91408151812417350759F10A
S11327A001E010E0A0911702B0911802E0914406F4
S11327B0F0E0E55AF94FE0811197AA0FBB1FAA0F69
S11327C0BB1FA00FB11FAA0FBB1FA951B94FF0E047
S11327D03197EE0FFF1FEE0FFF1FE80FF91FEE0FEB
S11327E0FF1FE45EFD4F4D915C91208131814217C2
S11327F05307A9F402C000E01A2DE0911702F091EA
S113280018023197EE0FFF1FEE0FFF1FE00FF11FAD
S1132810EE0FFF1FE951F94F6080718008C00F5F10
S11328201F4F0430110509F0BDCF00E01A2DBB8104
S1132830B0931006EC81E09311068091150290E0AC
S113284086159705D1F38091160290E086159705B9
S1132850D1F3862DA0ECB0E09C9195FFFBCF95E0E1
S1132860F60190838068A0ECB0E09C9195FFFBCFCB
S1132870F6018083C801D3D9019759F5E091170275
S1132880F09118023197EE0FFF1FEE0FFF1FE00FBC
S1132890F11FEE0FFF1FE951F94F80819181909351
S11328A018028093170280911702909118029C01DC
S11328B0A0ECB0E09C9195FFFBCFC90194E0F60138
S11328C090838068A0ECB0E09C9195FFFBCFF6016B
S11328D08083E0910E06F0910F06E159F94FE081F3
S11328E0F0E0E55AF94F80811F928F9383ED95E0D4
S11328F09F938F934ED20E947D0AFFEF2FE736E11C
S1132900F15020403040E1F700C000000E94810AED
S113291080910E0690910F06019690930F06809376
S11329200E06809144060F900F900F900F90A0EC2C
S1132930B0E09C9195FFFBCF96E0F6019083806810
S1132940A0ECB0E09C9195FFFBCFF60180838091D1
S113295044068F5F809344066894222422F8E09111
S11329604406F0E0E55AF94F8081882359F020911C
S1132970420680910E0690910F0630E02817390721
S113298009F0A2CC81EF95E017D2E0ECF0E0808171
S113299085FFFDCF8AE08093C600E0ECF0E0808103
S11329A085FFFDCF80E88093C60080911206909148
S11329B013060197D1F70E947D0AFFEF2FEF30EE47
S11329C080E0F150204030408040D9F700C0000042
S11329D00E94810A80E090E00F900F900F900F907A
S11329E0DF91CF911F910F91FF90EF90DF90CF90E7
S11329F0BF90AF909F908F907F906F905F904F901B
S1132A003F902F9008955058BB27AA270ED048C155
S1132A1039D130F03ED120F031F49F3F11F41EF44F
S1132A202EC10EF4E095E7FB24C1E92F4AD180F3CF
S1132A30BA17620773078407950718F071F49EF5B7
S1132A4062C10EF4E0950B2EBA2FA02D0B01B90133
S1132A5090010C01CA01A0011124FF27591B99F010
S1132A60593F50F4503E68F11A16F040A22F232F1C
S1132A70342F4427585FF3CF469537952795A7956C
S1132A80F0405395C9F77EF41F16BA0B620B730B13
S1132A90840BBAF09150A1F0FF0FBB1F661F771F84
S1132AA0881FC2F70EC0BA0F621F731F841F48F439
S1132AB0879577956795B795F7959E3F08F0B3CFBF
S1132AC09395880F08F09927EE0F979587950895A9
S1132AD00CD0E6C0DED040F0D5D030F021F45F3F1A
S1132AE019F0C7C0511110C1CAC0EBD098F3992393
S1132AF0C9F35523B1F3951B550BBB27AA276217BE
S1132B007307840738F09F5F5F4F220F331F441F02
S1132B10AA1FA9F333D00E2E3AF0E0E830D091503A
S1132B205040E695001CCAF729D0FE2F27D0660F27
S1132B30771F881FBB1F261737074807AB07B0E866
S1132B4009F0BB0B802DBF01FF2793585F4F2AF07C
S1132B509E3F510568F08DC0D7C05F3FECF3983EAF
S1132B60DCF3869577956795B795F7959F5FC9F7D9
S1132B70880F911D9695879597F90895E1E0660F62
S1132B80771F881FBB1F621773078407BA0720F0DB
S1132B90621B730B840BBA0BEE1F88F7E095089544
S1132BA098D088F09F5790F0B92F9927B751A0F08B
S1132BB0D1F0660F771F881F991F1AF0BA95C9F7CD
S1132BC012C0B13081F09FD0B1E008959CC0672F4E
S1132BD0782F8827B85F39F0B93FCCF3869577957D
S1132BE06795B395D9F73EF4909580957095619566
S1132BF07F4F8F4F9F4F0895E89409C097FB3EF491
S1132C0090958095709561957F4F8F4F9F4F992335
S1132C10A9F0F92F96E9BB279395F69587957795B3
S1132C206795B795F111F8CFFAF4BB0F11F460FF73
S1132C301BC06F5F7F4F8F4F9F4F16C0882311F0CB
S1132C4096E911C0772321F09EE8872F762F05C0DF
S1132C50662371F096E8862F70E060E02AF09A957A
S1132C60660F771F881FDAF7880F9695879597F96F
S1132C70089597F99F6780E870E060E008959FEFFA
S1132C8080EC089500240A941616170618060906FF
S1132C90089500240A9412161306140605060895CE
S1132CA0092E0394000C11F4882352F0BB0F40F456
S1132CB0BF2B11F460FF04C06F5F7F4F8F4F9F4F96
S1132CC0089557FD9058440F551F59F05F3F71F018
S1132CD04795880F97FB991F61F09F3F79F087957F
S1132CE00895121613061406551FF2CF4695F1DF08
S1132CF008C0161617061806991FF1CF8695710598
S1132D00610508940895E894BB2766277727CB01CB
S1132D1097F9089503D008F48FEF0895990F0008E8
S1132D20550FAA0BE0E8FEEF16161706E807F90799
S1132D30C0F012161306E407F50798F0621B730B34
S1132D40840B950B39F40A2661F0232B242B252BB5
S1132D5021F408950A2609F4A140A6958FEF811D58
S1132D60811D0895EE0FFF1F881F8BBF0790F691FA
S1132D70E02D1994A29FB001B39FC001A39F700DD1
S1132D80811D1124911DB29F700D811D1124911D6F
S1132D900895CF93DF93CDB7DEB7AE014A5F5F4F9F
S1132DA0FA0161917191AF0180910A0A90910B0A25
S1132DB033D0DF91CF9108950F931F93CF93DF9377
S1132DC0E0910A0AF0910B0A238121FF1BC08C01B8
S1132DD0D0E0C0E0F80181918F0160910A0A7091FE
S1132DE00B0ADB011896ED91FC911997882331F0B9
S1132DF01995892B79F3DFEFCFEFECCF8AE01995A2
S1132E00892B19F08FEF9FEF02C08D2F9C2FDF913C
S1132E10CF911F910F9108952F923F924F925F92FD
S1132E206F927F928F929F92AF92BF92CF92DF92D6
S1132E30EF92FF920F931F93CF93DF93CDB7DEB73B
S1132E402C970FB6F894DEBF0FBECDBF7C016B018B
S1132E508A01FC0117821682838181FFB0C1CE01F1
S1132E6001964C01F7019381F60193FD859193FF3F
S1132E7081916F01882309F49EC1853239F493FD51
S1132E80859193FF81916F01853221F4B70190E020
S1132E90C7D1E8CF512C312C20E02032A0F48B3262
S1132EA069F030F4803259F0833269F420612CC027
S1132EB08D3239F0803339F4216026C022602460D9
S1132EC023C0286021C027FD27C030ED380F3A30D9
S1132ED078F426FF06C0FAE05F9E300D1124532ECD
S1132EE013C08AE0389E300D1124332E20620CC0AA
S1132EF08E3221F426FD5FC1206406C08C3611F4A5
S1132F00206802C0883641F4F60193FD859193FF51
S1132F1081916F018111C1CF982F9F7D955493307A
S1132F2028F40C5F1F4FFFE3F9830DC0833631F0A3
S1132F30833771F0833509F057C021C0F8018081CF
S1132F4089830E5F1F4F44244394512C540114C0B1
S1132F503801F2E06F0E711CF801A080B18026FFE9
S1132F6003C0652D70E002C06FEF7FEFC5012C87B1
S1132F704CD12C0183012C852F77222E16C03801C9
S1132F80F2E06F0E711CF801A080B18026FF03C02F
S1132F90652D70E002C06FEF7FEFC5012C872AD149
S1132FA02C012C852068222E830123FC19C0832D3B
S1132FB090E048165906A0F4B70180E290E030D1C1
S1132FC03A94F5CFF50127FC859127FE81915F01A5
S1132FD0B70190E025D131103A94F1E04F1A51082D
S1132FE04114510479F7DEC0843611F0893631F585
S1132FF0F80127FF07C060817181828193810C5F92
S11330001F4F08C060817181072E000C880B990B3B
S11330100E5F1F4F2F76722E97FF09C090958095F3
S1133020709561957F4F8F4F9F4F2068722E2AE0D5
S113303030E0A4012DD1A82EA81843C0853729F467
S11330402F7EB22E2AE030E025C0F22FF97FBF2E6A
S11330508F36C1F018F4883579F0ADC0803719F097
S1133060883721F0A8C02F2F2061B22EB4FE0DC0E6
S11330708B2D8460B82E09C024FF0AC09F2F966050
S1133080B92E06C028E030E005C020E130E002C0DF
S113309020E132E0F801B7FE07C0608171818281CE
S11330A093810C5F1F4F06C06081718180E090E0C6
S11330B00E5F1F4FA401ECD0A82EA818FB2DFF779C
S11330C07F2E76FE0BC0372D3E7FA51450F474FE80
S11330D00AC072FC08C0372D3E7E05C0BA2C372DBD
S11330E003C0BA2C01C0B52C34FF0DC0FE01EA0D9B
S11330F0F11D8081803311F4397E09C032FF06C08E
S1133100B394B39404C0832F867809F0B39433FD49
S113311012C030FF06C05A2CB31418F4530C5B18B9
S1133120B32CB31460F4B70180E290E03C8778D00C
S1133130B3943C85F6CFB31410F43B1801C0312C82
S113314034FF11C0B70180E390E03C8769D03C852F
S113315032FF16C031FD03C088E790E002C088E565
S113316090E0B7010CC0832F867851F031FF02C084
S11331708BE201C080E237FD8DE2B70190E050D0D0
S1133180A51430F4B70180E390E04AD05A94F8CF04
S1133190AA94F401EA0DF11D8081B70190E040D0BA
S11331A0A110F6CF332009F45DCEB70180E290E0A0
S11331B037D03A94F7CFF7018681978102C08FEF19
S11331C09FEF2C960FB6F894DEBF0FBECDBFDF91F4
S11331D0CF911F910F91FF90EF90DF90CF90BF9010
S11331E0AF909F908F907F906F905F904F903F90A3
S11331F02F900895FC010590615070400110D8F79C
S1133200809590958E0F9F1F0895FC01615070402A
S113321001900110D8F7809590958E0F9F1F089507
S11332200F931F93CF93DF93FB01238121FD03C0F1
S11332308FEF9FEF28C022FF16C04681578124815B
S113324035814217530744F4A081B1819D012F5F5A
S11332503F4F318320838C93268137812F5F3F4FEB
S11332603783268310C0EB01092F182F0084F185C2
S1133270E02D1995892BE1F68E819F8101969F831C
S11332808E83812F902FDF91CF911F910F910895FD
S1133290FA01AA27283051F1203181F1E8946F9383
S11332A06E7F6E5F7F4F8F4F9F4FAF4FB1E03ED029
S11332B0B4E03CD0670F781F891F9A1FA11D680FC7
S11332C0791F8A1F911DA11D6A0F711D811D911DFA
S11332D0A11D20D009F468943F912AE0269F11246F
S11332E03019305D3193DEF6CF010895462F4770D3
S11332F0405D4193B3E00FD0C9F7F6CF462F4F702E
S1133300405D4A3318F0495D31FD4052419302D08B
S1133310A9F7EACFB4E0A695979587957795679531
S1133320BA95C9F700976105710508959B01AC0131
S11333300A2E06945795479537952795BA95C9F758
S1133340620F731F841F951FA01D0895F894FFCF6B
S11333500000000200000000A10000000000640062
S11333605A002300FF0D0D01000D010001000000B3
S11333700000000002000000000000000400000043
S11333800000000004000000000000000500000030
S1133390000000000600000000000000080000001B
S11333A00000000008000000000000000900000008
S11333B0000000000A000000000000000C000000F3
S11333C0000000000C000000000000000D000000E0
S11333D0000000000E0000000000000010000000CB
S11333E000000000100000000000000011000000B8
S11333F000000000120000000000000014000000A3
S1133400000000001400000000000000150000008F
S1133410000000001600000000000000180000007A
S1133420000000001800000000000000010000007F
S113343000000000240019002C002B0005000000EF
S11334400000000009000000000000001D001C0036
S11334502E002D000D0000000000000011000000EF
S1133460000000002100200030002F0015000000A3
S1133470000000005A00FF004B00F0003C00E10097
S11334802D00D2001E00C3000F00B4000000A500F0
S1133490590196004A0187003B0178002C0169001C
S11334A01D015A000E014B00FF003C00F0002D00EE
S11334B0E1001E00D2000F00C3000000B400590157
S11334C0A5004A0196003B0187002C0178005A00B0
S11334D069001D01FF005A00F0003C00C3001E00FB
S11334E087004A0178002C014B000E010F00D20026
S11334F00000B4003B019600010000000000000041
S113350000000000020000000000000000000000B5
S113351003000000000000000000000004000000A0
S11335200000000000000000050000000000000092
S11335300000000006000000000000000000000081
S11335400700000000000000000000000800000068
S1133550000000000000000009000000000000005E
S1133560000000000A00000000000000000000004D
S11335700B00000000000000000000000C00000030
S113358000000000000000000D000000000000002A
S1133590000000000E000000000000000000000019
S11335A00F000000000000000000000010000000F8
S11335B000000000000000001100000000000000F6
S11335C000000000120000000000000000000000E5
S11335D013000000000000000000000014000000C0
S11335E000000000000000001500000000000000C2
S11335F000000000160000000000000000000000B1
S11336001700000000000000000000001800000087
S113361000000000000000000100000000000000A5
S113362000000000190024002B002C000000000002
S11336300500000000000000000000000900000078
S113364000000000000000001C001D002D002E00E2
S1133650000000000D000000000000000000000059
S11336601100000000000000000000002000210004
S11336702F003000000000001500000000000000D2
S113368000000000202020202020202020202020B6
S11336902020202020202020202020202020202026
S11336A02020202020202020202020200057616975
S11336B074696E672E2E2E005265636569766564A3
S11336C0210053656E74210053656E64696E672032
S11336D05461736B730050726F6365737365640038
S11336E05461736B2053656E740043757272656E1A
S11336F074205461736B204E6F64653D2564200A09
S113370000436F737420506C616E6E656420666F45
S113371072207461736B203D256420436F73743D84
S11337202564005265616368656420446573746947
S11337306E6174696F6E206E6F64653D2564200A46
S113374000476F6E6E61206265204F7574212121E0
S1053750000073
S9030000FC
