S00D00005461736B352E737265634F
S11300007BC000009AC0000098C0000096C00000A9
S113001094C000000C94ED0A0C94C80A8EC0000031
S11300208CC000008AC0000088C0000086C00000A8
S113003084C0000082C0000080C000007EC00000B8
S11300407CC000007AC0000078C0000076C00000C8
S113005074C0000072C0000070C000006EC00000D8
S11300606CC000000C943E0968C0000066C000002B
S113007064C0000062C0000060C000005EC00000F8
S11300805CC000005AC0000058C0000056C0000008
S113009054C0000052C0000050C000004EC0000018
S11300A04CC000004AC0000048C0000046C0000028
S11300B044C0000042C0000040C000003EC0000038
S11300C03CC000003AC0000038C000000C94C009D5
S11300D034C0000032C0000030C000002EC0000058
S11300E02CC000006409B1097409800983098609D8
S11300F090099A09A009A30911241FBECFEFD1E2E8
S1130100DEBFCDBF00E00CBF16E0A0E0B2E0E6E742
S1130110F2E300E00BBF02C007900D92A230B107DA
S1130120D9F729E0A2E0B6E001C01D92AA3FB207C8
S1130130E1F70E9414100C94391962CFE0EDF0E05D
S1130140908195FFFDCF8093D600089587B1876F86
S113015087B988B1807888B9089586E69EE00197CA
S1130160F1F700004098419880E388B9429AEFEF94
S1130170F7E43197F1F700C000004298E6E6FEE0AC
S11301803197F1F700004098419888B9429AEFEF0F
S1130190F7E43197F1F700C000004298E6E6FEE08C
S11301A03197F1F700004098419888B9429A8FEF4F
S11301B097E40197F1F700C000004298E6E6FEE0FC
S11301C03197F1F700004098419880E288B9429A4B
S11301D08FEF97E40197F1F700C00000429808956B
S11301E098B19F7098B998B1282F207F922B98B915
S11301F040984198429AEFEFF7E43197F1F700C045
S11302000000429898B19F7098B998B18295807F08
S1130210892B88B940984198429A8FEF97E40197C7
S1130220F1F700C000004298089598B19F7098B902
S113023098B1282F207F922B98B9409A4198429ADE
S1130240EFEFF7E43197F1F700C00000429898B15E
S11302509F7098B998B18295807F892B88B9409A0C
S11302604198429A8FEF97E40197F1F700C000009C
S11302704298089580E8B4CF0895CF93DF93EC01BA
S11302808881882329F02196D0DF89918111FCCFC0
S1130290DF91CF91089586E69EE00197F1F7000083
S11302A088E29EDF81E09CDF86E09ADF8EE098DFC3
S11302B080E896CF0895823069F018F4813031F0E7
S11302C00895833059F0843069F008958FE7860FDC
S11302D087CF08958FEB860F83CF089583E9860F28
S11302E07FCF089583ED860F7BCF08950F931F93DF
S11302F0CF93DF938A01E901882311F0611102C0D1
S1130300B9DF01C0D8DFC530D105C1F498013295F9
S113031022952F7023273F702327A7E4B3E00E9480
S11303204D16969587959695879596958795C0963B
S1130330909372068093710678DF04C0C430D105AF
S113034009F0BEC0980136952795369527953695C0
S11303502795A5ECB0E20E944D16AC01529542954A
S11303604F7045275F7045275093540840935308B6
S11303709A01ADECBCEC0E944D1696958795969526
S11303808795969587959C01220F331F880F991F97
S1130390880F991F880F991F820F931F9A01281B9A
S11303A0390BC901C0969093F1098093F0093DDFA0
S11303B098013695279536952795ABE7B4E10E94C9
S11303C04D16AC01569547955093540840935308E5
S11303D09A01ADECBCEC0E944D16969587959695C6
S11303E08795969587959C01220F331F880F991F37
S11303F0880F991F880F991F820F931F9A01281B3A
S1130400390BC901C0969093ED098093EC090DDF77
S113041004C0C230D10509F058C09801ADECBCEC61
S11304200E944D16AC01569547955695479556959D
S1130430479550935408409353089A010E944D16CF
S11304409695879596958795969587959C01220F05
S1130450331F880F991F880F991F880F991F820FC8
S1130460931F9A01281B390BC901C09690936B08FE
S113047080936A08DADE9801ADECBCEC0E944D165C
S11304809695879596958795969587959C01220FC5
S1130490331F880F991F880F991F880F991F820F88
S11304A0931F9801281B390BC901C0969093EF093B
S11304B08093EE09BADE269764F085E4B6DE09C0BF
S11304C0C330D10509F0A5CF73CFC130D10599F759
S11304D0D2CFDF91CF911F910F91089580E880DEF4
S11304E084E395E0CADE80EC7BDE84E395E0C5DE40
S11304F0C1CE08952F923F924F925F926F927F9256
S11305008F929F92AF92BF92CF92DF92EF92FF921F
S11305100F931F93CF93DF93ECE6F8E00F2EFBE4E9
S1130520AF2EB12CF02DB182A0820F2EFDE14F2E03
S113053055245394F02D538242828FEF9FEF95837D
S1130540848397838683CC24CA94D12CD186C08695
S1130550ACE3B0E0B387A2879587848797878687C3
S113056020EF30E0318B208B0F2EFDE22F2E312C2B
S1130570F02D338A228A158A148A6CE271E0778B13
S1130580668B0F2EF1EE8F2E912CF02D918E808E96
S11305900EE110E0138F028F958F848F978F868FD3
S11305A042ED50E051A340A3CFE0D0E0D3A3C2A3D7
S11305B095A384A397A386A303EC10E011A700A737
S11305C013A612A695A784A797A786A744EB50E085
S11305D051AB40AB09E511E013AB02AB35AB24AB37
S11305E077AB66AB05EA10E011AF00AF0AE411E0A7
S11305F013AF02AF95AF84AF9093AB088093AA0872
S1130600E6E9F0E0F093AD08E093AC080BE311E009
S11306101093AF080093AE089093B1088093B0088C
S11306209093B3088093B2080F2EF7E86F2E712CC5
S1130630F02D7092B5086092B4087093B708609377
S1130640B6089093B9088093B8089093BB08809338
S1130650BA08E8E7F0E0F093BD08E093BC085092D4
S1130660BF084092BE085093C1084093C00830931D
S1130670C3082093C2080F2EF9E6EF2EF12CF02DBB
S1130680F092C508E092C4080EE011E01093C70888
S11306900093C6089093C9088093C8089093CB0828
S11306A08093CA080AE510E01093CD080093CC08A3
S11306B0D092CF08C092CE089093D1088093D008EE
S11306C09093D3088093D208B092D508A092D4080E
S11306D03093D7082093D6089093D9088093D808EC
S11306E09093DB088093DA08B093DD08A093DC08CC
S11306F09092DF088092DE08F093E108E093E0082E
S11307005093E3084093E2083092E5082092E4080D
S11307100F2EF2EDCF2ED12CF02DD092E708C092FF
S1130720E6089093E9088093E8089093EB08809397
S1130730EA080F2EFEE1CF2ED12CF02DD092ED0839
S1130740C092EC080F2EF3ECCF2ED12CF02DD092CA
S1130750EF08C092EE089093F1088093F00890930C
S1130760F3088093F208D093F508C093F4085093EB
S1130770F7084093F6089093F9088093F80890934B
S1130780FB088093FA081092FD081092FC080F2EC3
S1130790F5EACF2ED12CF02DD092FF08C092FE089E
S11307A0B0930109A0930009F0930309E0930209AF
S11307B00F2EF9E5CF2EDD24D394F02DD092050928
S11307C0C09204090F2EF6E9CF2ED12CF02DD09231
S11307D00709C09206099093090980930809909328
S11307E00B0980930A090F2EFAE4CF2EDD24D3944B
S11307F0F02DD0920D09C0920C0970920F096092ED
S11308000E09909311098093100990931309809312
S113081012090F2EFBE3CF2EDD24D394F02DD092BA
S11308201509C0921409F0931709E09316099093DF
S113083019098093180990931B0980931A097093DE
S11308401D0960931C09F0921F09E0921E09109281
S1130850210910922009B0932309A093220910932F
S11308602509009324095092270940922609909360
S113087029098093280990932B0980932A0950937E
S11308802D0940932C0910922F0910922E093093B0
S1130890310920933009909333098093320950939E
S11308A03509409334091092370910923609B093F0
S11308B03909A093380970933B0960933A0950931E
S11308C03D0940933C0910923F0910923E09F09370
S11308D04109E0934009309343092093420910925F
S11308E0450910924409509347094093460970936F
S11308F049096093480990934B0980934A09B0933E
S11309004D09A0934C09F0934F09E0934E0930939D
S11309105109209350099093530980935209B0933D
S11309205509A0935409309357092093560970939D
S113093059096093580950935B0940935A09B0933D
S11309405D09A0935C0930935F0920935E091092BE
S1130950610910926009F0936309E093620930938E
S1130960650920936409B0936709A09366095093BD
S113097069094093680990936B0980936A0970939D
S11309806D0960936C0910926F0910926E09F093CF
S11309907109E093700990937309809372097093BD
S11309A0750960937409F0937709E093760950937D
S11309B0790940937809B0937B09A0937A097093DD
S11309C07D0960937C09F0937F09E0937E0930935D
S11309D08109209380091092830910928209F0936F
S11309E08509E0938409B0938709A09386097093DD
S11309F089096093880990938B0980938A09B0933D
S1130A008D09A0938C0930938F0920938E099093BC
S1130A109109809390099093930980939209F0939C
S1130A209509E093940970939709609396099093BC
S1130A3099098093980990939B0980939A097093DC
S1130A409D0960939C09F0939F09E0939E099093FC
S1130A50A1098093A0099093A3098093A2091092FD
S1130A60A5091092A4095093A7094093A60990934D
S1130A70A9098093A8099093AB098093AA0950937C
S1130A80AD094093AC091092AF091092AE0990934E
S1130A90B1098093B0099093B3098093B20930935C
S1130AA0B5092093B409B093B709A093B6099093FC
S1130AB0B9098093B8099093BB098093BA095093FC
S1130AC0BD094093BC09B093BF09A093BE0990939C
S1130AD0C1098093C0099093C3098093C209F0931C
S1130AE0C509E093C4093093C7092093C6099093BC
S1130AF0C9098093C8099093CB098093CA09B0931C
S1130B00CD09A093CC097093CF096093CE0990933B
S1130B10D1098093D0099093D3098093D20910927C
S1130B20D5091092D409F093D709E093D60990938C
S1130B30D9098093D8099093DB098093DA097093DB
S1130B40DD096093DC095093DF094093DE0990933B
S1130B50E1098093E0099093E3098093E2093093DB
S1130B60E5092093E4091092E7091092E6099093AD
S1130B70E9098093E8099093EB098093EA09E3ED8E
S1130B80F6E082E090E09183808328E130E03383D3
S1130B902283158214821782168221E030E0318785
S1130BA0208723E030E03387228715861486178652
S1130BB01686918B808B84E090E0938B828B49E145
S1130BC050E0558B448B44E250E0578B468B318F79
S1130BD0208F25E030E0338F228F158E148E178EF0
S1130BE0168E91A380A386E090E093A382A315A21E
S1130BF014A217A216A231A720A727E030E033A73A
S1130C0022A715A614A617A616A691AB80AB88E05A
S1130C1090E093AB82AB45E250E055AB44AB46E287
S1130C2050E057AB46AB31AF20AF29E030E033AFF3
S1130C3022AF15AE14AE10921207109211079093C2
S1130C401407809313078AE090E09093160780932B
S1130C501507109218071092170710921A0710928E
S1130C60190730931C0720931B072BE030E03093C7
S1130C701E0720931D071092200710921F07109241
S1130C8022071092210790932407809323078CE076
S1130C9090E090932607809325074CE150E0509311
S1130CA02807409327074DE150E050932A074093CB
S1130CB0290730932C0720932B072DE030E0309345
S1130CC02E0720932D071092300710922F071092B1
S1130CD032071092310790933407809333078EE0E4
S1130CE090E090933607809335071092380710925E
S1130CF0370710923A071092390730933C07209334
S1130D003B07D0933E07C0933D07109240071092D3
S1130D103F07109242071092410790934407809333
S1130D20430720E130E0309346072093450787E2EC
S1130D3090E0909348078093470788E290E090936F
S1130D404A0780934907D0934C07C0934B0781E12E
S1130D5090E090934E0780934D07109250071092A5
S1130D604F07109252071092510730935407209363
S1130D70530722E130E03093560720935507109231
S1130D8058071092570710925A07109259079093D8
S1130D905C0780935B0783E190E090935E07809308
S1130DA05D071092600710925F071092620710921D
S1130DB06107309364072093630724E130E03093A4
S1130DC066072093650740E250E05093680740931C
S1130DD0670741E250E050936A0740936907909394
S1130DE06C0780936B0785E190E090936E07809386
S1130DF06D071092700710926F071092720710928D
S1130E007107309374072093730726E130E0309321
S1130E10760720937507109278071092770710923F
S1130E207A071092790790937C0780937B0787E178
S1130E3090E090937E0780937D0710928007109234
S1130E407F07109282071092810786E190E09093C9
S1130E5084078093830788E190E0909386078093CA
S1130E608507C9E2D0E0D0938807C09387070F2E87
S1130E70FAE2AF2EB12CF02DB0928A07A092890726
S1130E8081E090E090938C0780938B07E7E1F0E09A
S1130E90F0938E07E0938D071092900710928F07BE
S1130EA010929207109291070F2EF3E08F2E912C3F
S1130EB0F02D90929407809293076AE170E070930A
S1130EC0960760939507A4E2B0E0B0939807A093C7
S1130ED0970710929A07109299070F2EF9E16F2E37
S1130EE0712CF02D70929C0760929B074BE150E0AF
S1130EF050939E0740939D0785E290E09093A0074E
S1130F0080939F070F2EFCE24F2E512CF02D509210
S1130F10A2074092A1077093A4076093A3072CE152
S1130F2030E03093A6072093A50786E290E09093E3
S1130F30A8078093A7070DE210E01093AA07009377
S1130F40A9070BE010E01093AC070093AB07509394
S1130F50AE074093AD078DE190E09093B007809386
S1130F60AF071092B2071092B1071093B407009321
S1130F70B3073093B6072093B5072EE130E03093E2
S1130F80B8072093B7071092BA071092B907909345
S1130F90BC078093BB078FE190E09093BE078093DA
S1130FA0BD0707E210E01093C0070093BF070F2EA0
S1130FB0FEE22F2E312CF02D3092C2072092C10771
S1130FC03093C4072093C3076894EE24E5F8F12C0A
S1130FD0F092C607E092C50708E210E01093C80734
S1130FE00093C7070F2EFFE2CF2ED12CF02DD09205
S1130FF0CA07C092C9070F2EF3E1CF2ED12CF02DD2
S1131000D092CC07C092CB079093CE078093CD07A4
S113101001E210E01093D0070093CF071092D2079B
S11310201092D107D092D407C092D307F092D6077A
S1131030E092D5070F2EF2E2EF2EF12CF02DF09274
S1131040D807E092D7071092DA071092D9071093C5
S1131050DC070093DB0703E210E01093DE07009344
S1131060DD07D093E007C093DF07C0E3D0E0D0935F
S1131070E207C093E107F092E407E092E307B0933C
S1131080E607A093E507B092E807A092E707ABE272
S1131090B0E0B093EA07A093E9079092EC0780923E
S11310A0EB077092EE076092ED071093F007009340
S11310B0EF071092F2071092F1070F2EF7E0CF2EF0
S11310C0D12CF02DD092F407C092F3077093F60759
S11310D06093F5071092F8071092F7071092FA0739
S11310E01092F907D092FC07C092FB075093FE07B9
S11310F04093FD07109200081092FF071092020817
S1131100109201080F2EFFE0CF2ED12CF02DD0929B
S11311100408C0920308309306082093050810922F
S113112008081092070810920A0810920908D09231
S11311300C08C0920B0890930E0880930D0810922F
S1131140100810920F081092120810921108F093D0
S11311501408E0931308F0921608E0921508109210
S113116018081092170810921A0810921908F09390
S11311701C08E0931B0810931E0800931D0810928E
S1131180200810921F081092220810922108109330
S113119024080093230850922608409225081092B0
S11311A028081092270810922A0810922908709390
S11311B02C0860932B08B0932E08A0932D0810924E
S11311C0300810922F081092320810923108509370
S11311D03408409333083092360820923508109230
S11311E038081092370810923A0810923908309350
S11311F03C0820933B080DE210E010933E08009356
S11312003D081092400810923F0810924208109234
S113121041089093440880934308D0934608C093B0
S11312204508109248081092470810924A081092F4
S11312304908F0924C08E0924B082FE230E03093DA
S11312404E0820934D081092500810924F081092A7
S1131250520810925108DF91CF911F910F91FF9086
S1131260EF90DF90CF90BF90AF909F908F907F9042
S11312706F905F904F903F902F9008951F920F9220
S11312800FB60F9211240BB60F924F935F936F9387
S11312907F938F939F93EF93FF938091C60088234E
S11312A00CF058C0982F9F77E09114024E2F50E015
S11312B0FA013197EA30F10508F053C08827EE5857
S11312C0FF4F8F4F0C944516E0914606F0E0E35A29
S11312D0F94F9083809146068F5F809346068091F4
S11312E04606809305013DC0E0914206F0E0E95BCB
S11312F0F94F9083809142068F5F8093420631C0FC
S1131300909316022EC0909315022BC08091440630
S1131310891327C0809144068F5F8093440621C0BF
S11313208091430689131DC0809143068F5F80938B
S1131330430617C080914106890F8093410611C06E
S1131340909319020EC081E090E09093130680936D
S1131350120607C080931402823019F481E080934E
S11313603F06FF91EF919F918F917F916F915F91D4
S11313704F910F900BBE0F900FBE0F901F901895BA
S11313801F920F920FB60F9211240BB60F928F93E8
S11313909F93EF93FF938091D60090913F06911114
S11313A018C08F3F81F0E0914606F0E0E35AF94F10
S11313B08083809146068F5F80934606809146061F
S11313C0809305011DC01092050181E080933F06C2
S11313D017C08F3F81F0E0914506F0E0EB5AF74FDC
S11313E08083809145068F5F8093450680914506F2
S11313F08093050105C01092050181E080933E06AB
S1131400FF91EF919F918F910F900BBE0F900FBEA4
S11314100F901F901895259A2D9A0895E1E8F0E011
S113142010828CEF8093850081E08093840093E0A8
S1131430909389008FEF8093880090938700809326
S113144086008BEA80938000109282008CE0808377
S1131450089510928900682F70E080E090E00E9467
S11314608F152BE734E14EEE5FE30E94FB1420E07E
S113147030E04CE052E40E9497140E94631560939C
S1131480880008953B9A4398089586B1886088B986
S1131490089586B1877F88B9089510BA11BA109259
S11314A0070110920801089581B18F6081B982B15A
S11314B0807F82B9EAE0F1E0808188618083EBE09B
S11314C0F1E080818861808308956C98749A08950E
S11314D06D98759A0895E8DFF8DFFADF0E94A60098
S11314E0DCDFD0CF0895E1E2F1E010828FEF80934A
S11314F0250191E090932401109229018093280101
S113150010922B0180932A0110922D0180932C01BB
S113151089EA809320018BE080830895EAE7F0E074
S1131520108210927B0080E280937C0080E880BF70
S113153086E880830895883018F098E090937B00C3
S11315408770806280937C00EAE7F0E080818064A9
S11315508083808184FFFDCF80917900EAE7F0E009
S113156090819061908310927B000895F894EAE64C
S1131570F0E0808182608083EC9A78940895F894F6
S1131580EAE6F0E0808188608083ED9A789408959B
S11315901F920F920FB60F9211248F939F93AF93C4
S11315A0BF938091060690910706A0910806B0911A
S11315B009060196A11DB11D8093060690930706A6
S11315C0A0930806B0930906BF91AF919F918F91A4
S11315D00F900FBE0F901F9018951F920F920FB689
S11315E00F9211248F939F93AF93BF9380910A0618
S11315F090910B06A0910C06B0910D060196A11DC9
S1131600B11D80930A0690930B06A0930C06B09329
S11316100D06BF91AF919F918F910F900FBE0F90C8
S11316201F90189592B1907F8F70982B92B908955E
S113163086E0F8CF089585E0F5CF08958AE0F2CFEB
S1131640089580E0EFCF0895CF92DF92EF92FF925A
S11316500F931F93BC0180E090E00E948F1528E453
S113166031EE42E850E40E94FB140E946315AB0182
S113167060E070E0109206061092070610920806C9
S11316801092090610920A0610920B0610920C068C
S113169010920D0691E0E0E0C0900606D090070697
S11316A0E0900806F090090600910A0610910B06D6
S11316B020910C0630910D06892F04171507260773
S11316C0370708F48E2F811109C0892FC416D50657
S11316D0E606F70608F48E2F8823F1F2B2DF1F9195
S11316E00F91FF90EF90DF90CF900895CF93DF9309
S11316F0EC01A1DF9FEF9093280190932A01CE0182
S1131700A3DFDF91CF910895CF93DF93EC0196DFB0
S11317109FEF9093280190932A01CE0195DFDF91EA
S1131720CF9108958FEF80930401109205010895DD
S1131730F894D1DEE1ECF0E010821092C00026E0D3
S11317402093C2009FE59093C4001092C50088E9DD
S11317508083E1EDF0E010821092D0002093D2005B
S11317609093D4001092D500808300DF08DFD6DE8A
S1131770BADE0E94AD000E944B014DDE4FDED2DF87
S113178078940895BC0180E090E00E948F1525EEC6
S113179030ED4AEA50E40E94FB140E946315AB0149
S11317A0BC011092060610920706109208061092C9
S11317B009068091060690910706A0910806B0914B
S11317C00906481759076A077B0798F73ACF08951F
S11317D0CF93DF93EC012CDF90910E0290932801BC
S11317E090932A01CE01CEDFDF91CF9108954F92DD
S11317F05F926F927F928F929F92AF92BF92CF929D
S1131800DF92EF92FF920F931F93CF93DF93CDB7A5
S1131810DEB7C05CD1090FB6F894DEBF0FBECDBFF2
S1131820DE01AF59BF4F20E6FD0111922A95E9F779
S1131830E3E7F6E08E010F5F1F4F78016D0103EDC2
S113184016E0970163E670E04FEF5FEF61937193E9
S1131850D9014D935D939D01D6011D921D926D0199
S1131860E017F10799F7FC01AC01445F5F4F8FEF7C
S11318709FEF61E070E0208131812115310509F18C
S1131880220F331FD901AF58B94F1D921C920196F4
S113189020813181DC01AA0FBB1F01E010E00C0F95
S11318A01D1FA00FB11F2D933C93D9011197AA0FAF
S11318B0BB1F21E630E02C0F3D1FA20FB31F6D9319
S11318C07C933296E417F507B1F6AE2C9F2C812C4D
S11318D0712C6894BB24B2F8612CCC24C394D12C11
S11318E0A981BA81119799236CF0EA2DF92D282D3D
S11318F0372D2F5F3F4F428153814193519382177C
S11319009307BCF70197FD01EE0FFF1FEE0FFF1FBA
S1131910EE0FFF1FED52F94F2B2D362DAA0FBB1FD3
S1131920AD014D58594F2A016191719161157105AD
S1131930D1F1D2010D911C910F5F1F4FAB014150AA
S113194051097A01EE0CFF1CD701AD58B94FED9047
S1131950FC90E016F10644F07A01EE0CFF1CD7016E
S1131960AD58B94F0D931C938A01000F111FA1E6C6
S1131970B0E0AC0FBD1F0A0F1B1FD8010D911C91C5
S113198011970130110579F0CD92DC920196AC01EA
S1131990440F551F01E010E00C0F1D1F400F511F95
S11319A0DA016D937C932150310909F0BDCF29816F
S11319B03A812F3F3F4F09F093CF8F3FEFEF9E07C0
S11319C009F08ECFC054DF4F0FB6F894DEBF0FBEC0
S11319D0CDBFDF91CF911F910F91FF90EF90DF90DA
S11319E0CF90BF90AF909F908F907F906F905F90BB
S11319F04F900895DF92EF92FF920F931F93CF932E
S1131A00DF939923C4F422273327281B390B253B62
S1131A10310534F08C5A9E4F69DEE12CF12C1DC047
S1131A202CEE3FEFA901481B590BCA016DDEEE24D1
S1131A30E394F12C12C0853B91055CF024E531E080
S1131A40F901E81BF90BCF015FDEEE24E394F12CDE
S1131A5004C044974BDEE12CF12CF3DDFFEF2FE3C0
S1131A6042E0F15020404040E1F700C0000008E2AD
S1131A7011E00F2EF4E6DF2EF02DCAE2D1E083E070
S1131A805ADD8093050682E056DD8093040681E0EA
S1131A9052DD809303064091050650E023E030E0D8
S1131AA061E081E00E9476014091040650E023E069
S1131AB030E065E081E00E9476014091030650E049
S1131AC023E030E069E081E00E947601E114F10452
S1131AD029F4B1DDF801D082D88204C0AFDDF80169
S1131AE0D082D88280910406883348F48091050618
S1131AF0893728F480910306893708F4C0CFA1DD23
S1131B00DF91CF911F910F91FF90EF90DF90089597
S1131B10CF93892B29F5CAE58C2F9BDC29E989E52C
S1131B2091E0215080409040E1F70000C150A0F7BF
S1131B302FEF8FE794E0215080409040E1F700C000
S1131B400000C0E08C2F85DC29E989E591E0215073
S1131B5080409040E1F70000CF5FCB3599F725C076
S1131B60CAE58C2F76DC29E989E591E02150804093
S1131B709040E1F70000CF5FC53B99F72FEF8FE767
S1131B8094E0215080409040E1F700C00000C4EB95
S1131B908C2F5FDC29E989E591E021508040904059
S1131BA0E1F70000C150C93599F7CF910895EF923C
S1131BB0FF920F931F93CF93DF93EC0110922801B0
S1131BC010922A01E0911702F09118023197EE0F5A
S1131BD0FF1FEE0FFF1FE80FF91FEE0FFF1FE45961
S1131BE0F74F008111818091100290911102081B1E
S1131BF0190BB801012E000C880B990B92D79F7713
S1131C0020E030E044E352E40E941D1618162CF440
S1131C1086E490E0DDDDC801EDDE8091170290914D
S1131C2018020197880F991F880F991FC80FD91F91
S1131C30CC0FDD1FC459D74F88819981909311022D
S1131C408093100220911006309111062130310545
S1131C50E9F4E0914406F0E0E35AF94FE081F0E062
S1131C60EE0FFF1FEE0FFF1FE05EFC4F208131815E
S1131C708217930721F480E090E04ADF03C081E0FB
S1131C8090E046DF1092110610921006D1DC1092FB
S1131C900606109207061092080610920906809113
S1131CA0060690910706A0910806B09109060A97C6
S1131CB0A105B105A0F4A8E2B1E084E6EAE2F1E00E
S1131CC08C93808340910606509107066091080624
S1131CD0709109064A3051056105710588F30F2E8C
S1131CE0FEE0EF2EF2E0FF2EF02D08E211E0CAE252
S1131CF0D1E083E020DC8093050682E01CDC809345
S1131D00040681E018DC8093030686E014DC8093EB
S1131D1002064091050650E023E030E061E081E0F6
S1131D200E9476014091040650E023E030E065E033
S1131D3081E00E9476014091030650E023E030E008
S1131D4069E081E00E9476014091020650E023E0C0
S1131D5030E06CE081E00E94760180911202909163
S1131D6013022091040630E08217930774F4209143
S1131D70050630E082179307E4F12091030630E072
S1131D80821793070CF442C04EC020910506422FDF
S1131D9050E0841795070CF055C04ADC23E030E08E
S1131DA041E050E061E082E00E947601F701808129
S1131DB0F801108288839DCF3BDC23E030E042E0D1
S1131DC050E061E082E00E947601F7018081F80131
S1131DD0808318828ECF321730F4F7018081F801A6
S1131DE01082888386CFF7018081F801808318826E
S1131DF080CF8091060690910706A0910806B091C5
S1131E0009064597A105B10540F224C08091060654
S1131E1090910706A0910806B09109064597A1057F
S1131E20B10550F217C004DCF7018081F80180830A
S1131E30888323E030E040E050E061E082E00E94EB
S1131E40760157CF30910306432F50E0841795074E
S1131E5014F6B2CFEDDB1092280110922A0123E090
S1131E6030E044E650E061E082E00E94760181E0E7
S1131E7090E0DF91CF911F910F91FF90EF90089523
S1131E80CF93DF939C01BC0161507109DB01AA0F60
S1131E90BB1FAD58B94F8D919C91892B39F4309368
S1131EA0F3092093F209822F932F3CC0DB01AA0F80
S1131EB0BB1FAA0FBB1FAA0FBB1FFD01ED52F94F99
S1131EC00190F081E02DEE0FFF1FEF58F94FC08114
S1131ED0D181AB52B94F40E050E021E030E08D9128
S1131EE09D91009761F0880F991FFC01EF58F94FFD
S1131EF0808191818C179D0714F4A901EC012F5F57
S1131F003F4F2430310559F7FB01EE0FFF1FEE0F51
S1131F10FF1FE40FF51FEE0FFF1FED52F94F8081F5
S1131F209181AEDFDF91CF910895CF93DF938091BC
S1131F304606882309F475C0C0E0D0E0FE01E35AE8
S1131F40F94F808190E001979C01220F331F820F8B
S1131F50931F880F991F880F991F88559C4F47DC42
S1131F602091410680911A0290911B02FC01EE0F10
S1131F70FF1FEF58F94F40815181A0914006E09135
S1131F801902BA01620F711DF0E0EE0FFF1FEF5846
S1131F90F94F208131812A0F311D2617370724F587
S1131FA0E091190290914006F0E0EE0FFF1FEF5808
S1131FB0F94F8081890F809340068091190290E047
S1131FC05FDF809319028091140690911506FC013D
S1131FD0EE0FFF1FEA5EF94FD183C0830196909301
S1131FE015068093140615C020914106420F4093B4
S1131FF0410646DF90931B0280931A02E091420649
S1132000F0E0E95BF94FC083809142068F5F8093D3
S1132010420621968091460690E08C179D0709F0B0
S11320208DCFDF91CF9108952F923F924F925F927F
S11320306F927F928F929F92AF92BF92CF92DF92D4
S1132040EF92FF920F931F93CF93DF9300D01F92D1
S1132050CDB7DEB70E947A026BDB8AE5FAD910921B
S1132060050110923F068DE595E00E943D018091A7
S11320703E068823E1F30E946E0288E695E00E9402
S11320803D018FEF80930501E0ECF0E0808185FF56
S1132090FDCF81E08093C600809146068823C1F07D
S11320A020E030E0E0ECF0E046EC50E0D901A35A47
S11320B0B94F9C919068808185FFFDCFDA019C9394
S11320C02F5F3F4F8091460690E02817390774F33D
S11320D0E0ECF0E0808185FFFDCF82E08093C600D4
S11320E08FE0809305010E946E0282E795E00E94D2
S11320F03D010E946E0288E795E00E943D0115DFD4
S11321000E946E0286E895E00E943D0180911406CB
S113211090911506181619062CF5A6E1B6E020E0F4
S113212030E0E0ECF0E066EC70E053E08D01D801C3
S11321309C910E5F1F4F808185FFFDCFDB015C9377
S1132140492F4068808185FFFDCFDB014C9390933C
S113215019022F5F3F4F809114069091150628179E
S113216039072CF30E946E0280E995E00E943D013C
S1132170809142068823E1F380E092E09093F7098E
S11321808093F609809146068823F1F000E010E080
S1132190F801E35AF94F408150E022E030E061E079
S11321A082E00E947601BFEFEFEFFCE2B150E04025
S11321B0F040E1F700C000000F5F1F4F809146061A
S11321C090E00817190724F30E946E02A12C0F2E29
S11321D0F6ECCF2ED12CF02D1982AA8221E02B838C
S11321E01C82312C412C55245394B12C48C3FC013E
S11321F0E95BF94FE081F0E0E35AF94F80811F92E7
S11322008F93AAE9B5E0BF93AF9356D5E0910E063C
S1132210F0910F06E95BF94FE081F0E0E35AF94FE2
S1132220808190E001979C01220F331F820F931F3E
S1132230880F991F880F991F88559C4FD8DAE09111
S11322400E06F0910F06E95BF94FE081F0E0E35AE6
S1132250F94F408150E022E030E06CE082E00E94DF
S11322607601E0911702F0911802A0910E06B09148
S11322700F06A95BB94F8C91EE0FFF1FEF58F94F72
S113228091819F9390819F931F928F93A1EBB5E0CF
S1132290BF93AF9311D5E0911702F0911802EE0F9E
S11322A0FF1FEF58F94F0FB6F894DEBF0FBECDBF36
S11322B080819181892B09F449C140911702509181
S11322C0180222E030E065E082E00E947601E091AD
S11322D01702F0911802EE0FFF1FEE0FFF1FEE0F13
S11322E0FF1FE553F94F0190F081E02DEE0FFF1F22
S11322F0EF58F94F20813181E0911702F0911802D3
S1132300EE0FFF1FEE0FFF1FEE0FFF1FE553F94FF8
S113231060807180E32CF42C852D9B2DE0911702B5
S1132320F09118023197EE0FFF1FEE0FFF1FE80F19
S1132330F91FEE0FFF1FED52F94F40815181452BDC
S113234009F445C0E0911702F09118023197EE0F9D
S1132350FF1FEE0FFF1FE80FF91FEE0FFF1FED52D7
S1132360F94F0190F081E02DEE0FFF1FEF58F94F68
S1132370408151814217530754F5E0911702F091BF
S113238018023197EE0FFF1FEE0FFF1FE80FF91F22
S1132390EE0FFF1FED52F94F0190F081E02DEE0F8B
S11323A0FF1FEF58F94F20813181E0911702F0911E
S11323B018023197EE0FFF1FEE0FFF1FE80FF91FF2
S11323C0EE0FFF1FED52F94F608071807C01019682
S11323D08430910509F0A2CF4701830122E030E067
S11323E0A30168E082E00E9476018091150290E0EA
S11323F080179107D1F38091160290E0801791071E
S1132400D1F3A0ECB0E08C9185FFFBCF85E0F60121
S113241080830068A0ECB0E08C9185FFFBCFF601CF
S11324200083C401C4DB892B09F05BC0930189815B
S11324309A81E0911702F09118023197EE0FFF1F75
S1132440EE0FFF1FEE0DFF1DEE0FFF1FED52F94FB4
S11324500190F081E02D3197EE0FFF1FEE0FFF1F6B
S1132460E80FF91FEE0FFF1FED52F94F4081518124
S113247042175307F9F4E0911702F09118023197CB
S1132480EE0FFF1FEE0FFF1FEE0DFF1DEE0FFF1FE0
S1132490ED52F94F0190F081E02D3197EE0FFF1FBF
S11324A0EE0FFF1FE80FF91FEE0FFF1FED52F94F5C
S11324B01182108201968430910509F0BACFE0911F
S11324C01702F09118023197EE0FFF1FEE0FFF1F56
S11324D0EE0DFF1DEE0FFF1FED52F94F118210821A
S11324E035C0E0911702F09118023197EE0FFF1FEB
S11324F0EE0FFF1FE80DF91DEE0FFF1FED52F94F10
S11325008081918190931802809317022091170281
S113251030911802A0ECB0E08C9185FFFBCFF6015E
S113252020822068A0ECB0E08C9185FFFBCFF601FF
S11325302083E0911702F0911802EE0FFF1FEF586D
S1132540F94F80819181892B09F0B7CEE091170270
S1132550F0911802EE0FFF1FEF58F94F808191811F
S1132560892B09F08FC1E0910E06F0910F06E95B0B
S1132570F94F9081809144069813FBCFE091440673
S1132580F0E0E35AF94FE08180911002909111023A
S113259024E0E29FF0011124E05EFC4F20813181B0
S11325A02817390789F0E0914406F0E0E35AF94F1F
S11325B0E08134E0E39FF0011124E05EFC4F2281CE
S11325C0338182179307C9F4E0914406F0E0E35A9B
S11325D0F94FE081A4E0EA9FF0011124E05EFC4F92
S11325E0208131818217930721F480E09A2D90DABB
S11325F003C181E090E08CDAFFC080E09A2DA6E070
S1132600E0914406F0E0E35AF94F208130E0215094
S11326103109F901EE0FFF1FE20FF31FEE0FFF1F49
S1132620E80FF91FEE0FFF1FE855FC4F20813181A1
S1132630232BE9F0E0914406F0E0E35AF94F40819E
S1132640209117023091180250E041505109A49F83
S1132650F001A59FF00D1124E80FF91FEE0FFF1FE5
S1132660E855FC4F408151814217530731F00196E0
S11326708430910529F680E09A2D2091170230913B
S11326801802E0914406F0E0E35AF94FE081220F8A
S1132690331F220F331F220F331FD901A553B94F04
S11326A0F0E03197EE0FFF1FEE0FFF1FE80FF91F49
S11326B0EE0FFF1FE45EFD4F2D913C91408151814F
S11326C02417350759F101E010E0A0911702B091E9
S11326D01802E0914406F0E0E35AF94FE0811197C3
S11326E0AA0FBB1FAA0FBB1FA00FB11FAA0FBB1FAE
S11326F0AD52B94FF0E03197EE0FFF1FEE0FFF1F01
S1132700E80FF91FEE0FFF1FE45EFD4F4D915C9142
S11327102081318142175307A9F402C000E01A2D29
S1132720E0911702F09118023197EE0FFF1FEE0FA0
S1132730FF1FE00FF11FEE0FFF1FED52F94F6080F6
S1132740718008C00F5F1F4F0430110509F0BDCF21
S113275000E01A2DBB81B0931006EC81E0931106C2
S11327608091150290E086159705D1F380911602A9
S113277090E086159705D1F3862DA0ECB0E09C91EE
S113278095FFFBCF95E0F60190838068A0ECB0E064
S11327909C9195FFFBCFF6018083C80108DA01976D
S11327A059F5E0911702F09118023197EE0FFF1FCF
S11327B0EE0FFF1FE00FF11FEE0FFF1FED52F94F59
S11327C0808191819093180280931702809117025F
S11327D0909118029C01A0ECB0E09C9195FFFBCF76
S11327E0C90194E0F60190838068A0ECB0E09C916C
S11327F095FFFBCFF6018083E0910E06F0910F0662
S1132800E95BF94FE081F0E0E35AF94F80811F92D0
S11328108F9383ED95E09F938F934ED20E94450A48
S1132820FFEF2FE736E1F15020403040E1F700C0E0
S113283000000E94490A80910E0690910F060196AD
S113284090930F0680930E06809144060F900F908C
S11328500F900F90A0ECB0E09C9195FFFBCF96E019
S1132860F60190838068A0ECB0E09C9195FFFBCFCB
S1132870F6018083809144068F5F809344066894B8
S1132880222422F8E0914406F0E0E35AF94F8081D3
S1132890882359F02091420680910E0690910F06EC
S11328A030E02817390709F0A2CC81EF95E017D260
S11328B0E0ECF0E0808185FFFDCF8AE08093C600E4
S11328C0E0ECF0E0808185FFFDCF80E88093C600D6
S11328D080911206909113060197D1F70E94450A40
S11328E0FFEF2FEF30EE80E0F15020403040804089
S11328F0D9F700C000000E94490A80E090E00F90E0
S11329000F900F900F90DF91CF911F910F91FF9037
S1132910EF90DF90CF90BF90AF909F908F907F907B
S11329206F905F904F903F902F9008955058BB2721
S1132930AA270ED048C139D130F03ED120F031F46D
S11329409F3F11F41EF42EC10EF4E095E7FB24C161
S1132950E92F4AD180F3BA176207730784079507F2
S113296018F071F49EF562C10EF4E0950B2EBA2FA7
S1132970A02D0B01B90190010C01CA01A001112481
S1132980FF27591B99F0593F50F4503E68F11A162D
S1132990F040A22F232F342F4427585FF3CF4695BE
S11329A037952795A795F0405395C9F77EF41F16E0
S11329B0BA0B620B730B840BBAF09150A1F0FF0FAA
S11329C0BB1F661F771F881FC2F70EC0BA0F621F96
S11329D0731F841F48F4879577956795B795F79586
S11329E09E3F08F0B3CF9395880F08F09927EE0F18
S11329F09795879508950CD0E6C0DED040F0D5D0E9
S1132A0030F021F45F3F19F0C7C0511110C1CAC0A2
S1132A10EBD098F39923C9F35523B1F3951B550BC8
S1132A20BB27AA2762177307840738F09F5F5F4F9D
S1132A30220F331F441FAA1FA9F333D00E2E3AF0DE
S1132A40E0E830D091505040E695001CCAF729D0F8
S1132A50FE2F27D0660F771F881FBB1F2617370747
S1132A604807AB07B0E809F0BB0B802DBF01FF2777
S1132A7093585F4F2AF09E3F510568F08DC0D7C030
S1132A805F3FECF3983EDCF3869577956795B795B1
S1132A90F7959F5FC9F7880F911D9695879597F9CC
S1132AA00895E1E0660F771F881FBB1F6217730745
S1132AB08407BA0720F0621B730B840BBA0BEE1F5A
S1132AC088F7E095089598D088F09F5790F0B92F33
S1132AD09927B751A0F0D1F0660F771F881F991F6F
S1132AE01AF0BA95C9F712C0B13081F09FD0B1E0A5
S1132AF008959CC0672F782F8827B85F39F0B93FB5
S1132B00CCF3869577956795B395D9F73EF4909570
S1132B108095709561957F4F8F4F9F4F0895E894EE
S1132B2009C097FB3EF490958095709561957F4F11
S1132B308F4F9F4F9923A9F0F92F96E9BB279395BF
S1132B40F695879577956795B795F111F8CFFAF4CF
S1132B50BB0F11F460FF1BC06F5F7F4F8F4F9F4F00
S1132B6016C0882311F096E911C0772321F09EE85E
S1132B70872F762F05C0662371F096E8862F70E0C4
S1132B8060E02AF09A95660F771F881FDAF7880F9E
S1132B909695879597F9089597F99F6780E870E06F
S1132BA060E008959FEF80EC089500240A941616BF
S1132BB0170618060906089500240A941216130627
S1132BC0140605060895092E0394000C11F48823B5
S1132BD052F0BB0F40F4BF2B11F460FF04C06F5FD1
S1132BE07F4F8F4F9F4F089557FD9058440F551FA7
S1132BF059F05F3F71F04795880F97FB991F61F07B
S1132C009F3F79F087950895121613061406551FF1
S1132C10F2CF4695F1DF08C0161617061806991F5D
S1132C20F1CF86957105610508940895E894BB2752
S1132C3066277727CB0197F9089503D008F48FEF1F
S1132C400895990F0008550FAA0BE0E8FEEF161639
S1132C501706E807F907C0F012161306E407F5078C
S1132C6098F0621B730B840B950B39F40A2661F000
S1132C70232B242B252B21F408950A2609F4A140A3
S1132C80A6958FEF811D811D0895EE0FFF1F881FEC
S1132C908BBF0790F691E02D1994A29FB001B39FCA
S1132CA0C001A39F700D811D1124911DB29F700D51
S1132CB0811D1124911D0895CF93DF93CDB7DEB705
S1132CC0AE014A5F5F4FFA0161917191AF0180914A
S1132CD0F6099091F70933D0DF91CF9108950F93BE
S1132CE01F93CF93DF93E091F609F091F7092381C5
S1132CF021FF1BC08C01D0E0C0E0F80181918F015D
S1132D006091F6097091F709DB011896ED91FC9139
S1132D101997882331F01995892B79F3DFEFCFEFD9
S1132D20ECCF8AE01995892B19F08FEF9FEF02C041
S1132D308D2F9C2FDF91CF911F910F9108952F928A
S1132D403F924F925F926F927F928F929F92AF9237
S1132D50BF92CF92DF92EF92FF920F931F93CF9384
S1132D60DF93CDB7DEB72C970FB6F894DEBF0FBE56
S1132D70CDBF7C016B018A01FC011782168283811D
S1132D8081FFB0C1CE0101964C01F7019381F60198
S1132D9093FD859193FF81916F01882309F49EC16E
S1132DA0853239F493FD859193FF81916F018532CA
S1132DB021F4B70190E0C7D1E8CF512C312C20E0A9
S1132DC02032A0F48B3269F030F4803259F083322F
S1132DD069F420612CC08D3239F0803339F42160DC
S1132DE026C02260246023C0286021C027FD27C09C
S1132DF030ED380F3A3078F426FF06C0FAE05F9ED3
S1132E00300D1124532E13C08AE0389E300D112446
S1132E10332E20620CC08E3221F426FD5FC1206463
S1132E2006C08C3611F4206802C0883641F4F601DD
S1132E3093FD859193FF81916F018111C1CF982FEB
S1132E409F7D9554933028F40C5F1F4FFFE3F98363
S1132E500DC0833631F0833771F0833509F057C0E4
S1132E6021C0F801808189830E5F1F4F442443945D
S1132E70512C540114C03801F2E06F0E711CF8019A
S1132E80A080B18026FF03C0652D70E002C06FEF03
S1132E907FEFC5012C874CD12C0183012C852F7722
S1132EA0222E16C03801F2E06F0E711CF801A080CA
S1132EB0B18026FF03C0652D70E002C06FEF7FEF85
S1132EC0C5012C872AD12C012C852068222E830150
S1132ED023FC19C0832D90E048165906A0F4B701CD
S1132EE080E290E030D13A94F5CFF50127FC85914A
S1132EF027FE81915F01B70190E025D131103A940A
S1132F00F1E04F1A51084114510479F7DEC08436B8
S1132F1011F0893631F5F80127FF07C0608171810E
S1132F20828193810C5F1F4F08C060817181072EDD
S1132F30000C880B990B0E5F1F4F2F76722E97FF94
S1132F4009C090958095709561957F4F8F4F9F4FE5
S1132F502068722E2AE030E0A4012DD1A82EA818F2
S1132F6043C0853729F42F7EB22E2AE030E025C0F5
S1132F70F22FF97FBF2E8F36C1F018F4883579F01F
S1132F80ADC0803719F0883721F0A8C02F2F2061F9
S1132F90B22EB4FE0DC08B2D8460B82E09C024FF60
S1132FA00AC09F2F9660B92E06C028E030E005C005
S1132FB020E130E002C020E132E0F801B7FE07C0B2
S1132FC060817181828193810C5F1F4F06C0608193
S1132FD0718180E090E00E5F1F4FA401ECD0A82E19
S1132FE0A818FB2DFF777F2E76FE0BC0372D3E7F72
S1132FF0A51450F474FE0AC072FC08C0372D3E7E3E
S113300005C0BA2C372D03C0BA2C01C0B52C34FF2F
S11330100DC0FE01EA0DF11D8081803311F4397E6B
S113302009C032FF06C0B394B39404C0832F8678DA
S113303009F0B39433FD12C030FF06C05A2CB31408
S113304018F4530C5B18B32CB31460F4B70180E28A
S113305090E03C8778D0B3943C85F6CFB31410F459
S11330603B1801C0312C34FF11C0B70180E390E05C
S11330703C8769D03C8532FF16C031FD03C088E728
S113308090E002C088E590E0B7010CC0832F8678F9
S113309051F031FF02C08BE201C080E237FD8DE2C6
S11330A0B70190E050D0A51430F4B70180E390E06C
S11330B04AD05A94F8CFAA94F401EA0DF11D808104
S11330C0B70190E040D0A110F6CF332009F45DCED3
S11330D0B70180E290E037D03A94F7CFF7018681C8
S11330E0978102C08FEF9FEF2C960FB6F894DEBF46
S11330F00FBECDBFDF91CF911F910F91FF90EF9045
S1133100DF90CF90BF90AF909F908F907F906F9003
S11331105F904F903F902F900895FC01059061506F
S113312070400110D8F7809590958E0F9F1F0895D9
S1133130FC016150704001900110D8F78095909582
S11331408E0F9F1F08950F931F93CF93DF93FB015F
S1133150238121FD03C08FEF9FEF28C022FF16C0FB
S113316046815781248135814217530744F4A08155
S1133170B1819D012F5F3F4F318320838C93268142
S113318037812F5F3F4F3783268310C0EB01092F10
S1133190182F0084F185E02D1995892BE1F68E8195
S11331A09F8101969F838E83812F902FDF91CF91F2
S11331B01F910F910895FA01AA27283051F1203167
S11331C081F1E8946F936E7F6E5F7F4F8F4F9F4FB7
S11331D0AF4FB1E03ED0B4E03CD0670F781F891FF9
S11331E09A1FA11D680F791F8A1F911DA11D6A0FC7
S11331F0711D811D911DA11D20D009F468943F917A
S11332002AE0269F11243019305D3193DEF6CF0178
S11332100895462F4770405D4193B3E00FD0C9F73E
S1133220F6CF462F4F70405D4A3318F0495D31FDAB
S11332304052419302D0A9F7EACFB4E0A6959795FE
S1133240879577956795BA95C9F7009761057105D4
S113325008959B01AC010A2E06945795479537951E
S11332602795BA95C9F7620F731F841F951FA01D78
S10932700895F894FFCF5D
S113327600000002000000009E0000000000640040
S11332865A002300FF0D0D01000D0100010000008E
S1133296000000000200000000000000040000001E
S11332A6000000000400000000000000050000000B
S11332B600000000060000000000000008000000F6
S11332C600000000080000000000000009000000E3
S11332D6000000000A000000000000000C000000CE
S11332E6000000000C000000000000000D000000BB
S11332F6000000000E0000000000000010000000A6
S11333060000000010000000000000001100000092
S1133316000000001200000000000000140000007D
S1133326000000001400000000000000150000006A
S11333360000000016000000000000001800000055
S1133346000000001800000000000000010000005A
S113335600000000240019002C002B0005000000CA
S11333660000000009000000000000001D001C0011
S11333762E002D000D0000000000000011000000CA
S1133386000000002100200030002F00150000007E
S1133396000000005A00FF004B00F0003C00E10072
S11333A62D00D2001E00C3000F00B4000000A500CB
S11333B6590196004A0187003B0178002C016900F7
S11333C61D015A000E014B00FF003C00F0002D00C9
S11333D6E1001E00D2000F00C3000000B400590132
S11333E6A5004A0196003B0187002C0178005A008B
S11333F669001D01FF005A00F0003C00C3001E00D6
S113340687004A0178002C014B000E010F00D20000
S11334160000B4003B01960001000000000000001B
S11334260000000002000000000000000000000090
S1133436030000000000000000000000040000007B
S1133446000000000000000005000000000000006D
S1133456000000000600000000000000000000005C
S11334660700000000000000000000000800000043
S11334760000000000000000090000000000000039
S1133486000000000A000000000000000000000028
S11334960B00000000000000000000000C0000000B
S11334A600000000000000000D0000000000000005
S11334B6000000000E0000000000000000000000F4
S11334C60F000000000000000000000010000000D3
S11334D600000000000000001100000000000000D1
S11334E600000000120000000000000000000000C0
S11334F6130000000000000000000000140000009B
S1133506000000000000000015000000000000009C
S1133516000000001600000000000000000000008B
S11335261700000000000000000000001800000062
S11335360000000000000000010000000000000080
S113354600000000190024002B002C0000000000DD
S11335560500000000000000000000000900000053
S113356600000000000000001C001D002D002E00BD
S1133576000000000D000000000000000000000034
S113358611000000000000000000000020002100DF
S11335962F003000000000001500000000000000AD
S11335A60000000020202020202020202020202091
S11335B62020202020202020202020202020202001
S11335C62020202020202020202020200057616950
S11335D674696E672E2E2E0052656365697665647E
S11335E6210053656E74210053656E64696E67200D
S11335F65461736B730050726F6365737365640013
S11336065461736B2053656E740043757272656EF4
S113361674205461736B204E6F64653D2564200AE3
S113362600436F737420506C616E6E656420666F20
S113363672207461736B203D256420436F73743D5F
S11336462564005265616368656420446573746922
S11336566E6174696F6E206E6F64653D2564200A21
S113366600476F6E6E61206265204F7574212121BB
S105367600004E
S9030000FC
