S00D00005461736B352E737265634F
S11300007BC000009AC0000098C0000096C00000A9
S113001094C000000C94760A0C94510A8EC000001F
S11300208CC000008AC0000088C0000086C00000A8
S113003084C0000082C0000080C000007EC00000B8
S11300407CC000007AC0000078C0000076C00000C8
S113005074C0000072C0000070C000006EC00000D8
S11300606CC000000C94360968C0000066C0000033
S113007064C0000062C0000060C000005EC00000F8
S11300805CC000005AC0000058C0000056C0000008
S113009054C0000052C0000050C000004EC0000018
S11300A04CC000004AC0000048C0000046C0000028
S11300B044C0000042C0000040C000003EC0000038
S11300C03CC000003AC0000038C0000036C0000048
S11300D034C0000032C0000030C000002EC0000058
S11300E02CC000005C09A9096C0978097B097E0908
S11300F08809920998099B0911241FBECFEFD1E208
S1130100DEBFCDBF00E00CBF13E0A0E0B2E0ECEE38
S1130110F3E200E00BBF02C007900D92A63DB107C9
S1130120D9F727E0A6EDB3E001C01D92A638B207C7
S1130130E1F70E94040E0C94F41162CF87B1876F2B
S113014087B988B1807888B9089586E69EE00197DA
S1130150F1F700004098419880E388B9429AEFEFA4
S1130160F7E43197F1F700C000004298E6E6FEE0BC
S11301703197F1F700004098419888B9429AEFEF1F
S1130180F7E43197F1F700C000004298E6E6FEE09C
S11301903197F1F700004098419888B9429A8FEF5F
S11301A097E40197F1F700C000004298E6E6FEE00C
S11301B03197F1F700004098419880E288B9429A5B
S11301C08FEF97E40197F1F700C00000429808957B
S11301D098B19F7098B998B1282F207F922B98B925
S11301E040984198429AEFEFF7E43197F1F700C055
S11301F00000429898B19F7098B998B18295807F19
S1130200892B88B940984198429A8FEF97E40197D7
S1130210F1F700C000004298089598B19F7098B912
S113022098B1282F207F922B98B9409A4198429AEE
S1130230EFEFF7E43197F1F700C00000429898B16E
S11302409F7098B998B18295807F892B88B9409A1C
S11302504198429A8FEF97E40197F1F700C00000AC
S11302604298089580E8B4CF0895CF93DF93EC01CA
S11302708881882329F02196D0DF89918111FCCFD0
S1130280DF91CF91089586E69EE00197F1F7000093
S113029088E29EDF81E09CDF86E09ADF8EE098DFD3
S11302A080E896CF0895823069F018F4813031F0F7
S11302B00895833059F0843069F008958FE7860FEC
S11302C087CF08958FEB860F83CF089583E9860F38
S11302D07FCF089583ED860F7BCF08950F931F93EF
S11302E0CF93DF938A01E901882311F0611102C0E1
S11302F0B9DF01C0D8DFC530D105C1F4980132950A
S113030022952F7023273F702327A7E4B3E00E9490
S1130310E511969587959695879596958795C096B8
S1130320909318048093170478DF04C0C430D10577
S113033009F0BEC0980136952795369527953695D0
S11303402795A5ECB0E20E94E511AC0152954295C7
S11303504F7045275F7045275093FA054093F90580
S11303609A01ADECBCEC0E94E511969587959695A3
S11303708795969587959C01220F331F880F991FA7
S1130380880F991F880F991F820F931F9A01281BAA
S1130390390BC901C09690938307809382073DDF90
S11303A098013695279536952795ABE7B4E10E94D9
S11303B0E511AC01569547955093FA054093F9051C
S11303C09A01ADECBCEC0E94E51196958795969543
S11303D08795969587959C01220F331F880F991F47
S11303E0880F991F880F991F820F931F9A01281B4A
S11303F0390BC901C09690937F0780937E070DDF68
S113040004C0C230D10509F058C09801ADECBCEC71
S11304100E94E511AC01569547955695479556951A
S113042047955093FA054093F9059A010E94E51106
S11304309695879596958795969587959C01220F15
S1130440331F880F991F880F991F880F991F820FD8
S1130450931F9A01281B390BC901C0969093FD057F
S11304608093FC05DADE9801ADECBCEC0E94E5114A
S11304709695879596958795969587959C01220FD5
S1130480331F880F991F880F991F880F991F820F98
S1130490931F9801281B390BC901C09690938107BB
S11304A080938007BADE269764F085E4B6DE09C03F
S11304B0C330D10509F0A5CF73CFC130D10599F769
S11304C0D2CFDF91CF911F910F91089580E880DE04
S11304D088E993E0CADE80EC7BDE88E993E0C5DE40
S11304E0C1CE08952F923F924F925F926F927F9266
S11304F08F929F92AF92BF92CF92DF92EF92FF9230
S11305000F931F93CF93DF93EEEFF5E00F2EFBE4F1
S1130510AF2EB12CF02DB182A0820F2EFDE14F2E13
S113052055245394F02D538242828FEF9FEF95838D
S1130530848397838683CC24CA94D12CD186C086A5
S1130540ACE3B0E0B387A2879587848797878687D3
S113055020EF30E0318B208B0F2EFDE22F2E312C3B
S1130560F02D338A228A158A148A6CE271E0778B23
S1130570668B0F2EF1EE8F2E912CF02D918E808EA6
S11305800EE110E0138F028F958F848F978F868FE3
S113059042ED50E051A340A3CFE0D0E0D3A3C2A3E7
S11305A095A384A397A386A303EC10E011A700A747
S11305B013A612A695A784A797A786A744EB50E095
S11305C051AB40AB09E511E013AB02AB35AB24AB47
S11305D077AB66AB05EA10E011AF00AF0AE411E0B7
S11305E013AF02AF95AF84AF90933D0680933C0662
S11305F0E6E9F0E0F0933F06E0933E060BE311E0FA
S1130600109341060093400690934306809342065C
S113061090934506809344060F2EF7E86F2E712CB5
S1130620F02D7092470660924606709349066093D7
S1130630480690934B0680934A0690934D06809308
S11306404C06E8E7F0E0F0934F06E0934E06509234
S113065051064092500650935306409352063093ED
S11306605506209354060F2EF9E6EF2EF12CF02DAB
S1130670F0925706E09256060EE011E010935906E8
S11306800093580690935B0680935A0690935D06F8
S113069080935C060AE510E010935F0600935E0603
S11306A0D0926106C09260069093630680936206BE
S11306B09093650680936406B0926706A0926606DE
S11306C0309369062093680690936B0680936A06BC
S11306D090936D0680936C06B0936F06A0936E069C
S11306E09092710680927006F0937306E0937206FE
S11306F050937506409374063092770620927606DE
S11307000F2EF2EDCF2ED12CF02DD0927906C0927F
S1130710780690937B0680937A0690937D06809367
S11307207C060F2EFEE1CF2ED12CF02DD0927F0629
S1130730C0927E060F2EF3ECCF2ED12CF02DD0924A
S11307408106C092800690938306809382069093DC
S1130750850680938406D0938706C09386065093BB
S113076089064093880690938B0680938A0690931B
S11307708D0680938C0610928F0610928E060F2E93
S1130780F5EACF2ED12CF02DD0929106C09290068E
S1130790B0939306A0939206F0939506E093940683
S11307A00F2EF9E5CF2EDD24D394F02DD0929706A9
S11307B0C09296060F2EF6E9CF2ED12CF02DD092B2
S11307C09906C092980690939B0680939A069093FC
S11307D09D0680939C060F2EFAE4CF2EDD24D3943D
S11307E0F02DD0929F06C0929E067092A106609250
S11307F0A0069093A3068093A2069093A5068093E7
S1130800A4060F2EFBE3CF2EDD24D394F02DD0923B
S1130810A706C092A606F093A906E093A8069093B3
S1130820AB068093AA069093AD068093AC067093B2
S1130830AF066093AE06F092B106E092B006109255
S1130840B3061092B206B093B506A093B406109303
S1130850B7060093B6065092B9064092B806909334
S1130860BB068093BA069093BD068093BC06509352
S1130870BF064093BE061092C1061092C006309384
S1130880C3062093C2069093C5068093C406509372
S1130890C7064093C6061092C9061092C806B093C4
S11308A0CB06A093CA067093CD066093CC065093F2
S11308B0CF064093CE061092D1061092D006F09344
S11308C0D306E093D2063093D5062093D406109233
S11308D0D7061092D6065093D9064093D806709343
S11308E0DB066093DA069093DD068093DC06B09312
S11308F0DF06A093DE06F093E106E093E006309372
S1130900E3062093E2069093E5068093E406B09311
S1130910E706A093E6063093E9062093E806709371
S1130920EB066093EA065093ED064093EC06B09311
S1130930EF06A093EE063093F1062093F006109292
S1130940F3061092F206F093F506E093F406309362
S1130950F7062093F606B093F906A093F806509391
S1130960FB064093FA069093FD068093FC06709371
S1130970FF066093FE061092010710920007F093A1
S11309800307E0930207909305078093040770938D
S1130990070760930607F0930907E093080750934D
S11309A00B0740930A07B0930D07A0930C077093AD
S11309B00F0760930E07F0931107E093100730932D
S11309C01307209312071092150710921407F0933F
S11309D01707E0931607B0931907A09318077093AD
S11309E01B0760931A0790931D0780931C07B0930D
S11309F01F07A0931E07309321072093200790938D
S1130A002307809322079093250780932407F0936C
S1130A102707E0932607709329076093280790938C
S1130A202B0780932A0790932D0780932C077093AC
S1130A302F0760932E07F0933107E09330079093CC
S1130A4033078093320790933507809334071092CD
S1130A50370710923607509339074093380790931D
S1130A603B0780933A0790933D0780933C0750934C
S1130A703F0740933E07109241071092400790931E
S1130A80430780934207909345078093440730932C
S1130A90470720934607B0934907A09348079093CC
S1130AA04B0780934A0790934D0780934C075093CC
S1130AB04F0740934E07B0935107A093500790936C
S1130AC05307809352079093550780935407F093EC
S1130AD05707E0935607309359072093580790938C
S1130AE05B0780935A0790935D0780935C07B093EC
S1130AF05F07A0935E07709361076093600790930C
S1130B00630780936207909365078093640710924C
S1130B10670710926607F0936907E093680790935C
S1130B206B0780936A0790936D0780936C077093AB
S1130B306F0760936E07509371074093700790930B
S1130B4073078093720790937507809374073093AB
S1130B50770720937607109279071092780790937D
S1130B607B0780937A0790937D0780937C07E9E75E
S1130B70F4E082E090E09183808328E130E03383E5
S1130B802283158214821782168221E030E0318795
S1130B90208723E030E03387228715861486178662
S1130BA01686918B808B84E090E0938B828B49E155
S1130BB050E0558B448B44E250E0578B468B318F89
S1130BC0208F25E030E0338F228F158E148E178E00
S1130BD0168E91A380A386E090E093A382A315A22E
S1130BE014A217A216A231A720A727E030E033A74A
S1130BF022A715A614A617A616A691AB80AB88E06B
S1130C0090E093AB82AB45E250E055AB44AB46E297
S1130C1050E057AB46AB31AF20AF29E030E033AF03
S1130C2022AF15AE14AE1092B8041092B70490938C
S1130C30BA048093B9048AE090E09093BC04809352
S1130C40BB041092BE041092BD041092C004109212
S1130C50BF043093C2042093C1042BE030E03093EE
S1130C60C4042093C3041092C6041092C5041092C5
S1130C70C8041092C7049093CA048093C9048CE0FA
S1130C8090E09093CC048093CB044CE150E05093DB
S1130C90CE044093CD044DE150E05093D0044093F2
S1130CA0CF043093D2042093D1042DE030E030936C
S1130CB0D4042093D3041092D6041092D504109235
S1130CC0D8041092D7049093DA048093D9048EE068
S1130CD090E09093DC048093DB041092DE04109285
S1130CE0DD041092E0041092DF043093E2042093B8
S1130CF0E104D093E404C093E3041092E604109258
S1130D00E5041092E8041092E7049093EA048093B7
S1130D10E90420E130E03093EC042093EB0487E213
S1130D2090E09093EE048093ED0488E290E0909339
S1130D30F0048093EF04D093F204C093F10481E1B2
S1130D4090E09093F4048093F3041092F6041092CC
S1130D50F5041092F8041092F7043093FA042093E7
S1130D60F90422E130E03093FC042093FB04109258
S1130D70FE041092FD04109200051092FF0490935B
S1130D8002058093010583E190E09093040580932C
S1130D90030510920605109205051092080510929D
S1130DA0070530930A052093090524E130E03093C8
S1130DB00C0520930B0540E250E050930E05409340
S1130DC00D0541E250E05093100540930F059093B8
S1130DD012058093110585E190E0909314058093AA
S1130DE0130510921605109215051092180510920D
S1130DF0170530931A052093190526E130E0309346
S1130E001C0520931B0510921E0510921D051092BF
S1130E10200510921F05909322058093210587E1F8
S1130E2090E0909324058093230510922605109258
S1130E302505109228051092270586E190E09093ED
S1130E402A058093290588E190E090932C058093EE
S1130E502B05C9E2D0E0D0932E05C0932D050F2EAB
S1130E60FAE2AF2EB12CF02DB0923005A0922F05EE
S1130E7081E090E09093320580933105E7E1F0E062
S1130E80F0933405E093330510923605109235053E
S1130E9010923805109237050F2EF3E08F2E912C07
S1130EA0F02D90923A05809239056AE170E07093D2
S1130EB03C0560933B05A4E2B0E0B0933E05A093EB
S1130EC03D051092400510923F050F2EF9E16F2E5B
S1130ED0712CF02D70924205609241054BE150E077
S1130EE0509344054093430585E290E09093460572
S1130EF0809345050F2EFCE24F2E512CF02D50927D
S1130F0048054092470570934A05609349052CE1D2
S1130F1030E030934C0520934B0586E290E09093AB
S1130F204E0580934D050DE210E01093500500939B
S1130F304F050BE010E010935205009351055093B8
S1130F405405409353058DE190E0909356058093AA
S1130F505505109258051092570510935A050093A1
S1130F60590530935C0520935B052EE130E0309306
S1130F705E0520935D051092600510925F059093C5
S1130F806205809361058FE190E0909364058093FE
S1130F90630507E210E010936605009365050F2EC4
S1130FA0FEE22F2E312CF02D309268052092670539
S1130FB030936A05209369056894EE24E5F8F12CD2
S1130FC0F0926C05E0926B0508E210E010936E0558
S1130FD000936D050F2EFFE2CF2ED12CF02DD09271
S1130FE07005C0926F050F2EF3E1CF2ED12CF02D9A
S1130FF0D0927205C0927105909374058093730525
S113100001E210E0109376050093750510927805BF
S113101010927705D0927A05C0927905F0927C05FA
S1131020E0927B050F2EF2E2EF2EF12CF02DF092E0
S11310307E05E0927D051092800510927F05109345
S113104082050093810503E210E010938405009368
S11310508305D0938605C0938505C0E3D0E0D09383
S11310608805C0938705F0928A05E0928905B093BC
S11310708C05A0938B05B0928E05A0928D05ABE2F2
S1131080B0E0B0939005A0938F0590929205809262
S113109091057092940560929305109396050093C0
S11310A0950510929805109297050F2EF7E0CF2E14
S11310B0D12CF02DD0929A05C092990570939C057D
S11310C060939B0510929E0510929D051092A005B9
S11310D010929F05D092A205C092A1055093A40539
S11310E04093A3051092A6051092A5051092A80599
S11310F01092A7050F2EFFE0CF2ED12CF02DD09209
S1131100AA05C092A9053093AC052093AB051092B3
S1131110AE051092AD051092B0051092AF05D092B5
S1131120B205C092B1059093B4058093B3051092B3
S1131130B6051092B5051092B8051092B705F09354
S1131140BA05E093B905F092BC05E092BB05109294
S1131150BE051092BD051092C0051092BF05F09314
S1131160C205E093C1051093C4050093C305109212
S1131170C6051092C5051092C8051092C7051093B4
S1131180CA050093C9055092CC054092CB05109234
S1131190CE051092CD051092D0051092CF05709314
S11311A0D2056093D105B093D405A093D3051092D2
S11311B0D6051092D5051092D8051092D7055093F4
S11311C0DA054093D9053092DC052092DB051092B4
S11311D0DE051092DD051092E0051092DF053093D4
S11311E0E2052093E1050DE210E01093E40500937D
S11311F0E3051092E6051092E5051092E8051092B9
S1131200E7059093EA058093E905D093EC05C09334
S1131210EB051092EE051092ED051092F005109278
S1131220EF05F092F205E092F1052FE230E0309301
S1131230F4052093F3051092F6051092F50510922B
S1131240F8051092F705DF91CF911F910F91FF9050
S1131250EF90DF90CF90BF90AF909F908F907F9052
S11312606F905F904F903F902F9008951F920F9230
S11312700FB60F9211240BB60F924F935F936F9397
S11312807F938F939F93EF93FF938091C60088235E
S11312900CF058C0982F9F77E09106024E2F50E033
S11312A0FA013197EA30F10508F053C08827EE5867
S11312B0FF4F8F4F0C94DD11E091EC03F0E0ED5FF4
S11312C0FB4F90838091EC038F5F8093EC038091BC
S11312D0EC03809305013DC0E091E903F0E0E351A4
S11312E0FC4F90838091E9038F5F8093E90331C0C1
S11312F0909308022EC0909307022BC08091EB03B9
S1131300891327C08091EB038F5F8093EB0321C087
S11313108091EA0389131DC08091EA038F5F809353
S1131320EA0317C08091E803890F8093E80311C092
S113133090930B020EC081E090E09093E5038093BC
S1131340E40307C080930602823019F481E080939D
S1131350E603FF91EF919F918F917F916F915F9140
S11313604F910F900BBE0F900FBE0F901F901895CA
S11313703B9A4398089586B1886088B9089586B1E8
S1131380877F88B9089510BA11BA10920701109294
S11313900801089581B18F6081B982B1807F82B9DB
S11313A0EAE0F1E0808188618083EBE0F1E0808114
S11313B08861808308956C98749A08956D98759ADD
S11313C00895E8DFF8DFFADF0E949E00DCDFD0CF6B
S11313D00895E1E2F1E010828FEF8093250191E01E
S11313E090932401109229018093280110922B01DB
S11313F080932A0110922D0180932C0189EA809315
S113140020018BE080830895EAE7F0E010821092D7
S11314107B0080E280937C0080E880BF86E8808344
S11314200895883018F098E090937B00877080626C
S113143080937C00EAE7F0E080818064808380818F
S113144084FFFDCF80917900EAE7F0E0908190611C
S1131450908310927B000895CF93DF93C82FD62FEB
S1131460842FDFDF8093FB05482F50E023E030E03A
S11314706D2F8C2F0E946E01DF91CF910895F89407
S1131480EAE6F0E0808182608083EC9A78940895A3
S1131490F894EAE6F0E0808188608083ED9A78949D
S11314A008951F920F920FB60F9211248F939F935A
S11314B0AF93BF938091DA039091DB03A091DC0397
S11314C0B091DD030196A11DB11D8093DA039093C1
S11314D0DB03A093DC03B093DD03BF91AF919F9135
S11314E08F910F900FBE0F901F9018951F920F921F
S11314F00FB60F9211248F939F93AF93BF93809154
S1131500DE039091DF03A091E003B091E103019623
S1131510A11DB11D8093DE039093DF03A093E0032C
S1131520B093E103BF91AF919F918F910F900FBE44
S11315300F901F90189592B1907F8F70982B92B94D
S1131540089586E0F8CF089585E0F5CF0895809159
S11315500402F1CF089580E0EECF0895CF92DF9298
S1131560EF92FF920F931F93BC0180E090E06FD63F
S113157028E431EE42E850E4D6D53DD6AB0160E034
S113158070E01092DA031092DB031092DC031092E5
S1131590DD031092DE031092DF031092E003109239
S11315A0E10391E0E0E0C090DA03D090DB03E09047
S11315B0DC03F090DD030091DE031091DF03209142
S11315C0E0033091E103892F041715072607370735
S11315D008F48E2F811109C0892FC416D506E6069A
S11315E0F70608F48E2F8823F1F21F910F91FF90D4
S11315F0EF90DF90CF900895CF93DF93EC01A4DFB9
S11316009FEF9093280190932A01CE01A7DFDF91E9
S1131610CF910895CF93DF93EC0199DF9FEF9093DF
S1131620280190932A01CE0199DFDF91CF9108958B
S11316308FEF80930401109205010895F894C1DEA0
S1131640E1ECF0E010821092C00026E02093C2008A
S11316509FE59093C4001092C50088E98083E1ED72
S1131660F0E010821092D0002093D2009093D40026
S11316701092D500808303DF0BDFC6DEAADE0E9452
S1131680A5000E944301D4DF78940895BC0180E052
S113169090E0DDD525EE30ED4AEA50E444D5ABD5F3
S11316A0AB01BC011092DA031092DB031092DC034D
S11316B01092DD038091DA039091DB03A091DC03A7
S11316C0B091DD03481759076A077B0798F743CFA2
S11316D00895CF93DF93EC0134DF9091000290934F
S11316E0280190932A01CE01D1DFDF91CF91089593
S11316F04F925F926F927F928F929F92AF92BF921E
S1131700CF92DF92EF92FF920F931F93CF93DF93C9
S1131710CDB7DEB7C05CD1090FB6F894DEBF0FBEFB
S1131720CDBFDE01AF59BF4F20E6FD0111922A95CE
S1131730E9F7E9E1F4E08E010F5F1F4F78016D01D5
S113174009E714E0970163E670E04FEF5FEF619300
S11317507193D9014D935D939D01D6011D921D9204
S11317606D01E017F10799F7FC01AC01445F5F4F8D
S11317708FEF9FEF61E070E0208131812115310509
S113178009F1220F331FD901A95EBB4F1D921C9290
S1131790019620813181DC01AA0FBB1F01E010E01A
S11317A00C0F1D1FA00FB11F2D933C93D90111974E
S11317B0AA0FBB1F21E630E02C0F3D1FA20FB31F61
S11317C06D937C933296E417F507B1F6AE2C9F2CFB
S11317D0812C712C6894BB24B2F8612CCC24C39462
S11317E0D12CA981BA81119799236CF0EA2DF92D96
S11317F0282D372D2F5F3F4F4281538141935193C1
S113180082179307BCF70197FD01EE0FFF1FEE0F40
S1131810FF1FEE0FFF1FE758FB4F2B2D362DAA0F8E
S1131820BB1FAD01475E5B4F2A0161917191611548
S11318307105D1F1D2010D911C910F5F1F4FAB01C6
S1131840415051097A01EE0CFF1CD701A75EBB4F32
S1131850ED90FC90E016F10644F07A01EE0CFF1CCA
S1131860D701A75EBB4F0D931C938A01000F111F74
S1131870A1E6B0E0AC0FBD1F0A0F1B1FD8010D91EC
S11318801C9111970130110579F0CD92DC920196EB
S1131890AC01440F551F01E010E00C0F1D1F400F59
S11318A0511FDA016D937C932150310909F0BDCFAA
S11318B029813A812F3F3F4F09F093CF8F3FEFEFBC
S11318C09E0709F08ECFC054DF4F0FB6F894DEBFE9
S11318D00FBECDBFDF91CF911F910F91FF90EF907D
S11318E0DF90CF90BF90AF909F908F907F906F903C
S11318F05F904F900895EF92FF920F931F93CF93B1
S1131900992344F42CEE3FEFA901481B590BCA015B
S113191081DE02C0449770DE0F2EF8E2EF2EFF2422
S1131920F394F02DC6E90AE211E0F701C083F8014F
S1131930C08382E076DD8093D80342E065E081E0F5
S11319408BDD8091D80390E0209104023091050250
S11319502817390754F7FFDDCF911F910F91FF909E
S1131960EF900895EF92FF920F931F93CF93DF931D
S1131970EC01E0910902F0910A023197EE0FFF1F8A
S1131980EE0FFF1FE80FF91FEE0FFF1FE250FA4F93
S1131990008111818091020290910302081B190BAE
S11319A0B801012E000C880B990B53D49F7720E0CB
S11319B030E044E352E4D9D418162CF486E490E0E1
S11319C088DEC80198DF8091090290910A0201978C
S11319D0880F991F880F991FC80FD91FCC0FDD1FBF
S11319E0C250DA4F88819981909303028093020256
S11319F0A8DD1092DA031092DB031092DC0310923C
S1131A00DD030F2EF0E0EF2EF2E0FF2EF02D08E2C2
S1131A1011E0CAE2D1E083E004DD8093D90382E0DF
S1131A2000DD8093D80381E0FCDC8093D70386E05B
S1131A30F8DC8093D60343E061E081E00DDD42E011
S1131A4065E081E009DD41E069E081E005DD46E033
S1131A506DE081E001DD8091040290910502209106
S1131A60D80330E0821793076CF42091D90330E057
S1131A708217930794F12091D70330E082179307DC
S1131A80CCF145C02091D90330E0821793070CF0C4
S1131A904DC057DD23E030E041E050E061E082E0FA
S1131AA00E946E01F7018081F80110828883B3CF10
S1131AB048DD23E030E042E050E061E082E00E9453
S1131AC06E01F7018081F80180831882A4CFF701A9
S1131AD08081F801808388839ECF8091DA0390917E
S1131AE0DB03A091DC03B091DD030B97A105B105E5
S1131AF080F223C08091DA039091DB03A091DC0390
S1131B00B091DD030B97A105B10590F216C019DD64
S1131B10F7018081F8018083888323E030E040E08E
S1131B2050E061E082E00E946E0175CF2091D703FE
S1131B3030E0821793075CF6BBCF03DD10922801D7
S1131B4010922A0123E030E044E650E061E082E0B4
S1131B500E946E0181E090E0DF91CF911F910F917F
S1131B60FF90EF900895CF93DF939C01BC016150E7
S1131B707109DB01AA0FBB1FA75EBB4F8D919C911E
S1131B80892B39F43093850720938407822F932F70
S1131B9038C0DB01AA0FBB1FAA0FBB1FAA0FBB1FB4
S1131BA0FD01E758FB4F0190F081E02DEE0FFF1F80
S1131BB0E75EFB4FC081D181A558BB4F20E030E0E8
S1131BC081E090E0ED91FD91EE0FFF1FE75EFB4F8A
S1131BD0408151814C175D0714F49C01EA01019680
S1131BE08430910579F7FB01EE0FFF1FEE0FFF1F05
S1131BF0E20FF31FEE0FFF1FE758FB4F8081918127
S1131C00B2DFDF91CF9108952F923F924F925F926E
S1131C106F927F928F929F92AF92BF92CF92DF92F8
S1131C20EF92FF920F931F93CF93DF930E94720260
S1131C3005DD109205011092E60381EC93E00E9409
S1131C4035018091E6038823E1F30E9466028CEC5F
S1131C5093E00E9435018FEF809305018091EC039E
S1131C608823E9F0C0E0D0E0FE01ED5FFB4F408146
S1131C7050E022E030E061E082E00E946E012FEF4C
S1131C803FEF8CE2215030408040E1F700C000007B
S1131C9021968091EC0390E0C817D9072CF30E9499
S1131CA06602C0ECD0E00F2EF6ECAF2EB12CF02D76
S1131CB06894662462F8512C412C77247394312C57
S1131CC00F2EF6E02F2EF02DEDC12091E903809127
S1131CD0E2039091E30330E02817390709F0A0C02C
S1131CE0E091EA03F0E0ED5FFB4F808190E0019723
S1131CF09C01220F331F820F931F880F991F880F97
S1131D00991F845F9D4FF4DCE0910902F0910A026F
S1131D10EE0FFF1FE95EFB4F808191814091E70345
S1131D20E0910B02F0E0EE0FFF1FE75EFB4F208116
S1131D303181240F311D2817390764F59091EA0386
S1131D40888185FFFDCF83E0F5018083292F2068FA
S1131D50888185FFFDCFF501208390930B02E091EC
S1131D600B02F0E0EE0FFF1FE75EFB4F90818881CE
S1131D7085FFFDCF88E0F50180839068888185FF29
S1131D80FDCFF501908380910B0290E0ECDE80930F
S1131D900B0232C0E091E903F0E09091EA03E351D1
S1131DA0FC4F90839091E803890F8093E80380911E
S1131DB0E9038F5F8093E9039091EA03888185FFAB
S1131DC0FDCF89E0F50180839068888185FFFDCF90
S1131DD0F50190838091090290910A02C4DE9881F2
S1131DE095FFFDCF99E0F5019083982F9068888145
S1131DF085FFFDCFF50190839091EA03888185FFEB
S1131E00FDCF27E0F50120839068888185FFFDCF11
S1131E10F50190838091EA038F5F8093EA0342C1C6
S1131E20FC01E351FC4FE081F0E0ED5FFB4F80816A
S1131E3090E001979C01220F331F820F931F880F9C
S1131E40991F880F991F845F9D4F52DCE091E20334
S1131E50F091E303E351FC4FE081F0E0ED5FFB4FD1
S1131E60408150E022E030E06CE082E00E946E01AC
S1131E704091090250910A02FA01EE0FFF1FE95E38
S1131E80FB4F80819181892B09F4DBC022E030E093
S1131E9065E082E00E946E01E0910902F0910A027D
S1131EA03197EE0FFF1FEE0FFF1FEE0FFF1FDF0135
S1131EB0A758BB4FCD90DC90D601AA0FBB1FA75EDD
S1131EC0BB4F4D915C91E558FB4FE52CF42C872DCD
S1131ED0932D219131912115310569F0D901AA0F72
S1131EE0BB1FA75EBB4F6D917C91641775071CF4F3
S1131EF07C016901AB0101968430910551F74701DA
S1131F00860122E030E0A60168E082E00E946E01D2
S1131F108091070290E008171907D1F3888185FFA3
S1131F20FDCF85E0F50180830068888185FFFDCFC2
S1131F30F5010083C40116DD892B09F054C0A0917A
S1131F400902B0910A02119720E030E0AA0FBB1FEA
S1131F50AA0FBB1FAE0DBF1DAA0FBB1FA758BB4FB7
S1131F608D919C9111970197FC01EE0FFF1FEE0FCD
S1131F70FF1FE20FF31FEE0FFF1FE758FB4F4081D7
S1131F8051814C155D0569F4FC01EE0FFF1FEE0F46
S1131F90FF1FE20FF31FEE0FFF1FE758FB4F1182E5
S1131FA010822F5F3F4F24303105D1F68091090212
S1131FB090910A020197FC01EE0FFF1FEE0FFF1F25
S1131FC0EE0DFF1DEE0FFF1FE758FB4F118210822D
S1131FD0880F991FFC01E75EFB4F80819181892B5B
S1131FE009F060C02EC0E0910902F0910A02319715
S1131FF0EE0FFF1FEE0FFF1FE80DF91DEE0FFF1F81
S1132000E758FB4F908181819093090280930A02E3
S1132010888185FFFDCFF50160829068888185FF06
S1132020FDCFF50190834091090250910A02FA0113
S1132030EE0FFF1FE95EFB4F80819181892B09F030
S113204025CFE091E203F091E303E351FC4F90814B
S11320508091EB039813FBCF8ED9FFEF2FE736E186
S1132060F15020403040E1F700C0000088D9809151
S1132070E2039091E30301969093E3038093E203D8
S11320809091EB03888185FFFDCFF5012082906854
S1132090888185FFFDCFF50190838091EB038F5FED
S11320A08093EB03E091EB03F0E0ED5FFB4F808165
S11320B081110BCEE0ECF0E0808185FFFDCF8AE05A
S11320C08093C600E0ECF0E0808185FFFDCF80E8DE
S11320D08093C6008091E4039091E50381309105DB
S11320E0E9F749D9FFEF2FEF30EE80E0F1502040BF
S11320F030408040D9F700C0000041D980E090E032
S1132100DF91CF911F910F91FF90EF90DF90CF90CF
S1132110BF90AF909F908F907F906F905F904F9003
S11321203F902F9008950CD0E6C0DED040F0D5D07B
S113213030F021F45F3F19F0C7C0511110C1CAC07B
S1132140EBD098F39923C9F35523B1F3951B550BA1
S1132150BB27AA2762177307840738F09F5F5F4F76
S1132160220F331F441FAA1FA9F333D00E2E3AF0B7
S1132170E0E830D091505040E695001CCAF729D0D1
S1132180FE2F27D0660F771F881FBB1F2617370720
S11321904807AB07B0E809F0BB0B802DBF01FF2750
S11321A093585F4F2AF09E3F510568F08DC0D7C009
S11321B05F3FECF3983EDCF3869577956795B7958A
S11321C0F7959F5FC9F7880F911D9695879597F9A5
S11321D00895E1E0660F771F881FBB1F621773071E
S11321E08407BA0720F0621B730B840BBA0BEE1F33
S11321F088F7E095089598D088F09F5790F0B92F0C
S11322009927B751A0F0D1F0660F771F881F991F47
S11322101AF0BA95C9F712C0B13081F09FD0B1E07D
S113222008959CC0672F782F8827B85F39F0B93F8D
S1132230CCF3869577956795B395D9F73EF4909549
S11322408095709561957F4F8F4F9F4F0895E894C7
S113225009C097FB3EF490958095709561957F4FEA
S11322608F4F9F4F9923A9F0F92F96E9BB27939598
S1132270F695879577956795B795F111F8CFFAF4A8
S1132280BB0F11F460FF1BC06F5F7F4F8F4F9F4FD9
S113229016C0882311F096E911C0772321F09EE837
S11322A0872F762F05C0662371F096E8862F70E09D
S11322B060E02AF09A95660F771F881FDAF7880F77
S11322C09695879597F9089597F99F6780E870E048
S11322D060E008959FEF80EC089500240A94161698
S11322E0170618060906089500240A941216130600
S11322F0140605060895092E0394000C11F488238E
S113230052F0BB0F40F4BF2B11F460FF04C06F5FA9
S11323107F4F8F4F9F4F089557FD9058440F551F7F
S113232059F05F3F71F04795880F97FB991F61F053
S11323309F3F79F087950895121613061406551FCA
S1132340F2CF4695F1DF08C0161617061806991F36
S1132350F1CF86957105610508940895E894BB272B
S113236066277727CB0197F9089503D008F48FEFF8
S11323700895990F0008550FAA0BE0E8FEEF161612
S11323801706E807F907C0F012161306E407F50765
S113239098F0621B730B840B950B39F40A2661F0D9
S11323A0232B242B252B21F408950A2609F4A1407C
S11323B0A6958FEF811D811D0895EE0FFF1F881FC5
S11323C08BBF0790F691E02D1994A29FB001B39FA3
S11323D0C001A39F700D811D1124911DB29F700D2A
S10F23E0811D1124911D0895F894FFCF75
S11323EC82005A004600FF01010D000101000000AB
S11323FC00000000000000000200000000000000CB
S113240C00000000030000000000000000000000B9
S113241C04000000000000000000000005000000A3
S113242C0000000000000000060000000000000096
S113243C0000000007000000000000000000000085
S113244C080000000000000000000000090000006B
S113245C00000000000000000A0000000000000062
S113246C000000000B000000000000000000000051
S113247C0C00000000000000000000000D00000033
S113248C00000000000000000E000000000000002E
S113249C000000000F00000000000000000000001D
S11324AC10000000000000000000000011000000FB
S11324BC00000000000000001200000000000000FA
S11324CC00000000130000000000000000000000E9
S11324DC14000000000000000000000015000000C3
S11324EC00000000000000001600000000000000C6
S11324FC00000000170000000000000000000000B5
S113250C180000000000000000000000010023007F
S113251C000000000000000019001A002300240031
S113252C2B002C0005001A00000000000000000025
S113253C09001B0000000000000000001B001C0030
S113254C1D001E002D002E000D001E0000000000BA
S113255C0000000011001F0000000000000000003B
S113256C1F002000210022002F0030001500220043
S113257C000000000000000020202020202020204B
S113258C202020202020202020202020202020203B
S113259C202020202020202020202020202020202B
S11325AC0057616974696E672E2E2E00526563653F
S10925BC6976656421004C
S9030000FC
