S00D00005461736B352E737265634F
S11300007BC000009AC0000098C0000096C00000A9
S113001094C000000C949C0A0C94770A8EC00000D3
S11300208CC000008AC0000088C0000086C00000A8
S113003084C0000082C0000080C000007EC00000B8
S11300407CC000007AC0000078C0000076C00000C8
S113005074C0000072C0000070C000006EC00000D8
S11300606CC000000C943E0968C0000066C000002B
S113007064C0000062C0000060C000005EC00000F8
S11300805CC000005AC0000058C0000056C0000008
S113009054C0000052C0000050C000004EC0000018
S11300A04CC000004AC0000048C0000046C0000028
S11300B044C0000042C0000040C000003EC0000038
S11300C03CC000003AC0000038C0000036C0000048
S11300D034C0000032C0000030C000002EC0000058
S11300E02CC000006409B1097409800983098609D8
S11300F090099A09A009A30911241FBECFEFD1E2E8
S1130100DEBFCDBF00E00CBF15E0A0E0B2E0ECED37
S1130110FCE200E00BBF02C007900D92A83DB107BE
S1130120D9F729E0A8EDB5E001C01D92AF38B207B8
S1130130E1F70E94440E0C946C1662CFE0EDF0E0FF
S1130140908195FFFDCF8093D600089587B1876F86
S113015087B988B1807888B9089586E69EE00197CA
S1130160F1F700004098419880E388B9429AEFEF94
S1130170F7E43197F1F700C000004298E6E6FEE0AC
S11301803197F1F700004098419888B9429AEFEF0F
S1130190F7E43197F1F700C000004298E6E6FEE08C
S11301A03197F1F700004098419888B9429A8FEF4F
S11301B097E40197F1F700C000004298E6E6FEE0FC
S11301C03197F1F700004098419880E288B9429A4B
S11301D08FEF97E40197F1F700C00000429808956B
S11301E098B19F7098B998B1282F207F922B98B915
S11301F040984198429AEFEFF7E43197F1F700C045
S11302000000429898B19F7098B998B18295807F08
S1130210892B88B940984198429A8FEF97E40197C7
S1130220F1F700C000004298089598B19F7098B902
S113023098B1282F207F922B98B9409A4198429ADE
S1130240EFEFF7E43197F1F700C00000429898B15E
S11302509F7098B998B18295807F892B88B9409A0C
S11302604198429A8FEF97E40197F1F700C000009C
S11302704298089580E8B4CF0895CF93DF93EC01BA
S11302808881882329F02196D0DF89918111FCCFC0
S1130290DF91CF91089586E69EE00197F1F7000083
S11302A088E29EDF81E09CDF86E09ADF8EE098DFC3
S11302B080E896CF0895823069F018F4813031F0E7
S11302C00895833059F0843069F008958FE7860FDC
S11302D087CF08958FEB860F83CF089583E9860F28
S11302E07FCF089583ED860F7BCF08950F931F93DF
S11302F0CF93DF938A01E901882311F0611102C0D1
S1130300B9DF01C0D8DFC530D105C1F498013295F9
S113031022952F7023273F702327A7E4B3E00E9480
S11303208013969587959695879596958795C0960B
S113033090931B0680931A0678DF04C0C430D1055D
S113034009F0BEC0980136952795369527953695C0
S11303502795A5ECB0E20E948013AC01529542951A
S11303604F7045275F7045275093FD074093FC0766
S11303709A01ADECBCEC0E948013969587959695F6
S11303808795969587959C01220F331F880F991F97
S1130390880F991F880F991F820F931F9A01281B9A
S11303A0390BC901C09690938609809385093DDF76
S11303B098013695279536952795ABE7B4E10E94C9
S11303C08013AC01569547955093FD074093FC0765
S11303D09A01ADECBCEC0E94801396958795969596
S11303E08795969587959C01220F331F880F991F37
S11303F0880F991F880F991F820F931F9A01281B3A
S1130400390BC901C09690938209809381090DDF4D
S113041004C0C230D10509F058C09801ADECBCEC61
S11304200E948013AC01569547955695479556956D
S113043047955093FD074093FC079A010E9480134F
S11304409695879596958795969587959C01220F05
S1130450331F880F991F880F991F880F991F820FC8
S1130460931F9A01281B390BC901C0969093000869
S11304708093FF07DADE9801ADECBCEC0E94801398
S11304809695879596958795969587959C01220FC5
S1130490331F880F991F880F991F880F991F820F88
S11304A0931F9801281B390BC901C09690938409A6
S11304B080938309BADE269764F085E4B6DE09C02A
S11304C0C330D10509F0A5CF73CFC130D10599F759
S11304D0D2CFDF91CF911F910F91089580E880DEF4
S11304E082E395E0CADE80EC7BDE82E395E0C5DE44
S11304F0C1CE08952F923F924F925F926F927F9256
S11305008F929F92AF92BF92CF92DF92EF92FF921F
S11305100F931F93CF93DF93E1E0F8E00F2EFBE4FA
S1130520AF2EB12CF02DB182A0820F2EFDE14F2E03
S113053055245394F02D538242828FEF9FEF95837D
S1130540848397838683CC24CA94D12CD186C08695
S1130550ACE3B0E0B387A2879587848797878687C3
S113056020EF30E0318B208B0F2EFDE22F2E312C2B
S1130570F02D338A228A158A148A6CE271E0778B13
S1130580668B0F2EF1EE8F2E912CF02D918E808E96
S11305900EE110E0138F028F958F848F978F868FD3
S11305A042ED50E051A340A3CFE0D0E0D3A3C2A3D7
S11305B095A384A397A386A303EC10E011A700A737
S11305C013A612A695A784A797A786A744EB50E085
S11305D051AB40AB09E511E013AB02AB35AB24AB37
S11305E077AB66AB05EA10E011AF00AF0AE411E0A7
S11305F013AF02AF95AF84AF9093400880933F0848
S1130600E6E9F0E0F0934208E09341080BE311E0DF
S11306101093440800934308909346088093450838
S113062090934808809347080F2EF7E86F2E712C9B
S1130630F02D70924A086092490870934C086093B8
S11306404B0890934E0880934D08909350088093E4
S11306504F08E8E7F0E0F0935208E0935108509215
S113066054084092530850935608409355083093C9
S11306705808209357080F2EF9E6EF2EF12CF02D91
S1130680F0925A08E09259080EE011E010935C08C9
S113069000935B0890935E0880935D0890936008D4
S11306A080935F080AE510E01093620800936108E4
S11306B0D0926408C092630890936608809365089A
S11306C09093680880936708B0926A08A0926908BA
S11306D030936C0820936B0890936E0880936D0898
S11306E09093700880936F08B0937208A093710878
S11306F09092740880927308F0937608E0937508DA
S1130700509378084093770830927A0820927908B9
S11307100F2EF2EDCF2ED12CF02DD0927C08C0926A
S11307207B0890937E0880937D0890938008809343
S11307307F080F2EFEE1CF2ED12CF02DD09282080F
S1130740C09281080F2EF3ECCF2ED12CF02DD09235
S11307508408C092830890938608809385089093B8
S1130760880880938708D0938A08C0938908509397
S11307708C0840938B0890938E0880938D089093F7
S1130780900880938F0810929208109291080F2E6F
S1130790F5EACF2ED12CF02DD0929408C092930874
S11307A0B0939608A0939508F0939808E09397085F
S11307B00F2EF9E5CF2EDD24D394F02DD0929A0894
S11307C0C09299080F2EF6E9CF2ED12CF02DD0929D
S11307D09C08C0929B0890939E0880939D089093D8
S11307E0A00880939F080F2EFAE4CF2EDD24D39423
S11307F0F02DD092A208C092A1087092A408609231
S1130800A3089093A6088093A5089093A8088093C2
S1130810A7080F2EFBE3CF2EDD24D394F02DD09226
S1130820AA08C092A908F093AC08E093AB0890938F
S1130830AE088093AD089093B0088093AF0870938E
S1130840B2086093B108F092B408E092B308109231
S1130850B6081092B508B093B808A093B7081093DF
S1130860BA080093B9085092BC084092BB08909310
S1130870BE088093BD089093C0088093BF0850932E
S1130880C2084093C1081092C4081092C308309360
S1130890C6082093C5089093C8088093C70850934E
S11308A0CA084093C9081092CC081092CB08B093A0
S11308B0CE08A093CD087093D0086093CF085093CE
S11308C0D2084093D1081092D4081092D308F09320
S11308D0D608E093D5083093D8082093D70810920F
S11308E0DA081092D9085093DC084093DB0870931F
S11308F0DE086093DD089093E0088093DF08B093EE
S1130900E208A093E108F093E408E093E30830934D
S1130910E6082093E5089093E8088093E708B093ED
S1130920EA08A093E9083093EC082093EB0870934D
S1130930EE086093ED085093F0084093EF08B093ED
S1130940F208A093F1083093F4082093F30810926E
S1130950F6081092F508F093F808E093F70830933E
S1130960FA082093F908B093FC08A093FB0850936D
S1130970FE084093FD08909300098093FF0870934C
S11309800209609301091092040910920309F0937B
S11309900609E09305099093080980930709709369
S11309A00A0960930909F0930C09E0930B09509329
S11309B00E0940930D09B0931009A0930F09709389
S11309C0120960931109F0931409E0931309309309
S11309D01609209315091092180910921709F0931B
S11309E01A09E0931909B0931C09A0931B09709389
S11309F01E0960931D099093200980931F09B093E9
S1130A002209A09321093093240920932309909368
S1130A102609809325099093280980932709F09348
S1130A202A09E093290970932C0960932B09909368
S1130A302E0980932D099093300980932F09709388
S1130A40320960933109F0933409E09333099093A8
S1130A5036098093350990933809809337091092A9
S1130A603A091092390950933C0940933B099093F9
S1130A703E0980933D099093400980933F09509328
S1130A8042094093410910924409109243099093FA
S1130A904609809345099093480980934709309308
S1130AA04A0920934909B0934C09A0934B099093A8
S1130AB04E0980934D099093500980934F095093A8
S1130AC0520940935109B0935409A0935309909348
S1130AD05609809355099093580980935709F093C8
S1130AE05A09E093590930935C0920935B09909368
S1130AF05E0980935D099093600980935F09B093C8
S1130B006209A093610970936409609363099093E7
S1130B106609809365099093680980936709109228
S1130B206A0910926909F0936C09E0936B09909338
S1130B306E0980936D099093700980936F09709387
S1130B4072096093710950937409409373099093E7
S1130B507609809375099093780980937709309387
S1130B607A092093790910927C0910927B09909359
S1130B707E0980937D099093800980937F09ECE737
S1130B80F6E082E090E09183808328E130E03383D3
S1130B902283158214821782168221E030E0318785
S1130BA0208723E030E03387228715861486178652
S1130BB01686918B808B84E090E0938B828B49E145
S1130BC050E0558B448B44E250E0578B468B318F79
S1130BD0208F25E030E0338F228F158E148E178EF0
S1130BE0168E91A380A386E090E093A382A315A21E
S1130BF014A217A216A231A720A727E030E033A73A
S1130C0022A715A614A617A616A691AB80AB88E05A
S1130C1090E093AB82AB45E250E055AB44AB46E287
S1130C2050E057AB46AB31AF20AF29E030E033AFF3
S1130C3022AF15AE14AE1092BB061092BA06909372
S1130C40BD068093BC068AE090E09093BF06809333
S1130C50BE061092C1061092C0061092C3061092EE
S1130C60C2063093C5062093C4062BE030E03093CF
S1130C70C7062093C6061092C9061092C8061092A1
S1130C80CB061092CA069093CD068093CC068CE0D6
S1130C9090E09093CF068093CE064CE150E05093C1
S1130CA0D1064093D0064DE150E05093D3064093D3
S1130CB0D2063093D5062093D4062DE030E030934D
S1130CC0D7062093D6061092D9061092D806109211
S1130CD0DB061092DA069093DD068093DC068EE044
S1130CE090E09093DF068093DE061092E106109266
S1130CF0E0061092E3061092E2063093E506209394
S1130D00E406D093E706C093E6061092E906109233
S1130D10E8061092EB061092EA069093ED06809393
S1130D20EC0620E130E03093EF062093EE0687E2F4
S1130D3090E09093F1068093F00688E290E090931F
S1130D40F3068093F206D093F506C093F40681E18E
S1130D5090E09093F7068093F6061092F9061092AD
S1130D60F8061092FB061092FA063093FD062093C3
S1130D70FC0622E130E03093FF062093FE06109239
S1130D800107109200071092030710920207909334
S1130D9005078093040783E190E09093070780930D
S1130DA00607109209071092080710920B07109279
S1130DB00A0730930D0720930C0724E130E03093A9
S1130DC00F0720930E0740E250E050931107409321
S1130DD0100741E250E05093130740931207909399
S1130DE015078093140785E190E09093170780938B
S1130DF01607109219071092180710921B071092E9
S1130E001A0730931D0720931C0726E130E0309326
S1130E101F0720931E07109221071092200710929B
S1130E20230710922207909325078093240787E1D4
S1130E3090E0909327078093260710922907109239
S1130E40280710922B0710922A0786E190E09093CE
S1130E502D0780932C0788E190E090932F078093CF
S1130E602E07C9E2D0E0D0933107C09330070F2E8C
S1130E70FAE2AF2EB12CF02DB0923307A0923207D4
S1130E8081E090E09093350780933407E7E1F0E048
S1130E90F0933707E093360710923907109238071A
S1130EA010923B0710923A070F2EF3E08F2E912CED
S1130EB0F02D90923D0780923C076AE170E07093B8
S1130EC03F0760933E07A4E2B0E0B0934107A093CC
S1130ED0400710924307109242070F2EF9E16F2E3C
S1130EE0712CF02D70924507609244074BE150E05D
S1130EF0509347074093460785E290E09093490753
S1130F00809348070F2EFCE24F2E512CF02D509267
S1130F104B0740924A0770934D0760934C072CE1AE
S1130F2030E030934F0720934E0786E290E0909391
S1130F305107809350070DE210E01093530700937C
S1130F4052070BE010E01093550700935407509399
S1130F505707409356078DE190E09093590780938B
S1130F60580710925B0710925A0710935D0700937D
S1130F705C0730935F0720935E072EE130E03093E7
S1130F8061072093600710926307109262079093A1
S1130F906507809364078FE190E0909367078093DF
S1130FA0660707E210E010936907009368070F2EA5
S1130FB0FEE22F2E312CF02D30926B0720926A071F
S1130FC030936D0720936C076894EE24E5F8F12CB8
S1130FD0F0926F07E0926E0708E210E01093710739
S1130FE0009370070F2EFFE2CF2ED12CF02DD0925C
S1130FF07307C09272070F2EF3E1CF2ED12CF02D80
S1131000D0927507C0927407909377078093760700
S113101001E210E0109379070093780710927B07A0
S113102010927A07D0927D07C0927C07F0927F07D6
S1131030E0927E070F2EF2E2EF2EF12CF02DF092CB
S11310408107E09280071092830710928207109321
S113105085070093840703E210E010938707009349
S11310608607D0938907C0938807C0E3D0E0D09364
S11310708B07C0938A07F0928D07E0928C07B09398
S11310808F07A0938E07B0929107A0929007ABE2CE
S1131090B0E0B0939307A093920790929507809243
S11310A0940770929707609296071093990700939C
S11310B0980710929B0710929A070F2EF7E0CF2EF5
S11310C0D12CF02DD0929D07C0929C0770939F075E
S11310D060939E071092A1071092A0071092A30795
S11310E01092A207D092A507C092A4075093A70715
S11310F04093A6071092A9071092A8071092AB0775
S11311001092AA070F2EFFE0CF2ED12CF02DD092F3
S1131110AD07C092AC073093AF072093AE0710928F
S1131120B1071092B0071092B3071092B207D09291
S1131130B507C092B4079093B7078093B60710928F
S1131140B9071092B8071092BB071092BA07F09330
S1131150BD07E093BC07F092BF07E092BE07109270
S1131160C1071092C0071092C3071092C207F093F0
S1131170C507E093C4071093C7070093C6071092EE
S1131180C9071092C8071092CB071092CA07109390
S1131190CD070093CC075092CF074092CE07109210
S11311A0D1071092D0071092D3071092D2077093F0
S11311B0D5076093D407B093D707A093D6071092AE
S11311C0D9071092D8071092DB071092DA075093D0
S11311D0DD074093DC073092DF072092DE07109290
S11311E0E1071092E0071092E3071092E2073093B0
S11311F0E5072093E4070DE210E01093E70700935E
S1131200E6071092E9071092E8071092EB07109294
S1131210EA079093ED078093EC07D093EF07C09310
S1131220EE071092F1071092F0071092F307109254
S1131230F207F092F507E092F4072FE230E03093E2
S1131240F7072093F6071092F9071092F807109207
S1131250FB071092FA07DF91CF911F910F91FF9036
S1131260EF90DF90CF90BF90AF909F908F907F9042
S11312706F905F904F903F902F9008951F920F9220
S11312800FB60F9211240BB60F924F935F936F9387
S11312907F938F939F93EF93FF938091C60088234E
S11312A00CF058C0982F9F77E09114024E2F50E015
S11312B0FA013197EA30F10508F053C08827EE5857
S11312C0FF4F8F4F0C947813E091EF05F0E0EA5F45
S11312D0F94F90838091EF058F5F8093EF058091A4
S11312E0EF05809305013DC0E091EC05F0E0E0518D
S11312F0FA4F90838091EC058F5F8093EC0531C0A9
S1131300909316022EC0909315022BC08091EE0587
S1131310891327C08091EE058F5F8093EE0521C06D
S11313208091ED0589131DC08091ED058F5F809339
S1131330ED0517C08091EB05890F8093EB0511C073
S1131340909319020EC081E090E09093E905809398
S1131350E80507C080931402823019F481E0809379
S1131360EA05FF91EF919F918F917F916F915F912A
S11313704F910F900BBE0F900FBE0F901F901895BA
S1131380259A2D9A0895E1E8F0E010828CEF80937D
S1131390850081E08093840093E0909389008FEF2F
S11313A08093880090938700809386008BEA8093D3
S11313B08000109282008CE0808308953B9A4398C9
S11313C0089586B1886088B9089586B1877F88B901
S11313D0089510BA11BA10920701109208010895E5
S11313E081B18F6081B982B1807F82B9EAE0F1E096
S11313F0808188618083EBE0F1E080818861808373
S113140008956C98749A08956D98759A0895E8DF14
S1131410F8DFFADF0E94A600DCDFD0CF0895E1E216
S1131420F1E010828FEF8093250191E090932401E5
S1131430109229018093280110922B0180932A0194
S113144010922D0180932C0189EA809320018BE076
S113145080830895EAE7F0E0108210927B0080E236
S113146080937C0080E880BF86E88083089588307C
S113147018F098E090937B008770806280937C00E2
S1131480EAE7F0E0808180648083808184FFFDCF7F
S113149080917900EAE7F0E0908190619083109266
S11314A07B000895CF93DF93C82FD62F842FDFDFDF
S11314B08093FE07482F50E023E030E06D2F8C2FFF
S11314C00E947601DF91CF910895F894EAE6F0E066
S11314D0808182608083EC9A78940895F894EAE697
S11314E0F0E0808188608083ED9A789408951F925B
S11314F00F920FB60F9211248F939F93AF93BF93C4
S11315008091DC059091DD05A091DE05B091DF05A9
S11315100196A11DB11D8093DC059093DD05A09378
S1131520DE05B093DF05BF91AF919F918F910F902E
S11315300FBE0F901F9018951F920F920FB60F9227
S113154011248F939F93AF93BF938091E005909163
S1131550E105A091E205B091E3050196A11DB11D3D
S11315608093E0059093E105A093E205B093E30531
S1131570BF91AF919F918F910F900FBE0F901F90CD
S1131580189592B1907F8F70982B92B9089586E048
S1131590F8CF089585E0F5CF08958AE0F2CF089555
S11315A080E0EFCF0895CF92DF92EF92FF920F93F6
S11315B01F93BC0180E090E0E5D728E431EE42E8D7
S11315C050E44CD7B3D7AB0160E070E01092DC0577
S11315D01092DD051092DE051092DF051092E005F1
S11315E01092E1051092E2051092E30591E0E0E02B
S11315F0C090DC05D090DD05E090DE05F090DF05BD
S11316000091E0051091E1052091E2053091E30598
S1131610892F041715072607370708F48E2F811121
S113162009C0892FC416D506E606F70608F48E2FDE
S11316308823F1F2B5DF1F910F91FF90EF90DF90B7
S1131640CF900895CF93DF93EC01A4DF9FEF9093A5
S1131650280190932A01CE01A6DFDF91CF9108954E
S1131660CF93DF93EC0199DF9FEF90932801909340
S11316702A01CE0198DFDF91CF9108958FEF8093F7
S11316800401109205010895F894C1DEE1ECF0E044
S113169010821092C00026E02093C2009FE5909330
S11316A0C4001092C50088E98083E1EDF0E0108267
S11316B01092D0002093D2009093D4001092D500C1
S11316C0808303DF0BDFC6DEAADE0E94AD000E942A
S11316D04B0156DE58DED2DF78940895BC0180E0D9
S11316E090E050D725EE30ED4AEA50E4B7D61ED745
S11316F0AB01BC011092DC051092DD051092DE05F1
S11317001092DF058091DC059091DD05A091DE0546
S1131710B091DF05481759076A077B0798F740CF50
S11317200895CF93DF93EC0132DF90910E029093F2
S1131730280190932A01CE01D1DFDF91CF91089542
S11317404F925F926F927F928F929F92AF92BF92CD
S1131750CF92DF92EF92FF920F931F93CF93DF9379
S1131760CDB7DEB7C05CD1090FB6F894DEBF0FBEAB
S1131770CDBFDE01AF59BF4F20E6FD0111922A957E
S1131780E9F7ECE1F6E08E010F5F1F4F78016D0180
S11317900CE716E0970163E670E04FEF5FEF6193AB
S11317A07193D9014D935D939D01D6011D921D92B4
S11317B06D01E017F10799F7FC01AC01445F5F4F3D
S11317C08FEF9FEF61E070E02081318121153105B9
S11317D009F1220F331FD901A65EB94F1D921C9245
S11317E0019620813181DC01AA0FBB1F01E010E0CA
S11317F00C0F1D1FA00FB11F2D933C93D9011197FE
S1131800AA0FBB1F21E630E02C0F3D1FA20FB31F10
S11318106D937C933296E417F507B1F6AE2C9F2CAA
S1131820812C712C6894BB24B2F8612CCC24C39411
S1131830D12CA981BA81119799236CF0EA2DF92D45
S1131840282D372D2F5F3F4F428153814193519370
S113185082179307BCF70197FD01EE0FFF1FEE0FF0
S1131860FF1FEE0FFF1FE458F94F2B2D362DAA0F43
S1131870BB1FAD01445E594F2A01619171916115FD
S11318807105D1F1D2010D911C910F5F1F4FAB0176
S1131890415051097A01EE0CFF1CD701A45EB94FE7
S11318A0ED90FC90E016F10644F07A01EE0CFF1C7A
S11318B0D701A45EB94F0D931C938A01000F111F29
S11318C0A1E6B0E0AC0FBD1F0A0F1B1FD8010D919C
S11318D01C9111970130110579F0CD92DC9201969B
S11318E0AC01440F551F01E010E00C0F1D1F400F09
S11318F0511FDA016D937C932150310909F0BDCF5A
S113190029813A812F3F3F4F09F093CF8F3FEFEF6B
S11319109E0709F08ECFC054DF4F0FB6F894DEBF98
S11319200FBECDBFDF91CF911F910F91FF90EF902C
S1131930DF90CF90BF90AF909F908F907F906F90EB
S11319405F904F9008959923BCF422EE3FEFA901D4
S1131950481B590BCA0184DE5FEF8FEF98E05150AA
S113196080409040E1F700C0000011DE82E38093E4
S1131970280110922A0111C04E9764DE2FEF4FEF19
S113198058E0215040405040E1F700C00000FFDD26
S11319901092280182E380932A0183E068DD80931A
S11319A0DB0582E064DD8093DA0581E060DD80930D
S11319B0D90542E065E081E075DD209112023091A5
S11319C013028091DA0590E02817390764F08091BA
S11319D0DB0590E02817390734F08091D90590E0B1
S11319E028173907D4F6DCCD0895EF92FF920F93B0
S11319F01F93CF93DF93EC011092280110922A01D8
S1131A00E0911702F09118023197EE0FFF1FEE0FCD
S1131A10FF1FE80FF91FEE0FFF1FEF5FF74F008165
S1131A2011818091100290911102081B190BB801C9
S1131A30012E000C880B990BA7D59F7720E030E08E
S1131A4044E352E42DD618162CF486E490E069DEC3
S1131A50C80179DF80911702909118020197880FCD
S1131A60991F880F991FC80FD91FCC0FDD1FCF5F97
S1131A70D74F88819981909311028093100220910D
S1131A80E6053091E7052130310579F5E091EE0561
S1131A90F0E0EA5FF94FE081F0E0EE0FFF1FEE0F98
S1131AA0FF1FE25EFC4F208131818217930731F4DE
S1131AB01092890083E28093880005C01092890007
S1131AC083E8809388002FEF8FE79DE021508040CA
S1131AD09040E1F700C000001092890083E58093F4
S1131AE088001092E7051092E60551DD1092DC059E
S1131AF01092DD051092DE051092DF050F2EFEE038
S1131B00EF2EF2E0FF2EF02D08E211E0CAE2D1E060
S1131B1083E0ADDC8093DB0582E0A9DC8093DA0509
S1131B2081E0A5DC8093D90586E0A1DC8093D8050B
S1131B304091DB0550E023E030E061E081E00E9469
S1131B4076014091DA0550E023E030E065E081E081
S1131B500E9476014091D90550E023E030E069E02D
S1131B6081E00E9476014091D80550E023E030E006
S1131B706CE081E00E947601809112029091130240
S1131B802091DA0530E0821793076CF42091DB058D
S1131B9030E08217930794F12091D90530E0821741
S1131BA09307CCF145C02091DB0530E08217930701
S1131BB00CF04DC0ECDC23E030E041E050E061E0AB
S1131BC082E00E947601F7018081F8011082888307
S1131BD09FCFDDDC23E030E042E050E061E082E0D2
S1131BE00E947601F7018081F8018083188290CFEA
S1131BF0F7018081F801808388838ACF8091DC0596
S1131C009091DD05A091DE05B091DF054597A10512
S1131C10B10580F223C08091DC059091DD05A0918F
S1131C20DE05B091DF054597A105B10590F216C018
S1131C30AEDCF7018081F8018083888323E030E003
S1131C4040E050E061E082E00E94760161CF2091A3
S1131C50D90530E0821793075CF6BBCF98DC10926D
S1131C60280110922A0123E030E044E650E061E0CC
S1131C7082E00E94760181E090E0DF91CF911F9194
S1131C800F91FF90EF9008952F923F924F925F92A1
S1131C906F927F928F929F92AF92BF92CF92DF9278
S1131CA0EF92FF920F931F93CF93DF9300D0CDB7A2
S1131CB0DEB70E947A02E8DC1092890083E5809303
S1131CC08800109205011092EA058BE595E00E94C8
S1131CD03D018091EA058823E1F30E946E0286E6C5
S1131CE095E00E943D018FEF809305018091EC0502
S1131CF08823E1F380E092E090938C0980938B0930
S1131D008091EF058823F1F000E010E0F801EA5F2C
S1131D10F94F408150E022E030E061E082E00E942F
S1131D2076012FEF3FEF8CE2215030408040E1F705
S1131D3000C000000F5F1F4F8091EF0590E008176F
S1131D40190724F30E946E020F2EF6EC6F2E712CED
S1131D50F02D1982A12C91E09A831B82312C4A2CFC
S1131D6055245394B12C2A2C9B2C22C3FC01E05102
S1131D70FA4FE081F0E0EA5FF94F80811F928F9380
S1131D80A0E7B5E0BF93AF93CAD4E091E405F09126
S1131D90E505E051FA4FE081F0E0EA5FF94F808118
S1131DA090E001979C01220F331F820F931F880F2D
S1131DB0991F880F991F8A559C4FC2DCE091E40556
S1131DC0F091E505E051FA4FE081F0E0EA5FF94F68
S1131DD0408150E022E030E06CE082E00E94760135
S1131DE0E0911702F0911802A091E405B091E50585
S1131DF0A051BA4F8C91EE0FFF1FE65EF94F91810F
S1131E009F9390819F931F928F93A7E8B5E0BF9310
S1131E10AF9385D4E0911702F0911802EE0FFF1FE3
S1131E20E65EF94F0FB6F894DEBF0FBECDBF8081DA
S1131E309181892B09F442C14091170250911802F3
S1131E4022E030E065E082E00E947601E091170232
S1131E50F0911802EE0FFF1FEE0FFF1FEE0FFF1F92
S1131E60EC58F94F0190F081E02DEE0FFF1FE65E74
S1131E70F94F20813181E0911702F0911802EE0FA1
S1131E80FF1FEE0FFF1FEE0FFF1FEC58F94FA0804E
S1131E90B180E32CF42C852D992DE0911702F0915B
S1131EA018023197EE0FFF1FEE0FFF1FE80FF91F07
S1131EB0EE0FFF1FE458F94F40815181452B09F47F
S1131EC045C0E0911702F09118023197EE0FFF1F01
S1131ED0EE0FFF1FE80FF91FEE0FFF1FE458F94F35
S1131EE00190F081E02DEE0FFF1FE65EF94F408177
S1131EF051814217530754F5E0911702F0911802EB
S1131F003197EE0FFF1FEE0FFF1FE80FF91FEE0FC3
S1131F10FF1FE458F94F0190F081E02DEE0FFF1FF1
S1131F20E65EF94F20813181E0911702F0911802A9
S1131F303197EE0FFF1FEE0FFF1FE80FF91FEE0F93
S1131F40FF1FE458F94FA080B1807C0101968430D2
S1131F50910509F0A2CF6701850122E030E0A501D7
S1131F6068E082E00E9476018091150290E080177B
S1131F709107D1F3A0ECB0E08C9185FFFBCF85E015
S1131F80F30180830068A0ECB0E08C9185FFFBCF67
S1131F90F3010083C60129DD892B09F05AC0898128
S1131FA0922DE0911702F09118023197EE0FFF1F66
S1131FB0EE0FFF1FEE0DFF1DEE0FFF1FE458F94F4C
S1131FC00190F081E02D3197EE0FFF1FEE0FFF1F00
S1131FD0E80FF91FEE0FFF1FE458F94F20813181FC
S1131FE02A153B05F9F4E0911702F0911802319794
S1131FF0EE0FFF1FEE0FFF1FEE0DFF1DEE0FFF1F75
S1132000E458F94F0190F081E02D3197EE0FFF1F56
S1132010EE0FFF1FE80FF91FEE0FFF1FE458F94FF3
S11320201182108201968430910509F0BACFE091B3
S11320301702F09118023197EE0FFF1FEE0FFF1FEA
S1132040EE0DFF1DEE0FFF1FE458F94F11821082B1
S113205035C0E0911702F09118023197EE0FFF1F7F
S1132060EE0FFF1FEC0DFD1DEE0FFF1FE458F94F9F
S11320708081918190931802809317022091170216
S113208030911802A0ECB0E08C9185FFFBCFF301F6
S113209080822068A0ECB0E08C9185FFFBCFF30137
S11320A02083E0911702F0911802EE0FFF1FE65E05
S11320B0F94F80819181892B09F0BECEE0911702FE
S11320C0F0911802EE0FFF1FE65EF94F80819181B7
S11320D0892B09F070C1E091E405F091E505E05128
S11320E0FA4F90818091EE059813FBCFE091EE05B5
S11320F0F0E0EA5FF94FE0818091100290911102C3
S113210024E0E29FF0011124E25EFC4F2081318142
S11321102817390789F0E091EE05F0E0EA5FF94FFE
S1132120E08134E0E39FF0011124E25EFC4F228160
S113213033818217930759F5E091EE05F0E0EA5FE9
S1132140F94FE081A4E0EA9FF0011124E25EFC4F24
S1132150208131818217930731F41092890083E240
S11321608093880005C01092890083E880938800DA
S1132170BFEFEFE7FDE0B150E040F040E1F700C011
S113218000001092890083E580938800D0C020E08D
S113219030E046E0E091EE05F0E0EA5FF94F80813F
S11321A090E00197FC01EE0FFF1FE80FF91FEE0FFF
S11321B0FF1FE20FF31FEE0FFF1FEA55FC4F808154
S11321C09181892BE9F0E091EE05F0E0EA5FF94FA7
S11321D06081809117029091180270E0615071093A
S11321E0469FF001479FF00D1124E20FF31FEE0FFD
S11321F0FF1FEA55FC4F608171816817790739F038
S11322002F5F3F4F2430310529F620E030E08091E4
S1132210170290911802E091EE05F0E0EA5FF94FA1
S1132220E081880F991F880F991F880F991FDC017F
S1132230AC58B94FF0E03197EE0FFF1FEE0FFF1FC0
S1132240E20FF31FEE0FFF1FE65EFD4F4D915C9111
S1132250808191814817590759F101E010E0A0915C
S11322601702B0911802E091EE05F0E0EA5FF94F31
S1132270E0811197AA0FBB1FAA0FBB1FA00FB11FAC
S1132280AA0FBB1FA458B94FF0E03197EE0FFF1F00
S1132290EE0FFF1FE20FF31FEE0FFF1FE65EFD4F71
S11322A04D915C91808191814817590721F40AC0AE
S11322B000E010E007C00F5F1F4F0430110579F6EE
S11322C000E010E02A812093E6053B813093E70586
S11322D0C8018BDB019759F5E0911702F0911802C0
S11322E03197EE0FFF1FEE0FFF1FE00FF11FEE0FF0
S11322F0FF1FE458F94F80819181909318028093D5
S1132300170280911702909118029C01A0ECB0E092
S11323109C9195FFFBCFC90194E0F3019083806801
S1132320A0ECB0E09C9195FFFBCFF3018083E0919A
S1132330E405F091E505E051FA4FE081F0E0EA5F51
S1132340F94F80811F928F9389EA95E09F938F9331
S1132350E6D137D8FFEF2FE736E1F1502040304087
S1132360E1F700C0000031D88091E4059091E505C3
S113237001969093E5058093E4058091EE050F9016
S11323800F900F900F90A0ECB0E09C9195FFFBCFC5
S113239096E0F30190838068A0ECB0E09C9195FFF7
S11323A0FBCFF30180838091EE058F5F8093EE0570
S11323B06894882482F8E091EE05F0E0EA5FF94F32
S11323C08081882359F02091EC058091E405909157
S11323D0E50530E02817390709F0C8CC87EC95E00B
S11323E0B1D1E0ECF0E0808185FFFDCF8AE08093FD
S11323F0C600E0ECF0E0808185FFFDCF80E88093AB
S1132400C6008091E8059091E9050197D1F70E94F3
S1132410E109FFEF2FEF30EE80E0F1502040304033
S11324208040D9F700C000000E94E50980E090E0F8
S11324300F900F900F90DF91CF911F910F91FF900C
S1132440EF90DF90CF90BF90AF909F908F907F9050
S11324506F905F904F903F902F9008950CD0E6C0FE
S1132460DED040F0D5D030F021F45F3F19F0C7C082
S1132470511110C1CAC0EBD098F39923C9F3552365
S1132480B1F3951B550BBB27AA2762177307840763
S113249038F09F5F5F4F220F331F441FAA1FA9F319
S11324A033D00E2E3AF0E0E830D091505040E6950B
S11324B0001CCAF729D0FE2F27D0660F771F881F6C
S11324C0BB1F261737074807AB07B0E809F0BB0B5B
S11324D0802DBF01FF2793585F4F2AF09E3F51057F
S11324E068F08DC0D7C05F3FECF3983EDCF386956F
S11324F077956795B795F7959F5FC9F7880F911DF5
S11325009695879597F90895E1E0660F771F881FE0
S1132510BB1F621773078407BA0720F0621B730B93
S1132520840BBA0BEE1F88F7E095089598D088F0D5
S11325309F5790F0B92F9927B751A0F0D1F0660FAB
S1132540771F881F991F1AF0BA95C9F712C0B130C6
S113255081F09FD0B1E008959CC0672F782F882721
S1132560B85F39F0B93FCCF3869577956795B39505
S1132570D9F73EF490958095709561957F4F8F4F74
S11325809F4F0895E89409C097FB3EF49095809579
S1132590709561957F4F8F4F9F4F9923A9F0F92F25
S11325A096E9BB279395F695879577956795B795A3
S11325B0F111F8CFFAF4BB0F11F460FF1BC06F5F89
S11325C07F4F8F4F9F4F16C0882311F096E911C09B
S11325D0772321F09EE8872F762F05C0662371F0BC
S11325E096E8862F70E060E02AF09A95660F771FD0
S11325F0881FDAF7880F9695879597F9089597F9C4
S11326009F6780E870E060E008959FEF80EC089594
S113261000240A94161617061806090608950024BD
S11326200A9412161306140605060895092E039437
S1132630000C11F4882352F0BB0F40F4BF2B11F4AB
S113264060FF04C06F5F7F4F8F4F9F4F089557FD0A
S11326509058440F551F59F05F3F71F04795880F0C
S113266097FB991F61F09F3F79F0879508951216A3
S113267013061406551FF2CF4695F1DF08C016164F
S113268017061806991FF1CF869571056105089400
S11326900895E894BB2766277727CB0197F9089517
S11326A003D008F48FEF0895990F0008550FAA0B73
S11326B0E0E8FEEF16161706E807F907C0F0121651
S11326C01306E407F50798F0621B730B840B950B54
S11326D039F40A2661F0232B242B252B21F40895A9
S11326E00A2609F4A140A6958FEF811D811D089546
S11326F0EE0FFF1F881F8BBF0790F691E02D1994F2
S1132700A29FB001B39FC001A39F700D811D11242E
S1132710911DB29F700D811D1124911D0895CF93B9
S1132720DF93CDB7DEB7AE014A5F5F4FFA01619127
S11327307191AF0180918B0990918C0933D0DF9115
S1132740CF9108950F931F93CF93DF93E0918B095B
S1132750F0918C09238121FF1BC08C01D0E0C0E0E3
S1132760F80181918F0160918B0970918C09DB01D3
S11327701896ED91FC911997882331F01995892BBE
S113278079F3DFEFCFEFECCF8AE01995892B19F0BD
S11327908FEF9FEF02C08D2F9C2FDF91CF911F9160
S11327A00F9108952F923F924F925F926F927F9272
S11327B08F929F92AF92BF92CF92DF92EF92FF924D
S11327C00F931F93CF93DF93CDB7DEB72C970FB63C
S11327D0F894DEBF0FBECDBF7C016B018A01FC0102
S11327E017821682838181FFB0C1CE0101964C010C
S11327F0F7019381F60193FD859193FF81916F0118
S1132800882309F49EC1853239F493FD859193FFA1
S113281081916F01853221F4B70190E0C7D1E8CFEF
S1132820512C312C20E02032A0F48B3269F030F4AA
S1132830803259F0833269F420612CC08D3239F032
S1132840803339F4216026C02260246023C02860CC
S113285021C027FD27C030ED380F3A3078F426FF29
S113286006C0FAE05F9E300D1124532E13C08AE097
S1132870389E300D1124332E20620CC08E3221F488
S113288026FD5FC1206406C08C3611F4206802C0A6
S1132890883641F4F60193FD859193FF81916F0190
S11328A08111C1CF982F9F7D9554933028F40C5FEC
S11328B01F4FFFE3F9830DC0833631F0833771F086
S11328C0833509F057C021C0F801808189830E5FE8
S11328D01F4F44244394512C540114C03801F2E096
S11328E06F0E711CF801A080B18026FF03C0652D16
S11328F070E002C06FEF7FEFC5012C874CD12C0133
S113290083012C852F77222E16C03801F2E06F0E3A
S1132910711CF801A080B18026FF03C0652D70E012
S113292002C06FEF7FEFC5012C872AD12C012C85C3
S11329302068222E830123FC19C0832D90E04816C1
S11329405906A0F4B70180E290E030D13A94F5CF73
S1132950F50127FC859127FE81915F01B70190E085
S113296025D131103A94F1E04F1A51084114510421
S113297079F7DEC0843611F0893631F5F80127FF86
S113298007C060817181828193810C5F1F4F08C0F1
S113299060817181072E000C880B990B0E5F1F4F0D
S11329A02F76722E97FF09C090958095709561954A
S11329B07F4F8F4F9F4F2068722E2AE030E0A40192
S11329C02DD1A82EA81843C0853729F42F7EB22E06
S11329D02AE030E025C0F22FF97FBF2E8F36C1F0F8
S11329E018F4883579F0ADC0803719F0883721F0B4
S11329F0A8C02F2F2061B22EB4FE0DC08B2D846091
S1132A00B82E09C024FF0AC09F2F9660B92E06C0B5
S1132A1028E030E005C020E130E002C020E132E0EF
S1132A20F801B7FE07C060817181828193810C5FD8
S1132A301F4F06C06081718180E090E00E5F1F4FE0
S1132A40A401ECD0A82EA818FB2DFF777F2E76FECC
S1132A500BC0372D3E7FA51450F474FE0AC072FCDF
S1132A6008C0372D3E7E05C0BA2C372D03C0BA2CC2
S1132A7001C0B52C34FF0DC0FE01EA0DF11D8081AB
S1132A80803311F4397E09C032FF06C0B394B39485
S1132A9004C0832F867809F0B39433FD12C030FF4D
S1132AA006C05A2CB31418F4530C5B18B32CB3148B
S1132AB060F4B70180E290E03C8778D0B3943C8521
S1132AC0F6CFB31410F43B1801C0312C34FF11C0FD
S1132AD0B70180E390E03C8769D03C8532FF16C0A3
S1132AE031FD03C088E790E002C088E590E0B701BB
S1132AF00CC0832F867851F031FF02C08BE201C0F5
S1132B0080E237FD8DE2B70190E050D0A51430F497
S1132B10B70180E390E04AD05A94F8CFAA94F40124
S1132B20EA0DF11D8081B70190E040D0A110F6CFED
S1132B30332009F45DCEB70180E290E037D03A94B7
S1132B40F7CFF7018681978102C08FEF9FEF2C9614
S1132B500FB6F894DEBF0FBECDBFDF91CF911F91AA
S1132B600F91FF90EF90DF90CF90BF90AF909F9028
S1132B708F907F906F905F904F903F902F9008952B
S1132B80FC010590615070400110D8F78095909534
S1132B908E0F9F1F0895FC01615070400190011039
S1132BA0D8F7809590958E0F9F1F08950F931F93CC
S1132BB0CF93DF93FB01238121FD03C08FEF9FEFB0
S1132BC028C022FF16C046815781248135814217CF
S1132BD0530744F4A081B1819D012F5F3F4F31839E
S1132BE020838C93268137812F5F3F4F3783268341
S1132BF010C0EB01092F182F0084F185E02D1995E1
S1132C00892BE1F68E819F8101969F838E83812F8C
S1132C10902FDF91CF911F910F910895FA01AA2768
S1132C20283051F1203181F1E8946F936E7F6E5F0B
S1132C307F4F8F4F9F4FAF4FB1E03ED0B4E03CD0B9
S1132C40670F781F891F9A1FA11D680F791F8A1F9C
S1132C50911DA11D6A0F711D811D911DA11D20D003
S1132C6009F468943F912AE0269F11243019305DBD
S1132C703193DEF6CF010895462F4770405D4193AE
S1132C80B3E00FD0C9F7F6CF462F4F70405D4A33FB
S1132C9018F0495D31FD4052419302D0A9F7EACFC3
S1132CA0B4E0A6959795879577956795BA95C9F7F2
S1132CB000976105710508959B01AC010A2E0694E5
S1132CC05795479537952795BA95C9F7620F731F9E
S10F2CD0841F951FA01D0895F894FFCFE9
S1132CDC00000002000000009E00000000006400E0
S1132CEC5A002300FF01010D000101000000000047
S1132CFC00000200000000000000040000000000BE
S1132D0C00000400000000000000050000000000AA
S1132D1C0000060000000000000008000000000095
S1132D2C0000080000000000000009000000000082
S1132D3C00000A000000000000000C00000000006D
S1132D4C00000C000000000000000D00000000005A
S1132D5C00000E0000000000000010000000000045
S1132D6C0000100000000000000011000000000032
S1132D7C000012000000000000001400000000001D
S1132D8C000014000000000000001500000000000A
S1132D9C00001600000000000000180000000000F5
S1132DAC00001800000000000000010000000000FA
S1132DBC0000240019002C002B000500000000006A
S1132DCC000009000000000000000D0000000000DD
S1132DDC0000110000000000000021002000300061
S1132DEC2F0015000000000000000000000000008F
S1132DFC00005A00FF004B00F0003C00E1002D00E5
S1132E0CD2001E00C3000F00B4000000A50059013D
S1132E1C96004A0187003B0178002C0169001D01D2
S1132E2C5A000E014B00FF003C00F0002D00E100A5
S1132E3C1E00D2000F00C3000000B4005901A5000D
S1132E4C4A0196003B0187002C0178005A00690066
S1132E5C1D01FF005A00F0003C00C3001E00870057
S1132E6C4A0178002C014B000E010F00D200000027
S1132E7CB4003B01960001000000000000000000BB
S1132E8C000002000000000000000000000003002D
S1132E9C000000000000000000000400000000001E
S1132EAC000000000000050000000000000000000D
S1132EBC00000600000000000000000000000700F5
S1132ECC00000000000000000000080000000000EA
S1132EDC00000000000009000000000000000000D9
S1132EEC00000A00000000000000000000000B00BD
S1132EFC000000000000000000000C0000000000B6
S1132F0C0000000000000D000000000000000000A4
S1132F1C00000E00000000000000000000000F0084
S1132F2C0000000000000000000010000000000081
S1132F3C0000000000001100000000000000000070
S1132F4C000012000000000000000000000013004C
S1132F5C000000000000000000001400000000004D
S1132F6C000000000000150000000000000000003C
S1132F7C0000160000000000000000000000170014
S1132F8C0000000000000000000018000000000019
S1132F9C0000000000000100000000000000000020
S1132FAC0000190024002B002C0000000000050078
S1132FBC00000000000000000000090000000000F8
S1132FCC0000000000001C001D002D002E0000005D
S1132FDC00000D00000000000000000000001100C3
S1132FEC00000000000000000000200021002F0061
S1132FFC300000000000150000000000000000007C
S113300C00002020202020202020202020202020F0
S113301C20202020202020202020202020202020A0
S113302C2020202020202020202000576169746952
S113303C6E672E2E2E0052656365697665642100D9
S113304C43757272656E74205461736B204E6F6499
S113305C653D2564200A00436F737420506C616EC7
S113306C6E656420666F72207461736B203D2564F9
S113307C20436F73743D2564005265616368656415
S113308C2044657374696E6174696F6E206E6F642D
S113309C653D2564200A00476F6E6E6120626520D1
S10B30AC4F757421212100007D
S9030000FC
