S00D00005461736B352E737265634F
S11300007BC000009AC0000098C0000096C00000A9
S113001094C000000C94070A0C94E2098EC00000FE
S11300208CC000008AC0000088C0000086C00000A8
S113003084C0000082C0000080C000007EC00000B8
S11300407CC000007AC0000078C0000076C00000C8
S113005074C0000072C0000070C000006EC00000D8
S11300606CC000000C94C20868C0000066C00000A8
S113007064C0000062C0000060C000005EC00000F8
S11300805CC000005AC0000058C0000056C0000008
S113009054C0000052C0000050C000004EC0000018
S11300A04CC000004AC0000048C0000046C0000028
S11300B044C0000042C0000040C000003EC0000038
S11300C03CC000003AC0000038C0000036C0000048
S11300D034C0000032C0000030C000002EC0000058
S11300E02CC00000E7083209F308FF0802090509DB
S11300F00F0919091F09220911241FBECFEFD1E2EC
S1130100DEBFCDBF00E00CBF13E0A0E0B2E0E4E44A
S1130110F0E200E00BBF02C007900D92A839B107CE
S1130120D9F727E0A8E9B3E001C01D92A834B207CB
S1130130E1F70E94240D0C94201062CF98B19F70B7
S113014098B998B1282F207F922B98B9409841985C
S1130150429AE1EEF4E03197F1F700C000004298D2
S113016098B19F7098B998B18295807F892B88B98E
S113017040984198429A81EE94E00197F1F700C0CB
S113018000004298089598B19F7098B998B1282FAB
S1130190207F922B98B9409A4198429AE1EEF4E07C
S11301A03197F1F700C00000429898B19F7098B958
S11301B098B18295807F892B88B9409A4198429A58
S11301C081EE94E00197F1F700C000004298089591
S11301D080E8B4CF0895823069F018F4813031F0AA
S11301E00895833059F0843069F008958FE7860FBD
S11301F0A5CF08958FEB860FA1CF089583E9860FCD
S11302009DCF089583ED860F99CF08950F931F9383
S1130210CF93DF938A01E901882311F0611102C0B1
S1130220D7DF01C0D8DFC530D105C1F498013295BC
S113023022952F7023273F702327A7E4B3E00E9461
S11302401110969587959695879596958795C0965E
S11302509093AD038093AC0396DF04C0C430D10502
S113026009F0BEC0980136952795369527953695A1
S11302702795A5ECB0E20E941110AC01529542956D
S11302804F7045275F7045275093AF034093AE03EB
S11302909A01ADECBCEC0E94111096958795969549
S11302A08795969587959C01220F331F880F991F78
S11302B0880F991F880F991F820F931F9A01281B7B
S11302C0390BC901C0969093B9038093B8035BDFDF
S11302D098013695279536952795ABE7B4E10E94AA
S11302E01110AC01569547955093AF034093AE035C
S11302F09A01ADECBCEC0E941110969587959695E9
S11303008795969587959C01220F331F880F991F17
S1130310880F991F880F991F820F931F9A01281B1A
S1130320390BC901C0969093B5038093B4032BDFB6
S113033004C0C230D10509F058C09801ADECBCEC42
S11303400E941110AC0156954795569547955695C0
S113035047955093AF034093AE039A010E94111046
S11303609695879596958795969587959C01220FE6
S1130370331F880F991F880F991F880F991F820FA9
S1130380931F9A01281B390BC901C0969093B3039C
S11303908093B203F8DE9801ADECBCEC0E9411101E
S11303A09695879596958795969587959C01220FA6
S11303B0331F880F991F880F991F880F991F820F69
S11303C0931F9801281B390BC901C0969093B7035A
S11303D08093B603D8DE269764F085E4D4DE09C0A2
S11303E0C330D10509F0A5CF73CFC130D10599F73A
S11303F0D2CFDF91CF911F910F9108952F923F9209
S11304004F925F926F927F928F929F92AF92BF9220
S1130410CF92DF92EF92FF920F931F93CF93DF93CC
S1130420E5ECF5E00F2EFBE4AF2EB12CF02DB182FC
S1130430A0820F2EFDE14F2E55245394F02D5382AC
S113044042828FEF9FEF9583848397838683CC24A6
S1130450CA94D12CD186C086ACE3B0E0B387A2871E
S1130460958784879787868720EF30E0318B208BB0
S11304700F2EFDE22F2E312CF02D338A228A158A7D
S1130480148A6CE271E0778B668B0F2EF1EE8F2E5F
S1130490912CF02D918E808E0EE110E0138F028F3F
S11304A0958F848F978F868F42ED50E051A340A3A0
S11304B0CFE0D0E0D3A3C2A395A384A397A386A33C
S11304C003EC10E011A700A713A612A695A784A712
S11304D097A786A744EB50E051AB40AB09E511E088
S11304E013AB02AB35AB24AB77AB66AB05EA10E0DC
S11304F011AF00AF0AE411E013AF02AF95AF84AFC0
S11305009093040680930306E6E9F0E0F093060670
S1130510E09305060BE311E0109308060093070629
S113052090930A068093090690930C0680930B0619
S11305300F2EF7E86F2E712CF02D70920E0660923C
S11305400D067093100660930F0690931206809325
S113055011069093140680931306E8E7F0E0F093F5
S11305601606E0931506509218064092170650930B
S11305701A064093190630931C0620931B060F2E6F
S1130580F9E6EF2EF12CF02DF0921E06E0921D06F6
S11305900EE011E01093200600931F0690932206AC
S11305A08093210690932406809323060AE510E0A5
S11305B01093260600932506D0922806C09227069B
S11305C090932A068093290690932C0680932B06F9
S11305D0B0922E06A0922D063093300620932F065B
S11305E090933206809331069093340680933306B9
S11305F0B0933606A093350690923806809237065B
S1130600F0933A06E093390650933C0640933B0638
S113061030923E0620923D060F2EF2EDCF2ED12CC5
S1130620F02DD0924006C0923F06909342068093EC
S1130630410690934406809343060F2EFEE1CF2E8D
S1130640D12CF02DD0924606C09245060F2EF3EC25
S1130650CF2ED12CF02DD0924806C092470690930D
S11306604A068093490690934C0680934B06D09398
S11306704E06C0934D065093500640934F069093F8
S11306805206809351069093540680935306109219
S11306905606109255060F2EF5EACF2ED12CF02DCA
S11306A0D0925806C0925706B0935A06A0935906A2
S11306B0F0935C06E0935B060F2EF9E5CF2EDD2464
S11306C0D394F02DD0925E06C0925D060F2EF6E90B
S11306D0CF2ED12CF02DD0926006C0925F0690935D
S11306E062068093610690936406809363060F2EDE
S11306F0FAE4CF2EDD24D394F02DD0926606C09276
S11307006506709268066092670690936A06809305
S1130710690690936C0680936B060F2EFBE3CF2E35
S1130720DD24D394F02DD0926E06C0926D06F09322
S11307307006E0936F06909372068093710690930F
S11307407406809373067093760660937506F09230
S11307507806E092770610927A0610927906B093A2
S11307607C06A0937B0610937E0600937D06509230
S1130770800640927F069093820680938106909330
S113078084068093830650938606409385061092D0
S113079088061092870630938A06209389069093E0
S11307A08C0680938B0650938E0640938D06109290
S11307B0900610928F06B0939206A09391067093C0
S11307C09406609393065093960640939506109270
S11307D0980610929706F0939A06E0939906309340
S11307E09C0620939B0610929E0610929D065093A1
S11307F0A00640939F067093A2066093A10690936F
S1130800A4068093A306B093A606A093A506F0932E
S1130810A806E093A7063093AA062093A90690930E
S1130820AC068093AB06B093AE06A093AD063093AE
S1130830B0062093AF067093B2066093B10650934E
S1130840B4064093B306B093B606A093B5063093AE
S1130850B8062093B7061092BA061092B906F09320
S1130860BC06E093BB063093BE062093BD06B0934E
S1130870C006A093BF065093C2064093C10690934E
S1130880C4068093C3067093C6066093C50610928F
S1130890C8061092C706F093CA06E093C90690935F
S11308A0CC068093CB067093CE066093CD06F0936E
S11308B0D006E093CF065093D2064093D106B0936E
S11308C0D406A093D3067093D6066093D506F0930E
S11308D0D806E093D7063093DA062093D90610920F
S11308E0DC061092DB06F093DE06E093DD06B0939F
S11308F0E006A093DF067093E2066093E10690930E
S1130900E4068093E306B093E606A093E5063093ED
S1130910E8062093E7069093EA068093E90690930D
S1130920EC068093EB06F093EE06E093ED067093ED
S1130930F0066093EF069093F2068093F10690938D
S1130940F4068093F3067093F6066093F506F0932D
S1130950F806E093F7069093FA068093F9069093CD
S1130960FC068093FB061092FE061092FD0650933F
S113097000074093FF06909302078093010790932A
S113098004078093030750930607409305071092CA
S113099008071092070790930A078093090790931A
S11309A00C0780930B0730930E0720930D07B09329
S11309B01007A0930F079093120780931107909349
S11309C01407809313075093160740931507B093A9
S11309D01807A093170790931A0780931907909309
S11309E01C0780931B07F0931E07E0931D073093A9
S11309F0200720931F079093220780932107909349
S1130A00240780932307B0932607A09325077093A8
S1130A1028076093270790932A07809329079093C8
S1130A202C0780932B0710922E0710922D07F0931A
S1130A303007E0932F079093320780933107909308
S1130A4034078093330770933607609335075093C8
S1130A5038074093370790933A0780933907909368
S1130A603C0780933B0730933E0720933D07109249
S1130A70400710923F079093420780934107909359
S1130A80440780934307E4E4F4E082E090E0918338
S1130A90808328E130E03383228315821482178215
S1130AA0168221E030E03187208723E030E033876D
S1130AB022871586148617861686918B808B84E090
S1130AC090E0938B828B49E150E0558B448B44E258
S1130AD050E0578B468B318F208F25E030E0338FE9
S1130AE0228F158E148E178E168E91A380A386E006
S1130AF090E093A382A315A214A217A216A231A771
S1130B0020A727E030E033A722A715A614A617A62E
S1130B1016A691AB80AB88E090E093AB82AB45E244
S1130B2050E055AB44AB46E250E057AB46AB31AF77
S1130B3020AF29E030E033AF22AF15AE14AE1092EF
S1130B4083041092820490938504809384048AE041
S1130B5090E0909387048093860410928904109205
S1130B60880410928B0410928A0430938D0420938D
S1130B708C042BE030E030938F0420938E04109289
S1130B809104109290041092930410929204909302
S1130B909504809394048CE090E090939704809360
S1130BA096044CE150E050939904409398044DE12D
S1130BB050E050939B0440939A0430939D042093F7
S1130BC09C042DE030E030939F0420939E04109207
S1130BD0A1041092A0041092A3041092A204909372
S1130BE0A5048093A4048EE090E09093A7048093DE
S1130BF0A6041092A9041092A8041092AB041092B7
S1130C00AA043093AD042093AC04D093AF04C093F2
S1130C10AE041092B1041092B0041092B304109276
S1130C20B2049093B5048093B40420E130E030938F
S1130C30B7042093B60487E290E09093B9048093BC
S1130C40B80488E290E09093BB048093BA04D093F4
S1130C50BD04C093BC0481E190E09093BF048093F1
S1130C60BE041092C1041092C0041092C3041092E6
S1130C70C2043093C5042093C40422E130E03093CD
S1130C80C7042093C6041092C9041092C804109299
S1130C90CB041092CA049093CD048093CC0483E1D6
S1130CA090E09093CF048093CE041092D1041092DC
S1130CB0D0041092D3041092D2043093D50420931C
S1130CC0D40424E130E03093D7042093D60440E2E6
S1130CD050E05093D9044093D80441E250E050933B
S1130CE0DB044093DA049093DD048093DC0485E113
S1130CF090E09093DF048093DE041092E10410925C
S1130D00E0041092E3041092E2043093E50420938B
S1130D10E40426E130E03093E7042093E6041092E3
S1130D20E9041092E8041092EB041092EA04909300
S1130D30ED048093EC0487E190E09093EF048093BA
S1130D40EE041092F1041092F0041092F304109245
S1130D50F20486E190E09093F5048093F40488E132
S1130D6090E09093F7048093F604C9E2D0E0D09326
S1130D70F904C093F8040F2EFAE2AF2EB12CF02D33
S1130D80B092FB04A092FA0481E090E09093FD04F9
S1130D908093FC04E7E1F0E0F093FF04E093FE04A9
S1130DA0109201051092000510920305109202059D
S1130DB00F2EF3E08F2E912CF02D9092050580924A
S1130DC004056AE170E07093070560930605A4E2E8
S1130DD0B0E0B0930905A093080510920B0510929A
S1130DE00A050F2EF9E16F2E712CF02D70920D056E
S1130DF060920C054BE150E050930F0540930E05B3
S1130E0085E290E090931105809310050F2EFCE28B
S1130E104F2E512CF02D50921305409212057093D1
S1130E201505609314052CE130E0309317052093E9
S1130E30160586E290E090931905809318050DE25B
S1130E4010E010931B0500931A050BE010E01093BB
S1130E501D0500931C0550931F0540931E058DE14D
S1130E6090E0909321058093200510922305109221
S1130E70220510932505009324053093270520931C
S1130E8026052EE130E030932905209328051092A1
S1130E902B0510922A0590932D0580932C058FE144
S1130EA090E090932F0580932E0507E210E01093B5
S1130EB03105009330050F2EFEE22F2E312CF02D3C
S1130EC03092330520923205309335052093340552
S1130ED06894EE24E5F8F12CF0923705E09236059B
S1130EE008E210E010933905009338050F2EFFE255
S1130EF0CF2ED12CF02DD0923B05C0923A050F2E67
S1130F00F3E1CF2ED12CF02DD0923D05C0923C05BB
S1130F1090933F0580933E0501E210E01093410554
S1130F20009340051092430510924205D092450566
S1130F30C0924405F0924705E09246050F2EF2E276
S1130F40EF2EF12CF02DF0924905E0924805109215
S1130F504B0510924A0510934D0500934C0503E28E
S1130F6010E010934F0500934E05D0935105C093A4
S1130F705005C0E3D0E0D0935305C0935205F092DE
S1130F805505E0925405B0935705A0935605B092C9
S1130F905905A0925805ABE2B0E0B0935B05A0936D
S1130FA05A0590925D0580925C0570925F0560928F
S1130FB05E0510936105009360051092630510921D
S1130FC062050F2EF7E0CF2ED12CF02DD0926505BF
S1130FD0C092640570936705609366051092690575
S1130FE01092680510926B0510926A05D0926D05F7
S1130FF0C0926C0550936F0540936E051092710575
S11310001092700510927305109272050F2EFFE076
S1131010CF2ED12CF02DD0927505C092740530934B
S11310207705209376051092790510927805109231
S11310307B0510927A05D0927D05C0927C05909331
S11310407F0580937E051092810510928005109291
S1131050830510928205F0938505E0938405F09250
S11310608705E092860510928905109288051092F2
S11310708B0510928A05F0938D05E0938C051093EF
S11310808F0500938E051092910510929005109291
S11310909305109292051093950500939405509230
S11310A09705409296051092990510929805109212
S11310B09B0510929A0570939D0560939C05B093CF
S11310C09F05A0939E051092A1051092A005109271
S11310D0A3051092A2055093A5054093A405309250
S11310E0A7052092A6051092A9051092A8051092B2
S11310F0AB051092AA053093AD052093AC050DE223
S113110010E01093AF050093AE051092B105109254
S1131110B0051092B3051092B2059093B505809373
S1131120B405D093B705C093B6051092B9051092D3
S1131130B8051092BB051092BA05F092BD05E09275
S1131140BC052FE230E03093BF052093BE0510921A
S1131150C1051092C0051092C3051092C205DF911B
S1131160CF911F910F91FF90EF90DF90CF90BF90A0
S1131170AF909F908F907F906F905F904F903F9033
S11311802F9008951F920F920FB60F9211240BB651
S11311900F924F935F936F937F938F939F93EF93EC
S11311A0FF938091C60088230CF053C0982F9F773B
S11311B0E09104024E2F50E0FA013197EA30F10534
S11311C008F050C08827EE58FF4F8F4F22C7E09198
S11311D0AB03F0E0E053FC4F90838091AB038F5F4F
S11311E08093AB033FC0E091AA03F0E0E654FC4FC8
S11311F090838091AA038F5F8093AA0333C0909356
S1131200090230C0909308022DC080910B0289130B
S113121029C080910B028F5F80930B0223C08091C1
S11312200A0289131FC080910A028F5F80930A0209
S113123019C08091A903890F8093A90313C09093C7
S1131240070210C081E090E09093A7038093A60367
S113125009C080930402823029F480914707816099
S113126080934707FF91EF919F918F917F916F91A9
S11312705F914F910F900BBE0F900FBE0F901F9078
S113128018953B9A4398089586B1886088B9089563
S113129086B1877F88B9089587B1876F87B988B188
S11312A0807888B9089510BA11BA10920701109283
S11312B00801089581B18F6081B982B1807F82B9BC
S11312C0EAE0F1E0808188618083EBE0F1E08081F5
S11312D08861808308956C98749A08956D98759ABE
S11312E00895E8DFF8DFFADFD7DFDDDFCACF08953E
S11312F0E1E2F1E010828FEF8093250191E0909379
S11313002401109229018093280110922B018093CB
S11313102A0110922D0180932C0189EA80932001E7
S11313208BE080830895EAE7F0E0108210927B005E
S113133080E280937C0080E880BF86E88083089503
S1131340883018F098E090937B00877080628093D7
S11313507C00EAE7F0E0808180648083808184FF00
S1131360FDCF80917900EAE7F0E09081906190836D
S113137010927B000895CF93DF93D82FC62F842F2C
S1131380DFDF8093C405482F50E06C2F70E023E02A
S113139030E08D2F90E00E940601DF91CF910895F7
S11313A0F894EAE6F0E0808182608083EC9A789495
S11313B00895F894EAE6F0E0808188608083ED9AED
S11313C0789408951F920F920FB60F9211248F9361
S11313D09F93AF93BF9380919C0390919D03A091A1
S11313E09E03B0919F030196A11DB11D80939C03A0
S11313F090939D03A0939E03B0939F03BF91AF91DD
S11314009F918F910F900FBE0F901F9018951F9270
S11314100F920FB60F9211248F939F93AF93BF93A4
S11314208091A0039091A103A091A203B091A30382
S11314300196A11DB11D8093A0039093A103A093D5
S1131440A203B093A303BF91AF919F918F910F908B
S11314500FBE0F901F90189592B1907F8F70982BAC
S113146092B9089586E0F8CF089585E0F5CF089500
S113147080910202F1CF089580E0EECF0895CF92DB
S1131480DF92EF92FF920F931F93CF93DF93BC01F0
S113149080E090E008D528E431EE42E850E46FD4CF
S11314A0D6D46B01E12CF12C10929C0310929D0375
S11314B010929E0310929F031092A0031092A10316
S11314C01092A2031092A303C1E0D0E020919C03E8
S11314D030919D0340919E0350919F0303E010E0DF
S11314E065E070E081E090E00E9406018C2F40915D
S11314F0A0035091A1036091A2037091A3034C1522
S11315005D056E057F0508F48D2F811111C08C2FA8
S113151040919C0350919D0360919E0370919F03A1
S11315204C155D056E057F0508F48D2F882371F237
S1131530A3DFDF91CF911F910F91FF90EF90DF9088
S1131540CF900895CF93DF93EC018FDF9FEF9093BB
S1131550280190932A01CE0192DFDF91CF91089563
S1131560CF93DF93EC0184DF9FEF90932801909356
S11315702A01CE0184DFDF91CF910895F894B1DE82
S1131580E1ECF0E010821092C00026E02093C2004B
S11315909FE59093C4001092C50088E98083E1ED33
S11315A0F0E010821092D0002093D2009093D400E7
S11315B01092D5008083F4DEFCDEB5DE99DE7894EB
S11315C0089550DF8AE58093280180932A011092C0
S11315D09C0310929D0310929E0310929F03FFCFD1
S11315E04F925F926F927F928F929F92AF92BF922F
S11315F0CF92DF92EF92FF920F931F93CF93DF93DB
S1131600CDB7DEB7C05CD1090FB6F894DEBF0FBE0C
S1131610CDBFDE01AF59BF4F20E6FD0111922A95DF
S1131620E9F7E4EEF3E08E010F5F1F4F78016D01DF
S113163004E414E0970163E670E04FEF5FEF619319
S11316407193D9014D935D939D01D6011D921D9215
S11316506D01E017F10799F7FC01AC01445F5F4F9E
S11316608FEF9FEF61E070E020813181211531051A
S113167009F1220F331FD901AE51BC4F1D921C92A8
S1131680019620813181DC01AA0FBB1F01E010E02B
S11316900C0F1D1FA00FB11F2D933C93D90111975F
S11316A0AA0FBB1F21E630E02C0F3D1FA20FB31F72
S11316B06D937C933296E417F507B1F6AE2C9F2C0C
S11316C0812C712C6894BB24B2F8612CCC24C39473
S11316D0D12CA981BA81119799236CF0EA2DF92DA7
S11316E0282D372D2F5F3F4F4281538141935193D2
S11316F082179307BCF70197FD01EE0FFF1FEE0F52
S1131700FF1FEE0FFF1FEC5BFB4F2B2D362DAA0F97
S1131710BB1FAD014C515C4F2A0161917191611560
S11317207105D1F1D2010D911C910F5F1F4FAB01D7
S1131730415051097A01EE0CFF1CD701AC51BC4F4A
S1131740ED90FC90E016F10644F07A01EE0CFF1CDB
S1131750D701AC51BC4F0D931C938A01000F111F8C
S1131760A1E6B0E0AC0FBD1F0A0F1B1FD8010D91FD
S11317701C9111970130110579F0CD92DC920196FC
S1131780AC01440F551F01E010E00C0F1D1F400F6A
S1131790511FDA016D937C932150310909F0BDCFBB
S11317A049815A814F3F5F4F29F08F3FEFEF9E07EA
S11317B009F08FCFC054DF4F0FB6F894DEBF0FBED1
S11317C0CDBFDF91CF911F910F91FF90EF90DF90EC
S11317D0CF90BF90AF909F908F907F906F905F90CD
S11317E04F900895992344F427EE3FEFA901481B35
S11317F0590BCA01B5DE02C04997A4DE82E0A0DD20
S113180080939A038937D0F308952091050230918B
S1131810060221503109220F331F220F331F820F7A
S1131820931FFC01EE0FFF1FEB53FA4FC081D181D0
S113183080910002909101027E01E81AF90AB70131
S11318400F2C000C880B990B30D39F7720E030E0ED
S113185044E352E4B6D318161CF486E490E0B1DEF7
S1131860D0930102C0930002FDDD08E211E00F2EC7
S1131870FAE5DF2EF02DCAE2D1E00F2EF2E8CF2EEA
S1131880F02D04C0909301028093000283E058DDA0
S113189080939B0382E054DD80939A0381E050DDC2
S11318A08093990386E04CDD8093980343E061E0E4
S11318B081E061DD42E065E081E05DDD41E069E019
S11318C081E059DD10929C0310929D0310929E03B7
S11318D010929F0380919803813FA0F084EB90E0E5
S11318E081DF8091000290910102845B91098E193D
S11318F09F090AF0C7CF88599E4F909301028093A5
S11319000002C4CF60919A03209102023091030235
S113191080919B0390E0281739077CF4A3DD23E032
S113192030E041E050E061E070E082E090E00E944D
S11319300601F8011082D882A9CF4091990350E0A2
S1131940241735077CF48EDD23E030E042E050E0DC
S113195061E070E082E090E00E940601F801D0822C
S1131960188294CF693770F0F801C082C88223E0EE
S113197030E040E050E061E070E082E090E00E94FE
S1131980060184CF70E0621773070CF07FCF8217D3
S113199093070CF07BCF421753070CF077CFF80175
S11319A0D082D88273CFCF93DF939C01BC01615066
S11319B07109DB01AA0FBB1FAC51BC4F8D919C91E7
S11319C0892B39F43093460720934507822F932FB0
S11319D038C0DB01AA0FBB1FAA0FBB1FAA0FBB1F76
S11319E0FD01EC5BFB4F0190F081E02DEE0FFF1F3A
S11319F0EC51FC4FC081D181AA5BBB4F20E030E0A9
S1131A0081E090E0ED91FD91EE0FFF1FEC51FC4F52
S1131A10408151814C175D0714F49C01EA01019641
S1131A208430910579F7FB01EE0FFF1FEE0FFF1FC6
S1131A30E20FF31FEE0FFF1FEC5BFB4F80819181E0
S1131A40B2DFDF91CF910895BF92CF92DF92EF92F0
S1131A50FF920F931F93CF93DF930E94FE018EDDBD
S1131A608091470780FDFCCFC0ECD0E006EC10E08D
S1131A700F2EF6E0FF2EF02D0F2EF7E0DF2EF02DC7
S1131A800F2EF9E0EF2EF02D0F2EF3E0BF2EF02DE8
S1131A906894CC24C3F83DC12091AA038091A40387
S1131AA09091A50330E02817390709F09AC0E09116
S1131AB00A02F0E0E053FC4F808190E001979C0122
S1131AC0220F331F820F931F880F991F880F991FAE
S1131AD0845F9D4F85DDE0910502F0910602EE0FD3
S1131AE0FF1FEE51FC4F808191814091A803E0914A
S1131AF00702F0E0EE0FFF1FEC51FC4F2081318113
S1131B00240F311D2817390754F590910A02888152
S1131B1085FFFDCFF801B082292F2068888185FFD9
S1131B20FDCFF801208390930702E0910702F0E0D3
S1131B30EE0FFF1FEC51FC4F9081888185FFFDCF94
S1131B40F801C0829068888185FFFDCFF8019083F9
S1131B508091070290E027DF809307022FC0E09175
S1131B60AA03F0E090910A02E654FC4F908390910E
S1131B70A903890F8093A9038091AA038F5F80939F
S1131B80AA0390910A02888185FFFDCFF801E082C3
S1131B909068888185FFFDCFF801908380910502CC
S1131BA09091060200DF988195FFFDCFF801E08255
S1131BB08068988195FFFDCFF801808390910A0297
S1131BC0888185FFFDCFF801D0829068888185FFE8
S1131BD0FDCFF801908380910A028F5F80930A02FF
S1131BE098C0FC01E654FC4FE081F0E0E053FC4F68
S1131BF0808190E001979C01220F331F820F931F75
S1131C00880F991F880F991F845F9D4FE9DC80918D
S1131C100502909106020197FC01EE0FFF1FEC51A3
S1131C20FC4F20813181232B09F44FC0880F991F69
S1131C30880F991F880F991FFC01EC5BFB4F2081D3
S1131C403181F901EE0FFF1FEC51FC4FA081B181EE
S1131C50D0E0C0E041E050E0FA01EE0FFF1FE80FD2
S1131C60F91FEC5BFB4F608171816115710579F09F
S1131C70FB01EE0FFF1FEC51FC4F0190F081E02DB2
S1131C80EA17FB0724F4D42FC52F9B01DF014F5F14
S1131C905F4F4430510501F74091080250E024178A
S1131CA03507D1F3E0ECF0E0808185FFFDCF85E0DE
S1131CB08093C6002068E0ECF0E0808185FFFDCFD2
S1131CC02093C6008D2F9C2FA0DD2091A40330917A
S1131CD0A503F901E654FC4F908180910B029813FF
S1131CE0FBCF2F5F3F4F3093A5032093A403909124
S1131CF00B02888185FFFDCFF801F082906888810E
S1131D0085FFFDCFF801908380910B028F5F809354
S1131D100B02E0910B02F0E0E053FC4F8081811153
S1131D20BBCEE0ECF0E0808185FFFDCF8AE08093BC
S1131D30C600E0ECF0E0808185FFFDCF80E8809371
S1131D40C6008091A6039091A70381309105E9F71D
S1131D509BDAFFE72FE482E1F15020408040E1F775
S1131D6000C0000095DA80E090E0DF91CF911F91F0
S1131D700F91FF90EF90DF90CF90BF9008950CD01B
S1131D80E6C0DED040F0D5D030F021F45F3F19F04A
S1131D90C7C0511110C1CAC0EBD098F39923C9F33D
S1131DA05523B1F3951B550BBB27AA27621773075D
S1131DB0840738F09F5F5F4F220F331F441FAA1F11
S1131DC0A9F333D00E2E3AF0E0E830D091505040D1
S1131DD0E695001CCAF729D0FE2F27D0660F771F7F
S1131DE0881FBB1F261737074807AB07B0E809F061
S1131DF0BB0B802DBF01FF2793585F4F2AF09E3FF6
S1131E00510568F08DC0D7C05F3FECF3983EDCF31A
S1131E10869577956795B795F7959F5FC9F7880F6E
S1131E20911D9695879597F90895E1E0660F771FC0
S1131E30881FBB1F621773078407BA0720F0621B51
S1131E40730B840BBA0BEE1F88F7E095089598D0B6
S1131E5088F09F5790F0B92F9927B751A0F0D1F08F
S1131E60660F771F881F991F1AF0BA95C9F712C019
S1131E70B13081F09FD0B1E008959CC0672F782FD6
S1131E808827B85F39F0B93FCCF386957795679585
S1131E90B395D9F73EF490958095709561957F4FF1
S1131EA08F4F9F4F0895E89409C097FB3EF4909597
S1131EB08095709561957F4F8F4F9F4F9923A9F01F
S1131EC0F92F96E9BB279395F695879577956795AE
S1131ED0B795F111F8CFFAF4BB0F11F460FF1BC0F2
S1131EE06F5F7F4F8F4F9F4F16C0882311F096E985
S1131EF011C0772321F09EE8872F762F05C0662333
S1131F0071F096E8862F70E060E02AF09A95660FEB
S1131F10771F881FDAF7880F9695879597F90895A4
S1131F2097F99F6780E870E060E008959FEF80EC88
S1131F30089500240A94161617061806090608952B
S1131F4000240A9412161306140605060895092E91
S1131F500394000C11F4882352F0BB0F40F4BF2B00
S1131F6011F460FF04C06F5F7F4F8F4F9F4F089540
S1131F7057FD9058440F551F59F05F3F71F0479536
S1131F80880F97FB991F61F09F3F79F0879508951B
S1131F90121613061406551FF2CF4695F1DF08C03A
S1131FA0161617061806991FF1CF86957105610557
S1131FB008940895E894BB2766277727CB0197F9FF
S1131FC0089503D008F48FEF0895990F0008550F72
S1131FD0AA0BE0E8FEEF16161706E807F907C0F0AB
S1131FE012161306E407F50798F0621B730B840BB3
S1131FF0950B39F40A2661F0232B242B252B21F48D
S113200008950A2609F4A140A6958FEF811D811D2C
S11320100895EE0FFF1F881F8BBF0790F691E02DE8
S11320201994A29FB001B39FC001A39F700D811D9D
S11320301124911DB29F700D811D1124911D0895CD
S1072040F894FFCF3E
S11320445A002300FF0D0001FFFFFFFF0100000001
S11320540000000000000000020000000000000076
S11320640000000003000000000000000000000065
S1132074040000000000000000000000050000004F
S11320840000000000000000060000000000000042
S11320940000000007000000000000000000000031
S11320A40800000000000000000000000900000017
S11320B400000000000000000A000000000000000E
S11320C4000000000B0000000000000000000000FD
S11320D40C00000000000000000000000D000000DF
S11320E400000000000000000E00000000000000DA
S11320F4000000000F0000000000000000000000C9
S113210410000000000000000000000011000000A6
S113211400000000000000001200000000000000A5
S11321240000000013000000000000000000000094
S1132134140000000000000000000000150000006E
S11321440000000000000000160000000000000071
S11321540000000017000000000000000000000060
S1132164180000000000000000000000010023002B
S1132174000000000000000019001A0023002400DD
S11321842B002C0005001A000000000000000000D1
S113219409001B0000000000000000001B001C00DC
S11321A41D001E002D002E000D001E000000000066
S11321B40000000011001F000000000000000000E7
S11321C41F002000210022002F00300015002200EF
S10B21D40000000000000000FF
S9030000FC
