S00D00005461736B352E737265634F
S113000081C00000A0C000009EC000009CC0000091
S11300109AC000000C94D60B0C94B10B94C0000051
S113002092C0000090C000008EC000008CC0000090
S11300308AC0000088C0000086C0000084C00000A0
S113004082C0000080C000007EC000007CC00000B0
S11300507AC0000078C0000076C0000074C00000C0
S113006072C000000C9444096EC000006CC0000013
S11300706AC0000068C0000066C0000064C00000E0
S113008062C0000060C000005EC000005CC00000F0
S11300905AC0000058C0000056C0000054C0000000
S11300A052C0000050C000004EC000004CC0000010
S11300B04AC0000048C0000046C0000044C0000020
S11300C042C0000040C000003EC000000C94A50ADD
S11300D03AC0000038C0000036C0000034C0000040
S11300E032C000006A09960A8A09A209A509A8096A
S11300F0B209BC09C209810A7A09960A9609C80993
S1130100C509570A11241FBECFEFD1E2DEBFCDBF10
S113011000E00CBF15E0A0E0B2E0E2EEF4E300E0A2
S11301200BBF02C007900D92AC3AB107D9F729E092
S1130130ACEAB5E001C01D92A63EB207E1F70E9409
S1130140F0120C946F1A5CCFE0EDF0E0908195FF13
S1130150FDCF8093D600089587B1876F87B988B1A2
S1130160807888B9089586E69EE00197F1F700004B
S11301704098419880E388B9429AEFEFF7E43197C9
S1130180F1F700C000004298E6E6FEE03197F1F78F
S113019000004098419888B9429AEFEFF7E431970C
S11301A0F1F700C000004298E6E6FEE03197F1F76F
S11301B000004098419888B9429A8FEF97E40197DC
S11301C0F1F700C000004298E6E6FEE03197F1F74F
S11301D000004098419880E288B9429A8FEF97E4F2
S11301E00197F1F700C000004298089598B19F70FC
S11301F098B998B1282F207F922B98B940984198AC
S1130200429AEFEFF7E43197F1F700C0000042980B
S113021098B19F7098B998B18295807F892B88B9DD
S113022040984198429A8FEF97E40197F1F700C004
S113023000004298089598B19F7098B998B1282FFA
S1130240207F922B98B9409A4198429AEFEFF7E4B5
S11302503197F1F700C00000429898B19F7098B9A7
S113026098B18295807F892B88B9409A4198429AA7
S11302708FEF97E40197F1F700C0000042980895CA
S113028080E8B4CF0895CF93DF93EC01888188236D
S113029029F02196D0DF89918111FCCFDF91CF9194
S11302A0089586E69EE00197F1F7000088E29EDF5C
S11302B081E09CDF86E09ADF8EE098DF80E896CFCD
S11302C00895823069F018F4813031F00895833054
S11302D059F0843069F008958FE7860F87CF089529
S11302E08FEB860F83CF089583E9860F7FCF089520
S11302F083ED860F7BCF08950F931F93CF93DF93E6
S11303008A01E901882311F0611102C0B9DF01C03B
S1130310D8DFC530D105C1F49801329522952F70EC
S113032023273F702327A7E4B3E00E94301A969551
S113033087959695879596958795C09690935D0633
S113034080935C0678DF04C0C430D10509F0BEC0D8
S11303509801369527953695279536952795A5ECDA
S1130360B0E20E94301AAC01529542954F70452775
S11303705F70452750933F0840933E089A01ADECC7
S1130380BCEC0E94301A969587959695879596951C
S113039087959C01220F331F880F991F880F991F7F
S11303A0880F991F820F931F9A01281B390BC901CB
S11303B0C0969093DD098093DC093DDF9801369562
S11303C0279536952795ABE7B4E10E94301AAC0126
S11303D05695479550933F0840933E089A01ADECDB
S11303E0BCEC0E94301A96958795969587959695BC
S11303F087959C01220F331F880F991F880F991F1F
S1130400880F991F820F931F9A01281B390BC9016A
S1130410C0969093D9098093D8090DDF04C0C230E7
S1130420D10509F058C09801ADECBCEC0E94301A1B
S1130430AC015695479556954795569547955093D3
S11304403F0840933E089A010E94301A969587957A
S113045096958795969587959C01220F331F880F53
S1130460991F880F991F880F991F820F931F9A0154
S1130470281B390BC901C0969093560880935508E0
S1130480DADE9801ADECBCEC0E94301A96958795A3
S113049096958795969587959C01220F331F880F13
S11304A0991F880F991F880F991F820F931F980116
S11304B0281B390BC901C0969093DB098093DA0994
S11304C0BADE269764F085E4B6DE09C0C330D105F0
S11304D009F0A5CF73CFC130D10599F7D2CFDF9101
S11304E0CF911F910F91089580E880DE86E395E017
S11304F0CADE80EC7BDE86E395E0C5DEC1CE0895DE
S11305002F923F924F925F926F927F928F929F921F
S1130510AF92BF92CF92DF92EF92FF920F931F930D
S1130520CF93DF93E7E5F8E00F2EFBE4AF2EB12C79
S1130530F02DB182A0820F2EFDE14F2E552453944D
S1130540F02D538242828FEF9FEF958384839783AC
S11305508683CC24CA94D12CD186C086ACE3B0E087
S1130560B387A287958784879787868720EF30E0B3
S1130570318B208B0F2EFDE22F2E312CF02D338A60
S1130580228A158A148A6CE271E0778B668B0F2EAF
S1130590F1EE8F2E912CF02D918E808E0EE110E0D5
S11305A0138F028F958F848F978F868F42ED50E043
S11305B051A340A3CFE0D0E0D3A3C2A395A384A3C7
S11305C097A386A303EC10E011A700A713A612A615
S11305D095A784A797A786A744EB50E051AB40ABFF
S11305E009E511E013AB02AB35AB24AB77AB66ABDB
S11305F005EA10E011AF00AF0AE411E013AF02AF57
S113060095AF84AF9093960880939508E6E9F0E05F
S1130610F0939808E09397080BE311E010939A087D
S11306200093990890939C0880939B0890939E084C
S113063080939D080F2EF7E86F2E712CF02D709289
S1130640A00860929F087093A2086093A1089093F9
S1130650A4088093A3089093A6088093A508E8E7CC
S1130660F0E0F093A808E093A7085092AA084092FB
S1130670A9085093AC084093AB083093AE0820937C
S1130680AD080F2EF9E6EF2EF12CF02DF092B00804
S1130690E092AF080EE011E01093B2080093B108A5
S11306A09093B4088093B3089093B6088093B508E8
S11306B00AE510E01093B8080093B708D092BA087E
S11306C0C092B9089093BC088093BB089093BE086D
S11306D08093BD08B092C008A092BF083093C208AE
S11306E02093C1089093C4088093C3089093C608CC
S11306F08093C508B093C808A093C7089092CA080D
S11307008092C908F093CC08E093CB085093CE08AC
S11307104093CD083092D0082092CF080F2EF2EDEE
S1130720CF2ED12CF02DD092D208C092D108909324
S1130730D4088093D3089093D6088093D5080F2EBD
S1130740FEE1CF2ED12CF02DD092D808C092D7083C
S11307500F2EF3ECCF2ED12CF02DD092DA08C092CC
S1130760D9089093DC088093DB089093DE0880938B
S1130770DD08D093E008C093DF085093E20840936B
S1130780E1089093E4088093E3089093E60880934B
S1130790E5081092E8081092E7080F2EF5EACF2E2C
S11307A0D12CF02DD092EA08C092E908B093EC085D
S11307B0A093EB08F093EE08E093ED080F2EF9E513
S11307C0CF2EDD24D394F02DD092F008C092EF0800
S11307D00F2EF6E9CF2ED12CF02DD092F208C09234
S11307E0F1089093F4088093F3089093F6088093AB
S11307F0F5080F2EFAE4CF2EDD24D394F02DD092F9
S1130800F808C092F7087092FA086092F908909379
S1130810FC088093FB089093FE088093FD080F2E3C
S1130820FBE3CF2EDD24D394F02DD0920009C092A7
S1130830FF08F0930209E09301099093040980935F
S1130840030990930609809305097093080960933E
S11308500709F0920A09E092090910920C09109212
S11308600B09B0930E09A0930D091093100900937E
S11308700F09509212094092110990931409809320
S113088013099093160980931509509318094093FE
S1130890170910921A091092190930931C09209310
S11308A01B0990931E0980931D09509320094093BE
S11308B01F091092220910922109B0932409A093D0
S11308C023097093260960932509509328094093BE
S11308D0270910922A0910922909F0932C09E09310
S11308E02B0930932E0920932D0910923009109270
S11308F02F0950933209409331097093340960935E
S113090033099093360980933509B0933809A0933D
S11309103709F0933A09E093390930933C0920935D
S11309203B0990933E0980933D09B0934009A093FD
S11309303F0930934209209341097093440960931D
S113094043095093460940934509B0934809A0933D
S1130950470930934A092093490910924C0910928F
S11309604B09F0934E09E0934D09309350092093BD
S11309704F09B0935209A0935109509354094093DD
S113098053099093560980935509709358096093BD
S1130990570910925A0910925909F0935C09E0938F
S11309A05B0990935E0980935D097093600960937D
S11309B05F09F0936209E0936109509364094093DD
S11309C06309B0936609A0936509709368096093FD
S11309D06709F0936A09E093690930936C092093DD
S11309E06B0910926E0910926D09F0937009E093EF
S11309F06F09B0937209A09371097093740960939D
S1130A0073099093760980937509B0937809A0933C
S1130A10770930937A092093790990937C0980931C
S1130A207B0990937E0980937D09F0938009E0937C
S1130A307F0970938209609381099093840980935C
S1130A40830990938609809385097093880960933C
S1130A508709F0938A09E093890990938C0980931C
S1130A608B0990938E0980938D09109290091092AE
S1130A708F0950939209409391099093940980931C
S1130A8093099093960980939509509398094093FC
S1130A90970910929A091092990990939C0980934E
S1130AA09B0990939E0980939D093093A0092093FC
S1130AB09F09B093A209A093A1099093A4098093DC
S1130AC0A3099093A6098093A5095093A80940937C
S1130AD0A709B093AA09A093A9099093AC0980939C
S1130AE0AB099093AE098093AD09F093B009E093FC
S1130AF0AF093093B2092093B1099093B40980935C
S1130B00B3099093B6098093B509B093B809A0933B
S1130B10B7097093BA096093B9099093BC0980939B
S1130B20BB099093BE098093BD091092C00910922D
S1130B30BF09F093C209E093C1099093C40980935B
S1130B40C3099093C6098093C5097093C80960933B
S1130B50C7095093CA094093C9099093CC0980935B
S1130B60CB099093CE098093CD093093D00920937B
S1130B70CF091092D2091092D1099093D40980938D
S1130B80D3099093D6098093D509EEEBF6E082E081
S1130B9090E09183808328E130E0338322831582BF
S1130BA014821782168221E030E03187208723E007
S1130BB030E0338722871586148617861686918B34
S1130BC0808B84E090E0938B828B49E150E0558BDD
S1130BD0448B44E250E0578B468B318F208F25E0C5
S1130BE030E0338F228F158E148E178E168E91A3BC
S1130BF080A386E090E093A382A315A214A217A277
S1130C0016A231A720A727E030E033A722A715A614
S1130C1014A617A616A691AB80AB88E090E093AB20
S1130C2082AB45E250E055AB44AB46E250E057ABF3
S1130C3046AB31AF20AF29E030E033AF22AF15AE81
S1130C4014AE1092FD061092FC069093FF0680935A
S1130C50FE068AE090E090930107809300071092CB
S1130C6003071092020710920507109204073093AD
S1130C700707209306072BE030E030930907209301
S1130C80080710920B0710920A0710920D07109292
S1130C900C0790930F0780930E078CE090E09093DD
S1130CA01107809310074CE150E0509313074093D1
S1130CB012074DE150E05093150740931407309309
S1130CC01707209316072DE030E03093190720937F
S1130CD0180710921B0710921A0710921D07109202
S1130CE01C0790931F0780931E078EE090E090935B
S1130CF02107809320071092230710922207109255
S1130D002507109224073093270720932607D093B2
S1130D102907C093280710922B0710922A071092D4
S1130D202D0710922C0790932F0780932E0720E114
S1130D3030E0309331072093300787E290E09093BE
S1130D4033078093320788E290E0909335078093CD
S1130D503407D0933707C093360781E190E090932E
S1130D6039078093380710923B0710923A07109284
S1130D703D0710923C0730933F0720933E0722E142
S1130D8030E03093410720934007109243071092BC
S1130D9042071092450710924407909347078093A7
S1130DA0460783E190E090934907809348071092A7
S1130DB04B0710924A0710924D0710924C0730933C
S1130DC04F0720934E0724E130E0309351072093DE
S1130DD0500740E250E0509353074093520741E2DA
S1130DE050E05093550740935407909357078093CE
S1130DF0560785E190E09093590780935807109225
S1130E005B0710925A0710925D0710925C073093AB
S1130E105F0720935E0726E130E03093610720935B
S1130E206007109263071092620710926507109290
S1130E306407909367078093660787E190E0909337
S1130E4069078093680710926B0710926A071092E3
S1130E506D0710926C0786E190E090936F07809382
S1130E606E0788E190E09093710780937007C9E260
S1130E70D0E0D0937307C09372070F2EFAE2AF2E1F
S1130E80B12CF02DB0927507A092740781E090E028
S1130E909093770780937607E7E1F0E0F093790782
S1130EA0E093780710927B0710927A0710927D07DF
S1130EB010927C070F2EF3E08F2E912CF02D909240
S1130EC07F0780927E076AE170E0709381076093E8
S1130ED08007A4E2B0E0B0938307A0938207109246
S1130EE08507109284070F2EF9E16F2E712CF02DD7
S1130EF070928707609286074BE150E05093890710
S1130F004093880785E290E090938B0780938A074B
S1130F100F2EFCE24F2E512CF02D50928D07409253
S1130F208C0770938F0760938E072CE130E0309329
S1130F3091072093900786E290E090939307809323
S1130F4092070DE210E010939507009394070BE0CD
S1130F5010E01093970700939607509399074093D6
S1130F6098078DE190E090939B0780939A071092E5
S1130F709D0710929C0710939F0700939E07309340
S1130F80A1072093A0072EE130E03093A30720931C
S1130F90A2071092A5071092A4079093A707809325
S1130FA0A6078FE190E09093A9078093A80707E232
S1130FB010E01093AB070093AA070F2EFEE22F2E2A
S1130FC0312CF02D3092AD072092AC073093AF074F
S1130FD02093AE076894EE24E5F8F12CF092B10763
S1130FE0E092B00708E210E01093B3070093B20751
S1130FF00F2EFFE2CF2ED12CF02DD092B507C09248
S1131000B4070F2EF3E1CF2ED12CF02DD092B707D9
S1131010C092B6079093B9078093B80701E210E035
S11310201093BB070093BA071092BD071092BC0738
S1131030D092BF07C092BE07F092C107E092C007EA
S11310400F2EF2E2EF2EF12CF02DF092C307E09276
S1131050C2071092C5071092C4071093C7070093E4
S1131060C60703E210E01093C9070093C807D093A2
S1131070CB07C093CA07C0E3D0E0D093CD07C09399
S1131080CC07F092CF07E092CE07B093D107A0939C
S1131090D007B092D307A092D207ABE2B0E0B093EE
S11310A0D507A093D4079092D7078092D607709261
S11310B0D9076092D8071093DB070093DA071092E0
S11310C0DD071092DC070F2EF7E0CF2ED12CF02D88
S11310D0D092DF07C092DE077093E1076093E007C8
S11310E01092E3071092E2071092E5071092E407CA
S11310F0D092E707C092E6075093E9074093E807C8
S11311001092EB071092EA071092ED071092EC0789
S11311100F2EFFE0CF2ED12CF02DD092EF07C092EE
S1131120EE073093F1072093F0071092F307109223
S1131130F2071092F5071092F407D092F707C092C5
S1131140F6079093F9078093F8071092FB07109223
S1131150FA071092FD071092FC07F093FF07E09343
S1131160FE07F0920108E092000810920308109222
S113117002081092050810920408F0930708E093FF
S11311800608109309080093080810920B0810929F
S11311900A0810920D0810920C0810930F0800937F
S11311A00E085092110840921008109213081092E1
S11311B0120810921508109214087093170860937F
S11311C01608B0931908A093180810921B081092DF
S11311D01A0810921D0810921C0850931F0840937F
S11311E01E083092210820922008109223081092A1
S11311F0220810922508109224083093270820937F
S113120026080DE210E01093290800932808109294
S11312102B0810922A0810922D0810922C089093F3
S11312202F0880932E08D0933108C0933008109271
S11312303308109232081092350810923408F09254
S11312403708E09236082FE230E0309339082093D3
S1131250380810923B0810923A0810923D081092F8
S11312603C08DF91CF911F910F91FF90EF90DF9099
S1131270CF90BF90AF909F908F907F906F905F9032
S11312804F903F902F9008951F920F920FB60F9298
S113129011240BB60F924F935F936F937F938F93A9
S11312A09F93EF93FF938091C60088230CF030C185
S11312B0982F9F77E09116024E2F50E0FA01319754
S11312C0E031F10508F032C18827EE58FF4F8F4F07
S11312D00C94281AE0911C06F0E0EF5CF94F90831F
S11312E080911C068F5F80931C0680911C0680935E
S11312F005011CC1E0911B06F0E0E35EF94F908309
S113130080911B068F5F80931B0680911B06809340
S113131005010CC1E0911806F0E0EB5BF94F9083F6
S1131320809118068F5F8093180600C1E09117061C
S1131330F0E0EF5BF74F9083809117068F5F809307
S11313401706F4C090931802F1C090931702EEC0F0
S113135080911A068913EAC080911A068F5F8093E0
S11313601A06E4C0809119068913E0C08091190619
S11313708F5F80931906DAC080911606890F8093D7
S11313801606D4C090931B02D1C090931506CEC00C
S1131390E0910E06F0910F06EB5BF94F80818F37D9
S11313A051F0E0910E06F0910F06EB5BF94F80814E
S11313B08093D70909C0E0910E06F0910F06EF5B08
S11313C0F74F808180935B0680911506813081F40C
S11313D0E0910E06F0910F06EB5BF94F9083E091DC
S11313E00E06F0910F06EF5BF74F8FE780830FC077
S11313F0E0910E06F0910F06EF5BF74F9083E091BA
S11314000E06F0910F06EB5BF94F8FE78083809116
S1131410D7098F3719F1E0ECF0E0808185FFFDCF2B
S11314208FE08093C600E0ECF0E0808185FFFDCF83
S113143081E88093C6009091D709E0ECF0E08081C8
S113144085FFFDCF80E18093C6009068E0ECF0E07A
S1131450808185FFFDCF9093C60022C0E0ECF0E0D0
S1131460808185FFFDCF8FE08093C600E0ECF0E043
S1131470808185FFFDCF82E88093C60090915B0652
S1131480E0ECF0E0808185FFFDCF80E18093C60031
S11314909068E0ECF0E0808185FFFDCF9093C6007A
S11314A081E090E090931106809310063FC08091F4
S11314B01506813081F4E0910E06F0910F06EB5B86
S11314C0F94F9083E0910E06F0910F06EF5BF74F12
S11314D08FE780830FC0E0910E06F0910F06EF5B5B
S11314E0F74F9083E0910E06F0910F06EB5BF94FF6
S11314F08FE7808381E090E090931106809310063B
S113150015C081E090E09093BB058093BA050EC0AE
S113151080931602823019F08C3029F007C081E0E4
S11315208093130603C081E080931206FF91EF912C
S11315309F918F917F916F915F914F910F900BBE0F
S11315400F900FBE0F901F9018951F920F920FB619
S11315500F9211240BB60F928F939F93EF93FF93E7
S11315608091D60090911306911118C08F3F81F09D
S1131570E0911C06F0E0EF5CF94F808380911C063B
S11315808F5F80931C0680911C068093050121C007
S11315901092050181E0809313061BC090911206FE
S11315A0911117C08F3F81F0E0911B06F0E0E35EDC
S11315B0F94F808380911B068F5F80931B06809177
S11315C01B068093050105C01092050181E08093FC
S11315D01206FF91EF919F918F910F900BBE0F9088
S11315E00FBE0F901F901895259A2D9A0895E1E843
S11315F0F0E010828CEF8093850081E0809384007A
S113160093E0909389008FEF8093880090938700F4
S1131610809386008BEA80938000109282008CE095
S11316208083089510928900682F70E080E090E034
S11316300E9472192BE734E14EEE5FE30E94DE183C
S113164020E030E04CE052E40E947A180E944619EF
S11316506093880008953B9A4398089586B1886002
S113166088B9089586B1877F88B9089510BA11BAE8
S11316701092070110920801089581B18F6081B919
S113168082B1807F82B9EAE0F1E080818861808361
S1131690EBE0F1E080818861808308956C98749A0E
S11316A008956D98759A0895E8DFF8DFFADF0E94CF
S11316B0AC00DCDFD0CF0895E1E2F1E010828FEFDF
S11316C08093250191E09093240110922901809345
S11316D0280110922B0180932A0110922D018093EE
S11316E02C0189EA809320018BE080830895EAE746
S11316F0F0E0108210927B0080E280937C0080E80E
S113170080BF86E880830895883018F098E090932D
S11317107B008770806280937C00EAE7F0E0808140
S113172080648083808184FFFDCF80917900EAE723
S1131730F0E090819061908310927B000895F8947A
S1131740EAE6F0E0808182608083EC9A78940895E0
S1131750F894EAE6F0E0808188608083ED9A7894DA
S113176008951F920F920FB60F9211248F939F9397
S1131770AF93BF938091B0059091B105A091B2054C
S1131780B091B3050196A11DB11D8093B00590934E
S1131790B105A093B205B093B305BF91AF919F91EA
S11317A08F910F900FBE0F901F9018951F920F925C
S11317B00FB60F9211248F939F93AF93BF93809191
S11317C0B4059091B505A091B605B091B705019601
S11317D0A11DB11D8093B4059093B505A093B605E2
S11317E0B093B705BF91AF919F918F910F900FBEAA
S11317F00F901F90189592B1907F8F70982B92B98B
S1131800089586E0F8CF089585E0F5CF08958AE03D
S1131810F2CF089580E0EFCF0895CF92DF92EF9258
S1131820FF920F931F93BC0180E090E00E94721915
S113183028E431EE42E850E40E94DE180E94461982
S1131840AB0160E070E01092B0051092B105109207
S1131850B2051092B3051092B4051092B50510921A
S1131860B6051092B70591E0E0E0C090B005D090C5
S1131870B105E090B205F090B3050091B405109164
S1131880B5052091B6053091B705892F04171507C2
S11318902607370708F48E2F811109C0892FC41633
S11318A0D506E606F70608F48E2F8823F1F2B2DF98
S11318B01F910F91FF90EF90DF90CF900895CF93F9
S11318C0DF93EC01A1DF9FEF9093280190932A010D
S11318D0CE01A3DFDF91CF910895CF93DF93EC0185
S11318E096DF9FEF9093280190932A01CE0195DF14
S11318F0DF91CF9108958FEF809304011092050139
S11319000895F894D1DEE1ECF0E010821092C0006A
S113191026E02093C2009FE59093C4001092C50076
S113192088E98083E1EDF0E010821092D0002093EA
S1131930D2009093D4001092D500808300DF08DF9A
S1131940D6DEBADE0E94B3000E9451014DDE4FDEA6
S1131950D2DF78940895BC0180E090E00E9472196F
S113196025EE30ED4AEA50E40E94DE180E94461942
S1131970AB01BC011092B0051092B1051092B205F2
S11319801092B3058091B0059091B105A091B20574
S1131990B091B305481759076A077B0798F73ACF00
S11319A00895CF93DF93EC012CDF90911002909374
S11319B0280190932A01CE01CEDFDF91CF910895C3
S11319C04F925F926F927F928F929F92AF92BF924B
S11319D0CF92DF92EF92FF920F931F93CF93DF93F7
S11319E0CDB7DEB7C05CD1090FB6F894DEBF0FBE29
S11319F0CDBFDE01AF59BF4F20E6FD0111922A95FC
S1131A00E9F7EEE5F6E08E010F5F1F4F78016D01F7
S1131A100EEB16E0970163E670E04FEF5FEF619322
S1131A207193D9014D935D939D01D6011D921D9231
S1131A306D01E017F10799F7FC01AC01445F5F4FBA
S1131A408FEF9FEF61E070E0208131812115310536
S1131A5009F1220F331FD901A45AB94F1D921C92C8
S1131A60019620813181DC01AA0FBB1F01E010E047
S1131A700C0F1D1FA00FB11F2D933C93D90111977B
S1131A80AA0FBB1F21E630E02C0F3D1FA20FB31F8E
S1131A906D937C933296E417F507B1F6AE2C9F2C28
S1131AA0812C712C6894BB24B2F8612CCC24C3948F
S1131AB0D12CA981BA81119799236CF0EA2DF92DC3
S1131AC0282D372D2F5F3F4F4281538141935193EE
S1131AD082179307BCF70197FD01EE0FFF1FEE0F6E
S1131AE0FF1FEE0FFF1FE254F94F2B2D362DAA0FC7
S1131AF0BB1FAD01425A594F2A0161917191611581
S1131B007105D1F1D2010D911C910F5F1F4FAB01F3
S1131B10415051097A01EE0CFF1CD701A25AB94F6A
S1131B20ED90FC90E016F10644F07A01EE0CFF1CF7
S1131B30D701A25AB94F0D931C938A01000F111FAC
S1131B40A1E6B0E0AC0FBD1F0A0F1B1FD8010D9119
S1131B501C9111970130110579F0CD92DC92019618
S1131B60AC01440F551F01E010E00C0F1D1F400F86
S1131B70511FDA016D937C932150310909F0BDCFD7
S1131B8029813A812F3F3F4F09F093CF8F3FEFEFE9
S1131B909E0709F08ECFC054DF4F0FB6F894DEBF16
S1131BA00FBECDBFDF91CF911F910F91FF90EF90AA
S1131BB0DF90CF90BF90AF909F908F907F906F9069
S1131BC05F904F900895DF92EF92FF920F931F93CF
S1131BD0CF93DF939923C4F422273327281B390B8F
S1131BE0253B310534F08C5A9E4F69DEE12CF12CF3
S1131BF01DC02CEE3FEFA901481B590BCA016DDE35
S1131C00EE24E394F12C12C0853B91055CF024E5AD
S1131C1031E0F901E81BF90BCF015FDEEE24E39418
S1131C20F12C04C044974BDEE12CF12CF3DDFFEFE3
S1131C302FE342E0F15020404040E1F700C00000B3
S1131C4008E211E00F2EF4E6DF2EF02DCAE2D1E017
S1131C5083E05ADD8093AF0582E056DD8093AE05C4
S1131C6081E052DD8093AD054091AF0550E023E063
S1131C7030E061E081E00E947C014091AE0550E0DB
S1131C8023E030E065E081E00E947C014091AD05F5
S1131C9050E023E030E069E081E00E947C01E1143F
S1131CA0F10429F4B1DDF801D082D88204C0AFDD9B
S1131CB0F801D082D8828091AE05883348F48091AF
S1131CC0AF05893728F48091AD05893708F4C0CF72
S1131CD0A1DDDF91CF911F910F91FF90EF90DF90E5
S1131CE008959C01FC01EB5BF94F80818F3729F14A
S1131CF0E0ECF0E0908195FFFDCF8FE08093C6008B
S1131D00E0ECF0E0908195FFFDCF81E88093C60080
S1131D10F901EB5BF94F9081E0ECF0E0808185FF05
S1131D20FDCF8EE08093C6009068E0ECF0E0808107
S1131D3085FFFDCF9093C60024C0E0ECF0E09081D5
S1131D4095FFFDCF8FE08093C600E0ECF0E090813A
S1131D5095FFFDCF82E88093C600F901EF5BF74F52
S1131D609081E0ECF0E0808185FFFDCF8EE08093F0
S1131D70C6009068E0ECF0E0808185FFFDCF909391
S1131D80C60081E090E090931106809310060895B8
S1131D90CF93892B29F5CAE58C2F44DC29E989E501
S1131DA091E0215080409040E1F70000C150A0F73D
S1131DB02FEF8FE794E0215080409040E1F700C07E
S1131DC00000C0E08C2F2EDC29E989E591E0215048
S1131DD080409040E1F70000CF5FCB3599F725C0F4
S1131DE0CAE58C2F1FDC29E989E591E02150804068
S1131DF09040E1F70000CF5FC53B99F72FEF8FE7E5
S1131E0094E0215080409040E1F700C00000C4EB12
S1131E108C2F08DC29E989E591E02150804090402D
S1131E20E1F70000C150C93599F7CF9108952F9279
S1131E303F924F925F926F927F928F929F92AF9256
S1131E40BF92CF92DF92EF92FF920F931F93CF93A3
S1131E50DF935C011092280110922A01E09119028B
S1131E60F0911A023197EE0FFF1FEE0FFF1FE80FDC
S1131E70F91FEE0FFF1FE95AF74FC081D1818091FE
S1131E80120290911302C81BD90BBE010D2E000C37
S1131E90880B990B0E9474199F7720E030E044E38B
S1131EA052E40E94001A181644F486E490E079DDA6
S1131EB0CE0189DEC1E0D0E002C0C0E0D0E0E09114
S1131EC01902F0911A023197EE0FFF1FEE0FFF1F58
S1131ED0EA0DFB1DEE0FFF1FE95AF74F8081918138
S1131EE090931302809312022091B8053091B905A2
S1131EF021303105E9F4E0911A06F0E0EF5CF94F86
S1131F00E081F0E0EE0FFF1FEE0FFF1FEE5DFC4FD0
S1131F10208131818217930721F481E090E038DF3A
S1131F2003C080E090E034DF1092B9051092B80548
S1131F3068DC1092B0051092B1051092B2051092AF
S1131F40B305CD2B01F58091B0059091B105A09119
S1131F50B205B091B3050A97A105B105A0F4A8E2B2
S1131F60B1E084E6EAE2F1E08C9380834091B0052D
S1131F705091B1056091B2057091B3054A30510595
S1131F806105710588F3D1E0C0E0612C712C8824CF
S1131F908394912C0F2EF0E1CF2EF2E0DF2EF02D62
S1131FA00F2EF8E2EF2EFF24F394F02D0AE211E055
S1131FB083E0AADB8093AF0582E0A6DB8093AE05C5
S1131FC081E0A2DB8093AD0586E09EDB8093AC05C7
S1131FD04091AF0550E023E030E061E081E00E94F1
S1131FE07C014091AE0550E023E030E065E081E003
S1131FF00E947C014091AD0550E023E030E069E0AF
S113200081E00E947C014091AC0550E023E030E087
S11320106CE081E00E947C018091AC05813908F07C
S113202056C0C82DD92DA114B10411F0C62DD72D39
S1132030E0911902F0911A023197EE0FFF1FEE0F93
S1132040FF1FEC0FFD1FEE0FFF1FE95AF74F8081B2
S113205091812091120230911302821B930BB3DD04
S1132060E0911902F0911A023197EE0FFF1FEE0F63
S1132070FF1FEC0FFD1FEE0FFF1FE95AF74F808182
S1132080918190931302809312028091190290918E
S11320901A0290930F0280930E028091190290917C
S11320A01A020197880F991F880F991FC80FD91F0B
S11320B0CC0FDD1FC254D94F8881998190931A02A5
S11320C080931902482D592DD62DC72D02C0462DB7
S11320D0572D8091AE0590E02091140230911502A5
S11320E0281739077CF46091AF0570E0261737078D
S11320F00CF459C06091AD0570E0261737070CF455
S11321005FC031C04091AF05642F70E026173707D8
S113211084F477DB23E030E0482D592D61E082E040
S11321200E947C01F6018081F7011082F80180830E
S11321303FCF5091AD05652F70E02617370784F423
S113214060DB23E030E042E050E061E082E00E94A6
S11321507C01F6018081F7018083F801108228CF89
S11321602817390784F44DDBF6018081F701808359
S1132170F801808323E030E0462D572D61E082E0B2
S11321800E947C0115CF541738F4F6018081F701C1
S11321901082F80180830CCFF6018081F7018083DF
S11321A0F801108205CF8091B0059091B105A091FE
S11321B0B205B091B3054597A105B10580F4A9CF47
S11321C02090B0053090B1054090B2055090B30511
S11321D0F5E12F1631044104510440F4B1CF452BED
S11321E009F097CF05C04091AF05A3CF452BD9F790
S11321F008DB1092280110922A0123E030E044E623
S113220050E061E082E00E947C018D2F9C2FDF91E1
S1132210CF911F910F91FF90EF90DF90CF90BF90DF
S1132220AF909F908F907F906F905F904F903F9072
S11322302F900895CF93DF939C01BC0161507109E5
S1132240DB01AA0FBB1FA25AB94F8D919C91892B18
S113225039F43093DF092093DE09822F932F3CC099
S1132260DB01AA0FBB1FAA0FBB1FAA0FBB1FFD01D7
S1132270E254F94F0190F081E02DEE0FFF1FE45A74
S1132280F94FC081D181A054B94F40E050E021E022
S113229030E08D919D91009761F0880F991FFC01AA
S11322A0E45AF94F808191818C179D0714F4A90198
S11322B0EC012F5F3F4F2430310559F7FB01EE0F3E
S11322C0FF1FEE0FFF1FE40FF51FEE0FFF1FE25479
S11322D0F94F80819181AEDFDF91CF9108959F9274
S11322E0AF92BF92CF92DF92EF92FF920F931F9320
S11322F0CF93DF9380911C06882309F465C1C0E065
S1132300D0E0C12CD12C99249394A12C0F2EFFE75B
S1132310BF2EF02D0F2EFFE7EF2EF12CF02DFE0136
S1132320E35EF94F8081882309F494C0FE01E35EE3
S1132330F94F808190E001979C01220F331F820F97
S1132340931F880F991F880F991F86559C4F38DB60
S1132350E0911C02F0911D02EE0FFF1FE45AF94FA9
S113236080819181E0911B02F0E0EE0FFF1FE45A9F
S1132370F94F20813181281739079CF48091160682
S113238000911406E0911B0210E0080F111DF0E00B
S1132390EE0FFF1FE45AF94F80819181080F191F36
S11323A009C0209116060091140610E0020F111DB9
S11323B0080F191FFE01EF5CF94F808190E001972F
S11323C09C01220F331F820F931F880F991F880FC0
S11323D0991F86559C4FF4DAE0911C02F0911D027E
S11323E0EE0FFF1FE45AF94F80819181E0911B02A7
S11323F0F0E0EE0FFF1FE45AF94F208131812817D6
S113240039079CF42091160680911406E0911B0272
S113241090E0820F911DF0E0EE0FFF1FE45AF94F98
S113242020813181820F931F09C0409116062091AB
S1132430140630E0240F311D820F931F392D2A2DED
S11324400817190714F03C2D2D2D032F122F0115F9
S11324501105A9F4FE01EF5CF94F808190E001972A
S11324609C01220F331F820F931F880F991F880F1F
S1132470991F86559C4FA4DA0C2D1D2D12C0FE0108
S1132480E35EF94F808190E001979C01220F331F96
S1132490820F931F880F991F880F991F86559C4F91
S11324A08FDA2091160680911C0290911D02FC0186
S11324B0EE0FFF1FE45AF94F40815181A091140699
S11324C0E0911B02BA01620F711DF0E0EE0FFF1FD5
S11324D0E45AF94F208131812A0F311D261737071D
S11324E00CF040C0E0911B0290911406F0E0EE0F56
S11324F0FF1FE45AF94F8081890F8093140680915D
S11325001B0290E097DE80931B02012B89F48091DB
S1132510E4059091E505880F991FFC01EA51FA4FF3
S1132520D183C083FC01E454FA4FF182E08210C0ED
S11325308091E4059091E505880F991FFC01E4540E
S1132540FA4FD183C083FC01EA51FA4FF182E08251
S11325508091E4059091E50501969093E5058093BB
S1132560E4052AC020911606420F4093160662DE47
S113257090931D0280931C02012B69F4E0911806CC
S1132580F0E0EB5BF94FC083E0911806F0E0EF5BFD
S1132590F74FB0820CC0E0911806F0E0EF5BF74F04
S11325A0C083E0911806F0E0EB5BF94FB0828091B4
S11325B018068F5F80931806219680911C0690E080
S11325C08C179D0709F0ABCEDF91CF911F910F912E
S11325D0FF90EF90DF90CF90BF90AF909F900895C1
S11325E02F923F924F925F926F927F928F929F921F
S11325F0AF92BF92CF92DF92EF92FF920F931F930D
S1132600CF93DF9300D000D0CDB7DEB70E94800215
S113261078D98AE507D810920501109213068FE540
S113262095E00E944301809112068823E1F30E9401
S113263074028AE695E00E9443018FEF80930501BE
S1132640E0ECF0E0808185FFFDCF81E08093C6005F
S113265080911C068823C1F020E030E0E0ECF0E03B
S113266046EC50E0D901AF5CB94F9C9190688081F1
S113267085FFFDCFDA019C932F5F3F4F80911C06AD
S113268090E02817390774F3E0ECF0E0808185FFCF
S1132690FDCF82E08093C600E0ECF0E0808185FF0E
S11326A0FDCF8BE08093C60080911B068823C1F088
S11326B020E030E0E0ECF0E046EC50E0D901A35E2D
S11326C0B94F9C919068808185FFFDCFDA019C937E
S11326D02F5F3F4F80911B0690E02817390774F352
S11326E0E0ECF0E0808185FFFDCF8CE08093C600B4
S11326F08FE0809305010E94740284E795E00E94B4
S113270043010E9474028AE795E00E944301E7DDD9
S11327100E94740288E895E00E9443018091E405D8
S11327209091E50518161906DCF546EE55E08CEB9C
S113273095E020E030E0E0ECF0E00F2EF6ECEF2E38
S1132740F12CF02D13E07DE06C01DA019C914E5FD9
S11327505F4F808185FFFDCFD7011C93692F60688F
S1132760808185FFFDCFD7016C9390931B02D60126
S11327709C91B2E0CB0ED11C808185FFFDCFD701A7
S11327807C939068808185FFFDCFD7019C932F5F58
S11327903F4F8091E4059091E50528173907ACF285
S11327A00E94740282E995E00E9443018091180618
S11327B08823E1F380E092E09093E3098093E209B7
S11327C080911C068823F1F000E010E0F801EF5C32
S11327D0F94F408150E022E030E061E082E00E9465
S11327E07C01BFEFEFEFFCE2B150E040F040E1F7D5
S11327F000C000000F5F1F4F80911C0690E0081777
S1132800190724F30E947402A12C0F2EF6ECCF2E8C
S1132810D12CF02D6894552452F81982AA8221E013
S11328202D831E82412C312C22242394B12C03C4E9
S1132830E0910E06F0910F06EB5BF94F80818F3724
S1132840E1F1E0910E06F0910F06EB5BF94FE081A8
S1132850F0E0EF5CF94F808190E001979C01220F3A
S1132860331F820F931F880F991F880F991F865556
S11328709C4FA6D8E0910E06F0910F06EB5BF94F42
S1132880E081F0E0EF5CF94F408150E022E030E07D
S11328906CE082E00E947C0189819A819C838B8315
S11328A0E0911902F0911A02EE0FFF1FE45AF94F5A
S11328B080819181892B89F593C1E0910E06F09175
S11328C00F06EF5BF74FE081F0E0E35EF94F8081A4
S11328D090E001979C01220F331F820F931F880FF2
S11328E0991F880F991F86559C4F6AD8E0910E0650
S11328F0F0910F06EF5BF74FE081F0E0E35EF94FF4
S1132900408150E022E030E06CE082E00E947C01F3
S11329109D819B83AE81AC83C3CF409119025091BA
S11329201A0222E030E065E082E00E947C01E0913E
S11329301902F0911A02EE0FFF1FEE0FFF1FEE0FA8
S1132940FF1FEA54F94F0190F081E02DEE0FFF1FB5
S1132950E45AF94F20813181E0911902F0911A0271
S1132960EE0FFF1FEE0FFF1FEE0FFF1FEA54F94F8C
S113297060807180842C932C822D9B2DE091190210
S1132980F0911A023197EE0FFF1FEE0FFF1FE80FB1
S1132990F91FEE0FFF1FE254F94F40815181452B7F
S11329A009F445C0E0911902F0911A023197EE0F33
S11329B0FF1FEE0FFF1FE80FF91FEE0FFF1FE2547A
S11329C0F94F0190F081E02DEE0FFF1FE45AF94F0B
S11329D0408151814217530754F5E0911902F09157
S11329E01A023197EE0FFF1FEE0FFF1FE80FF91FBA
S11329F0EE0FFF1FE254F94F0190F081E02DEE0F2E
S1132A00FF1FE45AF94F20813181E0911902F091BE
S1132A101A023197EE0FFF1FEE0FFF1FE80FF91F89
S1132A20EE0FFF1FE254F94F608071804C01019654
S1132A308430910509F0A2CF7401830122E030E0D3
S1132A40A30168E082E00E947C018091170220913A
S1132A50190230911A0290E08217930791F4809141
S1132A60180290E08615970561F480910E06909106
S1132A700F0637D9E981FA81F0931106E093100625
S1132A80AFC08091170290E080179107D1F3809135
S1132A90180290E080179107D1F38091100690916D
S1132AA01106019739F429813A8130931106209354
S1132AB0100696C0A0ECB0E08C9185FFFBCF85E0BA
S1132AC0F60180830068A0ECB0E08C9185FFFBCF19
S1132AD0F6010083C701ABD9892B09F04CC07401FE
S1132AE0B301A0910E02B0910F02119729813A818E
S1132AF0AA0FBB1FAA0FBB1FA80DB91DAA0FBB1F8E
S1132B00A254B94F4D915C91119741505109FA016A
S1132B10EE0FFF1FEE0FFF1FE20FF31FEE0FFF1F5D
S1132B20E254F94F808191818617970769F4FA017D
S1132B30EE0FFF1FEE0FFF1FE20FF31FEE0FFF1F3D
S1132B40E254F94F118210822F5F3F4F2430310538
S1132B50C9F6E0910E02F0910F023197EE0FFF1FBC
S1132B60EE0FFF1FEE0DFF1DEE0FFF1FE254F94F96
S1132B701182108235C0E0911902F0911A02319746
S1132B80EE0FFF1FEE0FFF1FEE0DFF1DEE0FFF1FD9
S1132B90E254F94F8081918190931A028093190233
S1132BA02091190230911A02A0ECB0E08C9185FFBB
S1132BB0FBCFF60150822068A0ECB0E08C9185FF39
S1132BC0FBCFF6012083E0911902F0911A02EE0F77
S1132BD0FF1FE45AF94F80819181892B09F09DCE22
S1132BE0E0911902F0911A02EE0FFF1FE45AF94F17
S1132BF080819181892B09F01EC22B813C81232B7A
S1132C0061F4E0910E06F0910F06EB5BF94F9081B1
S1132C1080911A069813F5CF0CC0E0910E06F0913E
S1132C200F06EF5BF74F908180911A069813F5CF4A
S1132C3040C0E0911A06F0E0EF5CF94FE08180912A
S1132C4012029091130234E0E39FF0011124EE5D2F
S1132C50FC4F208131812817390791F0E0911A0641
S1132C60F0E0EF5CF94FE081A4E0EA9FF001112469
S1132C70EE5DFC4F228133818217930709F058C01F
S1132C80E0911A06F0E0EF5CF94FE081B4E0EB9FCD
S1132C90F0011124EE5DFC4F2081318182179307EE
S1132CA021F481E090E074D899C180E09A2D70D825
S1132CB095C1E0911A06F0E0E35EF94FE08180915E
S1132CC012029091130224E0E29FF0011124EE5DC0
S1132CD0FC4F208131812817390789F0E0911A06C9
S1132CE0F0E0E35EF94FE08134E0E39FF00111246A
S1132CF0EE5DFC4F2281338182179307E1F4E0916A
S1132D001A06F0E0E35EF94FE081A4E0EA9FF001E7
S1132D101124EE5DFC4F208131818217930721F449
S1132D2081E090E035D85AC180E09A2D31D856C15F
S1132D3080E09A2D02C080E09A2DE6E02B813C8150
S1132D40232BC9F5A0911A06B0E0AF5CB94F2C91C2
S1132D5030E021503109D901AA0FBB1FA20FB31FC4
S1132D60AA0FBB1FA80FB91FAA0FBB1FA655BC4FA4
S1132D702D913C91232B09F455C0A0911A06B0E083
S1132D80AF5CB94F4C912091190230911A0250E076
S1132D9041505109E49FD001E59FB00D1124A80FC3
S1132DA0B91FAA0FBB1FA655BC4F4D915C9142178A
S1132DB05307C1F53EC0A0911A06B0E0A35EB94F17
S1132DC02C9130E021503109D901AA0FBB1FA20F69
S1132DD0B31FAA0FBB1FA80FB91FAA0FBB1FA6556D
S1132DE0BC4F2D913C91232BE9F0A0911A06B0E041
S1132DF0A35EB94F4C912091190230911A0250E010
S1132E0041505109E49FD001E59FB00D1124A80F52
S1132E10B91FAA0FBB1FA655BC4F4D915C91421719
S1132E20530739F001968430910509F087CF80E08B
S1132E309A2D00E01A2DAB81BC81AB2BD9F5A09162
S1132E401902B0911A02E0911A06F0E0EF5CF94F12
S1132E50E0811197AA0FBB1FAA0FBB1FA00FB11FC0
S1132E60AA0FBB1FA254B94FF0E03197EE0FFF1F1A
S1132E70EE0FFF1FE80FF91FEE0FFF1FE25EFD4F7D
S1132E802D913C91408151812417350709F04CC0A4
S1132E90E0911902F0911A023197EE0FFF1FEE0F25
S1132EA0FF1FE00FF11FEE0FFF1FE254F94F608088
S1132EB0718042C0A0911902B0911A02E0911A06E1
S1132EC0F0E0E35EF94FE0811197AA0FBB1FAA0F50
S1132ED0BB1FA00FB11FAA0FBB1FA254B94FF0E034
S1132EE03197EE0FFF1FEE0FFF1FE80FF91FEE0FD4
S1132EF0FF1FE25EFD4F2D913C91408151812417CB
S1132F00350791F4E0911902F0911A023197EE0F0E
S1132F10FF1FEE0FFF1FE00FF11FEE0FFF1FE25424
S1132F20F94F6080718008C00F5F1F4F0430110596
S1132F3009F081CF00E01A2DBD81B093B805EE8170
S1132F40E093B9058091170290E086159705D1F3B7
S1132F508091180290E086159705D1F3862DA0EC98
S1132F60B0E09C9195FFFBCF95E0F60190838068DB
S1132F70A0ECB0E09C9195FFFBCFF6018083C801E3
S1132F800E94170F019751F5E0911902F0911A026E
S1132F903197EE0FFF1FEE0FFF1FE00FF11FEE0F33
S1132FA0FF1FE254F94F8081918190931A0280931C
S1132FB019028091190290911A029C01A0ECB0E0D0
S1132FC09C9195FFFBCFC901F60150828068A0EC6B
S1132FD0B0E09C9195FFFBCFF60180830E942E0BFD
S1132FE0FFEF2FE736E1F15020403040E1F700C019
S1132FF000000E94320B80910E0690910F060196FC
S113300090930F0680930E0680911A06A0ECB0E010
S11330109C9195FFFBCF96E0F60190838068A0EC2D
S1133020B0E09C9195FFFBCFF601808380911A0656
S11330308F5F80931A06E0911A06F0E0EF5CF94F77
S11330408081811108C0E0911A06F0E0E35EF94F37
S11330508081882359F08091180620910E063091C2
S11330600F0690E08217930709F0E2CB8CE995E014
S113307006D2E0ECF0E0808185FFFDCF8AE080930A
S1133080C600E0ECF0E0808185FFFDCF80E880930E
S1133090C6008091BA059091BB050197D1F70E94B3
S11330A02E0BFFEF2FEF30EE80E0F1502040304048
S11330B08040D9F700C000000E94320B80E090E00D
S11330C026960FB6F894DEBF0FBECDBFDF91CF9129
S11330D01F910F91FF90EF90DF90CF90BF90AF9032
S11330E09F908F907F906F905F904F903F902F9024
S11330F008955058BB27AA270ED048C139D130F0C3
S11331003ED120F031F49F3F11F41EF42EC10EF491
S1133110E095E7FB24C1E92F4AD180F3BA1762078F
S113312073078407950718F071F49EF562C10EF4D5
S1133130E0950B2EBA2FA02D0B01B90190010C01C3
S1133140CA01A0011124FF27591B99F0593F50F4DB
S1133150503E68F11A16F040A22F232F342F442733
S1133160585FF3CF469537952795A795F04053952B
S1133170C9F77EF41F16BA0B620B730B840BBAF0FB
S11331809150A1F0FF0FBB1F661F771F881FC2F766
S11331900EC0BA0F621F731F841F48F4879577957A
S11331A06795B795F7959E3F08F0B3CF9395880F31
S11331B008F09927EE0F9795879508950CD0E6C0EF
S11331C0DED040F0D5D030F021F45F3F19F0C7C015
S11331D0511110C1CAC0EBD098F39923C9F35523F8
S11331E0B1F3951B550BBB27AA27621773078407F6
S11331F038F09F5F5F4F220F331F441FAA1FA9F3AC
S113320033D00E2E3AF0E0E830D091505040E6959D
S1133210001CCAF729D0FE2F27D0660F771F881FFE
S1133220BB1F261737074807AB07B0E809F0BB0BED
S1133230802DBF01FF2793585F4F2AF09E3F510511
S113324068F08DC0D7C05F3FECF3983EDCF3869501
S113325077956795B795F7959F5FC9F7880F911D87
S11332609695879597F90895E1E0660F771F881F73
S1133270BB1F621773078407BA0720F0621B730B26
S1133280840BBA0BEE1F88F7E095089598D088F068
S11332909F5790F0B92F9927B751A0F0D1F0660F3E
S11332A0771F881F991F1AF0BA95C9F712C0B13059
S11332B081F09FD0B1E008959CC0672F782F8827B4
S11332C0B85F39F0B93FCCF3869577956795B39598
S11332D0D9F73EF490958095709561957F4F8F4F07
S11332E09F4F0895E89409C097FB3EF4909580950C
S11332F0709561957F4F8F4F9F4F9923A9F0F92FB8
S113330096E9BB279395F695879577956795B79535
S1133310F111F8CFFAF4BB0F11F460FF1BC06F5F1B
S11333207F4F8F4F9F4F16C0882311F096E911C02D
S1133330772321F09EE8872F762F05C0662371F04E
S113334096E8862F70E060E02AF09A95660F771F62
S1133350881FDAF7880F9695879597F9089597F956
S11333609F6780E870E060E008959FEF80EC089527
S113337000240A9416161706180609060895002450
S11333800A9412161306140605060895092E0394CA
S1133390000C11F4882352F0BB0F40F4BF2B11F43E
S11333A060FF04C06F5F7F4F8F4F9F4F089557FD9D
S11333B09058440F551F59F05F3F71F04795880F9F
S11333C097FB991F61F09F3F79F087950895121636
S11333D013061406551FF2CF4695F1DF08C01616E2
S11333E017061806991FF1CF869571056105089493
S11333F00895E894BB2766277727CB0197F90895AA
S113340003D008F48FEF0895990F0008550FAA0B05
S1133410E0E8FEEF16161706E807F907C0F01216E3
S11334201306E407F50798F0621B730B840B950BE6
S113343039F40A2661F0232B242B252B21F408953B
S11334400A2609F4A140A6958FEF811D811D0895D8
S1133450EE0FFF1F881F8BBF0790F691E02D199484
S1133460A29FB001B39FC001A39F700D811D1124C1
S1133470911DB29F700D811D1124911D08950F930C
S11334801F93CF93DF93E091E209F091E309238145
S113349021FF1BC08C01D0E0C0E0F80181918F01B5
S11334A06091E2097091E309DB011896ED91FC91BA
S11334B01997882331F01995892B79F3DFEFCFEF32
S11334C0ECCF8AE01995892B19F08FEF9FEF02C09A
S11334D08D2F9C2FDF91CF911F910F910895F89418
S10534E0FFCF18
S11334E20000000200000000A4000000000001002F
S11334F264005A002300FF0D0D01000D01000100BC
S113350200000000000002000000000000000400AF
S1133512000000000000040000000000000005009C
S11335220000000000000600000000000000080087
S11335320000000000000800000000000000090074
S11335420000000000000A000000000000000C005F
S11335520000000000000C000000000000000D004C
S11335620000000000000E00000000000000100037
S11335720000000000001000000000000000110024
S1133582000000000000120000000000000014000F
S113359200000000000014000000000000001500FC
S11335A200000000000016000000000000001800E7
S11335B200000000000018000000000000000100EC
S11335C2000000000000240019002C002B0005005C
S11335D200000000000009000000000000001D00BF
S11335E21C002E002D000D00000000000000110040
S11335F20000000000002100200030002F00150010
S11336020000000000005A00FF004B00F0003C00E4
S1133612E1002D00D2001E00C3000F00B400000020
S1133622A500590196004A0187003B0178002C014C
S113363269001D015A000E014B00FF003C00F0001E
S11336422D00E1001E00D2000F00C3000000B400F0
S11336525901A5004A0196003B0187002C0178001C
S11336625A0069001D01FF005A00F0003C00C3002B
S11336721E0087004A0178002C014B000E010F0046
S1133682D2000000B4003B019600010000000000DB
S11336920000000000000200000000000000000022
S11336A2000003000000000000000000000004000D
S11336B200000000000000000000050000000000FF
S11336C200000000000006000000000000000000EE
S11336D200000700000000000000000000000800D5
S11336E200000000000000000000090000000000CB
S11336F20000000000000A000000000000000000BA
S113370200000B00000000000000000000000C009C
S1133712000000000000000000000D000000000096
S11337220000000000000E00000000000000000085
S113373200000F0000000000000000000000100064
S11337420000000000000000000011000000000062
S11337520000000000001200000000000000000051
S1133762000013000000000000000000000014002C
S1133772000000000000000000001500000000002E
S1133782000000000000160000000000000000001D
S113379200001700000000000000000000001800F4
S11337A20000000000000000000001000000000012
S11337B2000000000000190024002B002C0000006F
S11337C200000500000000000000000000000900E5
S11337D2000000000000000000001C001D002D007D
S11337E22E00000000000D00000000000000000098
S11337F20000110000000000000000000000200092
S113380221002F003000000000001500000000001D
S11338120000000000002020202020202020202062
S11338222020202020202020202020202020202092
S1133832202020202020202020202020202000576B
S1133842616974696E672E2E2E005265636569760E
S11338526564210053656E74210053656E64696E5C
S113386267205461736B730050726F636573736581
S113387264005461736B2053656E7400476F6E6EFF
S10F388261206265204F75742121210033
S9030000FC
