S00D00005461736B352E737265634F
S11300007BC000009AC0000098C0000096C00000A9
S113001094C000000C94CF0A0C94AA0A8EC000006D
S11300208CC000008AC0000088C0000086C00000A8
S113003084C0000082C0000080C000007EC00000B8
S11300407CC000007AC0000078C0000076C00000C8
S113005074C0000072C0000070C000006EC00000D8
S11300606CC000000C943E0968C0000066C000002B
S113007064C0000062C0000060C000005EC00000F8
S11300805CC000005AC0000058C0000056C0000008
S113009054C0000052C0000050C000004EC0000018
S11300A04CC000004AC0000048C0000046C0000028
S11300B044C0000042C0000040C000003EC0000038
S11300C03CC000003AC0000038C000000C94C009D5
S11300D034C0000032C0000030C000002EC0000058
S11300E02CC000006409B1097409800983098609D8
S11300F090099A09A009A30911241FBECFEFD1E2E8
S1130100DEBFCDBF00E00CBF16E0A0E0B2E0EAE342
S1130110F2E300E00BBF02C007900D92A230B107DA
S1130120D9F729E0A2E0B6E001C01D92A43EB207CF
S1130130E1F70E94F60F0C941B1962CFE0EDF0E09A
S1130140908195FFFDCF8093D600089587B1876F86
S113015087B988B1807888B9089586E69EE00197CA
S1130160F1F700004098419880E388B9429AEFEF94
S1130170F7E43197F1F700C000004298E6E6FEE0AC
S11301803197F1F700004098419888B9429AEFEF0F
S1130190F7E43197F1F700C000004298E6E6FEE08C
S11301A03197F1F700004098419888B9429A8FEF4F
S11301B097E40197F1F700C000004298E6E6FEE0FC
S11301C03197F1F700004098419880E288B9429A4B
S11301D08FEF97E40197F1F700C00000429808956B
S11301E098B19F7098B998B1282F207F922B98B915
S11301F040984198429AEFEFF7E43197F1F700C045
S11302000000429898B19F7098B998B18295807F08
S1130210892B88B940984198429A8FEF97E40197C7
S1130220F1F700C000004298089598B19F7098B902
S113023098B1282F207F922B98B9409A4198429ADE
S1130240EFEFF7E43197F1F700C00000429898B15E
S11302509F7098B998B18295807F892B88B9409A0C
S11302604198429A8FEF97E40197F1F700C000009C
S11302704298089580E8B4CF0895CF93DF93EC01BA
S11302808881882329F02196D0DF89918111FCCFC0
S1130290DF91CF91089586E69EE00197F1F7000083
S11302A088E29EDF81E09CDF86E09ADF8EE098DFC3
S11302B080E896CF0895823069F018F4813031F0E7
S11302C00895833059F0843069F008958FE7860FDC
S11302D087CF08958FEB860F83CF089583E9860F28
S11302E07FCF089583ED860F7BCF08950F931F93DF
S11302F0CF93DF938A01E901882311F0611102C0D1
S1130300B9DF01C0D8DFC530D105C1F498013295F9
S113031022952F7023273F702327A7E4B3E00E9480
S11303202F16969587959695879596958795C09659
S11303309093700680936F0678DF04C0C430D105B3
S113034009F0BEC0980136952795369527953695C0
S11303502795A5ECB0E20E942F16AC015295429568
S11303604F7045275F7045275093520840935108BA
S11303709A01ADECBCEC0E942F1696958795969544
S11303808795969587959C01220F331F880F991F97
S1130390880F991F880F991F820F931F9A01281B9A
S11303A0390BC901C0969093DB098093DA093DDFCC
S11303B098013695279536952795ABE7B4E10E94C9
S11303C02F16AC0156954795509352084093510807
S11303D09A01ADECBCEC0E942F16969587959695E4
S11303E08795969587959C01220F331F880F991F37
S11303F0880F991F880F991F820F931F9A01281B3A
S1130400390BC901C0969093D7098093D6090DDFA3
S113041004C0C230D10509F058C09801ADECBCEC61
S11304200E942F16AC0156954795569547955695BB
S1130430479550935208409351089A010E942F16F1
S11304409695879596958795969587959C01220F05
S1130450331F880F991F880F991F880F991F820FC8
S1130460931F9A01281B390BC901C0969093550814
S113047080935408DADE9801ADECBCEC0E942F1690
S11304809695879596958795969587959C01220FC5
S1130490331F880F991F880F991F880F991F820F88
S11304A0931F9801281B390BC901C0969093D90951
S11304B08093D809BADE269764F085E4B6DE09C0D5
S11304C0C330D10509F0A5CF73CFC130D10599F759
S11304D0D2CFDF91CF911F910F91089580E880DEF4
S11304E084E395E0CADE80EC7BDE84E395E0C5DE40
S11304F0C1CE08952F923F924F925F926F927F9256
S11305008F929F92AF92BF92CF92DF92EF92FF921F
S11305100F931F93CF93DF93E6E5F8E00F2EFBE4F0
S1130520AF2EB12CF02DB182A0820F2EFDE14F2E03
S113053055245394F02D538242828FEF9FEF95837D
S1130540848397838683CC24CA94D12CD186C08695
S1130550ACE3B0E0B387A2879587848797878687C3
S113056020EF30E0318B208B0F2EFDE22F2E312C2B
S1130570F02D338A228A158A148A6CE271E0778B13
S1130580668B0F2EF1EE8F2E912CF02D918E808E96
S11305900EE110E0138F028F958F848F978F868FD3
S11305A042ED50E051A340A3CFE0D0E0D3A3C2A3D7
S11305B095A384A397A386A303EC10E011A700A737
S11305C013A612A695A784A797A786A744EB50E085
S11305D051AB40AB09E511E013AB02AB35AB24AB37
S11305E077AB66AB05EA10E011AF00AF0AE411E0A7
S11305F013AF02AF95AF84AF90939508809394089E
S1130600E6E9F0E0F0939708E09396080BE311E035
S1130610109399080093980890939B0880939A08E4
S113062090939D0880939C080F2EF7E86F2E712CF1
S1130630F02D70929F0860929E087093A1086093B9
S1130640A0089093A3088093A2089093A508809390
S1130650A408E8E7F0E0F093A708E093A608509216
S1130660A9084092A8085093AB084093AA08309375
S1130670AD082093AC080F2EF9E6EF2EF12CF02DE7
S1130680F092AF08E092AE080EE011E01093B108CA
S11306900093B0089093B3088093B2089093B50880
S11306A08093B4080AE510E01093B7080093B608E5
S11306B0D092B908C092B8089093BB088093BA0846
S11306C09093BD088093BC08B092BF08A092BE0866
S11306D03093C1082093C0089093C3088093C20844
S11306E09093C5088093C408B093C708A093C60824
S11306F09092C9088092C808F093CB08E093CA0886
S11307005093CD084093CC083092CF082092CE0865
S11307100F2EF2EDCF2ED12CF02DD092D108C09215
S1130720D0089093D3088093D2089093D5088093EF
S1130730D4080F2EFEE1CF2ED12CF02DD092D70865
S1130740C092D6080F2EF3ECCF2ED12CF02DD092E0
S1130750D908C092D8089093DB088093DA08909364
S1130760DD088093DC08D093DF08C093DE08509343
S1130770E1084093E0089093E3088093E2089093A3
S1130780E5088093E4081092E7081092E6080F2E1B
S1130790F5EACF2ED12CF02DD092E908C092E808CA
S11307A0B093EB08A093EA08F093ED08E093EC080B
S11307B00F2EF9E5CF2EDD24D394F02DD092EF083F
S11307C0C092EE080F2EF6E9CF2ED12CF02DD09248
S11307D0F108C092F0089093F3088093F208909384
S11307E0F5088093F4080F2EFAE4CF2EDD24D39479
S11307F0F02DD092F708C092F6087092F908609232
S1130800F8089093FB088093FA089093FD0880936E
S1130810FC080F2EFBE3CF2EDD24D394F02DD092D1
S1130820FF08C092FE08F0930109E0930009909339
S11308300309809302099093050980930409709336
S1130840070960930609F0920909E09208091092D9
S11308500B0910920A09B0930D09A0930C09109387
S11308600F0900930E0950921109409210099093B8
S113087013098093120990931509809314095093D6
S11308801709409316091092190910921809309308
S11308901B0920931A0990931D0980931C095093F6
S11308A01F0940931E091092210910922009B09348
S11308B02309A09322097093250960932409509376
S11308C02709409326091092290910922809F093C8
S11308D02B09E0932A0930932D0920932C091092B7
S11308E02F0910922E0950933109409330097093C7
S11308F03309609332099093350980933409B09396
S11309003709A0933609F0933909E09338093093F5
S11309103B0920933A0990933D0980933C09B09395
S11309203F09A0933E0930934109209340097093F5
S11309304309609342095093450940934409B09395
S11309404709A09346093093490920934809109216
S11309504B0910924A09F0934D09E0934C093093E6
S11309604F0920934E09B0935109A0935009509315
S113097053094093520990935509809354097093F5
S11309805709609356091092590910925809F09327
S11309905B09E0935A0990935D0980935C09709315
S11309A05F0960935E09F0936109E09360095093D5
S11309B0630940936209B0936509A0936409709335
S11309C0670960936609F0936909E09368093093B5
S11309D06B0920936A0910926D0910926C09F093C7
S11309E06F09E0936E09B0937109A0937009709335
S11309F07309609372099093750980937409B09395
S1130A007709A09376093093790920937809909314
S1130A107B0980937A0990937D0980937C09F093F4
S1130A207F09E0937E097093810960938009909314
S1130A308309809382099093850980938409709334
S1130A40870960938609F0938909E0938809909354
S1130A508B0980938A0990938D0980938C09109255
S1130A608F0910928E0950939109409390099093A5
S1130A7093098093920990939509809394095093D4
S1130A8097094093960910929909109298099093A6
S1130A909B0980939A0990939D0980939C093093B4
S1130AA09F0920939E09B093A109A093A009909354
S1130AB0A3098093A2099093A5098093A409509354
S1130AC0A7094093A609B093A909A093A8099093F4
S1130AD0AB098093AA099093AD098093AC09F09374
S1130AE0AF09E093AE093093B1092093B009909314
S1130AF0B3098093B2099093B5098093B409B09374
S1130B00B709A093B6097093B9096093B809909393
S1130B10BB098093BA099093BD098093BC091092D4
S1130B20BF091092BE09F093C109E093C0099093E4
S1130B30C3098093C2099093C5098093C409709333
S1130B40C7096093C6095093C9094093C809909393
S1130B50CB098093CA099093CD098093CC09309333
S1130B60CF092093CE091092D1091092D009909305
S1130B70D3098093D2099093D5098093D409E1EDE8
S1130B80F6E082E090E09183808328E130E03383D3
S1130B902283158214821782168221E030E0318785
S1130BA0208723E030E03387228715861486178652
S1130BB01686918B808B84E090E0938B828B49E145
S1130BC050E0558B448B44E250E0578B468B318F79
S1130BD0208F25E030E0338F228F158E148E178EF0
S1130BE0168E91A380A386E090E093A382A315A21E
S1130BF014A217A216A231A720A727E030E033A73A
S1130C0022A715A614A617A616A691AB80AB88E05A
S1130C1090E093AB82AB45E250E055AB44AB46E287
S1130C2050E057AB46AB31AF20AF29E030E033AFF3
S1130C3022AF15AE14AE1092100710920F079093C6
S1130C401207809311078AE090E090931407809331
S1130C501307109216071092150710921807109296
S1130C60170730931A07209319072BE030E03093CD
S1130C701C0720931B0710921E0710921D07109249
S1130C80200710921F0790932207809321078CE07E
S1130C9090E090932407809323074CE150E0509315
S1130CA02607409325074DE150E0509328074093D1
S1130CB0270730932A07209329072DE030E030934B
S1130CC02C0720932B0710922E0710922D071092B9
S1130CD0300710922F0790933207809331078EE0EC
S1130CE090E0909334078093330710923607109264
S1130CF03507109238071092370730933A0720933C
S1130D003907D0933C07C0933B0710923E071092DB
S1130D103D071092400710923F079093420780933B
S1130D20410720E130E0309344072093430787E2F2
S1130D3090E0909346078093450788E290E0909373
S1130D40480780934707D0934A07C093490781E136
S1130D5090E090934C0780934B0710924E071092AB
S1130D604D071092500710924F073093520720936B
S1130D70510722E130E03093540720935307109237
S1130D8056071092550710925807109257079093E0
S1130D905A078093590783E190E090935C0780930E
S1130DA05B0710925E0710925D0710926007109225
S1130DB05F07309362072093610724E130E03093AA
S1130DC064072093630740E250E050936607409322
S1130DD0650741E250E0509368074093670790939A
S1130DE06A078093690785E190E090936C0780938C
S1130DF06B0710926E0710926D0710927007109295
S1130E006F07309372072093710726E130E0309327
S1130E107407209373071092760710927507109247
S1130E2078071092770790937A078093790787E180
S1130E3090E090937C0780937B0710927E0710923A
S1130E407D071092800710927F0786E190E09093CF
S1130E5082078093810788E190E0909384078093D0
S1130E608307C9E2D0E0D0938607C09385070F2E8D
S1130E70FAE2AF2EB12CF02DB0928807A09287072A
S1130E8081E090E090938A0780938907E7E1F0E09E
S1130E90F0938C07E0938B0710928E0710928D07C6
S1130EA01092900710928F070F2EF3E08F2E912C43
S1130EB0F02D90929207809291076AE170E070930E
S1130EC0940760939307A4E2B0E0B0939607A093CD
S1130ED0950710929807109297070F2EF9E16F2E3D
S1130EE0712CF02D70929A07609299074BE150E0B3
S1130EF050939C0740939B0785E290E090939E0754
S1130F0080939D070F2EFCE24F2E512CF02D509212
S1130F10A00740929F077093A2076093A1072CE15A
S1130F2030E03093A4072093A30786E290E09093E7
S1130F30A6078093A5070DE210E01093A80700937D
S1130F40A7070BE010E01093AA070093A90750939A
S1130F50AC074093AB078DE190E09093AE0780938C
S1130F60AD071092B0071092AF071093B207009329
S1130F70B1073093B4072093B3072EE130E03093E8
S1130F80B6072093B5071092B8071092B70790934D
S1130F90BA078093B9078FE190E09093BC078093E0
S1130FA0BB0707E210E01093BE070093BD070F2EA6
S1130FB0FEE22F2E312CF02D3092C0072092BF0775
S1130FC03093C2072093C1076894EE24E5F8F12C0E
S1130FD0F092C407E092C30708E210E01093C6073A
S1130FE00093C5070F2EFFE2CF2ED12CF02DD09207
S1130FF0C807C092C7070F2EF3E1CF2ED12CF02DD6
S1131000D092CA07C092C9079093CC078093CB07AC
S113101001E210E01093CE070093CD071092D007A1
S11310201092CF07D092D207C092D107F092D40782
S1131030E092D3070F2EF2E2EF2EF12CF02DF09276
S1131040D607E092D5071092D8071092D7071093CD
S1131050DA070093D90703E210E01093DC0700934A
S1131060DB07D093DE07C093DD07C0E3D0E0D09365
S1131070E007C093DF07F092E207E092E107B09344
S1131080E407A093E307B092E607A092E507ABE27A
S1131090B0E0B093E807A093E7079092EA07809244
S11310A0E9077092EC076092EB071093EE07009348
S11310B0ED071092F0071092EF070F2EF7E0CF2EF6
S11310C0D12CF02DD092F207C092F1077093F4075F
S11310D06093F3071092F6071092F5071092F80741
S11310E01092F707D092FA07C092F9075093FC07C1
S11310F04093FB071092FE071092FD071092000820
S11311001092FF070F2EFFE0CF2ED12CF02DD0929E
S11311100208C09201083093040820930308109237
S11311200608109205081092080810920708D09239
S11311300A08C092090890930C0880930B08109237
S11311400E0810920D081092100810920F08F093D8
S11311501208E0931108F0921408E0921308109218
S11311601608109215081092180810921708F09398
S11311701A08E093190810931C0800931B08109296
S11311801E0810921D081092200810921F08109338
S113119022080093210850922408409223081092B8
S11311A02608109225081092280810922708709398
S11311B02A0860932908B0932C08A0932B08109256
S11311C02E0810922D081092300810922F08509378
S11311D03208409331083092340820923308109238
S11311E03608109235081092380810923708309358
S11311F03A08209339080DE210E010933C0800935C
S11312003B0810923E0810923D081092400810923C
S11312103F089093420880934108D0934408C093B8
S113122043081092460810924508109248081092FC
S11312304708F0924A08E09249082FE230E03093E0
S11312404C0820934B0810924E0810924D081092AF
S1131250500810924F08DF91CF911F910F91FF908A
S1131260EF90DF90CF90BF90AF909F908F907F9042
S11312706F905F904F903F902F9008951F920F9220
S11312800FB60F9211240BB60F924F935F936F9387
S11312907F938F939F93EF93FF938091C60088234E
S11312A00CF058C0982F9F77E09114024E2F50E015
S11312B0FA013197EA30F10508F053C08827EE5857
S11312C0FF4F8F4F0C942716E0914406F0E0E55A47
S11312D0F94F9083809144068F5F809344068091F8
S11312E04406809305013DC0E0914106F0E0EB5BCC
S11312F0F94F9083809141068F5F8093410631C0FE
S1131300909316022EC0909315022BC08091430631
S1131310891327C0809143068F5F8093430621C0C1
S11313208091420689131DC0809142068F5F80938D
S1131330420617C080914006890F8093400611C071
S1131340909319020EC081E090E09093130680936D
S1131350120607C080931402823019F481E080934E
S11313603E06FF91EF919F918F917F916F915F91D5
S11313704F910F900BBE0F900FBE0F901F901895BA
S11313801F920F920FB60F9211240BB60F928F93E8
S1131390EF93FF938091D6008F3F81F0E091440654
S11313A0F0E0E55AF94F8083809144068F5F809383
S11313B04406809144068093050105C010920501FE
S11313C081E080933E06FF91EF918F910F900BBEC9
S11313D00F900FBE0F901F901895259A2D9A08957F
S11313E0E1E8F0E010828CEF8093850081E0809347
S11313F0840093E0909389008FEF8093880090930A
S11314008700809386008BEA80938000109282008C
S11314108CE08083089510928900682F70E080E04A
S113142090E00E9471152BE734E14EEE5FE30E94D9
S1131430DD1420E030E04CE052E40E9479140E9474
S113144045156093880008953B9A4398089586B1A2
S1131450886088B9089586B1877F88B9089510BADD
S113146011BA1092070110920801089581B18F609A
S113147081B982B1807F82B9EAE0F1E0808188613C
S11314808083EBE0F1E080818861808308956C982B
S1131490749A08956D98759A0895E8DFF8DFFADF75
S11314A00E94A600DCDFD0CF0895E1E2F1E01082D3
S11314B08FEF8093250191E09093240110922901EC
S11314C08093280110922B0180932A0110922D0100
S11314D080932C0189EA809320018BE08083089516
S11314E0EAE7F0E0108210927B0080E280937C00B7
S11314F080E880BF86E880830895883018F098E0FB
S113150090937B008770806280937C00EAE7F0E030
S1131510808180648083808184FFFDCF8091790005
S1131520EAE7F0E090819061908310927B00089547
S1131530F894EAE6F0E0808182608083EC9A789403
S11315400895F894EAE6F0E0808188608083ED9A5B
S1131550789408951F920F920FB60F9211248F93CF
S11315609F93AF93BF938091060690910706A09135
S11315700806B09109060196A11DB11D80930606C7
S113158090930706A0930806B0930906BF91AF9104
S11315909F918F910F900FBE0F901F9018951F92DF
S11315A00F920FB60F9211248F939F93AF93BF9313
S11315B080910A0690910B06A0910C06B0910D063D
S11315C00196A11DB11D80930A0690930B06A0936A
S11315D00C06B0930D06BF91AF919F918F910F9020
S11315E00FBE0F901F90189592B1907F8F70982B1B
S11315F092B9089586E0F8CF089585E0F5CF08956F
S11316008AE0F2CF089580E0EFCF0895CF92DF9281
S1131610EF92FF920F931F93BC0180E090E00E9431
S1131620711528E431EE42E850E40E94DD140E9472
S11316304515AB0160E070E01092060610920706B3
S1131640109208061092090610920A0610920B06D0
S113165010920C0610920D0691E0E0E0C090060690
S1131660D0900706E0900806F090090600910A065B
S113167010910B0620910C0630910D06892F04174A
S113168015072607370708F48E2F811109C0892F03
S1131690C416D506E606F70608F48E2F8823F1F261
S11316A0B2DF1F910F91FF90EF90DF90CF900895DC
S11316B0CF93DF93EC01A1DF9FEF909328019093E8
S11316C02A01CE01A3DFDF91CF910895CF93DF9359
S11316D0EC0196DF9FEF9093280190932A01CE01AD
S11316E095DFDF91CF9108958FEF809304011092DD
S11316F005010895F894D1DEE1ECF0E01082109237
S1131700C00026E02093C2009FE59093C40010928D
S1131710C50088E98083E1EDF0E010821092D000EA
S11317202093D2009093D4001092D500808300DFE0
S113173008DFD6DEBADE0E94AD000E944B014DDE0A
S11317404FDED2DF78940895BC0180E090E00E94DF
S1131750711525EE30ED4AEA50E40E94DD140E9432
S11317604515AB01BC0110920606109207061092B3
S11317700806109209068091060690910706A0912A
S11317800806B0910906481759076A077B0798F7B6
S11317903ACF0895CF93DF93EC012CDF90910E02A2
S11317A09093280190932A01CE01CEDFDF91CF914F
S11317B008954F925F926F927F928F929F92AF9211
S11317C0BF92CF92DF92EF92FF920F931F93CF932A
S11317D0DF93CDB7DEB7C05CD1090FB6F894DEBF96
S11317E00FBECDBFDE01AF59BF4F20E6FD01119200
S11317F02A95E9F7E1E7F6E08E010F5F1F4F7801C4
S11318006D0101ED16E0970163E670E04FEF5FEFC5
S113181061937193D9014D935D939D01D6011D92FE
S11318201D926D01E017F10799F7FC01AC01445FCB
S11318305F4F8FEF9FEF61E070E0208131812115D0
S1131840310509F1220F331FD901A159B94F1D9256
S11318501C92019620813181DC01AA0FBB1F01E09B
S113186010E00C0F1D1FA00FB11F2D933C93D90145
S11318701197AA0FBB1F21E630E02C0F3D1FA20FCA
S1131880B31F6D937C933296E417F507B1F6AE2C33
S11318909F2C812C712C6894BB24B2F8612CCC242D
S11318A0C394D12CA981BA81119799236CF0EA2DA4
S11318B0F92D282D372D2F5F3F4F428153814193BE
S11318C0519382179307BCF70197FD01EE0FFF1F99
S11318D0EE0FFF1FEE0FFF1FEF52F94F2B2D362D8A
S11318E0AA0FBB1FAD014F58594F2A016191719145
S11318F061157105D1F1D2010D911C910F5F1F4F3C
S1131900AB01415051097A01EE0CFF1CD701AF58CD
S1131910B94FED90FC90E016F10644F07A01EE0C1C
S1131920FF1CD701AF58B94F0D931C938A01000FC8
S1131930111FA1E6B0E0AC0FBD1F0A0F1B1FD80199
S11319400D911C9111970130110579F0CD92DC9223
S11319500196AC01440F551F01E010E00C0F1D1F50
S1131960400F511FDA016D937C932150310909F026
S1131970BDCF29813A812F3F3F4F09F093CF8F3F4D
S1131980EFEF9E0709F08ECFC054DF4F0FB6F894E7
S1131990DEBF0FBECDBFDF91CF911F910F91FF909E
S11319A0EF90DF90CF90BF90AF909F908F907F90FB
S11319B06F905F904F900895DF92EF92FF920F9394
S11319C01F93CF93DF939923C4F422273327281B33
S11319D0390B253B310534F08C5A9E4F69DEE12CDE
S11319E0F12C1DC02CEE3FEFA901481B590BCA0175
S11319F06DDEEE24E394F12C12C0853B91055CF07E
S1131A0024E531E0F901E81BF90BCF015FDEEE2498
S1131A10E394F12C04C044974BDEE12CF12CF3DD6C
S1131A20FFEF2FE342E0F15020404040E1F700C0D7
S1131A30000008E211E00F2EF4E6DF2EF02DCAE2DA
S1131A40D1E083E05ADD8093050682E056DD809381
S1131A50040681E052DD809303064091050650E0C0
S1131A6023E030E061E081E00E94760140910406C9
S1131A7050E023E030E065E081E00E94760140918F
S1131A80030650E023E030E069E081E00E94760143
S1131A90E114F10429F4B1DDF801D082D88204C044
S1131AA0AFDDF801D082D88280910406883348F4EF
S1131AB080910506893728F480910306893708F454
S1131AC0C0CFA1DDDF91CF911F910F91FF90EF90D7
S1131AD0DF900895CF93892B29F5CAE58C2F9BDCE1
S1131AE029E989E591E0215080409040E1F7000028
S1131AF0C150A0F72FEF8FE794E021508040904031
S1131B00E1F700C00000C0E08C2F85DC29E989E5FD
S1131B1091E0215080409040E1F70000CF5FCB3549
S1131B2099F725C0CAE58C2F76DC29E989E591E08F
S1131B30215080409040E1F70000CF5FC53B99F70A
S1131B402FEF8FE794E0215080409040E1F700C0F0
S1131B500000C4EB8C2F5FDC29E989E591E021507A
S1131B6080409040E1F70000C150C93599F7CF910A
S1131B700895EF92FF920F931F93CF93DF93EC019D
S1131B801092280110922A01E0911702F091180294
S1131B903197EE0FFF1FEE0FFF1FE80FF91FEE0F37
S1131BA0FF1FEA5AF74F0081118180911002909132
S1131BB01102081B190BB801012E000C880B990B9C
S1131BC092D79F7720E030E044E352E40E94FF156F
S1131BD018162CF486E490E0DDDDC801EDDE80917A
S1131BE01702909118020197880F991F880F991F67
S1131BF0C80FD91FCC0FDD1FCA5AD74F88819981CE
S1131C0090931102809310022091100630911106D6
S1131C1021303105E9F4E0914306F0E0E55AF94F4B
S1131C20E081F0E0EE0FFF1FEE0FFF1FE05EFC4FC0
S1131C30208131818217930721F480E090E04ADF0C
S1131C4003C081E090E046DF109211061092100666
S1131C50D1DC109206061092070610920806109224
S1131C6009068091060690910706A0910806B09196
S1131C7009060A97A105B105A0F4A8E2B1E084E63B
S1131C80EAE2F1E08C9380834091060650910706C6
S1131C9060910806709109064A3051056105710585
S1131CA088F30F2EFEE0EF2EF2E0FF2EF02D08E277
S1131CB011E0CAE2D1E083E020DC8093050682E0F3
S1131CC01CDC8093040681E018DC8093030686E024
S1131CD014DC809302064091050650E023E030E0D6
S1131CE061E081E00E9476014091040650E023E027
S1131CF030E065E081E00E9476014091030650E007
S1131D0023E030E069E081E00E9476014091020620
S1131D1050E023E030E06CE081E00E9476018091A5
S1131D201202909113022091040630E08217930767
S1131D3074F42091050630E082179307E4F12091B2
S1131D40030630E0821793070CF442C04EC0209182
S1131D500506422F50E0841795070CF055C04ADC65
S1131D6023E030E041E050E061E082E00E9476014F
S1131D70F7018081F801108288839DCF3BDC23E04A
S1131D8030E042E050E061E082E00E947601F70139
S1131D908081F801808318828ECF321730F4F701E6
S1131DA08081F8011082888386CFF7018081F80151
S1131DB08083188280CF8091060690910706A091B7
S1131DC00806B09109064597A105B10540F224C063
S1131DD08091060690910706A0910806B091090625
S1131DE04597A105B10550F217C004DCF7018081C5
S1131DF0F8018083888323E030E040E050E061E034
S1131E0082E00E94760157CF30910306432F50E0C1
S1131E108417950714F6B2CFEDDB109228011092C7
S1131E202A0123E030E044E650E061E082E00E94D1
S1131E30760181E090E0DF91CF911F910F91FF90A7
S1131E40EF900895CF93DF939C01BC016150710919
S1131E50DB01AA0FBB1FAF58B94F8D919C91892B01
S1131E6039F43093DD092093DC09822F932F3CC091
S1131E70DB01AA0FBB1FAA0FBB1FAA0FBB1FFD01CB
S1131E80EF52F94F0190F081E02DEE0FFF1FE15961
S1131E90F94FC081D181AD52B94F40E050E021E00B
S1131EA030E08D919D91009761F0880F991FFC019E
S1131EB0E159F94F808191818C179D0714F4A90190
S1131EC0EC012F5F3F4F2430310559F7FB01EE0F32
S1131ED0FF1FEE0FFF1FE40FF51FEE0FFF1FEF5262
S1131EE0F94F80819181AEDFDF91CF910895CF9337
S1131EF0DF9380914406882309F475C0C0E0D0E0E4
S1131F00FE01E55AF94F808190E001979C01220F70
S1131F10331F820F931F880F991F880F991F8855AD
S1131F209C4F47DC2091400680911A0290911B023D
S1131F30FC01EE0FFF1FE159F94F40815181A0913F
S1131F403F06E0911902BA01620F711DF0E0EE0F35
S1131F50FF1FE159F94F208131812A0F311D2617C6
S1131F60370724F5E091190290913F06F0E0EE0F57
S1131F70FF1FE159F94F8081890F80933F068091BB
S1131F80190290E05FDF809319028091140690910A
S1131F901506FC01EE0FFF1FEA5EF94FD183C083E3
S1131FA00196909315068093140615C0209140065F
S1131FB0420F4093400646DF90931B0280931A021F
S1131FC0E0914106F0E0EB5BF94FC083809141065C
S1131FD08F5F8093410621968091440690E08C1790
S1131FE09D0709F08DCFDF91CF9108952F923F92F5
S1131FF04F925F926F927F928F929F92AF92BF9215
S1132000CF92DF92EF92FF920F931F93CF93DF93C0
S113201000D01F92CDB7DEB70E947A026BDB8AE54F
S1132020FAD91092050110923E068DE595E00E94C2
S11320303D0180913E068823E1F30E946E0288E60A
S113204095E00E943D018FEF80930501E0ECF0E004
S1132050808185FFFDCF81E08093C6008091440696
S11320608823C1F020E030E0E0ECF0E046EC50E002
S1132070D901A55AB94F9C919068808185FFFDCF05
S1132080DA019C932F5F3F4F8091440690E028171C
S1132090390774F3E0ECF0E0808185FFFDCF82E046
S11320A08093C6008FE0809305010E946E0282E750
S11320B095E00E943D010E946E0288E795E00E942F
S11320C03D0115DF0E946E0286E895E00E943D0105
S11320D08091140690911506181619062CF5A6E1A0
S11320E0B6E020E030E0E0ECF0E066EC70E053E0D5
S11320F08D01D8019C910E5F1F4F808185FFFDCF1C
S1132100DB015C93492F4068808185FFFDCFDB01B3
S11321104C93909319022F5F3F4F80911406909136
S11321201506281739072CF30E946E0280E995E002
S11321300E943D01809141068823E1F380E092E012
S11321409093E1098093E009809144068823F1F09B
S113215000E010E0F801E55AF94F408150E022E038
S113216030E061E082E00E947601BFEFEFEFFCE235
S1132170B150E040F040E1F700C000000F5F1F4F96
S11321808091440690E00817190724F30E946E0218
S1132190A12C0F2EF6ECCF2ED12CF02D1982AA8271
S11321A021E02B831C82312C412C55245394B12CD7
S11321B048C3FC01EB5BF94FE081F0E0E55AF94FCD
S11321C080811F928F93AAE9B5E0BF93AF9356D550
S11321D0E0910E06F0910F06EB5BF94FE081F0E021
S11321E0E55AF94F808190E001979C01220F331F3B
S11321F0820F931F880F991F880F991F88559C4F32
S1132200D8DAE0910E06F0910F06EB5BF94FE0810E
S1132210F0E0E55AF94F408150E022E030E06CE014
S113222082E00E947601E0911702F0911802A091D9
S11322300E06B0910F06AB5BB94F8C91EE0FFF1FEA
S1132240E159F94F91819F9390819F931F928F93AE
S1132250A1EBB5E0BF93AF9311D5E0911702F091D4
S11322601802EE0FFF1FE159F94F0FB6F894DEBFC5
S11322700FBECDBF80819181892B09F449C1409162
S113228017025091180222E030E065E082E00E94DB
S11322907601E0911702F0911802EE0FFF1FEE0F86
S11322A0FF1FEE0FFF1FE753F94F0190F081E02D60
S11322B0EE0FFF1FE159F94F20813181E0911702A0
S11322C0F0911802EE0FFF1FEE0FFF1FEE0FFF1F1E
S11322D0E753F94F60807180E32CF42C852D9B2DFE
S11322E0E0911702F09118023197EE0FFF1FEE0FE5
S11322F0FF1FE80FF91FEE0FFF1FEF52F94F408148
S11323005181452B09F445C0E0911702F091180260
S11323103197EE0FFF1FEE0FFF1FE80FF91FEE0FAF
S1132320FF1FEF52F94F0190F081E02DEE0FFF1FD8
S1132330E159F94F408151814217530754F5E09117
S11323401702F09118023197EE0FFF1FEE0FFF1FD7
S1132350E80FF91FEE0FFF1FEF52F94F0190F081C4
S1132360E02DEE0FFF1FE159F94F20813181E091FB
S11323701702F09118023197EE0FFF1FEE0FFF1FA7
S1132380E80FF91FEE0FFF1FEF52F94F60807180C5
S11323907C0101968430910509F0A2CF47018301A5
S11323A022E030E0A30168E082E00E94760180919F
S11323B0150290E080179107D1F38091160290E006
S11323C080179107D1F3A0ECB0E08C9185FFFBCF8F
S11323D085E0F60180830068A0ECB0E08C9185FF75
S11323E0FBCFF6010083C401C4DB892B09F05BC079
S11323F0930189819A81E0911702F0911802319733
S1132400EE0FFF1FEE0FFF1FEE0DFF1DEE0FFF1F60
S1132410EF52F94F0190F081E02D3197EE0FFF1F3D
S1132420EE0FFF1FE80FF91FEE0FFF1FEF52F94FDA
S11324304081518142175307F9F4E0911702F0915A
S113244018023197EE0FFF1FEE0FFF1FEE0DFF1D59
S1132450EE0FFF1FEF52F94F0190F081E02D3197FD
S1132460EE0FFF1FEE0FFF1FE80FF91FEE0FFF1F08
S1132470EF52F94F1182108201968430910509F0D0
S1132480BACFE0911702F09118023197EE0FFF1FB7
S1132490EE0FFF1FEE0DFF1DEE0FFF1FEF52F94F62
S11324A01182108235C0E0911702F0911802319721
S11324B0EE0FFF1FEE0FFF1FE80DF91DEE0FFF1FBC
S11324C0EF52F94F80819181909318028093170203
S11324D02091170230911802A0ECB0E08C9185FF96
S11324E0FBCFF60120822068A0ECB0E08C9185FF40
S11324F0FBCFF6012083E0911702F0911802EE0F52
S1132500FF1FE159F94F80819181892B09F0B7CEE2
S1132510E0911702F0911802EE0FFF1FE159F94FF5
S113252080819181892B09F08FC1E0910E06F09191
S11325300F06EB5BF94F9081809143069813FBCF14
S1132540E0914306F0E0E55AF94FE08180911002F2
S11325509091110224E0E29FF0011124E05EFC4F0F
S1132560208131812817390789F0E0914306F0E092
S1132570E55AF94FE08134E0E39FF0011124E05E75
S1132580FC4F2281338182179307C9F4E0914306FB
S1132590F0E0E55AF94FE081A4E0EA9FF00111244C
S11325A0E05EFC4F208131818217930721F480E0A3
S11325B09A2D90DA03C181E090E08CDAFFC080E0CC
S11325C09A2DA6E0E0914306F0E0E55AF94F208108
S11325D030E021503109F901EE0FFF1FE20FF31F24
S11325E0EE0FFF1FE80FF91FEE0FFF1FE855FC4F1A
S11325F020813181232BE9F0E0914306F0E0E55A94
S1132600F94F4081209117023091180250E0415057
S11326105109A49FF001A59FF00D1124E80FF91FA3
S1132620EE0FFF1FE855FC4F4081518142175307BD
S113263031F001968430910529F680E09A2D20919D
S1132640170230911802E0914306F0E0E55AF94F81
S1132650E081220F331F220F331F220F331FD901B2
S1132660A753B94FF0E03197EE0FFF1FEE0FFF1F96
S1132670E80FF91FEE0FFF1FE45EFD4F2D913C9113
S1132680408151812417350759F101E010E0A091F0
S11326901702B0911802E0914306F0E0E55AF94FB1
S11326A0E0811197AA0FBB1FAA0FBB1FA00FB11F78
S11326B0AA0FBB1FAF52B94FF0E03197EE0FFF1FC7
S11326C0EE0FFF1FE80FF91FEE0FFF1FE45EFD4F33
S11326D04D915C912081318142175307A9F402C0C6
S11326E000E01A2DE0911702F09118023197EE0FD5
S11326F0FF1FEE0FFF1FE00FF11FEE0FFF1FEF5242
S1132700F94F6080718008C00F5F1F4F04301105BE
S113271009F0BDCF00E01A2DBB81B0931006EC8107
S1132720E09311068091150290E086159705D1F388
S11327308091160290E086159705D1F3862DA0ECC2
S1132740B0E09C9195FFFBCF95E0F6019083806803
S1132750A0ECB0E09C9195FFFBCFF6018083C8010B
S113276008DA019759F5E0911702F09118023197B0
S1132770EE0FFF1FEE0FFF1FE00FF11FEE0FFF1F05
S1132780EF52F94F80819181909318028093170240
S113279080911702909118029C01A0ECB0E09C91EA
S11327A095FFFBCFC90194E0F60190838068A0EC0B
S11327B0B0E09C9195FFFBCFF6018083E0910E067B
S11327C0F0910F06EB5BF94FE081F0E0E55AF94F29
S11327D080811F928F9383ED95E09F938F934ED2C8
S11327E00E94270AFFEF2FE736E1F15020403040E6
S11327F0E1F700C000000E942B0A80910E06909120
S11328000F06019690930F0680930E06809143065F
S11328100F900F900F900F90A0ECB0E09C9195FF5B
S1132820FBCF96E0F60190838068A0ECB0E09C9129
S113283095FFFBCFF6018083809143068F5F8093E1
S113284043066894222422F8E0914306F0E0E55A16
S1132850F94F8081882359F02091410680910E061A
S113286090910F0630E02817390709F0A2CC81EFC8
S113287095E017D2E0ECF0E0808185FFFDCF8AE09F
S11328808093C600E0ECF0E0808185FFFDCF80E816
S11328908093C60080911206909113060197D1F798
S11328A00E94270AFFEF2FEF30EE80E0F150204026
S11328B030408040D9F700C000000E942B0A80E01D
S11328C090E00F900F900F900F90DF91CF911F9198
S11328D00F91FF90EF90DF90CF90BF90AF909F90BB
S11328E08F907F906F905F904F903F902F900895BE
S11328F05058BB27AA270ED048C139D130F03ED159
S113290020F031F49F3F11F41EF42EC10EF4E09533
S1132910E7FB24C1E92F4AD180F3BA176207730792
S11329208407950718F071F49EF562C10EF4E095E2
S11329300B2EBA2FA02D0B01B90190010C01CA0175
S1132940A0011124FF27591B99F0593F50F4503E20
S113295068F11A16F040A22F232F342F4427585F12
S1132960F3CF469537952795A795F0405395C9F72A
S11329707EF41F16BA0B620B730B840BBAF09150E2
S1132980A1F0FF0FBB1F661F771F881FC2F70EC081
S1132990BA0F621F731F841F48F487957795679554
S11329A0B795F7959E3F08F0B3CF9395880F08F03D
S11329B09927EE0F9795879508950CD0E6C0DED041
S11329C040F0D5D030F021F45F3F19F0C7C0511169
S11329D010C1CAC0EBD098F39923C9F35523B1F3BE
S11329E0951B550BBB27AA2762177307840738F07A
S11329F09F5F5F4F220F331F441FAA1FA9F333D0D9
S1132A000E2E3AF0E0E830D091505040E695001C8C
S1132A10CAF729D0FE2F27D0660F771F881FBB1F48
S1132A20261737074807AB07B0E809F0BB0B802D22
S1132A30BF01FF2793585F4F2AF09E3F510568F06E
S1132A408DC0D7C05F3FECF3983EDCF38695779555
S1132A506795B795F7959F5FC9F7880F911D969570
S1132A60879597F90895E1E0660F771F881FBB1FCC
S1132A70621773078407BA0720F0621B730B840B79
S1132A80BA0BEE1F88F7E095089598D088F09F5709
S1132A9090F0B92F9927B751A0F0D1F0660F771FA6
S1132AA0881F991F1AF0BA95C9F712C0B13081F086
S1132AB09FD0B1E008959CC0672F782F8827B85F16
S1132AC039F0B93FCCF3869577956795B395D9F7E7
S1132AD03EF490958095709561957F4F8F4F9F4FF1
S1132AE00895E89409C097FB3EF4909580957095FD
S1132AF061957F4F8F4F9F4F9923A9F0F92F96E946
S1132B00BB279395F695879577956795B795F111BA
S1132B10F8CFFAF4BB0F11F460FF1BC06F5F7F4F57
S1132B208F4F9F4F16C0882311F096E911C0772369
S1132B3021F09EE8872F762F05C0662371F096E872
S1132B40862F70E060E02AF09A95660F771F881F41
S1132B50DAF7880F9695879597F9089597F99F67FF
S1132B6080E870E060E008959FEF80EC0895002411
S1132B700A941616170618060906089500240A94DE
S1132B8012161306140605060895092E0394000C64
S1132B9011F4882352F0BB0F40F4BF2B11F460FFF3
S1132BA004C06F5F7F4F8F4F9F4F089557FD90581C
S1132BB0440F551F59F05F3F71F04795880F97FBFD
S1132BC0991F61F09F3F79F08795089512161306B7
S1132BD01406551FF2CF4695F1DF08C016161706E6
S1132BE01806991FF1CF869571056105089408951B
S1132BF0E894BB2766277727CB0197F9089503D07C
S1132C0008F48FEF0895990F0008550FAA0BE0E818
S1132C10FEEF16161706E807F907C0F0121613069A
S1132C20E407F50798F0621B730B840B950B39F4DA
S1132C300A2661F0232B242B252B21F408950A2640
S1132C4009F4A140A6958FEF811D811D0895EE0F13
S1132C50FF1F881F8BBF0790F691E02D1994A29F48
S1132C60B001B39FC001A39F700D811D1124911D5C
S1132C70B29F700D811D1124911D0895CF93DF9390
S1132C80CDB7DEB7AE014A5F5F4FFA016191719132
S1132C90AF018091E0099091E10933D0DF91CF91A8
S1132CA008950F931F93CF93DF93E091E009F09180
S1132CB0E109238121FF1BC08C01D0E0C0E0F801B1
S1132CC081918F016091E0097091E109DB0118960F
S1132CD0ED91FC911997882331F01995892B79F39B
S1132CE0DFEFCFEFECCF8AE01995892B19F08FEF46
S1132CF09FEF02C08D2F9C2FDF91CF911F910F91D9
S1132D0008952F923F924F925F926F927F928F928B
S1132D109F92AF92BF92CF92DF92EF92FF920F9366
S1132D201F93CF93DF93CDB7DEB72C970FB6F894EC
S1132D30DEBF0FBECDBF7C016B018A01FC0117828F
S1132D401682838181FFB0C1CE0101964C01F70147
S1132D509381F60193FD859193FF81916F018823FF
S1132D6009F49EC1853239F493FD859193FF8191D5
S1132D706F01853221F4B70190E0C7D1E8CF512C1F
S1132D80312C20E02032A0F48B3269F030F4803210
S1132D9059F0833269F420612CC08D3239F08033CC
S1132DA039F4216026C02260246023C0286021C039
S1132DB027FD27C030ED380F3A3078F426FF06C0DF
S1132DC0FAE05F9E300D1124532E13C08AE0389E22
S1132DD0300D1124332E20620CC08E3221F426FDD6
S1132DE05FC1206406C08C3611F4206802C08836A6
S1132DF041F4F60193FD859193FF81916F01811157
S1132E00C1CF982F9F7D9554933028F40C5F1F4FAA
S1132E10FFE3F9830DC0833631F0833771F08335D6
S1132E2009F057C021C0F801808189830E5F1F4FCC
S1132E3044244394512C540114C03801F2E06F0E21
S1132E40711CF801A080B18026FF03C0652D70E0DD
S1132E5002C06FEF7FEFC5012C874CD12C01830199
S1132E602C852F77222E16C03801F2E06F0E711CCC
S1132E70F801A080B18026FF03C0652D70E002C078
S1132E806FEF7FEFC5012C872AD12C012C85206898
S1132E90222E830123FC19C0832D90E04816590685
S1132EA0A0F4B70180E290E030D13A94F5CFF50177
S1132EB027FC859127FE81915F01B70190E025D120
S1132EC031103A94F1E04F1A51084114510479F742
S1132ED0DEC0843611F0893631F5F80127FF07C0CA
S1132EE060817181828193810C5F1F4F08C0608172
S1132EF07181072E000C880B990B0E5F1F4F2F76E4
S1132F00722E97FF09C090958095709561957F4FBB
S1132F108F4F9F4F2068722E2AE030E0A4012DD1FC
S1132F20A82EA81843C0853729F42F7EB22E2AE094
S1132F3030E025C0F22FF97FBF2E8F36C1F018F490
S1132F40883579F0ADC0803719F0883721F0A8C0F2
S1132F502F2F2061B22EB4FE0DC08B2D8460B82EAD
S1132F6009C024FF0AC09F2F9660B92E06C028E02E
S1132F7030E005C020E130E002C020E132E0F80199
S1132F80B7FE07C060817181828193810C5F1F4FFE
S1132F9006C06081718180E090E00E5F1F4FA40144
S1132FA0ECD0A82EA818FB2DFF777F2E76FE0BC041
S1132FB0372D3E7FA51450F474FE0AC072FC08C07D
S1132FC0372D3E7E05C0BA2C372D03C0BA2C01C064
S1132FD0B52C34FF0DC0FE01EA0DF11D8081803354
S1132FE011F4397E09C032FF06C0B394B39404C00F
S1132FF0832F867809F0B39433FD12C030FF06C0E6
S11330005A2CB31418F4530C5B18B32CB31460F497
S1133010B70180E290E03C8778D0B3943C85F6CF4A
S1133020B31410F43B1801C0312C34FF11C0B701A4
S113303080E390E03C8769D03C8532FF16C031FDC7
S113304003C088E790E002C088E590E0B7010CC0B7
S1133050832F867851F031FF02C08BE201C080E2F9
S113306037FD8DE2B70190E050D0A51430F4B701DC
S113307080E390E04AD05A94F8CFAA94F401EA0D80
S1133080F11D8081B70190E040D0A110F6CF33202C
S113309009F45DCEB70180E290E037D03A94F7CFDF
S11330A0F7018681978102C08FEF9FEF2C960FB6B0
S11330B0F894DEBF0FBECDBFDF91CF911F910F916A
S11330C0FF90EF90DF90CF90BF90AF909F908F9044
S11330D07F906F905F904F903F902F900895FC01E8
S11330E00590615070400110D8F7809590958E0F2F
S11330F09F1F0895FC016150704001900110D8F7A2
S1133100809590958E0F9F1F08950F931F93CF93D3
S1133110DF93FB01238121FD03C08FEF9FEF28C0C4
S113312022FF16C0468157812481358142175307F7
S113313044F4A081B1819D012F5F3F4F31832083EF
S11331408C93268137812F5F3F4F3783268310C0AE
S1133150EB01092F182F0084F185E02D1995892B97
S1133160E1F68E819F8101969F838E83812F902F1C
S1133170DF91CF911F910F910895FA01AA2728306A
S113318051F1203181F1E8946F936E7F6E5F7F4F30
S11331908F4F9F4FAF4FB1E03ED0B4E03CD0670FAC
S11331A0781F891F9A1FA11D680F791F8A1F911DFF
S11331B0A11D6A0F711D811D911DA11D20D009F44F
S11331C068943F912AE0269F11243019305D319391
S11331D0DEF6CF010895462F4770405D4193B3E07A
S11331E00FD0C9F7F6CF462F4F70405D4A3318F021
S11331F0495D31FD4052419302D0A9F7EACFB4E0D2
S1133200A6959795879577956795BA95C9F7009789
S11332106105710508959B01AC010A2E069457952A
S1133220479537952795BA95C9F7620F731F841F81
S10D3230951FA01D0895F894FFCF28
S113323A00000002000000009E000000000064007C
S113324A5A002300FF0D0D01000D010001000000CA
S113325A000000000200000000000000040000005A
S113326A0000000004000000000000000500000047
S113327A0000000006000000000000000800000032
S113328A000000000800000000000000090000001F
S113329A000000000A000000000000000C0000000A
S11332AA000000000C000000000000000D000000F7
S11332BA000000000E0000000000000010000000E2
S11332CA00000000100000000000000011000000CF
S11332DA00000000120000000000000014000000BA
S11332EA00000000140000000000000015000000A7
S11332FA0000000016000000000000001800000092
S113330A0000000018000000000000000100000096
S113331A00000000240019002C002B000500000006
S113332A0000000009000000000000001D001C004D
S113333A2E002D000D000000000000001100000006
S113334A000000002100200030002F0015000000BA
S113335A000000005A00FF004B00F0003C00E100AE
S113336A2D00D2001E00C3000F00B4000000A50007
S113337A590196004A0187003B0178002C01690033
S113338A1D015A000E014B00FF003C00F0002D0005
S113339AE1001E00D2000F00C3000000B40059016E
S11333AAA5004A0196003B0187002C0178005A00C7
S11333BA69001D01FF005A00F0003C00C3001E0012
S11333CA87004A0178002C014B000E010F00D2003D
S11333DA0000B4003B019600010000000000000058
S11333EA00000000020000000000000000000000CD
S11333FA03000000000000000000000004000000B8
S113340A00000000000000000500000000000000A9
S113341A0000000006000000000000000000000098
S113342A070000000000000000000000080000007F
S113343A0000000000000000090000000000000075
S113344A000000000A000000000000000000000064
S113345A0B00000000000000000000000C00000047
S113346A00000000000000000D0000000000000041
S113347A000000000E000000000000000000000030
S113348A0F0000000000000000000000100000000F
S113349A000000000000000011000000000000000D
S11334AA00000000120000000000000000000000FC
S11334BA13000000000000000000000014000000D7
S11334CA00000000000000001500000000000000D9
S11334DA00000000160000000000000000000000C8
S11334EA170000000000000000000000180000009F
S11334FA00000000000000000100000000000000BD
S113350A00000000190024002B002C000000000019
S113351A050000000000000000000000090000008F
S113352A00000000000000001C001D002D002E00F9
S113353A000000000D000000000000000000000070
S113354A110000000000000000000000200021001B
S113355A2F003000000000001500000000000000E9
S113356A00000000202020202020202020202020CD
S113357A202020202020202020202020202020203D
S113358A202020202020202020202020005761698C
S113359A74696E672E2E2E005265636569766564BA
S11335AA210053656E74210053656E64696E672049
S11335BA5461736B730050726F636573736564004F
S11335CA5461736B2053656E740043757272656E31
S11335DA74205461736B204E6F64653D2564200A20
S11335EA00436F737420506C616E6E656420666F5D
S11335FA72207461736B203D256420436F73743D9C
S113360A256400526561636865642044657374695E
S113361A6E6174696F6E206E6F64653D2564200A5D
S113362A00476F6E6E61206265204F7574212121F7
S105363A00008A
S9030000FC
